{
	"contracts/CustomToken.sol": {
		"CustomToken": {
			"abi": [
				{
					"inputs": [
						{
							"internalType": "string",
							"name": "name",
							"type": "string"
						},
						{
							"internalType": "string",
							"name": "symbol",
							"type": "string"
						},
						{
							"internalType": "string",
							"name": "_imageURI",
							"type": "string"
						},
						{
							"internalType": "uint256",
							"name": "_amount",
							"type": "uint256"
						}
					],
					"stateMutability": "nonpayable",
					"type": "constructor"
				},
				{
					"inputs": [
						{
							"internalType": "address",
							"name": "spender",
							"type": "address"
						},
						{
							"internalType": "uint256",
							"name": "allowance",
							"type": "uint256"
						},
						{
							"internalType": "uint256",
							"name": "needed",
							"type": "uint256"
						}
					],
					"name": "ERC20InsufficientAllowance",
					"type": "error"
				},
				{
					"inputs": [
						{
							"internalType": "address",
							"name": "sender",
							"type": "address"
						},
						{
							"internalType": "uint256",
							"name": "balance",
							"type": "uint256"
						},
						{
							"internalType": "uint256",
							"name": "needed",
							"type": "uint256"
						}
					],
					"name": "ERC20InsufficientBalance",
					"type": "error"
				},
				{
					"inputs": [
						{
							"internalType": "address",
							"name": "approver",
							"type": "address"
						}
					],
					"name": "ERC20InvalidApprover",
					"type": "error"
				},
				{
					"inputs": [
						{
							"internalType": "address",
							"name": "receiver",
							"type": "address"
						}
					],
					"name": "ERC20InvalidReceiver",
					"type": "error"
				},
				{
					"inputs": [
						{
							"internalType": "address",
							"name": "sender",
							"type": "address"
						}
					],
					"name": "ERC20InvalidSender",
					"type": "error"
				},
				{
					"inputs": [
						{
							"internalType": "address",
							"name": "spender",
							"type": "address"
						}
					],
					"name": "ERC20InvalidSpender",
					"type": "error"
				},
				{
					"inputs": [
						{
							"internalType": "address",
							"name": "owner",
							"type": "address"
						}
					],
					"name": "OwnableInvalidOwner",
					"type": "error"
				},
				{
					"inputs": [
						{
							"internalType": "address",
							"name": "account",
							"type": "address"
						}
					],
					"name": "OwnableUnauthorizedAccount",
					"type": "error"
				},
				{
					"anonymous": false,
					"inputs": [
						{
							"indexed": true,
							"internalType": "address",
							"name": "owner",
							"type": "address"
						},
						{
							"indexed": true,
							"internalType": "address",
							"name": "spender",
							"type": "address"
						},
						{
							"indexed": false,
							"internalType": "uint256",
							"name": "value",
							"type": "uint256"
						}
					],
					"name": "Approval",
					"type": "event"
				},
				{
					"anonymous": false,
					"inputs": [
						{
							"indexed": true,
							"internalType": "address",
							"name": "previousOwner",
							"type": "address"
						},
						{
							"indexed": true,
							"internalType": "address",
							"name": "newOwner",
							"type": "address"
						}
					],
					"name": "OwnershipTransferred",
					"type": "event"
				},
				{
					"anonymous": false,
					"inputs": [
						{
							"indexed": true,
							"internalType": "address",
							"name": "from",
							"type": "address"
						},
						{
							"indexed": true,
							"internalType": "address",
							"name": "to",
							"type": "address"
						},
						{
							"indexed": false,
							"internalType": "uint256",
							"name": "value",
							"type": "uint256"
						}
					],
					"name": "Transfer",
					"type": "event"
				},
				{
					"inputs": [
						{
							"internalType": "address",
							"name": "owner",
							"type": "address"
						},
						{
							"internalType": "address",
							"name": "spender",
							"type": "address"
						}
					],
					"name": "allowance",
					"outputs": [
						{
							"internalType": "uint256",
							"name": "",
							"type": "uint256"
						}
					],
					"stateMutability": "view",
					"type": "function"
				},
				{
					"inputs": [
						{
							"internalType": "address",
							"name": "spender",
							"type": "address"
						},
						{
							"internalType": "uint256",
							"name": "value",
							"type": "uint256"
						}
					],
					"name": "approve",
					"outputs": [
						{
							"internalType": "bool",
							"name": "",
							"type": "bool"
						}
					],
					"stateMutability": "nonpayable",
					"type": "function"
				},
				{
					"inputs": [
						{
							"internalType": "address",
							"name": "account",
							"type": "address"
						}
					],
					"name": "balanceOf",
					"outputs": [
						{
							"internalType": "uint256",
							"name": "",
							"type": "uint256"
						}
					],
					"stateMutability": "view",
					"type": "function"
				},
				{
					"inputs": [
						{
							"internalType": "uint256",
							"name": "amount",
							"type": "uint256"
						}
					],
					"name": "burn",
					"outputs": [],
					"stateMutability": "nonpayable",
					"type": "function"
				},
				{
					"inputs": [],
					"name": "decimals",
					"outputs": [
						{
							"internalType": "uint8",
							"name": "",
							"type": "uint8"
						}
					],
					"stateMutability": "view",
					"type": "function"
				},
				{
					"inputs": [],
					"name": "imageURI",
					"outputs": [
						{
							"internalType": "string",
							"name": "",
							"type": "string"
						}
					],
					"stateMutability": "view",
					"type": "function"
				},
				{
					"inputs": [
						{
							"internalType": "address",
							"name": "to",
							"type": "address"
						},
						{
							"internalType": "uint256",
							"name": "amount",
							"type": "uint256"
						}
					],
					"name": "mint",
					"outputs": [],
					"stateMutability": "nonpayable",
					"type": "function"
				},
				{
					"inputs": [],
					"name": "name",
					"outputs": [
						{
							"internalType": "string",
							"name": "",
							"type": "string"
						}
					],
					"stateMutability": "view",
					"type": "function"
				},
				{
					"inputs": [],
					"name": "owner",
					"outputs": [
						{
							"internalType": "address",
							"name": "",
							"type": "address"
						}
					],
					"stateMutability": "view",
					"type": "function"
				},
				{
					"inputs": [],
					"name": "renounceOwnership",
					"outputs": [],
					"stateMutability": "nonpayable",
					"type": "function"
				},
				{
					"inputs": [
						{
							"internalType": "string",
							"name": "newImageURI",
							"type": "string"
						}
					],
					"name": "setImageURI",
					"outputs": [],
					"stateMutability": "nonpayable",
					"type": "function"
				},
				{
					"inputs": [],
					"name": "symbol",
					"outputs": [
						{
							"internalType": "string",
							"name": "",
							"type": "string"
						}
					],
					"stateMutability": "view",
					"type": "function"
				},
				{
					"inputs": [],
					"name": "totalSupply",
					"outputs": [
						{
							"internalType": "uint256",
							"name": "",
							"type": "uint256"
						}
					],
					"stateMutability": "view",
					"type": "function"
				},
				{
					"inputs": [
						{
							"internalType": "address",
							"name": "to",
							"type": "address"
						},
						{
							"internalType": "uint256",
							"name": "value",
							"type": "uint256"
						}
					],
					"name": "transfer",
					"outputs": [
						{
							"internalType": "bool",
							"name": "",
							"type": "bool"
						}
					],
					"stateMutability": "nonpayable",
					"type": "function"
				},
				{
					"inputs": [
						{
							"internalType": "address",
							"name": "from",
							"type": "address"
						},
						{
							"internalType": "address",
							"name": "to",
							"type": "address"
						},
						{
							"internalType": "uint256",
							"name": "value",
							"type": "uint256"
						}
					],
					"name": "transferFrom",
					"outputs": [
						{
							"internalType": "bool",
							"name": "",
							"type": "bool"
						}
					],
					"stateMutability": "nonpayable",
					"type": "function"
				},
				{
					"inputs": [
						{
							"internalType": "address",
							"name": "newOwner",
							"type": "address"
						}
					],
					"name": "transferOwnership",
					"outputs": [],
					"stateMutability": "nonpayable",
					"type": "function"
				}
			],
			"devdoc": {
				"details": "Extends ERC20 functionality with image metadata and minting/burning capabilities",
				"errors": {
					"ERC20InsufficientAllowance(address,uint256,uint256)": [
						{
							"details": "Indicates a failure with the `spender`’s `allowance`. Used in transfers.",
							"params": {
								"allowance": "Amount of tokens a `spender` is allowed to operate with.",
								"needed": "Minimum amount required to perform a transfer.",
								"spender": "Address that may be allowed to operate on tokens without being their owner."
							}
						}
					],
					"ERC20InsufficientBalance(address,uint256,uint256)": [
						{
							"details": "Indicates an error related to the current `balance` of a `sender`. Used in transfers.",
							"params": {
								"balance": "Current balance for the interacting account.",
								"needed": "Minimum amount required to perform a transfer.",
								"sender": "Address whose tokens are being transferred."
							}
						}
					],
					"ERC20InvalidApprover(address)": [
						{
							"details": "Indicates a failure with the `approver` of a token to be approved. Used in approvals.",
							"params": {
								"approver": "Address initiating an approval operation."
							}
						}
					],
					"ERC20InvalidReceiver(address)": [
						{
							"details": "Indicates a failure with the token `receiver`. Used in transfers.",
							"params": {
								"receiver": "Address to which tokens are being transferred."
							}
						}
					],
					"ERC20InvalidSender(address)": [
						{
							"details": "Indicates a failure with the token `sender`. Used in transfers.",
							"params": {
								"sender": "Address whose tokens are being transferred."
							}
						}
					],
					"ERC20InvalidSpender(address)": [
						{
							"details": "Indicates a failure with the `spender` to be approved. Used in approvals.",
							"params": {
								"spender": "Address that may be allowed to operate on tokens without being their owner."
							}
						}
					],
					"OwnableInvalidOwner(address)": [
						{
							"details": "The owner is not a valid owner account. (eg. `address(0)`)"
						}
					],
					"OwnableUnauthorizedAccount(address)": [
						{
							"details": "The caller account is not authorized to perform an operation."
						}
					]
				},
				"events": {
					"Approval(address,address,uint256)": {
						"details": "Emitted when the allowance of a `spender` for an `owner` is set by a call to {approve}. `value` is the new allowance."
					},
					"Transfer(address,address,uint256)": {
						"details": "Emitted when `value` tokens are moved from one account (`from`) to another (`to`). Note that `value` may be zero."
					}
				},
				"kind": "dev",
				"methods": {
					"allowance(address,address)": {
						"details": "See {IERC20-allowance}."
					},
					"approve(address,uint256)": {
						"details": "See {IERC20-approve}. NOTE: If `value` is the maximum `uint256`, the allowance is not updated on `transferFrom`. This is semantically equivalent to an infinite approval. Requirements: - `spender` cannot be the zero address."
					},
					"balanceOf(address)": {
						"details": "See {IERC20-balanceOf}."
					},
					"burn(uint256)": {
						"details": "Can be called by any token holder",
						"params": {
							"amount": "Amount of tokens to burn (including decimals)"
						}
					},
					"constructor": {
						"details": "Initializes the token with initial supply and image URI",
						"params": {
							"_amount": "Initial supply (before decimals)",
							"_imageURI": "Token image URI",
							"name": "Token name",
							"symbol": "Token symbol"
						}
					},
					"decimals()": {
						"details": "Returns the number of decimals used to get its user representation. For example, if `decimals` equals `2`, a balance of `505` tokens should be displayed to a user as `5.05` (`505 / 10 ** 2`). Tokens usually opt for a value of 18, imitating the relationship between Ether and Wei. This is the default value returned by this function, unless it's overridden. NOTE: This information is only used for _display_ purposes: it in no way affects any of the arithmetic of the contract, including {IERC20-balanceOf} and {IERC20-transfer}."
					},
					"mint(address,uint256)": {
						"details": "Only callable by contract owner",
						"params": {
							"amount": "Amount of tokens to mint (including decimals)",
							"to": "Address to receive the minted tokens"
						}
					},
					"name()": {
						"details": "Returns the name of the token."
					},
					"owner()": {
						"details": "Returns the address of the current owner."
					},
					"renounceOwnership()": {
						"details": "Leaves the contract without owner. It will not be possible to call `onlyOwner` functions. Can only be called by the current owner. NOTE: Renouncing ownership will leave the contract without an owner, thereby disabling any functionality that is only available to the owner."
					},
					"setImageURI(string)": {
						"details": "Only callable by contract owner",
						"params": {
							"newImageURI": "New URI to set for the token image"
						}
					},
					"symbol()": {
						"details": "Returns the symbol of the token, usually a shorter version of the name."
					},
					"totalSupply()": {
						"details": "See {IERC20-totalSupply}."
					},
					"transfer(address,uint256)": {
						"details": "See {IERC20-transfer}. Requirements: - `to` cannot be the zero address. - the caller must have a balance of at least `value`."
					},
					"transferFrom(address,address,uint256)": {
						"details": "See {IERC20-transferFrom}. Skips emitting an {Approval} event indicating an allowance update. This is not required by the ERC. See {xref-ERC20-_approve-address-address-uint256-bool-}[_approve]. NOTE: Does not update the allowance if the current allowance is the maximum `uint256`. Requirements: - `from` and `to` cannot be the zero address. - `from` must have a balance of at least `value`. - the caller must have allowance for ``from``'s tokens of at least `value`."
					},
					"transferOwnership(address)": {
						"details": "Transfers ownership of the contract to a new account (`newOwner`). Can only be called by the current owner."
					}
				},
				"stateVariables": {
					"imageURI": {
						"details": "This can be updated by the contract owner"
					}
				},
				"title": "CustomToken - An ERC20 token with image URI support",
				"version": 1
			},
			"evm": {
				"assembly": "    /* \"contracts/CustomToken.sol\":329:2379  contract CustomToken is ERC20, Ownable {... */\n  mstore(0x40, 0x80)\n    /* \"contracts/CustomToken.sol\":786:1310  constructor(... */\n  callvalue\n  dup1\n  iszero\n  tag_1\n  jumpi\n  0x00\n  dup1\n  revert\ntag_1:\n  pop\n  mload(0x40)\n  sub(codesize, bytecodeSize)\n  dup1\n  bytecodeSize\n  dup4\n  codecopy\n  dup2\n  dup2\n  add\n  0x40\n  mstore\n  dup2\n  add\n  swap1\n  tag_2\n  swap2\n  swap1\n  tag_3\n  jump\t// in\ntag_2:\n    /* \"contracts/CustomToken.sol\":953:963  msg.sender */\n  caller\n    /* \"contracts/CustomToken.sol\":931:935  name */\n  dup5\n    /* \"contracts/CustomToken.sol\":937:943  symbol */\n  dup5\n    /* \"@openzeppelin/contracts/token/ERC20/ERC20.sol\":1675:1680  name_ */\n  dup2\n    /* \"@openzeppelin/contracts/token/ERC20/ERC20.sol\":1667:1672  _name */\n  0x03\n    /* \"@openzeppelin/contracts/token/ERC20/ERC20.sol\":1667:1680  _name = name_ */\n  swap1\n  dup2\n  tag_8\n  swap2\n  swap1\n  tag_9\n  jump\t// in\ntag_8:\n  pop\n    /* \"@openzeppelin/contracts/token/ERC20/ERC20.sol\":1700:1707  symbol_ */\n  dup1\n    /* \"@openzeppelin/contracts/token/ERC20/ERC20.sol\":1690:1697  _symbol */\n  0x04\n    /* \"@openzeppelin/contracts/token/ERC20/ERC20.sol\":1690:1707  _symbol = symbol_ */\n  swap1\n  dup2\n  tag_10\n  swap2\n  swap1\n  tag_9\n  jump\t// in\ntag_10:\n  pop\n    /* \"@openzeppelin/contracts/token/ERC20/ERC20.sol\":1601:1714  constructor(string memory name_, string memory symbol_) {... */\n  pop\n  pop\n    /* \"@openzeppelin/contracts/access/Ownable.sol\":1297:1298  0 */\n  0x00\n    /* \"@openzeppelin/contracts/access/Ownable.sol\":1273:1299  initialOwner == address(0) */\n  0xffffffffffffffffffffffffffffffffffffffff\n  and\n    /* \"@openzeppelin/contracts/access/Ownable.sol\":1273:1285  initialOwner */\n  dup2\n    /* \"@openzeppelin/contracts/access/Ownable.sol\":1273:1299  initialOwner == address(0) */\n  0xffffffffffffffffffffffffffffffffffffffff\n  and\n  sub\n    /* \"@openzeppelin/contracts/access/Ownable.sol\":1269:1364  if (initialOwner == address(0)) {... */\n  tag_12\n  jumpi\n    /* \"@openzeppelin/contracts/access/Ownable.sol\":1350:1351  0 */\n  0x00\n    /* \"@openzeppelin/contracts/access/Ownable.sol\":1322:1353  OwnableInvalidOwner(address(0)) */\n  mload(0x40)\n  0x1e4fbdf700000000000000000000000000000000000000000000000000000000\n  dup2\n  mstore\n  0x04\n  add\n  tag_13\n  swap2\n  swap1\n  tag_14\n  jump\t// in\ntag_13:\n  mload(0x40)\n  dup1\n  swap2\n  sub\n  swap1\n  revert\n    /* \"@openzeppelin/contracts/access/Ownable.sol\":1269:1364  if (initialOwner == address(0)) {... */\ntag_12:\n    /* \"@openzeppelin/contracts/access/Ownable.sol\":1373:1405  _transferOwnership(initialOwner) */\n  tag_15\n    /* \"@openzeppelin/contracts/access/Ownable.sol\":1392:1404  initialOwner */\n  dup2\n    /* \"@openzeppelin/contracts/access/Ownable.sol\":1373:1391  _transferOwnership */\n  shl(0x20, tag_16)\n    /* \"@openzeppelin/contracts/access/Ownable.sol\":1373:1405  _transferOwnership(initialOwner) */\n  0x20\n  shr\n  jump\t// in\ntag_15:\n    /* \"@openzeppelin/contracts/access/Ownable.sol\":1225:1412  constructor(address initialOwner) {... */\n  pop\n    /* \"contracts/CustomToken.sol\":1007:1008  0 */\n  0x00\n    /* \"contracts/CustomToken.sol\":986:995  _imageURI */\n  dup3\n    /* \"contracts/CustomToken.sol\":980:1003  bytes(_imageURI).length */\n  mload\n    /* \"contracts/CustomToken.sol\":980:1008  bytes(_imageURI).length == 0 */\n  sub\n    /* \"contracts/CustomToken.sol\":976:1029  if (bytes(_imageURI).length == 0) revert(\"Empty URI\") */\n  tag_18\n  jumpi\n    /* \"contracts/CustomToken.sol\":1010:1029  revert(\"Empty URI\") */\n  mload(0x40)\n  0x08c379a000000000000000000000000000000000000000000000000000000000\n  dup2\n  mstore\n  0x04\n  add\n  tag_19\n  swap1\n  tag_20\n  jump\t// in\ntag_19:\n  mload(0x40)\n  dup1\n  swap2\n  sub\n  swap1\n  revert\n    /* \"contracts/CustomToken.sol\":976:1029  if (bytes(_imageURI).length == 0) revert(\"Empty URI\") */\ntag_18:\n    /* \"contracts/CustomToken.sol\":1051:1060  _imageURI */\n  dup2\n    /* \"contracts/CustomToken.sol\":1040:1048  imageURI */\n  0x06\n    /* \"contracts/CustomToken.sol\":1040:1060  imageURI = _imageURI */\n  swap1\n  dup2\n  tag_21\n  swap2\n  swap1\n  tag_9\n  jump\t// in\ntag_21:\n  pop\n    /* \"contracts/CustomToken.sol\":1081:1100  uint8 decimalsValue */\n  0x00\n    /* \"contracts/CustomToken.sol\":1103:1113  decimals() */\n  tag_22\n    /* \"contracts/CustomToken.sol\":1103:1111  decimals */\n  shl(0x20, tag_23)\n    /* \"contracts/CustomToken.sol\":1103:1113  decimals() */\n  0x20\n  shr\n  jump\t// in\ntag_22:\n    /* \"contracts/CustomToken.sol\":1081:1113  uint8 decimalsValue = decimals() */\n  swap1\n  pop\n    /* \"contracts/CustomToken.sol\":1165:1178  decimalsValue */\n  dup1\n    /* \"contracts/CustomToken.sol\":1159:1161  10 */\n  0x0a\n    /* \"contracts/CustomToken.sol\":1159:1178  10 ** decimalsValue */\n  tag_24\n  swap2\n  swap1\n  tag_25\n  jump\t// in\ntag_24:\n    /* \"contracts/CustomToken.sol\":1138:1155  type(uint256).max */\n  0xffffffffffffffffffffffffffffffffffffffffffffffffffffffffffffffff\n    /* \"contracts/CustomToken.sol\":1138:1179  type(uint256).max / (10 ** decimalsValue) */\n  tag_26\n  swap2\n  swap1\n  tag_27\n  jump\t// in\ntag_26:\n    /* \"contracts/CustomToken.sol\":1128:1135  _amount */\n  dup3\n    /* \"contracts/CustomToken.sol\":1128:1179  _amount > type(uint256).max / (10 ** decimalsValue) */\n  gt\n    /* \"contracts/CustomToken.sol\":1124:1234  if (_amount > type(uint256).max / (10 ** decimalsValue)) {... */\n  iszero\n  tag_28\n  jumpi\n    /* \"contracts/CustomToken.sol\":1196:1222  revert(\"Amount too large\") */\n  mload(0x40)\n  0x08c379a000000000000000000000000000000000000000000000000000000000\n  dup2\n  mstore\n  0x04\n  add\n  tag_29\n  swap1\n  tag_30\n  jump\t// in\ntag_29:\n  mload(0x40)\n  dup1\n  swap2\n  sub\n  swap1\n  revert\n    /* \"contracts/CustomToken.sol\":1124:1234  if (_amount > type(uint256).max / (10 ** decimalsValue)) {... */\ntag_28:\n    /* \"contracts/CustomToken.sol\":1254:1302  _mint(msg.sender, _amount * 10 ** decimalsValue) */\n  tag_31\n    /* \"contracts/CustomToken.sol\":1260:1270  msg.sender */\n  caller\n    /* \"contracts/CustomToken.sol\":1288:1301  decimalsValue */\n  dup3\n    /* \"contracts/CustomToken.sol\":1282:1284  10 */\n  0x0a\n    /* \"contracts/CustomToken.sol\":1282:1301  10 ** decimalsValue */\n  tag_32\n  swap2\n  swap1\n  tag_25\n  jump\t// in\ntag_32:\n    /* \"contracts/CustomToken.sol\":1272:1279  _amount */\n  dup5\n    /* \"contracts/CustomToken.sol\":1272:1301  _amount * 10 ** decimalsValue */\n  tag_33\n  swap2\n  swap1\n  tag_34\n  jump\t// in\ntag_33:\n    /* \"contracts/CustomToken.sol\":1254:1259  _mint */\n  shl(0x20, tag_35)\n    /* \"contracts/CustomToken.sol\":1254:1302  _mint(msg.sender, _amount * 10 ** decimalsValue) */\n  0x20\n  shr\n  jump\t// in\ntag_31:\n    /* \"contracts/CustomToken.sol\":965:1310  {... */\n  pop\n    /* \"contracts/CustomToken.sol\":786:1310  constructor(... */\n  pop\n  pop\n  pop\n  pop\n    /* \"contracts/CustomToken.sol\":329:2379  contract CustomToken is ERC20, Ownable {... */\n  jump(tag_36)\n    /* \"@openzeppelin/contracts/access/Ownable.sol\":2912:3099  function _transferOwnership(address newOwner) internal virtual {... */\ntag_16:\n    /* \"@openzeppelin/contracts/access/Ownable.sol\":2985:3001  address oldOwner */\n  0x00\n    /* \"@openzeppelin/contracts/access/Ownable.sol\":3004:3010  _owner */\n  0x05\n  0x00\n  swap1\n  sload\n  swap1\n  0x0100\n  exp\n  swap1\n  div\n  0xffffffffffffffffffffffffffffffffffffffff\n  and\n    /* \"@openzeppelin/contracts/access/Ownable.sol\":2985:3010  address oldOwner = _owner */\n  swap1\n  pop\n    /* \"@openzeppelin/contracts/access/Ownable.sol\":3029:3037  newOwner */\n  dup2\n    /* \"@openzeppelin/contracts/access/Ownable.sol\":3020:3026  _owner */\n  0x05\n  0x00\n    /* \"@openzeppelin/contracts/access/Ownable.sol\":3020:3037  _owner = newOwner */\n  0x0100\n  exp\n  dup2\n  sload\n  dup2\n  0xffffffffffffffffffffffffffffffffffffffff\n  mul\n  not\n  and\n  swap1\n  dup4\n  0xffffffffffffffffffffffffffffffffffffffff\n  and\n  mul\n  or\n  swap1\n  sstore\n  pop\n    /* \"@openzeppelin/contracts/access/Ownable.sol\":3083:3091  newOwner */\n  dup2\n    /* \"@openzeppelin/contracts/access/Ownable.sol\":3052:3092  OwnershipTransferred(oldOwner, newOwner) */\n  0xffffffffffffffffffffffffffffffffffffffff\n  and\n    /* \"@openzeppelin/contracts/access/Ownable.sol\":3073:3081  oldOwner */\n  dup2\n    /* \"@openzeppelin/contracts/access/Ownable.sol\":3052:3092  OwnershipTransferred(oldOwner, newOwner) */\n  0xffffffffffffffffffffffffffffffffffffffff\n  and\n  0x8be0079c531659141344cd1fd0a4f28419497f9722a3daafe3b4186f6b6457e0\n  mload(0x40)\n  mload(0x40)\n  dup1\n  swap2\n  sub\n  swap1\n  log3\n    /* \"@openzeppelin/contracts/access/Ownable.sol\":2975:3099  {... */\n  pop\n    /* \"@openzeppelin/contracts/access/Ownable.sol\":2912:3099  function _transferOwnership(address newOwner) internal virtual {... */\n  pop\n  jump\t// out\n    /* \"@openzeppelin/contracts/token/ERC20/ERC20.sol\":2707:2789  function decimals() public view virtual returns (uint8) {... */\ntag_23:\n    /* \"@openzeppelin/contracts/token/ERC20/ERC20.sol\":2756:2761  uint8 */\n  0x00\n    /* \"@openzeppelin/contracts/token/ERC20/ERC20.sol\":2780:2782  18 */\n  0x12\n    /* \"@openzeppelin/contracts/token/ERC20/ERC20.sol\":2773:2782  return 18 */\n  swap1\n  pop\n    /* \"@openzeppelin/contracts/token/ERC20/ERC20.sol\":2707:2789  function decimals() public view virtual returns (uint8) {... */\n  swap1\n  jump\t// out\n    /* \"@openzeppelin/contracts/token/ERC20/ERC20.sol\":7458:7666  function _mint(address account, uint256 value) internal {... */\ntag_35:\n    /* \"@openzeppelin/contracts/token/ERC20/ERC20.sol\":7547:7548  0 */\n  0x00\n    /* \"@openzeppelin/contracts/token/ERC20/ERC20.sol\":7528:7549  account == address(0) */\n  0xffffffffffffffffffffffffffffffffffffffff\n  and\n    /* \"@openzeppelin/contracts/token/ERC20/ERC20.sol\":7528:7535  account */\n  dup3\n    /* \"@openzeppelin/contracts/token/ERC20/ERC20.sol\":7528:7549  account == address(0) */\n  0xffffffffffffffffffffffffffffffffffffffff\n  and\n  sub\n    /* \"@openzeppelin/contracts/token/ERC20/ERC20.sol\":7524:7615  if (account == address(0)) {... */\n  tag_40\n  jumpi\n    /* \"@openzeppelin/contracts/token/ERC20/ERC20.sol\":7601:7602  0 */\n  0x00\n    /* \"@openzeppelin/contracts/token/ERC20/ERC20.sol\":7572:7604  ERC20InvalidReceiver(address(0)) */\n  mload(0x40)\n  0xec442f0500000000000000000000000000000000000000000000000000000000\n  dup2\n  mstore\n  0x04\n  add\n  tag_41\n  swap2\n  swap1\n  tag_14\n  jump\t// in\ntag_41:\n  mload(0x40)\n  dup1\n  swap2\n  sub\n  swap1\n  revert\n    /* \"@openzeppelin/contracts/token/ERC20/ERC20.sol\":7524:7615  if (account == address(0)) {... */\ntag_40:\n    /* \"@openzeppelin/contracts/token/ERC20/ERC20.sol\":7624:7659  _update(address(0), account, value) */\n  tag_42\n    /* \"@openzeppelin/contracts/token/ERC20/ERC20.sol\":7640:7641  0 */\n  0x00\n    /* \"@openzeppelin/contracts/token/ERC20/ERC20.sol\":7644:7651  account */\n  dup4\n    /* \"@openzeppelin/contracts/token/ERC20/ERC20.sol\":7653:7658  value */\n  dup4\n    /* \"@openzeppelin/contracts/token/ERC20/ERC20.sol\":7624:7631  _update */\n  shl(0x20, tag_43)\n    /* \"@openzeppelin/contracts/token/ERC20/ERC20.sol\":7624:7659  _update(address(0), account, value) */\n  0x20\n  shr\n  jump\t// in\ntag_42:\n    /* \"@openzeppelin/contracts/token/ERC20/ERC20.sol\":7458:7666  function _mint(address account, uint256 value) internal {... */\n  pop\n  pop\n  jump\t// out\n    /* \"@openzeppelin/contracts/token/ERC20/ERC20.sol\":6008:7115  function _update(address from, address to, uint256 value) internal virtual {... */\ntag_43:\n    /* \"@openzeppelin/contracts/token/ERC20/ERC20.sol\":6113:6114  0 */\n  0x00\n    /* \"@openzeppelin/contracts/token/ERC20/ERC20.sol\":6097:6115  from == address(0) */\n  0xffffffffffffffffffffffffffffffffffffffff\n  and\n    /* \"@openzeppelin/contracts/token/ERC20/ERC20.sol\":6097:6101  from */\n  dup4\n    /* \"@openzeppelin/contracts/token/ERC20/ERC20.sol\":6097:6115  from == address(0) */\n  0xffffffffffffffffffffffffffffffffffffffff\n  and\n  sub\n    /* \"@openzeppelin/contracts/token/ERC20/ERC20.sol\":6093:6633  if (from == address(0)) {... */\n  tag_45\n  jumpi\n    /* \"@openzeppelin/contracts/token/ERC20/ERC20.sol\":6249:6254  value */\n  dup1\n    /* \"@openzeppelin/contracts/token/ERC20/ERC20.sol\":6233:6245  _totalSupply */\n  0x02\n  0x00\n    /* \"@openzeppelin/contracts/token/ERC20/ERC20.sol\":6233:6254  _totalSupply += value */\n  dup3\n  dup3\n  sload\n  tag_46\n  swap2\n  swap1\n  tag_47\n  jump\t// in\ntag_46:\n  swap3\n  pop\n  pop\n  dup2\n  swap1\n  sstore\n  pop\n    /* \"@openzeppelin/contracts/token/ERC20/ERC20.sol\":6093:6633  if (from == address(0)) {... */\n  jump(tag_48)\ntag_45:\n    /* \"@openzeppelin/contracts/token/ERC20/ERC20.sol\":6285:6304  uint256 fromBalance */\n  0x00\n    /* \"@openzeppelin/contracts/token/ERC20/ERC20.sol\":6307:6316  _balances */\n  dup1\n    /* \"@openzeppelin/contracts/token/ERC20/ERC20.sol\":6307:6322  _balances[from] */\n  0x00\n    /* \"@openzeppelin/contracts/token/ERC20/ERC20.sol\":6317:6321  from */\n  dup6\n    /* \"@openzeppelin/contracts/token/ERC20/ERC20.sol\":6307:6322  _balances[from] */\n  0xffffffffffffffffffffffffffffffffffffffff\n  and\n  0xffffffffffffffffffffffffffffffffffffffff\n  and\n  dup2\n  mstore\n  0x20\n  add\n  swap1\n  dup2\n  mstore\n  0x20\n  add\n  0x00\n  keccak256\n  sload\n    /* \"@openzeppelin/contracts/token/ERC20/ERC20.sol\":6285:6322  uint256 fromBalance = _balances[from] */\n  swap1\n  pop\n    /* \"@openzeppelin/contracts/token/ERC20/ERC20.sol\":6354:6359  value */\n  dup2\n    /* \"@openzeppelin/contracts/token/ERC20/ERC20.sol\":6340:6351  fromBalance */\n  dup2\n    /* \"@openzeppelin/contracts/token/ERC20/ERC20.sol\":6340:6359  fromBalance < value */\n  lt\n    /* \"@openzeppelin/contracts/token/ERC20/ERC20.sol\":6336:6451  if (fromBalance < value) {... */\n  iszero\n  tag_49\n  jumpi\n    /* \"@openzeppelin/contracts/token/ERC20/ERC20.sol\":6411:6415  from */\n  dup4\n    /* \"@openzeppelin/contracts/token/ERC20/ERC20.sol\":6417:6428  fromBalance */\n  dup2\n    /* \"@openzeppelin/contracts/token/ERC20/ERC20.sol\":6430:6435  value */\n  dup4\n    /* \"@openzeppelin/contracts/token/ERC20/ERC20.sol\":6386:6436  ERC20InsufficientBalance(from, fromBalance, value) */\n  mload(0x40)\n  0xe450d38c00000000000000000000000000000000000000000000000000000000\n  dup2\n  mstore\n  0x04\n  add\n  tag_50\n  swap4\n  swap3\n  swap2\n  swap1\n  tag_51\n  jump\t// in\ntag_50:\n  mload(0x40)\n  dup1\n  swap2\n  sub\n  swap1\n  revert\n    /* \"@openzeppelin/contracts/token/ERC20/ERC20.sol\":6336:6451  if (fromBalance < value) {... */\ntag_49:\n    /* \"@openzeppelin/contracts/token/ERC20/ERC20.sol\":6603:6608  value */\n  dup2\n    /* \"@openzeppelin/contracts/token/ERC20/ERC20.sol\":6589:6600  fromBalance */\n  dup2\n    /* \"@openzeppelin/contracts/token/ERC20/ERC20.sol\":6589:6608  fromBalance - value */\n  sub\n    /* \"@openzeppelin/contracts/token/ERC20/ERC20.sol\":6571:6580  _balances */\n  0x00\n    /* \"@openzeppelin/contracts/token/ERC20/ERC20.sol\":6571:6586  _balances[from] */\n  dup1\n    /* \"@openzeppelin/contracts/token/ERC20/ERC20.sol\":6581:6585  from */\n  dup7\n    /* \"@openzeppelin/contracts/token/ERC20/ERC20.sol\":6571:6586  _balances[from] */\n  0xffffffffffffffffffffffffffffffffffffffff\n  and\n  0xffffffffffffffffffffffffffffffffffffffff\n  and\n  dup2\n  mstore\n  0x20\n  add\n  swap1\n  dup2\n  mstore\n  0x20\n  add\n  0x00\n  keccak256\n    /* \"@openzeppelin/contracts/token/ERC20/ERC20.sol\":6571:6608  _balances[from] = fromBalance - value */\n  dup2\n  swap1\n  sstore\n  pop\n    /* \"@openzeppelin/contracts/token/ERC20/ERC20.sol\":6271:6633  {... */\n  pop\n    /* \"@openzeppelin/contracts/token/ERC20/ERC20.sol\":6093:6633  if (from == address(0)) {... */\ntag_48:\n    /* \"@openzeppelin/contracts/token/ERC20/ERC20.sol\":6661:6662  0 */\n  0x00\n    /* \"@openzeppelin/contracts/token/ERC20/ERC20.sol\":6647:6663  to == address(0) */\n  0xffffffffffffffffffffffffffffffffffffffff\n  and\n    /* \"@openzeppelin/contracts/token/ERC20/ERC20.sol\":6647:6649  to */\n  dup3\n    /* \"@openzeppelin/contracts/token/ERC20/ERC20.sol\":6647:6663  to == address(0) */\n  0xffffffffffffffffffffffffffffffffffffffff\n  and\n  sub\n    /* \"@openzeppelin/contracts/token/ERC20/ERC20.sol\":6643:7068  if (to == address(0)) {... */\n  tag_52\n  jumpi\n    /* \"@openzeppelin/contracts/token/ERC20/ERC20.sol\":6826:6831  value */\n  dup1\n    /* \"@openzeppelin/contracts/token/ERC20/ERC20.sol\":6810:6822  _totalSupply */\n  0x02\n  0x00\n    /* \"@openzeppelin/contracts/token/ERC20/ERC20.sol\":6810:6831  _totalSupply -= value */\n  dup3\n  dup3\n  sload\n  sub\n  swap3\n  pop\n  pop\n  dup2\n  swap1\n  sstore\n  pop\n    /* \"@openzeppelin/contracts/token/ERC20/ERC20.sol\":6643:7068  if (to == address(0)) {... */\n  jump(tag_53)\ntag_52:\n    /* \"@openzeppelin/contracts/token/ERC20/ERC20.sol\":7038:7043  value */\n  dup1\n    /* \"@openzeppelin/contracts/token/ERC20/ERC20.sol\":7021:7030  _balances */\n  0x00\n    /* \"@openzeppelin/contracts/token/ERC20/ERC20.sol\":7021:7034  _balances[to] */\n  dup1\n    /* \"@openzeppelin/contracts/token/ERC20/ERC20.sol\":7031:7033  to */\n  dup5\n    /* \"@openzeppelin/contracts/token/ERC20/ERC20.sol\":7021:7034  _balances[to] */\n  0xffffffffffffffffffffffffffffffffffffffff\n  and\n  0xffffffffffffffffffffffffffffffffffffffff\n  and\n  dup2\n  mstore\n  0x20\n  add\n  swap1\n  dup2\n  mstore\n  0x20\n  add\n  0x00\n  keccak256\n  0x00\n    /* \"@openzeppelin/contracts/token/ERC20/ERC20.sol\":7021:7043  _balances[to] += value */\n  dup3\n  dup3\n  sload\n  add\n  swap3\n  pop\n  pop\n  dup2\n  swap1\n  sstore\n  pop\n    /* \"@openzeppelin/contracts/token/ERC20/ERC20.sol\":6643:7068  if (to == address(0)) {... */\ntag_53:\n    /* \"@openzeppelin/contracts/token/ERC20/ERC20.sol\":7098:7100  to */\n  dup2\n    /* \"@openzeppelin/contracts/token/ERC20/ERC20.sol\":7083:7108  Transfer(from, to, value) */\n  0xffffffffffffffffffffffffffffffffffffffff\n  and\n    /* \"@openzeppelin/contracts/token/ERC20/ERC20.sol\":7092:7096  from */\n  dup4\n    /* \"@openzeppelin/contracts/token/ERC20/ERC20.sol\":7083:7108  Transfer(from, to, value) */\n  0xffffffffffffffffffffffffffffffffffffffff\n  and\n  0xddf252ad1be2c89b69c2b068fc378daa952ba7f163c4a11628f55a4df523b3ef\n    /* \"@openzeppelin/contracts/token/ERC20/ERC20.sol\":7102:7107  value */\n  dup4\n    /* \"@openzeppelin/contracts/token/ERC20/ERC20.sol\":7083:7108  Transfer(from, to, value) */\n  mload(0x40)\n  tag_54\n  swap2\n  swap1\n  tag_55\n  jump\t// in\ntag_54:\n  mload(0x40)\n  dup1\n  swap2\n  sub\n  swap1\n  log3\n    /* \"@openzeppelin/contracts/token/ERC20/ERC20.sol\":6008:7115  function _update(address from, address to, uint256 value) internal virtual {... */\n  pop\n  pop\n  pop\n  jump\t// out\n    /* \"#utility.yul\":7:82   */\ntag_56:\n    /* \"#utility.yul\":40:46   */\n  0x00\n    /* \"#utility.yul\":73:75   */\n  0x40\n    /* \"#utility.yul\":67:76   */\n  mload\n    /* \"#utility.yul\":57:76   */\n  swap1\n  pop\n    /* \"#utility.yul\":7:82   */\n  swap1\n  jump\t// out\n    /* \"#utility.yul\":88:205   */\ntag_57:\n    /* \"#utility.yul\":197:198   */\n  0x00\n    /* \"#utility.yul\":194:195   */\n  dup1\n    /* \"#utility.yul\":187:199   */\n  revert\n    /* \"#utility.yul\":211:328   */\ntag_58:\n    /* \"#utility.yul\":320:321   */\n  0x00\n    /* \"#utility.yul\":317:318   */\n  dup1\n    /* \"#utility.yul\":310:322   */\n  revert\n    /* \"#utility.yul\":334:451   */\ntag_59:\n    /* \"#utility.yul\":443:444   */\n  0x00\n    /* \"#utility.yul\":440:441   */\n  dup1\n    /* \"#utility.yul\":433:445   */\n  revert\n    /* \"#utility.yul\":457:574   */\ntag_60:\n    /* \"#utility.yul\":566:567   */\n  0x00\n    /* \"#utility.yul\":563:564   */\n  dup1\n    /* \"#utility.yul\":556:568   */\n  revert\n    /* \"#utility.yul\":580:682   */\ntag_61:\n    /* \"#utility.yul\":621:627   */\n  0x00\n    /* \"#utility.yul\":672:674   */\n  0x1f\n    /* \"#utility.yul\":668:675   */\n  not\n    /* \"#utility.yul\":663:665   */\n  0x1f\n    /* \"#utility.yul\":656:661   */\n  dup4\n    /* \"#utility.yul\":652:666   */\n  add\n    /* \"#utility.yul\":648:676   */\n  and\n    /* \"#utility.yul\":638:676   */\n  swap1\n  pop\n    /* \"#utility.yul\":580:682   */\n  swap2\n  swap1\n  pop\n  jump\t// out\n    /* \"#utility.yul\":688:868   */\ntag_62:\n    /* \"#utility.yul\":736:813   */\n  0x4e487b7100000000000000000000000000000000000000000000000000000000\n    /* \"#utility.yul\":733:734   */\n  0x00\n    /* \"#utility.yul\":726:814   */\n  mstore\n    /* \"#utility.yul\":833:837   */\n  0x41\n    /* \"#utility.yul\":830:831   */\n  0x04\n    /* \"#utility.yul\":823:838   */\n  mstore\n    /* \"#utility.yul\":857:861   */\n  0x24\n    /* \"#utility.yul\":854:855   */\n  0x00\n    /* \"#utility.yul\":847:862   */\n  revert\n    /* \"#utility.yul\":874:1155   */\ntag_63:\n    /* \"#utility.yul\":957:984   */\n  tag_114\n    /* \"#utility.yul\":979:983   */\n  dup3\n    /* \"#utility.yul\":957:984   */\n  tag_61\n  jump\t// in\ntag_114:\n    /* \"#utility.yul\":949:955   */\n  dup2\n    /* \"#utility.yul\":945:985   */\n  add\n    /* \"#utility.yul\":1087:1093   */\n  dup2\n    /* \"#utility.yul\":1075:1085   */\n  dup2\n    /* \"#utility.yul\":1072:1094   */\n  lt\n    /* \"#utility.yul\":1051:1069   */\n  0xffffffffffffffff\n    /* \"#utility.yul\":1039:1049   */\n  dup3\n    /* \"#utility.yul\":1036:1070   */\n  gt\n    /* \"#utility.yul\":1033:1095   */\n  or\n    /* \"#utility.yul\":1030:1118   */\n  iszero\n  tag_115\n  jumpi\n    /* \"#utility.yul\":1098:1116   */\n  tag_116\n  tag_62\n  jump\t// in\ntag_116:\n    /* \"#utility.yul\":1030:1118   */\ntag_115:\n    /* \"#utility.yul\":1138:1148   */\n  dup1\n    /* \"#utility.yul\":1134:1136   */\n  0x40\n    /* \"#utility.yul\":1127:1149   */\n  mstore\n    /* \"#utility.yul\":917:1155   */\n  pop\n    /* \"#utility.yul\":874:1155   */\n  pop\n  pop\n  jump\t// out\n    /* \"#utility.yul\":1161:1290   */\ntag_64:\n    /* \"#utility.yul\":1195:1201   */\n  0x00\n    /* \"#utility.yul\":1222:1242   */\n  tag_118\n  tag_56\n  jump\t// in\ntag_118:\n    /* \"#utility.yul\":1212:1242   */\n  swap1\n  pop\n    /* \"#utility.yul\":1251:1284   */\n  tag_119\n    /* \"#utility.yul\":1279:1283   */\n  dup3\n    /* \"#utility.yul\":1271:1277   */\n  dup3\n    /* \"#utility.yul\":1251:1284   */\n  tag_63\n  jump\t// in\ntag_119:\n    /* \"#utility.yul\":1161:1290   */\n  swap2\n  swap1\n  pop\n  jump\t// out\n    /* \"#utility.yul\":1296:1604   */\ntag_65:\n    /* \"#utility.yul\":1358:1362   */\n  0x00\n    /* \"#utility.yul\":1448:1466   */\n  0xffffffffffffffff\n    /* \"#utility.yul\":1440:1446   */\n  dup3\n    /* \"#utility.yul\":1437:1467   */\n  gt\n    /* \"#utility.yul\":1434:1490   */\n  iszero\n  tag_121\n  jumpi\n    /* \"#utility.yul\":1470:1488   */\n  tag_122\n  tag_62\n  jump\t// in\ntag_122:\n    /* \"#utility.yul\":1434:1490   */\ntag_121:\n    /* \"#utility.yul\":1508:1537   */\n  tag_123\n    /* \"#utility.yul\":1530:1536   */\n  dup3\n    /* \"#utility.yul\":1508:1537   */\n  tag_61\n  jump\t// in\ntag_123:\n    /* \"#utility.yul\":1500:1537   */\n  swap1\n  pop\n    /* \"#utility.yul\":1592:1596   */\n  0x20\n    /* \"#utility.yul\":1586:1590   */\n  dup2\n    /* \"#utility.yul\":1582:1597   */\n  add\n    /* \"#utility.yul\":1574:1597   */\n  swap1\n  pop\n    /* \"#utility.yul\":1296:1604   */\n  swap2\n  swap1\n  pop\n  jump\t// out\n    /* \"#utility.yul\":1610:1749   */\ntag_66:\n    /* \"#utility.yul\":1699:1705   */\n  dup3\n    /* \"#utility.yul\":1694:1697   */\n  dup2\n    /* \"#utility.yul\":1689:1692   */\n  dup4\n    /* \"#utility.yul\":1683:1706   */\n  mcopy\n    /* \"#utility.yul\":1740:1741   */\n  0x00\n    /* \"#utility.yul\":1731:1737   */\n  dup4\n    /* \"#utility.yul\":1726:1729   */\n  dup4\n    /* \"#utility.yul\":1722:1738   */\n  add\n    /* \"#utility.yul\":1715:1742   */\n  mstore\n    /* \"#utility.yul\":1610:1749   */\n  pop\n  pop\n  pop\n  jump\t// out\n    /* \"#utility.yul\":1755:2189   */\ntag_67:\n    /* \"#utility.yul\":1844:1849   */\n  0x00\n    /* \"#utility.yul\":1869:1935   */\n  tag_126\n    /* \"#utility.yul\":1885:1934   */\n  tag_127\n    /* \"#utility.yul\":1927:1933   */\n  dup5\n    /* \"#utility.yul\":1885:1934   */\n  tag_65\n  jump\t// in\ntag_127:\n    /* \"#utility.yul\":1869:1935   */\n  tag_64\n  jump\t// in\ntag_126:\n    /* \"#utility.yul\":1860:1935   */\n  swap1\n  pop\n    /* \"#utility.yul\":1958:1964   */\n  dup3\n    /* \"#utility.yul\":1951:1956   */\n  dup2\n    /* \"#utility.yul\":1944:1965   */\n  mstore\n    /* \"#utility.yul\":1996:2000   */\n  0x20\n    /* \"#utility.yul\":1989:1994   */\n  dup2\n    /* \"#utility.yul\":1985:2001   */\n  add\n    /* \"#utility.yul\":2034:2037   */\n  dup5\n    /* \"#utility.yul\":2025:2031   */\n  dup5\n    /* \"#utility.yul\":2020:2023   */\n  dup5\n    /* \"#utility.yul\":2016:2032   */\n  add\n    /* \"#utility.yul\":2013:2038   */\n  gt\n    /* \"#utility.yul\":2010:2122   */\n  iszero\n  tag_128\n  jumpi\n    /* \"#utility.yul\":2041:2120   */\n  tag_129\n  tag_60\n  jump\t// in\ntag_129:\n    /* \"#utility.yul\":2010:2122   */\ntag_128:\n    /* \"#utility.yul\":2131:2183   */\n  tag_130\n    /* \"#utility.yul\":2176:2182   */\n  dup5\n    /* \"#utility.yul\":2171:2174   */\n  dup3\n    /* \"#utility.yul\":2166:2169   */\n  dup6\n    /* \"#utility.yul\":2131:2183   */\n  tag_66\n  jump\t// in\ntag_130:\n    /* \"#utility.yul\":1850:2189   */\n  pop\n    /* \"#utility.yul\":1755:2189   */\n  swap4\n  swap3\n  pop\n  pop\n  pop\n  jump\t// out\n    /* \"#utility.yul\":2209:2564   */\ntag_68:\n    /* \"#utility.yul\":2276:2281   */\n  0x00\n    /* \"#utility.yul\":2325:2328   */\n  dup3\n    /* \"#utility.yul\":2318:2322   */\n  0x1f\n    /* \"#utility.yul\":2310:2316   */\n  dup4\n    /* \"#utility.yul\":2306:2323   */\n  add\n    /* \"#utility.yul\":2302:2329   */\n  slt\n    /* \"#utility.yul\":2292:2414   */\n  tag_132\n  jumpi\n    /* \"#utility.yul\":2333:2412   */\n  tag_133\n  tag_59\n  jump\t// in\ntag_133:\n    /* \"#utility.yul\":2292:2414   */\ntag_132:\n    /* \"#utility.yul\":2443:2449   */\n  dup2\n    /* \"#utility.yul\":2437:2450   */\n  mload\n    /* \"#utility.yul\":2468:2558   */\n  tag_134\n    /* \"#utility.yul\":2554:2557   */\n  dup5\n    /* \"#utility.yul\":2546:2552   */\n  dup3\n    /* \"#utility.yul\":2539:2543   */\n  0x20\n    /* \"#utility.yul\":2531:2537   */\n  dup7\n    /* \"#utility.yul\":2527:2544   */\n  add\n    /* \"#utility.yul\":2468:2558   */\n  tag_67\n  jump\t// in\ntag_134:\n    /* \"#utility.yul\":2459:2558   */\n  swap2\n  pop\n    /* \"#utility.yul\":2282:2564   */\n  pop\n    /* \"#utility.yul\":2209:2564   */\n  swap3\n  swap2\n  pop\n  pop\n  jump\t// out\n    /* \"#utility.yul\":2570:2647   */\ntag_69:\n    /* \"#utility.yul\":2607:2614   */\n  0x00\n    /* \"#utility.yul\":2636:2641   */\n  dup2\n    /* \"#utility.yul\":2625:2641   */\n  swap1\n  pop\n    /* \"#utility.yul\":2570:2647   */\n  swap2\n  swap1\n  pop\n  jump\t// out\n    /* \"#utility.yul\":2653:2775   */\ntag_70:\n    /* \"#utility.yul\":2726:2750   */\n  tag_137\n    /* \"#utility.yul\":2744:2749   */\n  dup2\n    /* \"#utility.yul\":2726:2750   */\n  tag_69\n  jump\t// in\ntag_137:\n    /* \"#utility.yul\":2719:2724   */\n  dup2\n    /* \"#utility.yul\":2716:2751   */\n  eq\n    /* \"#utility.yul\":2706:2769   */\n  tag_138\n  jumpi\n    /* \"#utility.yul\":2765:2766   */\n  0x00\n    /* \"#utility.yul\":2762:2763   */\n  dup1\n    /* \"#utility.yul\":2755:2767   */\n  revert\n    /* \"#utility.yul\":2706:2769   */\ntag_138:\n    /* \"#utility.yul\":2653:2775   */\n  pop\n  jump\t// out\n    /* \"#utility.yul\":2781:2924   */\ntag_71:\n    /* \"#utility.yul\":2838:2843   */\n  0x00\n    /* \"#utility.yul\":2869:2875   */\n  dup2\n    /* \"#utility.yul\":2863:2876   */\n  mload\n    /* \"#utility.yul\":2854:2876   */\n  swap1\n  pop\n    /* \"#utility.yul\":2885:2918   */\n  tag_140\n    /* \"#utility.yul\":2912:2917   */\n  dup2\n    /* \"#utility.yul\":2885:2918   */\n  tag_70\n  jump\t// in\ntag_140:\n    /* \"#utility.yul\":2781:2924   */\n  swap3\n  swap2\n  pop\n  pop\n  jump\t// out\n    /* \"#utility.yul\":2930:4269   */\ntag_3:\n    /* \"#utility.yul\":3057:3063   */\n  0x00\n    /* \"#utility.yul\":3065:3071   */\n  dup1\n    /* \"#utility.yul\":3073:3079   */\n  0x00\n    /* \"#utility.yul\":3081:3087   */\n  dup1\n    /* \"#utility.yul\":3130:3133   */\n  0x80\n    /* \"#utility.yul\":3118:3127   */\n  dup6\n    /* \"#utility.yul\":3109:3116   */\n  dup8\n    /* \"#utility.yul\":3105:3128   */\n  sub\n    /* \"#utility.yul\":3101:3134   */\n  slt\n    /* \"#utility.yul\":3098:3218   */\n  iszero\n  tag_142\n  jumpi\n    /* \"#utility.yul\":3137:3216   */\n  tag_143\n  tag_57\n  jump\t// in\ntag_143:\n    /* \"#utility.yul\":3098:3218   */\ntag_142:\n    /* \"#utility.yul\":3278:3279   */\n  0x00\n    /* \"#utility.yul\":3267:3276   */\n  dup6\n    /* \"#utility.yul\":3263:3280   */\n  add\n    /* \"#utility.yul\":3257:3281   */\n  mload\n    /* \"#utility.yul\":3308:3326   */\n  0xffffffffffffffff\n    /* \"#utility.yul\":3300:3306   */\n  dup2\n    /* \"#utility.yul\":3297:3327   */\n  gt\n    /* \"#utility.yul\":3294:3411   */\n  iszero\n  tag_144\n  jumpi\n    /* \"#utility.yul\":3330:3409   */\n  tag_145\n  tag_58\n  jump\t// in\ntag_145:\n    /* \"#utility.yul\":3294:3411   */\ntag_144:\n    /* \"#utility.yul\":3435:3509   */\n  tag_146\n    /* \"#utility.yul\":3501:3508   */\n  dup8\n    /* \"#utility.yul\":3492:3498   */\n  dup3\n    /* \"#utility.yul\":3481:3490   */\n  dup9\n    /* \"#utility.yul\":3477:3499   */\n  add\n    /* \"#utility.yul\":3435:3509   */\n  tag_68\n  jump\t// in\ntag_146:\n    /* \"#utility.yul\":3425:3509   */\n  swap5\n  pop\n    /* \"#utility.yul\":3228:3519   */\n  pop\n    /* \"#utility.yul\":3579:3581   */\n  0x20\n    /* \"#utility.yul\":3568:3577   */\n  dup6\n    /* \"#utility.yul\":3564:3582   */\n  add\n    /* \"#utility.yul\":3558:3583   */\n  mload\n    /* \"#utility.yul\":3610:3628   */\n  0xffffffffffffffff\n    /* \"#utility.yul\":3602:3608   */\n  dup2\n    /* \"#utility.yul\":3599:3629   */\n  gt\n    /* \"#utility.yul\":3596:3713   */\n  iszero\n  tag_147\n  jumpi\n    /* \"#utility.yul\":3632:3711   */\n  tag_148\n  tag_58\n  jump\t// in\ntag_148:\n    /* \"#utility.yul\":3596:3713   */\ntag_147:\n    /* \"#utility.yul\":3737:3811   */\n  tag_149\n    /* \"#utility.yul\":3803:3810   */\n  dup8\n    /* \"#utility.yul\":3794:3800   */\n  dup3\n    /* \"#utility.yul\":3783:3792   */\n  dup9\n    /* \"#utility.yul\":3779:3801   */\n  add\n    /* \"#utility.yul\":3737:3811   */\n  tag_68\n  jump\t// in\ntag_149:\n    /* \"#utility.yul\":3727:3811   */\n  swap4\n  pop\n    /* \"#utility.yul\":3529:3821   */\n  pop\n    /* \"#utility.yul\":3881:3883   */\n  0x40\n    /* \"#utility.yul\":3870:3879   */\n  dup6\n    /* \"#utility.yul\":3866:3884   */\n  add\n    /* \"#utility.yul\":3860:3885   */\n  mload\n    /* \"#utility.yul\":3912:3930   */\n  0xffffffffffffffff\n    /* \"#utility.yul\":3904:3910   */\n  dup2\n    /* \"#utility.yul\":3901:3931   */\n  gt\n    /* \"#utility.yul\":3898:4015   */\n  iszero\n  tag_150\n  jumpi\n    /* \"#utility.yul\":3934:4013   */\n  tag_151\n  tag_58\n  jump\t// in\ntag_151:\n    /* \"#utility.yul\":3898:4015   */\ntag_150:\n    /* \"#utility.yul\":4039:4113   */\n  tag_152\n    /* \"#utility.yul\":4105:4112   */\n  dup8\n    /* \"#utility.yul\":4096:4102   */\n  dup3\n    /* \"#utility.yul\":4085:4094   */\n  dup9\n    /* \"#utility.yul\":4081:4103   */\n  add\n    /* \"#utility.yul\":4039:4113   */\n  tag_68\n  jump\t// in\ntag_152:\n    /* \"#utility.yul\":4029:4113   */\n  swap3\n  pop\n    /* \"#utility.yul\":3831:4123   */\n  pop\n    /* \"#utility.yul\":4162:4164   */\n  0x60\n    /* \"#utility.yul\":4188:4252   */\n  tag_153\n    /* \"#utility.yul\":4244:4251   */\n  dup8\n    /* \"#utility.yul\":4235:4241   */\n  dup3\n    /* \"#utility.yul\":4224:4233   */\n  dup9\n    /* \"#utility.yul\":4220:4242   */\n  add\n    /* \"#utility.yul\":4188:4252   */\n  tag_71\n  jump\t// in\ntag_153:\n    /* \"#utility.yul\":4178:4252   */\n  swap2\n  pop\n    /* \"#utility.yul\":4133:4262   */\n  pop\n    /* \"#utility.yul\":2930:4269   */\n  swap3\n  swap6\n  swap2\n  swap5\n  pop\n  swap3\n  pop\n  jump\t// out\n    /* \"#utility.yul\":4275:4374   */\ntag_72:\n    /* \"#utility.yul\":4327:4333   */\n  0x00\n    /* \"#utility.yul\":4361:4366   */\n  dup2\n    /* \"#utility.yul\":4355:4367   */\n  mload\n    /* \"#utility.yul\":4345:4367   */\n  swap1\n  pop\n    /* \"#utility.yul\":4275:4374   */\n  swap2\n  swap1\n  pop\n  jump\t// out\n    /* \"#utility.yul\":4380:4560   */\ntag_73:\n    /* \"#utility.yul\":4428:4505   */\n  0x4e487b7100000000000000000000000000000000000000000000000000000000\n    /* \"#utility.yul\":4425:4426   */\n  0x00\n    /* \"#utility.yul\":4418:4506   */\n  mstore\n    /* \"#utility.yul\":4525:4529   */\n  0x22\n    /* \"#utility.yul\":4522:4523   */\n  0x04\n    /* \"#utility.yul\":4515:4530   */\n  mstore\n    /* \"#utility.yul\":4549:4553   */\n  0x24\n    /* \"#utility.yul\":4546:4547   */\n  0x00\n    /* \"#utility.yul\":4539:4554   */\n  revert\n    /* \"#utility.yul\":4566:4886   */\ntag_74:\n    /* \"#utility.yul\":4610:4616   */\n  0x00\n    /* \"#utility.yul\":4647:4648   */\n  0x02\n    /* \"#utility.yul\":4641:4645   */\n  dup3\n    /* \"#utility.yul\":4637:4649   */\n  div\n    /* \"#utility.yul\":4627:4649   */\n  swap1\n  pop\n    /* \"#utility.yul\":4694:4695   */\n  0x01\n    /* \"#utility.yul\":4688:4692   */\n  dup3\n    /* \"#utility.yul\":4684:4696   */\n  and\n    /* \"#utility.yul\":4715:4733   */\n  dup1\n    /* \"#utility.yul\":4705:4786   */\n  tag_157\n  jumpi\n    /* \"#utility.yul\":4771:4775   */\n  0x7f\n    /* \"#utility.yul\":4763:4769   */\n  dup3\n    /* \"#utility.yul\":4759:4776   */\n  and\n    /* \"#utility.yul\":4749:4776   */\n  swap2\n  pop\n    /* \"#utility.yul\":4705:4786   */\ntag_157:\n    /* \"#utility.yul\":4833:4835   */\n  0x20\n    /* \"#utility.yul\":4825:4831   */\n  dup3\n    /* \"#utility.yul\":4822:4836   */\n  lt\n    /* \"#utility.yul\":4802:4820   */\n  dup2\n    /* \"#utility.yul\":4799:4837   */\n  sub\n    /* \"#utility.yul\":4796:4880   */\n  tag_158\n  jumpi\n    /* \"#utility.yul\":4852:4870   */\n  tag_159\n  tag_73\n  jump\t// in\ntag_159:\n    /* \"#utility.yul\":4796:4880   */\ntag_158:\n    /* \"#utility.yul\":4617:4886   */\n  pop\n    /* \"#utility.yul\":4566:4886   */\n  swap2\n  swap1\n  pop\n  jump\t// out\n    /* \"#utility.yul\":4892:5033   */\ntag_75:\n    /* \"#utility.yul\":4941:4945   */\n  0x00\n    /* \"#utility.yul\":4964:4967   */\n  dup2\n    /* \"#utility.yul\":4956:4967   */\n  swap1\n  pop\n    /* \"#utility.yul\":4987:4990   */\n  dup2\n    /* \"#utility.yul\":4984:4985   */\n  0x00\n    /* \"#utility.yul\":4977:4991   */\n  mstore\n    /* \"#utility.yul\":5021:5025   */\n  0x20\n    /* \"#utility.yul\":5018:5019   */\n  0x00\n    /* \"#utility.yul\":5008:5026   */\n  keccak256\n    /* \"#utility.yul\":5000:5026   */\n  swap1\n  pop\n    /* \"#utility.yul\":4892:5033   */\n  swap2\n  swap1\n  pop\n  jump\t// out\n    /* \"#utility.yul\":5039:5132   */\ntag_76:\n    /* \"#utility.yul\":5076:5082   */\n  0x00\n    /* \"#utility.yul\":5123:5125   */\n  0x20\n    /* \"#utility.yul\":5118:5120   */\n  0x1f\n    /* \"#utility.yul\":5111:5116   */\n  dup4\n    /* \"#utility.yul\":5107:5121   */\n  add\n    /* \"#utility.yul\":5103:5126   */\n  div\n    /* \"#utility.yul\":5093:5126   */\n  swap1\n  pop\n    /* \"#utility.yul\":5039:5132   */\n  swap2\n  swap1\n  pop\n  jump\t// out\n    /* \"#utility.yul\":5138:5245   */\ntag_77:\n    /* \"#utility.yul\":5182:5190   */\n  0x00\n    /* \"#utility.yul\":5232:5237   */\n  dup3\n    /* \"#utility.yul\":5226:5230   */\n  dup3\n    /* \"#utility.yul\":5222:5238   */\n  shl\n    /* \"#utility.yul\":5201:5238   */\n  swap1\n  pop\n    /* \"#utility.yul\":5138:5245   */\n  swap3\n  swap2\n  pop\n  pop\n  jump\t// out\n    /* \"#utility.yul\":5251:5644   */\ntag_78:\n    /* \"#utility.yul\":5320:5326   */\n  0x00\n    /* \"#utility.yul\":5370:5371   */\n  0x08\n    /* \"#utility.yul\":5358:5368   */\n  dup4\n    /* \"#utility.yul\":5354:5372   */\n  mul\n    /* \"#utility.yul\":5393:5490   */\n  tag_164\n    /* \"#utility.yul\":5423:5489   */\n  0xffffffffffffffffffffffffffffffffffffffffffffffffffffffffffffffff\n    /* \"#utility.yul\":5412:5421   */\n  dup3\n    /* \"#utility.yul\":5393:5490   */\n  tag_77\n  jump\t// in\ntag_164:\n    /* \"#utility.yul\":5511:5550   */\n  tag_165\n    /* \"#utility.yul\":5541:5549   */\n  dup7\n    /* \"#utility.yul\":5530:5539   */\n  dup4\n    /* \"#utility.yul\":5511:5550   */\n  tag_77\n  jump\t// in\ntag_165:\n    /* \"#utility.yul\":5499:5550   */\n  swap6\n  pop\n    /* \"#utility.yul\":5583:5587   */\n  dup1\n    /* \"#utility.yul\":5579:5588   */\n  not\n    /* \"#utility.yul\":5572:5577   */\n  dup5\n    /* \"#utility.yul\":5568:5589   */\n  and\n    /* \"#utility.yul\":5559:5589   */\n  swap4\n  pop\n    /* \"#utility.yul\":5632:5636   */\n  dup1\n    /* \"#utility.yul\":5622:5630   */\n  dup7\n    /* \"#utility.yul\":5618:5637   */\n  and\n    /* \"#utility.yul\":5611:5616   */\n  dup5\n    /* \"#utility.yul\":5608:5638   */\n  or\n    /* \"#utility.yul\":5598:5638   */\n  swap3\n  pop\n    /* \"#utility.yul\":5327:5644   */\n  pop\n  pop\n    /* \"#utility.yul\":5251:5644   */\n  swap4\n  swap3\n  pop\n  pop\n  pop\n  jump\t// out\n    /* \"#utility.yul\":5650:5710   */\ntag_79:\n    /* \"#utility.yul\":5678:5681   */\n  0x00\n    /* \"#utility.yul\":5699:5704   */\n  dup2\n    /* \"#utility.yul\":5692:5704   */\n  swap1\n  pop\n    /* \"#utility.yul\":5650:5710   */\n  swap2\n  swap1\n  pop\n  jump\t// out\n    /* \"#utility.yul\":5716:5858   */\ntag_80:\n    /* \"#utility.yul\":5766:5775   */\n  0x00\n    /* \"#utility.yul\":5799:5852   */\n  tag_168\n    /* \"#utility.yul\":5817:5851   */\n  tag_169\n    /* \"#utility.yul\":5826:5850   */\n  tag_170\n    /* \"#utility.yul\":5844:5849   */\n  dup5\n    /* \"#utility.yul\":5826:5850   */\n  tag_69\n  jump\t// in\ntag_170:\n    /* \"#utility.yul\":5817:5851   */\n  tag_79\n  jump\t// in\ntag_169:\n    /* \"#utility.yul\":5799:5852   */\n  tag_69\n  jump\t// in\ntag_168:\n    /* \"#utility.yul\":5786:5852   */\n  swap1\n  pop\n    /* \"#utility.yul\":5716:5858   */\n  swap2\n  swap1\n  pop\n  jump\t// out\n    /* \"#utility.yul\":5864:5939   */\ntag_81:\n    /* \"#utility.yul\":5907:5910   */\n  0x00\n    /* \"#utility.yul\":5928:5933   */\n  dup2\n    /* \"#utility.yul\":5921:5933   */\n  swap1\n  pop\n    /* \"#utility.yul\":5864:5939   */\n  swap2\n  swap1\n  pop\n  jump\t// out\n    /* \"#utility.yul\":5945:6214   */\ntag_82:\n    /* \"#utility.yul\":6055:6094   */\n  tag_173\n    /* \"#utility.yul\":6086:6093   */\n  dup4\n    /* \"#utility.yul\":6055:6094   */\n  tag_80\n  jump\t// in\ntag_173:\n    /* \"#utility.yul\":6116:6207   */\n  tag_174\n    /* \"#utility.yul\":6165:6206   */\n  tag_175\n    /* \"#utility.yul\":6189:6205   */\n  dup3\n    /* \"#utility.yul\":6165:6206   */\n  tag_81\n  jump\t// in\ntag_175:\n    /* \"#utility.yul\":6157:6163   */\n  dup5\n    /* \"#utility.yul\":6150:6154   */\n  dup5\n    /* \"#utility.yul\":6144:6155   */\n  sload\n    /* \"#utility.yul\":6116:6207   */\n  tag_78\n  jump\t// in\ntag_174:\n    /* \"#utility.yul\":6110:6114   */\n  dup3\n    /* \"#utility.yul\":6103:6208   */\n  sstore\n    /* \"#utility.yul\":6021:6214   */\n  pop\n    /* \"#utility.yul\":5945:6214   */\n  pop\n  pop\n  pop\n  jump\t// out\n    /* \"#utility.yul\":6220:6293   */\ntag_83:\n    /* \"#utility.yul\":6265:6268   */\n  0x00\n    /* \"#utility.yul\":6220:6293   */\n  swap1\n  jump\t// out\n    /* \"#utility.yul\":6299:6488   */\ntag_84:\n    /* \"#utility.yul\":6376:6408   */\n  tag_178\n  tag_83\n  jump\t// in\ntag_178:\n    /* \"#utility.yul\":6417:6482   */\n  tag_179\n    /* \"#utility.yul\":6475:6481   */\n  dup2\n    /* \"#utility.yul\":6467:6473   */\n  dup5\n    /* \"#utility.yul\":6461:6465   */\n  dup5\n    /* \"#utility.yul\":6417:6482   */\n  tag_82\n  jump\t// in\ntag_179:\n    /* \"#utility.yul\":6352:6488   */\n  pop\n    /* \"#utility.yul\":6299:6488   */\n  pop\n  pop\n  jump\t// out\n    /* \"#utility.yul\":6494:6680   */\ntag_85:\n    /* \"#utility.yul\":6554:6674   */\ntag_181:\n    /* \"#utility.yul\":6571:6574   */\n  dup2\n    /* \"#utility.yul\":6564:6569   */\n  dup2\n    /* \"#utility.yul\":6561:6575   */\n  lt\n    /* \"#utility.yul\":6554:6674   */\n  iszero\n  tag_183\n  jumpi\n    /* \"#utility.yul\":6625:6664   */\n  tag_184\n    /* \"#utility.yul\":6662:6663   */\n  0x00\n    /* \"#utility.yul\":6655:6660   */\n  dup3\n    /* \"#utility.yul\":6625:6664   */\n  tag_84\n  jump\t// in\ntag_184:\n    /* \"#utility.yul\":6598:6599   */\n  0x01\n    /* \"#utility.yul\":6591:6596   */\n  dup2\n    /* \"#utility.yul\":6587:6600   */\n  add\n    /* \"#utility.yul\":6578:6600   */\n  swap1\n  pop\n    /* \"#utility.yul\":6554:6674   */\n  jump(tag_181)\ntag_183:\n    /* \"#utility.yul\":6494:6680   */\n  pop\n  pop\n  jump\t// out\n    /* \"#utility.yul\":6686:7229   */\ntag_86:\n    /* \"#utility.yul\":6787:6789   */\n  0x1f\n    /* \"#utility.yul\":6782:6785   */\n  dup3\n    /* \"#utility.yul\":6779:6790   */\n  gt\n    /* \"#utility.yul\":6776:7222   */\n  iszero\n  tag_186\n  jumpi\n    /* \"#utility.yul\":6821:6859   */\n  tag_187\n    /* \"#utility.yul\":6853:6858   */\n  dup2\n    /* \"#utility.yul\":6821:6859   */\n  tag_75\n  jump\t// in\ntag_187:\n    /* \"#utility.yul\":6905:6934   */\n  tag_188\n    /* \"#utility.yul\":6923:6933   */\n  dup5\n    /* \"#utility.yul\":6905:6934   */\n  tag_76\n  jump\t// in\ntag_188:\n    /* \"#utility.yul\":6895:6903   */\n  dup2\n    /* \"#utility.yul\":6891:6935   */\n  add\n    /* \"#utility.yul\":7088:7090   */\n  0x20\n    /* \"#utility.yul\":7076:7086   */\n  dup6\n    /* \"#utility.yul\":7073:7091   */\n  lt\n    /* \"#utility.yul\":7070:7119   */\n  iszero\n  tag_189\n  jumpi\n    /* \"#utility.yul\":7109:7117   */\n  dup2\n    /* \"#utility.yul\":7094:7117   */\n  swap1\n  pop\n    /* \"#utility.yul\":7070:7119   */\ntag_189:\n    /* \"#utility.yul\":7132:7212   */\n  tag_190\n    /* \"#utility.yul\":7188:7210   */\n  tag_191\n    /* \"#utility.yul\":7206:7209   */\n  dup6\n    /* \"#utility.yul\":7188:7210   */\n  tag_76\n  jump\t// in\ntag_191:\n    /* \"#utility.yul\":7178:7186   */\n  dup4\n    /* \"#utility.yul\":7174:7211   */\n  add\n    /* \"#utility.yul\":7161:7172   */\n  dup3\n    /* \"#utility.yul\":7132:7212   */\n  tag_85\n  jump\t// in\ntag_190:\n    /* \"#utility.yul\":6791:7222   */\n  pop\n  pop\n    /* \"#utility.yul\":6776:7222   */\ntag_186:\n    /* \"#utility.yul\":6686:7229   */\n  pop\n  pop\n  pop\n  jump\t// out\n    /* \"#utility.yul\":7235:7352   */\ntag_87:\n    /* \"#utility.yul\":7289:7297   */\n  0x00\n    /* \"#utility.yul\":7339:7344   */\n  dup3\n    /* \"#utility.yul\":7333:7337   */\n  dup3\n    /* \"#utility.yul\":7329:7345   */\n  shr\n    /* \"#utility.yul\":7308:7345   */\n  swap1\n  pop\n    /* \"#utility.yul\":7235:7352   */\n  swap3\n  swap2\n  pop\n  pop\n  jump\t// out\n    /* \"#utility.yul\":7358:7527   */\ntag_88:\n    /* \"#utility.yul\":7402:7408   */\n  0x00\n    /* \"#utility.yul\":7435:7486   */\n  tag_194\n    /* \"#utility.yul\":7483:7484   */\n  0x00\n    /* \"#utility.yul\":7479:7485   */\n  not\n    /* \"#utility.yul\":7471:7476   */\n  dup5\n    /* \"#utility.yul\":7468:7469   */\n  0x08\n    /* \"#utility.yul\":7464:7477   */\n  mul\n    /* \"#utility.yul\":7435:7486   */\n  tag_87\n  jump\t// in\ntag_194:\n    /* \"#utility.yul\":7431:7487   */\n  not\n    /* \"#utility.yul\":7516:7520   */\n  dup1\n    /* \"#utility.yul\":7510:7514   */\n  dup4\n    /* \"#utility.yul\":7506:7521   */\n  and\n    /* \"#utility.yul\":7496:7521   */\n  swap2\n  pop\n    /* \"#utility.yul\":7409:7527   */\n  pop\n    /* \"#utility.yul\":7358:7527   */\n  swap3\n  swap2\n  pop\n  pop\n  jump\t// out\n    /* \"#utility.yul\":7532:7827   */\ntag_89:\n    /* \"#utility.yul\":7608:7612   */\n  0x00\n    /* \"#utility.yul\":7754:7783   */\n  tag_196\n    /* \"#utility.yul\":7779:7782   */\n  dup4\n    /* \"#utility.yul\":7773:7777   */\n  dup4\n    /* \"#utility.yul\":7754:7783   */\n  tag_88\n  jump\t// in\ntag_196:\n    /* \"#utility.yul\":7746:7783   */\n  swap2\n  pop\n    /* \"#utility.yul\":7816:7819   */\n  dup3\n    /* \"#utility.yul\":7813:7814   */\n  0x02\n    /* \"#utility.yul\":7809:7820   */\n  mul\n    /* \"#utility.yul\":7803:7807   */\n  dup3\n    /* \"#utility.yul\":7800:7821   */\n  or\n    /* \"#utility.yul\":7792:7821   */\n  swap1\n  pop\n    /* \"#utility.yul\":7532:7827   */\n  swap3\n  swap2\n  pop\n  pop\n  jump\t// out\n    /* \"#utility.yul\":7832:9227   */\ntag_9:\n    /* \"#utility.yul\":7949:7986   */\n  tag_198\n    /* \"#utility.yul\":7982:7985   */\n  dup3\n    /* \"#utility.yul\":7949:7986   */\n  tag_72\n  jump\t// in\ntag_198:\n    /* \"#utility.yul\":8051:8069   */\n  0xffffffffffffffff\n    /* \"#utility.yul\":8043:8049   */\n  dup2\n    /* \"#utility.yul\":8040:8070   */\n  gt\n    /* \"#utility.yul\":8037:8093   */\n  iszero\n  tag_199\n  jumpi\n    /* \"#utility.yul\":8073:8091   */\n  tag_200\n  tag_62\n  jump\t// in\ntag_200:\n    /* \"#utility.yul\":8037:8093   */\ntag_199:\n    /* \"#utility.yul\":8117:8155   */\n  tag_201\n    /* \"#utility.yul\":8149:8153   */\n  dup3\n    /* \"#utility.yul\":8143:8154   */\n  sload\n    /* \"#utility.yul\":8117:8155   */\n  tag_74\n  jump\t// in\ntag_201:\n    /* \"#utility.yul\":8202:8269   */\n  tag_202\n    /* \"#utility.yul\":8262:8268   */\n  dup3\n    /* \"#utility.yul\":8254:8260   */\n  dup3\n    /* \"#utility.yul\":8248:8252   */\n  dup6\n    /* \"#utility.yul\":8202:8269   */\n  tag_86\n  jump\t// in\ntag_202:\n    /* \"#utility.yul\":8296:8297   */\n  0x00\n    /* \"#utility.yul\":8320:8324   */\n  0x20\n    /* \"#utility.yul\":8307:8324   */\n  swap1\n  pop\n    /* \"#utility.yul\":8352:8354   */\n  0x1f\n    /* \"#utility.yul\":8344:8350   */\n  dup4\n    /* \"#utility.yul\":8341:8355   */\n  gt\n    /* \"#utility.yul\":8369:8370   */\n  0x01\n    /* \"#utility.yul\":8364:8982   */\n  dup2\n  eq\n  tag_204\n  jumpi\n    /* \"#utility.yul\":9026:9027   */\n  0x00\n    /* \"#utility.yul\":9043:9049   */\n  dup5\n    /* \"#utility.yul\":9040:9117   */\n  iszero\n  tag_205\n  jumpi\n    /* \"#utility.yul\":9092:9101   */\n  dup3\n    /* \"#utility.yul\":9087:9090   */\n  dup8\n    /* \"#utility.yul\":9083:9102   */\n  add\n    /* \"#utility.yul\":9077:9103   */\n  mload\n    /* \"#utility.yul\":9068:9103   */\n  swap1\n  pop\n    /* \"#utility.yul\":9040:9117   */\ntag_205:\n    /* \"#utility.yul\":9143:9210   */\n  tag_206\n    /* \"#utility.yul\":9203:9209   */\n  dup6\n    /* \"#utility.yul\":9196:9201   */\n  dup3\n    /* \"#utility.yul\":9143:9210   */\n  tag_89\n  jump\t// in\ntag_206:\n    /* \"#utility.yul\":9137:9141   */\n  dup7\n    /* \"#utility.yul\":9130:9211   */\n  sstore\n    /* \"#utility.yul\":8999:9221   */\n  pop\n    /* \"#utility.yul\":8334:9221   */\n  jump(tag_203)\n    /* \"#utility.yul\":8364:8982   */\ntag_204:\n    /* \"#utility.yul\":8416:8420   */\n  0x1f\n    /* \"#utility.yul\":8412:8421   */\n  not\n    /* \"#utility.yul\":8404:8410   */\n  dup5\n    /* \"#utility.yul\":8400:8422   */\n  and\n    /* \"#utility.yul\":8450:8487   */\n  tag_207\n    /* \"#utility.yul\":8482:8486   */\n  dup7\n    /* \"#utility.yul\":8450:8487   */\n  tag_75\n  jump\t// in\ntag_207:\n    /* \"#utility.yul\":8509:8510   */\n  0x00\n    /* \"#utility.yul\":8523:8731   */\ntag_208:\n    /* \"#utility.yul\":8537:8544   */\n  dup3\n    /* \"#utility.yul\":8534:8535   */\n  dup2\n    /* \"#utility.yul\":8531:8545   */\n  lt\n    /* \"#utility.yul\":8523:8731   */\n  iszero\n  tag_210\n  jumpi\n    /* \"#utility.yul\":8616:8625   */\n  dup5\n    /* \"#utility.yul\":8611:8614   */\n  dup10\n    /* \"#utility.yul\":8607:8626   */\n  add\n    /* \"#utility.yul\":8601:8627   */\n  mload\n    /* \"#utility.yul\":8593:8599   */\n  dup3\n    /* \"#utility.yul\":8586:8628   */\n  sstore\n    /* \"#utility.yul\":8667:8668   */\n  0x01\n    /* \"#utility.yul\":8659:8665   */\n  dup3\n    /* \"#utility.yul\":8655:8669   */\n  add\n    /* \"#utility.yul\":8645:8669   */\n  swap2\n  pop\n    /* \"#utility.yul\":8714:8716   */\n  0x20\n    /* \"#utility.yul\":8703:8712   */\n  dup6\n    /* \"#utility.yul\":8699:8717   */\n  add\n    /* \"#utility.yul\":8686:8717   */\n  swap5\n  pop\n    /* \"#utility.yul\":8560:8564   */\n  0x20\n    /* \"#utility.yul\":8557:8558   */\n  dup2\n    /* \"#utility.yul\":8553:8565   */\n  add\n    /* \"#utility.yul\":8548:8565   */\n  swap1\n  pop\n    /* \"#utility.yul\":8523:8731   */\n  jump(tag_208)\ntag_210:\n    /* \"#utility.yul\":8759:8765   */\n  dup7\n    /* \"#utility.yul\":8750:8757   */\n  dup4\n    /* \"#utility.yul\":8747:8766   */\n  lt\n    /* \"#utility.yul\":8744:8923   */\n  iszero\n  tag_211\n  jumpi\n    /* \"#utility.yul\":8817:8826   */\n  dup5\n    /* \"#utility.yul\":8812:8815   */\n  dup10\n    /* \"#utility.yul\":8808:8827   */\n  add\n    /* \"#utility.yul\":8802:8828   */\n  mload\n    /* \"#utility.yul\":8860:8908   */\n  tag_212\n    /* \"#utility.yul\":8902:8906   */\n  0x1f\n    /* \"#utility.yul\":8894:8900   */\n  dup10\n    /* \"#utility.yul\":8890:8907   */\n  and\n    /* \"#utility.yul\":8879:8888   */\n  dup3\n    /* \"#utility.yul\":8860:8908   */\n  tag_88\n  jump\t// in\ntag_212:\n    /* \"#utility.yul\":8852:8858   */\n  dup4\n    /* \"#utility.yul\":8845:8909   */\n  sstore\n    /* \"#utility.yul\":8767:8923   */\n  pop\n    /* \"#utility.yul\":8744:8923   */\ntag_211:\n    /* \"#utility.yul\":8969:8970   */\n  0x01\n    /* \"#utility.yul\":8965:8966   */\n  0x02\n    /* \"#utility.yul\":8957:8963   */\n  dup9\n    /* \"#utility.yul\":8953:8967   */\n  mul\n    /* \"#utility.yul\":8949:8971   */\n  add\n    /* \"#utility.yul\":8943:8947   */\n  dup9\n    /* \"#utility.yul\":8936:8972   */\n  sstore\n    /* \"#utility.yul\":8371:8982   */\n  pop\n  pop\n  pop\n    /* \"#utility.yul\":8334:9221   */\ntag_203:\n  pop\n    /* \"#utility.yul\":7924:9227   */\n  pop\n  pop\n  pop\n    /* \"#utility.yul\":7832:9227   */\n  pop\n  pop\n  jump\t// out\n    /* \"#utility.yul\":9233:9359   */\ntag_90:\n    /* \"#utility.yul\":9270:9277   */\n  0x00\n    /* \"#utility.yul\":9310:9352   */\n  0xffffffffffffffffffffffffffffffffffffffff\n    /* \"#utility.yul\":9303:9308   */\n  dup3\n    /* \"#utility.yul\":9299:9353   */\n  and\n    /* \"#utility.yul\":9288:9353   */\n  swap1\n  pop\n    /* \"#utility.yul\":9233:9359   */\n  swap2\n  swap1\n  pop\n  jump\t// out\n    /* \"#utility.yul\":9365:9461   */\ntag_91:\n    /* \"#utility.yul\":9402:9409   */\n  0x00\n    /* \"#utility.yul\":9431:9455   */\n  tag_215\n    /* \"#utility.yul\":9449:9454   */\n  dup3\n    /* \"#utility.yul\":9431:9455   */\n  tag_90\n  jump\t// in\ntag_215:\n    /* \"#utility.yul\":9420:9455   */\n  swap1\n  pop\n    /* \"#utility.yul\":9365:9461   */\n  swap2\n  swap1\n  pop\n  jump\t// out\n    /* \"#utility.yul\":9467:9585   */\ntag_92:\n    /* \"#utility.yul\":9554:9578   */\n  tag_217\n    /* \"#utility.yul\":9572:9577   */\n  dup2\n    /* \"#utility.yul\":9554:9578   */\n  tag_91\n  jump\t// in\ntag_217:\n    /* \"#utility.yul\":9549:9552   */\n  dup3\n    /* \"#utility.yul\":9542:9579   */\n  mstore\n    /* \"#utility.yul\":9467:9585   */\n  pop\n  pop\n  jump\t// out\n    /* \"#utility.yul\":9591:9813   */\ntag_14:\n    /* \"#utility.yul\":9684:9688   */\n  0x00\n    /* \"#utility.yul\":9722:9724   */\n  0x20\n    /* \"#utility.yul\":9711:9720   */\n  dup3\n    /* \"#utility.yul\":9707:9725   */\n  add\n    /* \"#utility.yul\":9699:9725   */\n  swap1\n  pop\n    /* \"#utility.yul\":9735:9806   */\n  tag_219\n    /* \"#utility.yul\":9803:9804   */\n  0x00\n    /* \"#utility.yul\":9792:9801   */\n  dup4\n    /* \"#utility.yul\":9788:9805   */\n  add\n    /* \"#utility.yul\":9779:9785   */\n  dup5\n    /* \"#utility.yul\":9735:9806   */\n  tag_92\n  jump\t// in\ntag_219:\n    /* \"#utility.yul\":9591:9813   */\n  swap3\n  swap2\n  pop\n  pop\n  jump\t// out\n    /* \"#utility.yul\":9819:9988   */\ntag_93:\n    /* \"#utility.yul\":9903:9914   */\n  0x00\n    /* \"#utility.yul\":9937:9943   */\n  dup3\n    /* \"#utility.yul\":9932:9935   */\n  dup3\n    /* \"#utility.yul\":9925:9944   */\n  mstore\n    /* \"#utility.yul\":9977:9981   */\n  0x20\n    /* \"#utility.yul\":9972:9975   */\n  dup3\n    /* \"#utility.yul\":9968:9982   */\n  add\n    /* \"#utility.yul\":9953:9982   */\n  swap1\n  pop\n    /* \"#utility.yul\":9819:9988   */\n  swap3\n  swap2\n  pop\n  pop\n  jump\t// out\n    /* \"#utility.yul\":9994:10153   */\ntag_94:\n    /* \"#utility.yul\":10134:10145   */\n  0x456d707479205552490000000000000000000000000000000000000000000000\n    /* \"#utility.yul\":10130:10131   */\n  0x00\n    /* \"#utility.yul\":10122:10128   */\n  dup3\n    /* \"#utility.yul\":10118:10132   */\n  add\n    /* \"#utility.yul\":10111:10146   */\n  mstore\n    /* \"#utility.yul\":9994:10153   */\n  pop\n  jump\t// out\n    /* \"#utility.yul\":10159:10524   */\ntag_95:\n    /* \"#utility.yul\":10301:10304   */\n  0x00\n    /* \"#utility.yul\":10322:10388   */\n  tag_223\n    /* \"#utility.yul\":10386:10387   */\n  0x09\n    /* \"#utility.yul\":10381:10384   */\n  dup4\n    /* \"#utility.yul\":10322:10388   */\n  tag_93\n  jump\t// in\ntag_223:\n    /* \"#utility.yul\":10315:10388   */\n  swap2\n  pop\n    /* \"#utility.yul\":10397:10490   */\n  tag_224\n    /* \"#utility.yul\":10486:10489   */\n  dup3\n    /* \"#utility.yul\":10397:10490   */\n  tag_94\n  jump\t// in\ntag_224:\n    /* \"#utility.yul\":10515:10517   */\n  0x20\n    /* \"#utility.yul\":10510:10513   */\n  dup3\n    /* \"#utility.yul\":10506:10518   */\n  add\n    /* \"#utility.yul\":10499:10518   */\n  swap1\n  pop\n    /* \"#utility.yul\":10159:10524   */\n  swap2\n  swap1\n  pop\n  jump\t// out\n    /* \"#utility.yul\":10530:10949   */\ntag_20:\n    /* \"#utility.yul\":10696:10700   */\n  0x00\n    /* \"#utility.yul\":10734:10736   */\n  0x20\n    /* \"#utility.yul\":10723:10732   */\n  dup3\n    /* \"#utility.yul\":10719:10737   */\n  add\n    /* \"#utility.yul\":10711:10737   */\n  swap1\n  pop\n    /* \"#utility.yul\":10783:10792   */\n  dup2\n    /* \"#utility.yul\":10777:10781   */\n  dup2\n    /* \"#utility.yul\":10773:10793   */\n  sub\n    /* \"#utility.yul\":10769:10770   */\n  0x00\n    /* \"#utility.yul\":10758:10767   */\n  dup4\n    /* \"#utility.yul\":10754:10771   */\n  add\n    /* \"#utility.yul\":10747:10794   */\n  mstore\n    /* \"#utility.yul\":10811:10942   */\n  tag_226\n    /* \"#utility.yul\":10937:10941   */\n  dup2\n    /* \"#utility.yul\":10811:10942   */\n  tag_95\n  jump\t// in\ntag_226:\n    /* \"#utility.yul\":10803:10942   */\n  swap1\n  pop\n    /* \"#utility.yul\":10530:10949   */\n  swap2\n  swap1\n  pop\n  jump\t// out\n    /* \"#utility.yul\":10955:11135   */\ntag_96:\n    /* \"#utility.yul\":11003:11080   */\n  0x4e487b7100000000000000000000000000000000000000000000000000000000\n    /* \"#utility.yul\":11000:11001   */\n  0x00\n    /* \"#utility.yul\":10993:11081   */\n  mstore\n    /* \"#utility.yul\":11100:11104   */\n  0x11\n    /* \"#utility.yul\":11097:11098   */\n  0x04\n    /* \"#utility.yul\":11090:11105   */\n  mstore\n    /* \"#utility.yul\":11124:11128   */\n  0x24\n    /* \"#utility.yul\":11121:11122   */\n  0x00\n    /* \"#utility.yul\":11114:11129   */\n  revert\n    /* \"#utility.yul\":11141:11243   */\ntag_97:\n    /* \"#utility.yul\":11183:11191   */\n  0x00\n    /* \"#utility.yul\":11230:11235   */\n  dup2\n    /* \"#utility.yul\":11227:11228   */\n  0x01\n    /* \"#utility.yul\":11223:11236   */\n  shr\n    /* \"#utility.yul\":11202:11236   */\n  swap1\n  pop\n    /* \"#utility.yul\":11141:11243   */\n  swap2\n  swap1\n  pop\n  jump\t// out\n    /* \"#utility.yul\":11249:12097   */\ntag_98:\n    /* \"#utility.yul\":11310:11315   */\n  0x00\n    /* \"#utility.yul\":11317:11321   */\n  dup1\n    /* \"#utility.yul\":11341:11347   */\n  dup3\n    /* \"#utility.yul\":11332:11347   */\n  swap2\n  pop\n    /* \"#utility.yul\":11365:11370   */\n  dup4\n    /* \"#utility.yul\":11356:11370   */\n  swap1\n  pop\n    /* \"#utility.yul\":11379:12091   */\ntag_230:\n    /* \"#utility.yul\":11400:11401   */\n  0x01\n    /* \"#utility.yul\":11390:11398   */\n  dup6\n    /* \"#utility.yul\":11387:11402   */\n  gt\n    /* \"#utility.yul\":11379:12091   */\n  iszero\n  tag_232\n  jumpi\n    /* \"#utility.yul\":11495:11499   */\n  dup1\n    /* \"#utility.yul\":11490:11493   */\n  dup7\n    /* \"#utility.yul\":11486:11500   */\n  div\n    /* \"#utility.yul\":11480:11484   */\n  dup2\n    /* \"#utility.yul\":11477:11501   */\n  gt\n    /* \"#utility.yul\":11474:11524   */\n  iszero\n  tag_233\n  jumpi\n    /* \"#utility.yul\":11504:11522   */\n  tag_234\n  tag_96\n  jump\t// in\ntag_234:\n    /* \"#utility.yul\":11474:11524   */\ntag_233:\n    /* \"#utility.yul\":11554:11555   */\n  0x01\n    /* \"#utility.yul\":11544:11552   */\n  dup6\n    /* \"#utility.yul\":11540:11556   */\n  and\n    /* \"#utility.yul\":11537:11988   */\n  iszero\n  tag_235\n  jumpi\n    /* \"#utility.yul\":11969:11973   */\n  dup1\n    /* \"#utility.yul\":11962:11967   */\n  dup3\n    /* \"#utility.yul\":11958:11974   */\n  mul\n    /* \"#utility.yul\":11949:11974   */\n  swap2\n  pop\n    /* \"#utility.yul\":11537:11988   */\ntag_235:\n    /* \"#utility.yul\":12019:12023   */\n  dup1\n    /* \"#utility.yul\":12013:12017   */\n  dup2\n    /* \"#utility.yul\":12009:12024   */\n  mul\n    /* \"#utility.yul\":12001:12024   */\n  swap1\n  pop\n    /* \"#utility.yul\":12049:12081   */\n  tag_236\n    /* \"#utility.yul\":12072:12080   */\n  dup6\n    /* \"#utility.yul\":12049:12081   */\n  tag_97\n  jump\t// in\ntag_236:\n    /* \"#utility.yul\":12037:12081   */\n  swap5\n  pop\n    /* \"#utility.yul\":11379:12091   */\n  jump(tag_230)\ntag_232:\n    /* \"#utility.yul\":11249:12097   */\n  swap5\n  pop\n  swap5\n  swap3\n  pop\n  pop\n  pop\n  jump\t// out\n    /* \"#utility.yul\":12103:13176   */\ntag_99:\n    /* \"#utility.yul\":12157:12162   */\n  0x00\n    /* \"#utility.yul\":12348:12356   */\n  dup3\n    /* \"#utility.yul\":12338:12378   */\n  tag_238\n  jumpi\n    /* \"#utility.yul\":12369:12370   */\n  0x01\n    /* \"#utility.yul\":12360:12370   */\n  swap1\n  pop\n    /* \"#utility.yul\":12371:12376   */\n  jump(tag_237)\n    /* \"#utility.yul\":12338:12378   */\ntag_238:\n    /* \"#utility.yul\":12397:12401   */\n  dup2\n    /* \"#utility.yul\":12387:12423   */\n  tag_239\n  jumpi\n    /* \"#utility.yul\":12414:12415   */\n  0x00\n    /* \"#utility.yul\":12405:12415   */\n  swap1\n  pop\n    /* \"#utility.yul\":12416:12421   */\n  jump(tag_237)\n    /* \"#utility.yul\":12387:12423   */\ntag_239:\n    /* \"#utility.yul\":12483:12487   */\n  dup2\n    /* \"#utility.yul\":12531:12532   */\n  0x01\n    /* \"#utility.yul\":12526:12553   */\n  dup2\n  eq\n  tag_241\n  jumpi\n    /* \"#utility.yul\":12567:12568   */\n  0x02\n    /* \"#utility.yul\":12562:12753   */\n  dup2\n  eq\n  tag_242\n  jumpi\n    /* \"#utility.yul\":12476:12753   */\n  jump(tag_240)\n    /* \"#utility.yul\":12526:12553   */\ntag_241:\n    /* \"#utility.yul\":12544:12545   */\n  0x01\n    /* \"#utility.yul\":12535:12545   */\n  swap2\n  pop\n    /* \"#utility.yul\":12546:12551   */\n  pop\n  jump(tag_237)\n    /* \"#utility.yul\":12562:12753   */\ntag_242:\n    /* \"#utility.yul\":12607:12610   */\n  0xff\n    /* \"#utility.yul\":12597:12605   */\n  dup5\n    /* \"#utility.yul\":12594:12611   */\n  gt\n    /* \"#utility.yul\":12591:12634   */\n  iszero\n  tag_243\n  jumpi\n    /* \"#utility.yul\":12614:12632   */\n  tag_244\n  tag_96\n  jump\t// in\ntag_244:\n    /* \"#utility.yul\":12591:12634   */\ntag_243:\n    /* \"#utility.yul\":12663:12671   */\n  dup4\n    /* \"#utility.yul\":12660:12661   */\n  0x02\n    /* \"#utility.yul\":12656:12672   */\n  exp\n    /* \"#utility.yul\":12647:12672   */\n  swap2\n  pop\n    /* \"#utility.yul\":12698:12701   */\n  dup5\n    /* \"#utility.yul\":12691:12696   */\n  dup3\n    /* \"#utility.yul\":12688:12702   */\n  gt\n    /* \"#utility.yul\":12685:12725   */\n  iszero\n  tag_245\n  jumpi\n    /* \"#utility.yul\":12705:12723   */\n  tag_246\n  tag_96\n  jump\t// in\ntag_246:\n    /* \"#utility.yul\":12685:12725   */\ntag_245:\n    /* \"#utility.yul\":12738:12743   */\n  pop\n  jump(tag_237)\n    /* \"#utility.yul\":12476:12753   */\ntag_240:\n  pop\n    /* \"#utility.yul\":12862:12864   */\n  0x20\n    /* \"#utility.yul\":12852:12860   */\n  dup4\n    /* \"#utility.yul\":12849:12865   */\n  lt\n    /* \"#utility.yul\":12843:12846   */\n  0x0133\n    /* \"#utility.yul\":12837:12841   */\n  dup4\n    /* \"#utility.yul\":12834:12847   */\n  lt\n    /* \"#utility.yul\":12830:12866   */\n  and\n    /* \"#utility.yul\":12812:12814   */\n  0x4e\n    /* \"#utility.yul\":12802:12810   */\n  dup5\n    /* \"#utility.yul\":12799:12815   */\n  lt\n    /* \"#utility.yul\":12794:12796   */\n  0x0b\n    /* \"#utility.yul\":12788:12792   */\n  dup5\n    /* \"#utility.yul\":12785:12797   */\n  lt\n    /* \"#utility.yul\":12781:12816   */\n  and\n    /* \"#utility.yul\":12765:12876   */\n  or\n    /* \"#utility.yul\":12762:13008   */\n  iszero\n  tag_247\n  jumpi\n    /* \"#utility.yul\":12918:12926   */\n  dup3\n    /* \"#utility.yul\":12912:12916   */\n  dup3\n    /* \"#utility.yul\":12908:12927   */\n  exp\n    /* \"#utility.yul\":12899:12927   */\n  swap1\n  pop\n    /* \"#utility.yul\":12953:12956   */\n  dup4\n    /* \"#utility.yul\":12946:12951   */\n  dup2\n    /* \"#utility.yul\":12943:12957   */\n  gt\n    /* \"#utility.yul\":12940:12980   */\n  iszero\n  tag_248\n  jumpi\n    /* \"#utility.yul\":12960:12978   */\n  tag_249\n  tag_96\n  jump\t// in\ntag_249:\n    /* \"#utility.yul\":12940:12980   */\ntag_248:\n    /* \"#utility.yul\":12993:12998   */\n  jump(tag_237)\n    /* \"#utility.yul\":12762:13008   */\ntag_247:\n    /* \"#utility.yul\":13033:13075   */\n  tag_250\n    /* \"#utility.yul\":13071:13074   */\n  dup5\n    /* \"#utility.yul\":13061:13069   */\n  dup5\n    /* \"#utility.yul\":13055:13059   */\n  dup5\n    /* \"#utility.yul\":13052:13053   */\n  0x01\n    /* \"#utility.yul\":13033:13075   */\n  tag_98\n  jump\t// in\ntag_250:\n    /* \"#utility.yul\":13018:13075   */\n  swap3\n  pop\n  swap1\n  pop\n    /* \"#utility.yul\":13107:13111   */\n  dup2\n    /* \"#utility.yul\":13102:13105   */\n  dup5\n    /* \"#utility.yul\":13098:13112   */\n  div\n    /* \"#utility.yul\":13091:13096   */\n  dup2\n    /* \"#utility.yul\":13088:13113   */\n  gt\n    /* \"#utility.yul\":13085:13136   */\n  iszero\n  tag_251\n  jumpi\n    /* \"#utility.yul\":13116:13134   */\n  tag_252\n  tag_96\n  jump\t// in\ntag_252:\n    /* \"#utility.yul\":13085:13136   */\ntag_251:\n    /* \"#utility.yul\":13165:13169   */\n  dup2\n    /* \"#utility.yul\":13158:13163   */\n  dup2\n    /* \"#utility.yul\":13154:13170   */\n  mul\n    /* \"#utility.yul\":13145:13170   */\n  swap1\n  pop\n    /* \"#utility.yul\":12103:13176   */\ntag_237:\n  swap4\n  swap3\n  pop\n  pop\n  pop\n  jump\t// out\n    /* \"#utility.yul\":13182:13268   */\ntag_100:\n    /* \"#utility.yul\":13217:13224   */\n  0x00\n    /* \"#utility.yul\":13257:13261   */\n  0xff\n    /* \"#utility.yul\":13250:13255   */\n  dup3\n    /* \"#utility.yul\":13246:13262   */\n  and\n    /* \"#utility.yul\":13235:13262   */\n  swap1\n  pop\n    /* \"#utility.yul\":13182:13268   */\n  swap2\n  swap1\n  pop\n  jump\t// out\n    /* \"#utility.yul\":13274:13555   */\ntag_25:\n    /* \"#utility.yul\":13332:13337   */\n  0x00\n    /* \"#utility.yul\":13356:13379   */\n  tag_255\n    /* \"#utility.yul\":13374:13378   */\n  dup3\n    /* \"#utility.yul\":13356:13379   */\n  tag_69\n  jump\t// in\ntag_255:\n    /* \"#utility.yul\":13348:13379   */\n  swap2\n  pop\n    /* \"#utility.yul\":13400:13425   */\n  tag_256\n    /* \"#utility.yul\":13416:13424   */\n  dup4\n    /* \"#utility.yul\":13400:13425   */\n  tag_100\n  jump\t// in\ntag_256:\n    /* \"#utility.yul\":13388:13425   */\n  swap3\n  pop\n    /* \"#utility.yul\":13444:13548   */\n  tag_257\n    /* \"#utility.yul\":13481:13547   */\n  0xffffffffffffffffffffffffffffffffffffffffffffffffffffffffffffffff\n    /* \"#utility.yul\":13471:13479   */\n  dup5\n    /* \"#utility.yul\":13465:13469   */\n  dup5\n    /* \"#utility.yul\":13444:13548   */\n  tag_99\n  jump\t// in\ntag_257:\n    /* \"#utility.yul\":13435:13548   */\n  swap1\n  pop\n    /* \"#utility.yul\":13274:13555   */\n  swap3\n  swap2\n  pop\n  pop\n  jump\t// out\n    /* \"#utility.yul\":13561:13741   */\ntag_101:\n    /* \"#utility.yul\":13609:13686   */\n  0x4e487b7100000000000000000000000000000000000000000000000000000000\n    /* \"#utility.yul\":13606:13607   */\n  0x00\n    /* \"#utility.yul\":13599:13687   */\n  mstore\n    /* \"#utility.yul\":13706:13710   */\n  0x12\n    /* \"#utility.yul\":13703:13704   */\n  0x04\n    /* \"#utility.yul\":13696:13711   */\n  mstore\n    /* \"#utility.yul\":13730:13734   */\n  0x24\n    /* \"#utility.yul\":13727:13728   */\n  0x00\n    /* \"#utility.yul\":13720:13735   */\n  revert\n    /* \"#utility.yul\":13747:13932   */\ntag_27:\n    /* \"#utility.yul\":13787:13788   */\n  0x00\n    /* \"#utility.yul\":13804:13824   */\n  tag_260\n    /* \"#utility.yul\":13822:13823   */\n  dup3\n    /* \"#utility.yul\":13804:13824   */\n  tag_69\n  jump\t// in\ntag_260:\n    /* \"#utility.yul\":13799:13824   */\n  swap2\n  pop\n    /* \"#utility.yul\":13838:13858   */\n  tag_261\n    /* \"#utility.yul\":13856:13857   */\n  dup4\n    /* \"#utility.yul\":13838:13858   */\n  tag_69\n  jump\t// in\ntag_261:\n    /* \"#utility.yul\":13833:13858   */\n  swap3\n  pop\n    /* \"#utility.yul\":13877:13878   */\n  dup3\n    /* \"#utility.yul\":13867:13902   */\n  tag_262\n  jumpi\n    /* \"#utility.yul\":13882:13900   */\n  tag_263\n  tag_101\n  jump\t// in\ntag_263:\n    /* \"#utility.yul\":13867:13902   */\ntag_262:\n    /* \"#utility.yul\":13924:13925   */\n  dup3\n    /* \"#utility.yul\":13921:13922   */\n  dup3\n    /* \"#utility.yul\":13917:13926   */\n  div\n    /* \"#utility.yul\":13912:13926   */\n  swap1\n  pop\n    /* \"#utility.yul\":13747:13932   */\n  swap3\n  swap2\n  pop\n  pop\n  jump\t// out\n    /* \"#utility.yul\":13938:14104   */\ntag_102:\n    /* \"#utility.yul\":14078:14096   */\n  0x416d6f756e7420746f6f206c6172676500000000000000000000000000000000\n    /* \"#utility.yul\":14074:14075   */\n  0x00\n    /* \"#utility.yul\":14066:14072   */\n  dup3\n    /* \"#utility.yul\":14062:14076   */\n  add\n    /* \"#utility.yul\":14055:14097   */\n  mstore\n    /* \"#utility.yul\":13938:14104   */\n  pop\n  jump\t// out\n    /* \"#utility.yul\":14110:14476   */\ntag_103:\n    /* \"#utility.yul\":14252:14255   */\n  0x00\n    /* \"#utility.yul\":14273:14340   */\n  tag_266\n    /* \"#utility.yul\":14337:14339   */\n  0x10\n    /* \"#utility.yul\":14332:14335   */\n  dup4\n    /* \"#utility.yul\":14273:14340   */\n  tag_93\n  jump\t// in\ntag_266:\n    /* \"#utility.yul\":14266:14340   */\n  swap2\n  pop\n    /* \"#utility.yul\":14349:14442   */\n  tag_267\n    /* \"#utility.yul\":14438:14441   */\n  dup3\n    /* \"#utility.yul\":14349:14442   */\n  tag_102\n  jump\t// in\ntag_267:\n    /* \"#utility.yul\":14467:14469   */\n  0x20\n    /* \"#utility.yul\":14462:14465   */\n  dup3\n    /* \"#utility.yul\":14458:14470   */\n  add\n    /* \"#utility.yul\":14451:14470   */\n  swap1\n  pop\n    /* \"#utility.yul\":14110:14476   */\n  swap2\n  swap1\n  pop\n  jump\t// out\n    /* \"#utility.yul\":14482:14901   */\ntag_30:\n    /* \"#utility.yul\":14648:14652   */\n  0x00\n    /* \"#utility.yul\":14686:14688   */\n  0x20\n    /* \"#utility.yul\":14675:14684   */\n  dup3\n    /* \"#utility.yul\":14671:14689   */\n  add\n    /* \"#utility.yul\":14663:14689   */\n  swap1\n  pop\n    /* \"#utility.yul\":14735:14744   */\n  dup2\n    /* \"#utility.yul\":14729:14733   */\n  dup2\n    /* \"#utility.yul\":14725:14745   */\n  sub\n    /* \"#utility.yul\":14721:14722   */\n  0x00\n    /* \"#utility.yul\":14710:14719   */\n  dup4\n    /* \"#utility.yul\":14706:14723   */\n  add\n    /* \"#utility.yul\":14699:14746   */\n  mstore\n    /* \"#utility.yul\":14763:14894   */\n  tag_269\n    /* \"#utility.yul\":14889:14893   */\n  dup2\n    /* \"#utility.yul\":14763:14894   */\n  tag_103\n  jump\t// in\ntag_269:\n    /* \"#utility.yul\":14755:14894   */\n  swap1\n  pop\n    /* \"#utility.yul\":14482:14901   */\n  swap2\n  swap1\n  pop\n  jump\t// out\n    /* \"#utility.yul\":14907:15317   */\ntag_34:\n    /* \"#utility.yul\":14947:14954   */\n  0x00\n    /* \"#utility.yul\":14970:14990   */\n  tag_271\n    /* \"#utility.yul\":14988:14989   */\n  dup3\n    /* \"#utility.yul\":14970:14990   */\n  tag_69\n  jump\t// in\ntag_271:\n    /* \"#utility.yul\":14965:14990   */\n  swap2\n  pop\n    /* \"#utility.yul\":15004:15024   */\n  tag_272\n    /* \"#utility.yul\":15022:15023   */\n  dup4\n    /* \"#utility.yul\":15004:15024   */\n  tag_69\n  jump\t// in\ntag_272:\n    /* \"#utility.yul\":14999:15024   */\n  swap3\n  pop\n    /* \"#utility.yul\":15059:15060   */\n  dup3\n    /* \"#utility.yul\":15056:15057   */\n  dup3\n    /* \"#utility.yul\":15052:15061   */\n  mul\n    /* \"#utility.yul\":15081:15111   */\n  tag_273\n    /* \"#utility.yul\":15099:15110   */\n  dup2\n    /* \"#utility.yul\":15081:15111   */\n  tag_69\n  jump\t// in\ntag_273:\n    /* \"#utility.yul\":15070:15111   */\n  swap2\n  pop\n    /* \"#utility.yul\":15260:15261   */\n  dup3\n    /* \"#utility.yul\":15251:15258   */\n  dup3\n    /* \"#utility.yul\":15247:15262   */\n  div\n    /* \"#utility.yul\":15244:15245   */\n  dup5\n    /* \"#utility.yul\":15241:15263   */\n  eq\n    /* \"#utility.yul\":15221:15222   */\n  dup4\n    /* \"#utility.yul\":15214:15223   */\n  iszero\n    /* \"#utility.yul\":15194:15277   */\n  or\n    /* \"#utility.yul\":15171:15310   */\n  tag_274\n  jumpi\n    /* \"#utility.yul\":15290:15308   */\n  tag_275\n  tag_96\n  jump\t// in\ntag_275:\n    /* \"#utility.yul\":15171:15310   */\ntag_274:\n    /* \"#utility.yul\":14955:15317   */\n  pop\n    /* \"#utility.yul\":14907:15317   */\n  swap3\n  swap2\n  pop\n  pop\n  jump\t// out\n    /* \"#utility.yul\":15323:15514   */\ntag_47:\n    /* \"#utility.yul\":15363:15366   */\n  0x00\n    /* \"#utility.yul\":15382:15402   */\n  tag_277\n    /* \"#utility.yul\":15400:15401   */\n  dup3\n    /* \"#utility.yul\":15382:15402   */\n  tag_69\n  jump\t// in\ntag_277:\n    /* \"#utility.yul\":15377:15402   */\n  swap2\n  pop\n    /* \"#utility.yul\":15416:15436   */\n  tag_278\n    /* \"#utility.yul\":15434:15435   */\n  dup4\n    /* \"#utility.yul\":15416:15436   */\n  tag_69\n  jump\t// in\ntag_278:\n    /* \"#utility.yul\":15411:15436   */\n  swap3\n  pop\n    /* \"#utility.yul\":15459:15460   */\n  dup3\n    /* \"#utility.yul\":15456:15457   */\n  dup3\n    /* \"#utility.yul\":15452:15461   */\n  add\n    /* \"#utility.yul\":15445:15461   */\n  swap1\n  pop\n    /* \"#utility.yul\":15480:15483   */\n  dup1\n    /* \"#utility.yul\":15477:15478   */\n  dup3\n    /* \"#utility.yul\":15474:15484   */\n  gt\n    /* \"#utility.yul\":15471:15507   */\n  iszero\n  tag_279\n  jumpi\n    /* \"#utility.yul\":15487:15505   */\n  tag_280\n  tag_96\n  jump\t// in\ntag_280:\n    /* \"#utility.yul\":15471:15507   */\ntag_279:\n    /* \"#utility.yul\":15323:15514   */\n  swap3\n  swap2\n  pop\n  pop\n  jump\t// out\n    /* \"#utility.yul\":15520:15638   */\ntag_104:\n    /* \"#utility.yul\":15607:15631   */\n  tag_282\n    /* \"#utility.yul\":15625:15630   */\n  dup2\n    /* \"#utility.yul\":15607:15631   */\n  tag_69\n  jump\t// in\ntag_282:\n    /* \"#utility.yul\":15602:15605   */\n  dup3\n    /* \"#utility.yul\":15595:15632   */\n  mstore\n    /* \"#utility.yul\":15520:15638   */\n  pop\n  pop\n  jump\t// out\n    /* \"#utility.yul\":15644:16086   */\ntag_51:\n    /* \"#utility.yul\":15793:15797   */\n  0x00\n    /* \"#utility.yul\":15831:15833   */\n  0x60\n    /* \"#utility.yul\":15820:15829   */\n  dup3\n    /* \"#utility.yul\":15816:15834   */\n  add\n    /* \"#utility.yul\":15808:15834   */\n  swap1\n  pop\n    /* \"#utility.yul\":15844:15915   */\n  tag_284\n    /* \"#utility.yul\":15912:15913   */\n  0x00\n    /* \"#utility.yul\":15901:15910   */\n  dup4\n    /* \"#utility.yul\":15897:15914   */\n  add\n    /* \"#utility.yul\":15888:15894   */\n  dup7\n    /* \"#utility.yul\":15844:15915   */\n  tag_92\n  jump\t// in\ntag_284:\n    /* \"#utility.yul\":15925:15997   */\n  tag_285\n    /* \"#utility.yul\":15993:15995   */\n  0x20\n    /* \"#utility.yul\":15982:15991   */\n  dup4\n    /* \"#utility.yul\":15978:15996   */\n  add\n    /* \"#utility.yul\":15969:15975   */\n  dup6\n    /* \"#utility.yul\":15925:15997   */\n  tag_104\n  jump\t// in\ntag_285:\n    /* \"#utility.yul\":16007:16079   */\n  tag_286\n    /* \"#utility.yul\":16075:16077   */\n  0x40\n    /* \"#utility.yul\":16064:16073   */\n  dup4\n    /* \"#utility.yul\":16060:16078   */\n  add\n    /* \"#utility.yul\":16051:16057   */\n  dup5\n    /* \"#utility.yul\":16007:16079   */\n  tag_104\n  jump\t// in\ntag_286:\n    /* \"#utility.yul\":15644:16086   */\n  swap5\n  swap4\n  pop\n  pop\n  pop\n  pop\n  jump\t// out\n    /* \"#utility.yul\":16092:16314   */\ntag_55:\n    /* \"#utility.yul\":16185:16189   */\n  0x00\n    /* \"#utility.yul\":16223:16225   */\n  0x20\n    /* \"#utility.yul\":16212:16221   */\n  dup3\n    /* \"#utility.yul\":16208:16226   */\n  add\n    /* \"#utility.yul\":16200:16226   */\n  swap1\n  pop\n    /* \"#utility.yul\":16236:16307   */\n  tag_288\n    /* \"#utility.yul\":16304:16305   */\n  0x00\n    /* \"#utility.yul\":16293:16302   */\n  dup4\n    /* \"#utility.yul\":16289:16306   */\n  add\n    /* \"#utility.yul\":16280:16286   */\n  dup5\n    /* \"#utility.yul\":16236:16307   */\n  tag_104\n  jump\t// in\ntag_288:\n    /* \"#utility.yul\":16092:16314   */\n  swap3\n  swap2\n  pop\n  pop\n  jump\t// out\n    /* \"contracts/CustomToken.sol\":329:2379  contract CustomToken is ERC20, Ownable {... */\ntag_36:\n  dataSize(sub_0)\n  dup1\n  dataOffset(sub_0)\n  0x00\n  codecopy\n  0x00\n  return\nstop\n\nsub_0: assembly {\n        /* \"contracts/CustomToken.sol\":329:2379  contract CustomToken is ERC20, Ownable {... */\n      mstore(0x40, 0x80)\n      callvalue\n      dup1\n      iszero\n      tag_1\n      jumpi\n      0x00\n      dup1\n      revert\n    tag_1:\n      pop\n      jumpi(tag_2, lt(calldatasize, 0x04))\n      shr(0xe0, calldataload(0x00))\n      dup1\n      0x42966c68\n      gt\n      tag_19\n      jumpi\n      dup1\n      0x95d89b41\n      gt\n      tag_20\n      jumpi\n      dup1\n      0x95d89b41\n      eq\n      tag_15\n      jumpi\n      dup1\n      0xa9059cbb\n      eq\n      tag_16\n      jumpi\n      dup1\n      0xdd62ed3e\n      eq\n      tag_17\n      jumpi\n      dup1\n      0xf2fde38b\n      eq\n      tag_18\n      jumpi\n      jump(tag_2)\n    tag_20:\n      dup1\n      0x42966c68\n      eq\n      tag_11\n      jumpi\n      dup1\n      0x70a08231\n      eq\n      tag_12\n      jumpi\n      dup1\n      0x715018a6\n      eq\n      tag_13\n      jumpi\n      dup1\n      0x8da5cb5b\n      eq\n      tag_14\n      jumpi\n      jump(tag_2)\n    tag_19:\n      dup1\n      0x18160ddd\n      gt\n      tag_21\n      jumpi\n      dup1\n      0x18160ddd\n      eq\n      tag_7\n      jumpi\n      dup1\n      0x23b872dd\n      eq\n      tag_8\n      jumpi\n      dup1\n      0x313ce567\n      eq\n      tag_9\n      jumpi\n      dup1\n      0x40c10f19\n      eq\n      tag_10\n      jumpi\n      jump(tag_2)\n    tag_21:\n      dup1\n      0x04787ca2\n      eq\n      tag_3\n      jumpi\n      dup1\n      0x06fdde03\n      eq\n      tag_4\n      jumpi\n      dup1\n      0x095ea7b3\n      eq\n      tag_5\n      jumpi\n      dup1\n      0x135d088d\n      eq\n      tag_6\n      jumpi\n    tag_2:\n      0x00\n      dup1\n      revert\n        /* \"contracts/CustomToken.sol\":2202:2376  function setImageURI(string memory newImageURI) external onlyOwner {... */\n    tag_3:\n      tag_22\n      0x04\n      dup1\n      calldatasize\n      sub\n      dup2\n      add\n      swap1\n      tag_23\n      swap2\n      swap1\n      tag_24\n      jump\t// in\n    tag_23:\n      tag_25\n      jump\t// in\n    tag_22:\n      stop\n        /* \"@openzeppelin/contracts/token/ERC20/ERC20.sol\":1779:1868  function name() public view virtual returns (string memory) {... */\n    tag_4:\n      tag_26\n      tag_27\n      jump\t// in\n    tag_26:\n      mload(0x40)\n      tag_28\n      swap2\n      swap1\n      tag_29\n      jump\t// in\n    tag_28:\n      mload(0x40)\n      dup1\n      swap2\n      sub\n      swap1\n      return\n        /* \"@openzeppelin/contracts/token/ERC20/ERC20.sol\":3998:4184  function approve(address spender, uint256 value) public virtual returns (bool) {... */\n    tag_5:\n      tag_30\n      0x04\n      dup1\n      calldatasize\n      sub\n      dup2\n      add\n      swap1\n      tag_31\n      swap2\n      swap1\n      tag_32\n      jump\t// in\n    tag_31:\n      tag_33\n      jump\t// in\n    tag_30:\n      mload(0x40)\n      tag_34\n      swap2\n      swap1\n      tag_35\n      jump\t// in\n    tag_34:\n      mload(0x40)\n      dup1\n      swap2\n      sub\n      swap1\n      return\n        /* \"contracts/CustomToken.sol\":476:498  string public imageURI */\n    tag_6:\n      tag_36\n      tag_37\n      jump\t// in\n    tag_36:\n      mload(0x40)\n      tag_38\n      swap2\n      swap1\n      tag_29\n      jump\t// in\n    tag_38:\n      mload(0x40)\n      dup1\n      swap2\n      sub\n      swap1\n      return\n        /* \"@openzeppelin/contracts/token/ERC20/ERC20.sol\":2849:2946  function totalSupply() public view virtual returns (uint256) {... */\n    tag_7:\n      tag_39\n      tag_40\n      jump\t// in\n    tag_39:\n      mload(0x40)\n      tag_41\n      swap2\n      swap1\n      tag_42\n      jump\t// in\n    tag_41:\n      mload(0x40)\n      dup1\n      swap2\n      sub\n      swap1\n      return\n        /* \"@openzeppelin/contracts/token/ERC20/ERC20.sol\":4776:5020  function transferFrom(address from, address to, uint256 value) public virtual returns (bool) {... */\n    tag_8:\n      tag_43\n      0x04\n      dup1\n      calldatasize\n      sub\n      dup2\n      add\n      swap1\n      tag_44\n      swap2\n      swap1\n      tag_45\n      jump\t// in\n    tag_44:\n      tag_46\n      jump\t// in\n    tag_43:\n      mload(0x40)\n      tag_47\n      swap2\n      swap1\n      tag_35\n      jump\t// in\n    tag_47:\n      mload(0x40)\n      dup1\n      swap2\n      sub\n      swap1\n      return\n        /* \"@openzeppelin/contracts/token/ERC20/ERC20.sol\":2707:2789  function decimals() public view virtual returns (uint8) {... */\n    tag_9:\n      tag_48\n      tag_49\n      jump\t// in\n    tag_48:\n      mload(0x40)\n      tag_50\n      swap2\n      swap1\n      tag_51\n      jump\t// in\n    tag_50:\n      mload(0x40)\n      dup1\n      swap2\n      sub\n      swap1\n      return\n        /* \"contracts/CustomToken.sol\":1525:1726  function mint(address to, uint256 amount) external onlyOwner {... */\n    tag_10:\n      tag_52\n      0x04\n      dup1\n      calldatasize\n      sub\n      dup2\n      add\n      swap1\n      tag_53\n      swap2\n      swap1\n      tag_32\n      jump\t// in\n    tag_53:\n      tag_54\n      jump\t// in\n    tag_52:\n      stop\n        /* \"contracts/CustomToken.sol\":1906:2038  function burn(uint256 amount) external {... */\n    tag_11:\n      tag_55\n      0x04\n      dup1\n      calldatasize\n      sub\n      dup2\n      add\n      swap1\n      tag_56\n      swap2\n      swap1\n      tag_57\n      jump\t// in\n    tag_56:\n      tag_58\n      jump\t// in\n    tag_55:\n      stop\n        /* \"@openzeppelin/contracts/token/ERC20/ERC20.sol\":3004:3120  function balanceOf(address account) public view virtual returns (uint256) {... */\n    tag_12:\n      tag_59\n      0x04\n      dup1\n      calldatasize\n      sub\n      dup2\n      add\n      swap1\n      tag_60\n      swap2\n      swap1\n      tag_61\n      jump\t// in\n    tag_60:\n      tag_62\n      jump\t// in\n    tag_59:\n      mload(0x40)\n      tag_63\n      swap2\n      swap1\n      tag_42\n      jump\t// in\n    tag_63:\n      mload(0x40)\n      dup1\n      swap2\n      sub\n      swap1\n      return\n        /* \"@openzeppelin/contracts/access/Ownable.sol\":2293:2394  function renounceOwnership() public virtual onlyOwner {... */\n    tag_13:\n      tag_64\n      tag_65\n      jump\t// in\n    tag_64:\n      stop\n        /* \"@openzeppelin/contracts/access/Ownable.sol\":1638:1723  function owner() public view virtual returns (address) {... */\n    tag_14:\n      tag_66\n      tag_67\n      jump\t// in\n    tag_66:\n      mload(0x40)\n      tag_68\n      swap2\n      swap1\n      tag_69\n      jump\t// in\n    tag_68:\n      mload(0x40)\n      dup1\n      swap2\n      sub\n      swap1\n      return\n        /* \"@openzeppelin/contracts/token/ERC20/ERC20.sol\":1981:2074  function symbol() public view virtual returns (string memory) {... */\n    tag_15:\n      tag_70\n      tag_71\n      jump\t// in\n    tag_70:\n      mload(0x40)\n      tag_72\n      swap2\n      swap1\n      tag_29\n      jump\t// in\n    tag_72:\n      mload(0x40)\n      dup1\n      swap2\n      sub\n      swap1\n      return\n        /* \"@openzeppelin/contracts/token/ERC20/ERC20.sol\":3315:3493  function transfer(address to, uint256 value) public virtual returns (bool) {... */\n    tag_16:\n      tag_73\n      0x04\n      dup1\n      calldatasize\n      sub\n      dup2\n      add\n      swap1\n      tag_74\n      swap2\n      swap1\n      tag_32\n      jump\t// in\n    tag_74:\n      tag_75\n      jump\t// in\n    tag_73:\n      mload(0x40)\n      tag_76\n      swap2\n      swap1\n      tag_35\n      jump\t// in\n    tag_76:\n      mload(0x40)\n      dup1\n      swap2\n      sub\n      swap1\n      return\n        /* \"@openzeppelin/contracts/token/ERC20/ERC20.sol\":3551:3691  function allowance(address owner, address spender) public view virtual returns (uint256) {... */\n    tag_17:\n      tag_77\n      0x04\n      dup1\n      calldatasize\n      sub\n      dup2\n      add\n      swap1\n      tag_78\n      swap2\n      swap1\n      tag_79\n      jump\t// in\n    tag_78:\n      tag_80\n      jump\t// in\n    tag_77:\n      mload(0x40)\n      tag_81\n      swap2\n      swap1\n      tag_42\n      jump\t// in\n    tag_81:\n      mload(0x40)\n      dup1\n      swap2\n      sub\n      swap1\n      return\n        /* \"@openzeppelin/contracts/access/Ownable.sol\":2543:2758  function transferOwnership(address newOwner) public virtual onlyOwner {... */\n    tag_18:\n      tag_82\n      0x04\n      dup1\n      calldatasize\n      sub\n      dup2\n      add\n      swap1\n      tag_83\n      swap2\n      swap1\n      tag_61\n      jump\t// in\n    tag_83:\n      tag_84\n      jump\t// in\n    tag_82:\n      stop\n        /* \"contracts/CustomToken.sol\":2202:2376  function setImageURI(string memory newImageURI) external onlyOwner {... */\n    tag_25:\n        /* \"@openzeppelin/contracts/access/Ownable.sol\":1531:1544  _checkOwner() */\n      tag_86\n        /* \"@openzeppelin/contracts/access/Ownable.sol\":1531:1542  _checkOwner */\n      tag_87\n        /* \"@openzeppelin/contracts/access/Ownable.sol\":1531:1544  _checkOwner() */\n      jump\t// in\n    tag_86:\n        /* \"contracts/CustomToken.sol\":2313:2314  0 */\n      0x00\n        /* \"contracts/CustomToken.sol\":2290:2301  newImageURI */\n      dup2\n        /* \"contracts/CustomToken.sol\":2284:2309  bytes(newImageURI).length */\n      mload\n        /* \"contracts/CustomToken.sol\":2284:2314  bytes(newImageURI).length == 0 */\n      sub\n        /* \"contracts/CustomToken.sol\":2280:2335  if (bytes(newImageURI).length == 0) revert(\"Empty URI\") */\n      tag_89\n      jumpi\n        /* \"contracts/CustomToken.sol\":2316:2335  revert(\"Empty URI\") */\n      mload(0x40)\n      0x08c379a000000000000000000000000000000000000000000000000000000000\n      dup2\n      mstore\n      0x04\n      add\n      tag_90\n      swap1\n      tag_91\n      jump\t// in\n    tag_90:\n      mload(0x40)\n      dup1\n      swap2\n      sub\n      swap1\n      revert\n        /* \"contracts/CustomToken.sol\":2280:2335  if (bytes(newImageURI).length == 0) revert(\"Empty URI\") */\n    tag_89:\n        /* \"contracts/CustomToken.sol\":2357:2368  newImageURI */\n      dup1\n        /* \"contracts/CustomToken.sol\":2346:2354  imageURI */\n      0x06\n        /* \"contracts/CustomToken.sol\":2346:2368  imageURI = newImageURI */\n      swap1\n      dup2\n      tag_92\n      swap2\n      swap1\n      tag_93\n      jump\t// in\n    tag_92:\n      pop\n        /* \"contracts/CustomToken.sol\":2202:2376  function setImageURI(string memory newImageURI) external onlyOwner {... */\n      pop\n      jump\t// out\n        /* \"@openzeppelin/contracts/token/ERC20/ERC20.sol\":1779:1868  function name() public view virtual returns (string memory) {... */\n    tag_27:\n        /* \"@openzeppelin/contracts/token/ERC20/ERC20.sol\":1824:1837  string memory */\n      0x60\n        /* \"@openzeppelin/contracts/token/ERC20/ERC20.sol\":1856:1861  _name */\n      0x03\n        /* \"@openzeppelin/contracts/token/ERC20/ERC20.sol\":1849:1861  return _name */\n      dup1\n      sload\n      tag_95\n      swap1\n      tag_96\n      jump\t// in\n    tag_95:\n      dup1\n      0x1f\n      add\n      0x20\n      dup1\n      swap2\n      div\n      mul\n      0x20\n      add\n      mload(0x40)\n      swap1\n      dup2\n      add\n      0x40\n      mstore\n      dup1\n      swap3\n      swap2\n      swap1\n      dup2\n      dup2\n      mstore\n      0x20\n      add\n      dup3\n      dup1\n      sload\n      tag_97\n      swap1\n      tag_96\n      jump\t// in\n    tag_97:\n      dup1\n      iszero\n      tag_98\n      jumpi\n      dup1\n      0x1f\n      lt\n      tag_99\n      jumpi\n      0x0100\n      dup1\n      dup4\n      sload\n      div\n      mul\n      dup4\n      mstore\n      swap2\n      0x20\n      add\n      swap2\n      jump(tag_98)\n    tag_99:\n      dup3\n      add\n      swap2\n      swap1\n      0x00\n      mstore\n      keccak256(0x00, 0x20)\n      swap1\n    tag_100:\n      dup2\n      sload\n      dup2\n      mstore\n      swap1\n      0x01\n      add\n      swap1\n      0x20\n      add\n      dup1\n      dup4\n      gt\n      tag_100\n      jumpi\n      dup3\n      swap1\n      sub\n      0x1f\n      and\n      dup3\n      add\n      swap2\n    tag_98:\n      pop\n      pop\n      pop\n      pop\n      pop\n      swap1\n      pop\n        /* \"@openzeppelin/contracts/token/ERC20/ERC20.sol\":1779:1868  function name() public view virtual returns (string memory) {... */\n      swap1\n      jump\t// out\n        /* \"@openzeppelin/contracts/token/ERC20/ERC20.sol\":3998:4184  function approve(address spender, uint256 value) public virtual returns (bool) {... */\n    tag_33:\n        /* \"@openzeppelin/contracts/token/ERC20/ERC20.sol\":4071:4075  bool */\n      0x00\n        /* \"@openzeppelin/contracts/token/ERC20/ERC20.sol\":4087:4100  address owner */\n      dup1\n        /* \"@openzeppelin/contracts/token/ERC20/ERC20.sol\":4103:4115  _msgSender() */\n      tag_102\n        /* \"@openzeppelin/contracts/token/ERC20/ERC20.sol\":4103:4113  _msgSender */\n      tag_103\n        /* \"@openzeppelin/contracts/token/ERC20/ERC20.sol\":4103:4115  _msgSender() */\n      jump\t// in\n    tag_102:\n        /* \"@openzeppelin/contracts/token/ERC20/ERC20.sol\":4087:4115  address owner = _msgSender() */\n      swap1\n      pop\n        /* \"@openzeppelin/contracts/token/ERC20/ERC20.sol\":4125:4156  _approve(owner, spender, value) */\n      tag_104\n        /* \"@openzeppelin/contracts/token/ERC20/ERC20.sol\":4134:4139  owner */\n      dup2\n        /* \"@openzeppelin/contracts/token/ERC20/ERC20.sol\":4141:4148  spender */\n      dup6\n        /* \"@openzeppelin/contracts/token/ERC20/ERC20.sol\":4150:4155  value */\n      dup6\n        /* \"@openzeppelin/contracts/token/ERC20/ERC20.sol\":4125:4133  _approve */\n      tag_105\n        /* \"@openzeppelin/contracts/token/ERC20/ERC20.sol\":4125:4156  _approve(owner, spender, value) */\n      jump\t// in\n    tag_104:\n        /* \"@openzeppelin/contracts/token/ERC20/ERC20.sol\":4173:4177  true */\n      0x01\n        /* \"@openzeppelin/contracts/token/ERC20/ERC20.sol\":4166:4177  return true */\n      swap2\n      pop\n      pop\n        /* \"@openzeppelin/contracts/token/ERC20/ERC20.sol\":3998:4184  function approve(address spender, uint256 value) public virtual returns (bool) {... */\n      swap3\n      swap2\n      pop\n      pop\n      jump\t// out\n        /* \"contracts/CustomToken.sol\":476:498  string public imageURI */\n    tag_37:\n      0x06\n      dup1\n      sload\n      tag_106\n      swap1\n      tag_96\n      jump\t// in\n    tag_106:\n      dup1\n      0x1f\n      add\n      0x20\n      dup1\n      swap2\n      div\n      mul\n      0x20\n      add\n      mload(0x40)\n      swap1\n      dup2\n      add\n      0x40\n      mstore\n      dup1\n      swap3\n      swap2\n      swap1\n      dup2\n      dup2\n      mstore\n      0x20\n      add\n      dup3\n      dup1\n      sload\n      tag_107\n      swap1\n      tag_96\n      jump\t// in\n    tag_107:\n      dup1\n      iszero\n      tag_108\n      jumpi\n      dup1\n      0x1f\n      lt\n      tag_109\n      jumpi\n      0x0100\n      dup1\n      dup4\n      sload\n      div\n      mul\n      dup4\n      mstore\n      swap2\n      0x20\n      add\n      swap2\n      jump(tag_108)\n    tag_109:\n      dup3\n      add\n      swap2\n      swap1\n      0x00\n      mstore\n      keccak256(0x00, 0x20)\n      swap1\n    tag_110:\n      dup2\n      sload\n      dup2\n      mstore\n      swap1\n      0x01\n      add\n      swap1\n      0x20\n      add\n      dup1\n      dup4\n      gt\n      tag_110\n      jumpi\n      dup3\n      swap1\n      sub\n      0x1f\n      and\n      dup3\n      add\n      swap2\n    tag_108:\n      pop\n      pop\n      pop\n      pop\n      pop\n      dup2\n      jump\t// out\n        /* \"@openzeppelin/contracts/token/ERC20/ERC20.sol\":2849:2946  function totalSupply() public view virtual returns (uint256) {... */\n    tag_40:\n        /* \"@openzeppelin/contracts/token/ERC20/ERC20.sol\":2901:2908  uint256 */\n      0x00\n        /* \"@openzeppelin/contracts/token/ERC20/ERC20.sol\":2927:2939  _totalSupply */\n      sload(0x02)\n        /* \"@openzeppelin/contracts/token/ERC20/ERC20.sol\":2920:2939  return _totalSupply */\n      swap1\n      pop\n        /* \"@openzeppelin/contracts/token/ERC20/ERC20.sol\":2849:2946  function totalSupply() public view virtual returns (uint256) {... */\n      swap1\n      jump\t// out\n        /* \"@openzeppelin/contracts/token/ERC20/ERC20.sol\":4776:5020  function transferFrom(address from, address to, uint256 value) public virtual returns (bool) {... */\n    tag_46:\n        /* \"@openzeppelin/contracts/token/ERC20/ERC20.sol\":4863:4867  bool */\n      0x00\n        /* \"@openzeppelin/contracts/token/ERC20/ERC20.sol\":4879:4894  address spender */\n      dup1\n        /* \"@openzeppelin/contracts/token/ERC20/ERC20.sol\":4897:4909  _msgSender() */\n      tag_113\n        /* \"@openzeppelin/contracts/token/ERC20/ERC20.sol\":4897:4907  _msgSender */\n      tag_103\n        /* \"@openzeppelin/contracts/token/ERC20/ERC20.sol\":4897:4909  _msgSender() */\n      jump\t// in\n    tag_113:\n        /* \"@openzeppelin/contracts/token/ERC20/ERC20.sol\":4879:4909  address spender = _msgSender() */\n      swap1\n      pop\n        /* \"@openzeppelin/contracts/token/ERC20/ERC20.sol\":4919:4956  _spendAllowance(from, spender, value) */\n      tag_114\n        /* \"@openzeppelin/contracts/token/ERC20/ERC20.sol\":4935:4939  from */\n      dup6\n        /* \"@openzeppelin/contracts/token/ERC20/ERC20.sol\":4941:4948  spender */\n      dup3\n        /* \"@openzeppelin/contracts/token/ERC20/ERC20.sol\":4950:4955  value */\n      dup6\n        /* \"@openzeppelin/contracts/token/ERC20/ERC20.sol\":4919:4934  _spendAllowance */\n      tag_115\n        /* \"@openzeppelin/contracts/token/ERC20/ERC20.sol\":4919:4956  _spendAllowance(from, spender, value) */\n      jump\t// in\n    tag_114:\n        /* \"@openzeppelin/contracts/token/ERC20/ERC20.sol\":4966:4992  _transfer(from, to, value) */\n      tag_116\n        /* \"@openzeppelin/contracts/token/ERC20/ERC20.sol\":4976:4980  from */\n      dup6\n        /* \"@openzeppelin/contracts/token/ERC20/ERC20.sol\":4982:4984  to */\n      dup6\n        /* \"@openzeppelin/contracts/token/ERC20/ERC20.sol\":4986:4991  value */\n      dup6\n        /* \"@openzeppelin/contracts/token/ERC20/ERC20.sol\":4966:4975  _transfer */\n      tag_117\n        /* \"@openzeppelin/contracts/token/ERC20/ERC20.sol\":4966:4992  _transfer(from, to, value) */\n      jump\t// in\n    tag_116:\n        /* \"@openzeppelin/contracts/token/ERC20/ERC20.sol\":5009:5013  true */\n      0x01\n        /* \"@openzeppelin/contracts/token/ERC20/ERC20.sol\":5002:5013  return true */\n      swap2\n      pop\n      pop\n        /* \"@openzeppelin/contracts/token/ERC20/ERC20.sol\":4776:5020  function transferFrom(address from, address to, uint256 value) public virtual returns (bool) {... */\n      swap4\n      swap3\n      pop\n      pop\n      pop\n      jump\t// out\n        /* \"@openzeppelin/contracts/token/ERC20/ERC20.sol\":2707:2789  function decimals() public view virtual returns (uint8) {... */\n    tag_49:\n        /* \"@openzeppelin/contracts/token/ERC20/ERC20.sol\":2756:2761  uint8 */\n      0x00\n        /* \"@openzeppelin/contracts/token/ERC20/ERC20.sol\":2780:2782  18 */\n      0x12\n        /* \"@openzeppelin/contracts/token/ERC20/ERC20.sol\":2773:2782  return 18 */\n      swap1\n      pop\n        /* \"@openzeppelin/contracts/token/ERC20/ERC20.sol\":2707:2789  function decimals() public view virtual returns (uint8) {... */\n      swap1\n      jump\t// out\n        /* \"contracts/CustomToken.sol\":1525:1726  function mint(address to, uint256 amount) external onlyOwner {... */\n    tag_54:\n        /* \"@openzeppelin/contracts/access/Ownable.sol\":1531:1544  _checkOwner() */\n      tag_120\n        /* \"@openzeppelin/contracts/access/Ownable.sol\":1531:1542  _checkOwner */\n      tag_87\n        /* \"@openzeppelin/contracts/access/Ownable.sol\":1531:1544  _checkOwner() */\n      jump\t// in\n    tag_120:\n        /* \"contracts/CustomToken.sol\":1615:1616  0 */\n      0x00\n        /* \"contracts/CustomToken.sol\":1601:1617  to == address(0) */\n      0xffffffffffffffffffffffffffffffffffffffff\n      and\n        /* \"contracts/CustomToken.sol\":1601:1603  to */\n      dup3\n        /* \"contracts/CustomToken.sol\":1601:1617  to == address(0) */\n      0xffffffffffffffffffffffffffffffffffffffff\n      and\n      sub\n        /* \"contracts/CustomToken.sol\":1597:1641  if (to == address(0)) revert(\"Zero address\") */\n      tag_122\n      jumpi\n        /* \"contracts/CustomToken.sol\":1619:1641  revert(\"Zero address\") */\n      mload(0x40)\n      0x08c379a000000000000000000000000000000000000000000000000000000000\n      dup2\n      mstore\n      0x04\n      add\n      tag_123\n      swap1\n      tag_124\n      jump\t// in\n    tag_123:\n      mload(0x40)\n      dup1\n      swap2\n      sub\n      swap1\n      revert\n        /* \"contracts/CustomToken.sol\":1597:1641  if (to == address(0)) revert(\"Zero address\") */\n    tag_122:\n        /* \"contracts/CustomToken.sol\":1666:1667  0 */\n      0x00\n        /* \"contracts/CustomToken.sol\":1656:1662  amount */\n      dup2\n        /* \"contracts/CustomToken.sol\":1656:1667  amount == 0 */\n      sub\n        /* \"contracts/CustomToken.sol\":1652:1690  if (amount == 0) revert(\"Zero amount\") */\n      tag_125\n      jumpi\n        /* \"contracts/CustomToken.sol\":1669:1690  revert(\"Zero amount\") */\n      mload(0x40)\n      0x08c379a000000000000000000000000000000000000000000000000000000000\n      dup2\n      mstore\n      0x04\n      add\n      tag_126\n      swap1\n      tag_127\n      jump\t// in\n    tag_126:\n      mload(0x40)\n      dup1\n      swap2\n      sub\n      swap1\n      revert\n        /* \"contracts/CustomToken.sol\":1652:1690  if (amount == 0) revert(\"Zero amount\") */\n    tag_125:\n        /* \"contracts/CustomToken.sol\":1701:1718  _mint(to, amount) */\n      tag_128\n        /* \"contracts/CustomToken.sol\":1707:1709  to */\n      dup3\n        /* \"contracts/CustomToken.sol\":1711:1717  amount */\n      dup3\n        /* \"contracts/CustomToken.sol\":1701:1706  _mint */\n      tag_129\n        /* \"contracts/CustomToken.sol\":1701:1718  _mint(to, amount) */\n      jump\t// in\n    tag_128:\n        /* \"contracts/CustomToken.sol\":1525:1726  function mint(address to, uint256 amount) external onlyOwner {... */\n      pop\n      pop\n      jump\t// out\n        /* \"contracts/CustomToken.sol\":1906:2038  function burn(uint256 amount) external {... */\n    tag_58:\n        /* \"contracts/CustomToken.sol\":1970:1971  0 */\n      0x00\n        /* \"contracts/CustomToken.sol\":1960:1966  amount */\n      dup2\n        /* \"contracts/CustomToken.sol\":1960:1971  amount == 0 */\n      sub\n        /* \"contracts/CustomToken.sol\":1956:1994  if (amount == 0) revert(\"Zero amount\") */\n      tag_131\n      jumpi\n        /* \"contracts/CustomToken.sol\":1973:1994  revert(\"Zero amount\") */\n      mload(0x40)\n      0x08c379a000000000000000000000000000000000000000000000000000000000\n      dup2\n      mstore\n      0x04\n      add\n      tag_132\n      swap1\n      tag_127\n      jump\t// in\n    tag_132:\n      mload(0x40)\n      dup1\n      swap2\n      sub\n      swap1\n      revert\n        /* \"contracts/CustomToken.sol\":1956:1994  if (amount == 0) revert(\"Zero amount\") */\n    tag_131:\n        /* \"contracts/CustomToken.sol\":2005:2030  _burn(msg.sender, amount) */\n      tag_133\n        /* \"contracts/CustomToken.sol\":2011:2021  msg.sender */\n      caller\n        /* \"contracts/CustomToken.sol\":2023:2029  amount */\n      dup3\n        /* \"contracts/CustomToken.sol\":2005:2010  _burn */\n      tag_134\n        /* \"contracts/CustomToken.sol\":2005:2030  _burn(msg.sender, amount) */\n      jump\t// in\n    tag_133:\n        /* \"contracts/CustomToken.sol\":1906:2038  function burn(uint256 amount) external {... */\n      pop\n      jump\t// out\n        /* \"@openzeppelin/contracts/token/ERC20/ERC20.sol\":3004:3120  function balanceOf(address account) public view virtual returns (uint256) {... */\n    tag_62:\n        /* \"@openzeppelin/contracts/token/ERC20/ERC20.sol\":3069:3076  uint256 */\n      0x00\n        /* \"@openzeppelin/contracts/token/ERC20/ERC20.sol\":3095:3104  _balances */\n      dup1\n        /* \"@openzeppelin/contracts/token/ERC20/ERC20.sol\":3095:3113  _balances[account] */\n      0x00\n        /* \"@openzeppelin/contracts/token/ERC20/ERC20.sol\":3105:3112  account */\n      dup4\n        /* \"@openzeppelin/contracts/token/ERC20/ERC20.sol\":3095:3113  _balances[account] */\n      0xffffffffffffffffffffffffffffffffffffffff\n      and\n      0xffffffffffffffffffffffffffffffffffffffff\n      and\n      dup2\n      mstore\n      0x20\n      add\n      swap1\n      dup2\n      mstore\n      0x20\n      add\n      0x00\n      keccak256\n      sload\n        /* \"@openzeppelin/contracts/token/ERC20/ERC20.sol\":3088:3113  return _balances[account] */\n      swap1\n      pop\n        /* \"@openzeppelin/contracts/token/ERC20/ERC20.sol\":3004:3120  function balanceOf(address account) public view virtual returns (uint256) {... */\n      swap2\n      swap1\n      pop\n      jump\t// out\n        /* \"@openzeppelin/contracts/access/Ownable.sol\":2293:2394  function renounceOwnership() public virtual onlyOwner {... */\n    tag_65:\n        /* \"@openzeppelin/contracts/access/Ownable.sol\":1531:1544  _checkOwner() */\n      tag_137\n        /* \"@openzeppelin/contracts/access/Ownable.sol\":1531:1542  _checkOwner */\n      tag_87\n        /* \"@openzeppelin/contracts/access/Ownable.sol\":1531:1544  _checkOwner() */\n      jump\t// in\n    tag_137:\n        /* \"@openzeppelin/contracts/access/Ownable.sol\":2357:2387  _transferOwnership(address(0)) */\n      tag_139\n        /* \"@openzeppelin/contracts/access/Ownable.sol\":2384:2385  0 */\n      0x00\n        /* \"@openzeppelin/contracts/access/Ownable.sol\":2357:2375  _transferOwnership */\n      tag_140\n        /* \"@openzeppelin/contracts/access/Ownable.sol\":2357:2387  _transferOwnership(address(0)) */\n      jump\t// in\n    tag_139:\n        /* \"@openzeppelin/contracts/access/Ownable.sol\":2293:2394  function renounceOwnership() public virtual onlyOwner {... */\n      jump\t// out\n        /* \"@openzeppelin/contracts/access/Ownable.sol\":1638:1723  function owner() public view virtual returns (address) {... */\n    tag_67:\n        /* \"@openzeppelin/contracts/access/Ownable.sol\":1684:1691  address */\n      0x00\n        /* \"@openzeppelin/contracts/access/Ownable.sol\":1710:1716  _owner */\n      0x05\n      0x00\n      swap1\n      sload\n      swap1\n      0x0100\n      exp\n      swap1\n      div\n      0xffffffffffffffffffffffffffffffffffffffff\n      and\n        /* \"@openzeppelin/contracts/access/Ownable.sol\":1703:1716  return _owner */\n      swap1\n      pop\n        /* \"@openzeppelin/contracts/access/Ownable.sol\":1638:1723  function owner() public view virtual returns (address) {... */\n      swap1\n      jump\t// out\n        /* \"@openzeppelin/contracts/token/ERC20/ERC20.sol\":1981:2074  function symbol() public view virtual returns (string memory) {... */\n    tag_71:\n        /* \"@openzeppelin/contracts/token/ERC20/ERC20.sol\":2028:2041  string memory */\n      0x60\n        /* \"@openzeppelin/contracts/token/ERC20/ERC20.sol\":2060:2067  _symbol */\n      0x04\n        /* \"@openzeppelin/contracts/token/ERC20/ERC20.sol\":2053:2067  return _symbol */\n      dup1\n      sload\n      tag_143\n      swap1\n      tag_96\n      jump\t// in\n    tag_143:\n      dup1\n      0x1f\n      add\n      0x20\n      dup1\n      swap2\n      div\n      mul\n      0x20\n      add\n      mload(0x40)\n      swap1\n      dup2\n      add\n      0x40\n      mstore\n      dup1\n      swap3\n      swap2\n      swap1\n      dup2\n      dup2\n      mstore\n      0x20\n      add\n      dup3\n      dup1\n      sload\n      tag_144\n      swap1\n      tag_96\n      jump\t// in\n    tag_144:\n      dup1\n      iszero\n      tag_145\n      jumpi\n      dup1\n      0x1f\n      lt\n      tag_146\n      jumpi\n      0x0100\n      dup1\n      dup4\n      sload\n      div\n      mul\n      dup4\n      mstore\n      swap2\n      0x20\n      add\n      swap2\n      jump(tag_145)\n    tag_146:\n      dup3\n      add\n      swap2\n      swap1\n      0x00\n      mstore\n      keccak256(0x00, 0x20)\n      swap1\n    tag_147:\n      dup2\n      sload\n      dup2\n      mstore\n      swap1\n      0x01\n      add\n      swap1\n      0x20\n      add\n      dup1\n      dup4\n      gt\n      tag_147\n      jumpi\n      dup3\n      swap1\n      sub\n      0x1f\n      and\n      dup3\n      add\n      swap2\n    tag_145:\n      pop\n      pop\n      pop\n      pop\n      pop\n      swap1\n      pop\n        /* \"@openzeppelin/contracts/token/ERC20/ERC20.sol\":1981:2074  function symbol() public view virtual returns (string memory) {... */\n      swap1\n      jump\t// out\n        /* \"@openzeppelin/contracts/token/ERC20/ERC20.sol\":3315:3493  function transfer(address to, uint256 value) public virtual returns (bool) {... */\n    tag_75:\n        /* \"@openzeppelin/contracts/token/ERC20/ERC20.sol\":3384:3388  bool */\n      0x00\n        /* \"@openzeppelin/contracts/token/ERC20/ERC20.sol\":3400:3413  address owner */\n      dup1\n        /* \"@openzeppelin/contracts/token/ERC20/ERC20.sol\":3416:3428  _msgSender() */\n      tag_149\n        /* \"@openzeppelin/contracts/token/ERC20/ERC20.sol\":3416:3426  _msgSender */\n      tag_103\n        /* \"@openzeppelin/contracts/token/ERC20/ERC20.sol\":3416:3428  _msgSender() */\n      jump\t// in\n    tag_149:\n        /* \"@openzeppelin/contracts/token/ERC20/ERC20.sol\":3400:3428  address owner = _msgSender() */\n      swap1\n      pop\n        /* \"@openzeppelin/contracts/token/ERC20/ERC20.sol\":3438:3465  _transfer(owner, to, value) */\n      tag_150\n        /* \"@openzeppelin/contracts/token/ERC20/ERC20.sol\":3448:3453  owner */\n      dup2\n        /* \"@openzeppelin/contracts/token/ERC20/ERC20.sol\":3455:3457  to */\n      dup6\n        /* \"@openzeppelin/contracts/token/ERC20/ERC20.sol\":3459:3464  value */\n      dup6\n        /* \"@openzeppelin/contracts/token/ERC20/ERC20.sol\":3438:3447  _transfer */\n      tag_117\n        /* \"@openzeppelin/contracts/token/ERC20/ERC20.sol\":3438:3465  _transfer(owner, to, value) */\n      jump\t// in\n    tag_150:\n        /* \"@openzeppelin/contracts/token/ERC20/ERC20.sol\":3482:3486  true */\n      0x01\n        /* \"@openzeppelin/contracts/token/ERC20/ERC20.sol\":3475:3486  return true */\n      swap2\n      pop\n      pop\n        /* \"@openzeppelin/contracts/token/ERC20/ERC20.sol\":3315:3493  function transfer(address to, uint256 value) public virtual returns (bool) {... */\n      swap3\n      swap2\n      pop\n      pop\n      jump\t// out\n        /* \"@openzeppelin/contracts/token/ERC20/ERC20.sol\":3551:3691  function allowance(address owner, address spender) public view virtual returns (uint256) {... */\n    tag_80:\n        /* \"@openzeppelin/contracts/token/ERC20/ERC20.sol\":3631:3638  uint256 */\n      0x00\n        /* \"@openzeppelin/contracts/token/ERC20/ERC20.sol\":3657:3668  _allowances */\n      0x01\n        /* \"@openzeppelin/contracts/token/ERC20/ERC20.sol\":3657:3675  _allowances[owner] */\n      0x00\n        /* \"@openzeppelin/contracts/token/ERC20/ERC20.sol\":3669:3674  owner */\n      dup5\n        /* \"@openzeppelin/contracts/token/ERC20/ERC20.sol\":3657:3675  _allowances[owner] */\n      0xffffffffffffffffffffffffffffffffffffffff\n      and\n      0xffffffffffffffffffffffffffffffffffffffff\n      and\n      dup2\n      mstore\n      0x20\n      add\n      swap1\n      dup2\n      mstore\n      0x20\n      add\n      0x00\n      keccak256\n        /* \"@openzeppelin/contracts/token/ERC20/ERC20.sol\":3657:3684  _allowances[owner][spender] */\n      0x00\n        /* \"@openzeppelin/contracts/token/ERC20/ERC20.sol\":3676:3683  spender */\n      dup4\n        /* \"@openzeppelin/contracts/token/ERC20/ERC20.sol\":3657:3684  _allowances[owner][spender] */\n      0xffffffffffffffffffffffffffffffffffffffff\n      and\n      0xffffffffffffffffffffffffffffffffffffffff\n      and\n      dup2\n      mstore\n      0x20\n      add\n      swap1\n      dup2\n      mstore\n      0x20\n      add\n      0x00\n      keccak256\n      sload\n        /* \"@openzeppelin/contracts/token/ERC20/ERC20.sol\":3650:3684  return _allowances[owner][spender] */\n      swap1\n      pop\n        /* \"@openzeppelin/contracts/token/ERC20/ERC20.sol\":3551:3691  function allowance(address owner, address spender) public view virtual returns (uint256) {... */\n      swap3\n      swap2\n      pop\n      pop\n      jump\t// out\n        /* \"@openzeppelin/contracts/access/Ownable.sol\":2543:2758  function transferOwnership(address newOwner) public virtual onlyOwner {... */\n    tag_84:\n        /* \"@openzeppelin/contracts/access/Ownable.sol\":1531:1544  _checkOwner() */\n      tag_153\n        /* \"@openzeppelin/contracts/access/Ownable.sol\":1531:1542  _checkOwner */\n      tag_87\n        /* \"@openzeppelin/contracts/access/Ownable.sol\":1531:1544  _checkOwner() */\n      jump\t// in\n    tag_153:\n        /* \"@openzeppelin/contracts/access/Ownable.sol\":2647:2648  0 */\n      0x00\n        /* \"@openzeppelin/contracts/access/Ownable.sol\":2627:2649  newOwner == address(0) */\n      0xffffffffffffffffffffffffffffffffffffffff\n      and\n        /* \"@openzeppelin/contracts/access/Ownable.sol\":2627:2635  newOwner */\n      dup2\n        /* \"@openzeppelin/contracts/access/Ownable.sol\":2627:2649  newOwner == address(0) */\n      0xffffffffffffffffffffffffffffffffffffffff\n      and\n      sub\n        /* \"@openzeppelin/contracts/access/Ownable.sol\":2623:2714  if (newOwner == address(0)) {... */\n      tag_155\n      jumpi\n        /* \"@openzeppelin/contracts/access/Ownable.sol\":2700:2701  0 */\n      0x00\n        /* \"@openzeppelin/contracts/access/Ownable.sol\":2672:2703  OwnableInvalidOwner(address(0)) */\n      mload(0x40)\n      0x1e4fbdf700000000000000000000000000000000000000000000000000000000\n      dup2\n      mstore\n      0x04\n      add\n      tag_156\n      swap2\n      swap1\n      tag_69\n      jump\t// in\n    tag_156:\n      mload(0x40)\n      dup1\n      swap2\n      sub\n      swap1\n      revert\n        /* \"@openzeppelin/contracts/access/Ownable.sol\":2623:2714  if (newOwner == address(0)) {... */\n    tag_155:\n        /* \"@openzeppelin/contracts/access/Ownable.sol\":2723:2751  _transferOwnership(newOwner) */\n      tag_157\n        /* \"@openzeppelin/contracts/access/Ownable.sol\":2742:2750  newOwner */\n      dup2\n        /* \"@openzeppelin/contracts/access/Ownable.sol\":2723:2741  _transferOwnership */\n      tag_140\n        /* \"@openzeppelin/contracts/access/Ownable.sol\":2723:2751  _transferOwnership(newOwner) */\n      jump\t// in\n    tag_157:\n        /* \"@openzeppelin/contracts/access/Ownable.sol\":2543:2758  function transferOwnership(address newOwner) public virtual onlyOwner {... */\n      pop\n      jump\t// out\n        /* \"@openzeppelin/contracts/access/Ownable.sol\":1796:1958  function _checkOwner() internal view virtual {... */\n    tag_87:\n        /* \"@openzeppelin/contracts/access/Ownable.sol\":1866:1878  _msgSender() */\n      tag_159\n        /* \"@openzeppelin/contracts/access/Ownable.sol\":1866:1876  _msgSender */\n      tag_103\n        /* \"@openzeppelin/contracts/access/Ownable.sol\":1866:1878  _msgSender() */\n      jump\t// in\n    tag_159:\n        /* \"@openzeppelin/contracts/access/Ownable.sol\":1855:1878  owner() != _msgSender() */\n      0xffffffffffffffffffffffffffffffffffffffff\n      and\n        /* \"@openzeppelin/contracts/access/Ownable.sol\":1855:1862  owner() */\n      tag_160\n        /* \"@openzeppelin/contracts/access/Ownable.sol\":1855:1860  owner */\n      tag_67\n        /* \"@openzeppelin/contracts/access/Ownable.sol\":1855:1862  owner() */\n      jump\t// in\n    tag_160:\n        /* \"@openzeppelin/contracts/access/Ownable.sol\":1855:1878  owner() != _msgSender() */\n      0xffffffffffffffffffffffffffffffffffffffff\n      and\n      eq\n        /* \"@openzeppelin/contracts/access/Ownable.sol\":1851:1952  if (owner() != _msgSender()) {... */\n      tag_161\n      jumpi\n        /* \"@openzeppelin/contracts/access/Ownable.sol\":1928:1940  _msgSender() */\n      tag_162\n        /* \"@openzeppelin/contracts/access/Ownable.sol\":1928:1938  _msgSender */\n      tag_103\n        /* \"@openzeppelin/contracts/access/Ownable.sol\":1928:1940  _msgSender() */\n      jump\t// in\n    tag_162:\n        /* \"@openzeppelin/contracts/access/Ownable.sol\":1901:1941  OwnableUnauthorizedAccount(_msgSender()) */\n      mload(0x40)\n      0x118cdaa700000000000000000000000000000000000000000000000000000000\n      dup2\n      mstore\n      0x04\n      add\n      tag_163\n      swap2\n      swap1\n      tag_69\n      jump\t// in\n    tag_163:\n      mload(0x40)\n      dup1\n      swap2\n      sub\n      swap1\n      revert\n        /* \"@openzeppelin/contracts/access/Ownable.sol\":1851:1952  if (owner() != _msgSender()) {... */\n    tag_161:\n        /* \"@openzeppelin/contracts/access/Ownable.sol\":1796:1958  function _checkOwner() internal view virtual {... */\n      jump\t// out\n        /* \"@openzeppelin/contracts/utils/Context.sol\":656:752  function _msgSender() internal view virtual returns (address) {... */\n    tag_103:\n        /* \"@openzeppelin/contracts/utils/Context.sol\":709:716  address */\n      0x00\n        /* \"@openzeppelin/contracts/utils/Context.sol\":735:745  msg.sender */\n      caller\n        /* \"@openzeppelin/contracts/utils/Context.sol\":728:745  return msg.sender */\n      swap1\n      pop\n        /* \"@openzeppelin/contracts/utils/Context.sol\":656:752  function _msgSender() internal view virtual returns (address) {... */\n      swap1\n      jump\t// out\n        /* \"@openzeppelin/contracts/token/ERC20/ERC20.sol\":8726:8854  function _approve(address owner, address spender, uint256 value) internal {... */\n    tag_105:\n        /* \"@openzeppelin/contracts/token/ERC20/ERC20.sol\":8810:8847  _approve(owner, spender, value, true) */\n      tag_166\n        /* \"@openzeppelin/contracts/token/ERC20/ERC20.sol\":8819:8824  owner */\n      dup4\n        /* \"@openzeppelin/contracts/token/ERC20/ERC20.sol\":8826:8833  spender */\n      dup4\n        /* \"@openzeppelin/contracts/token/ERC20/ERC20.sol\":8835:8840  value */\n      dup4\n        /* \"@openzeppelin/contracts/token/ERC20/ERC20.sol\":8842:8846  true */\n      0x01\n        /* \"@openzeppelin/contracts/token/ERC20/ERC20.sol\":8810:8818  _approve */\n      tag_167\n        /* \"@openzeppelin/contracts/token/ERC20/ERC20.sol\":8810:8847  _approve(owner, spender, value, true) */\n      jump\t// in\n    tag_166:\n        /* \"@openzeppelin/contracts/token/ERC20/ERC20.sol\":8726:8854  function _approve(address owner, address spender, uint256 value) internal {... */\n      pop\n      pop\n      pop\n      jump\t// out\n        /* \"@openzeppelin/contracts/token/ERC20/ERC20.sol\":10415:10892  function _spendAllowance(address owner, address spender, uint256 value) internal virtual {... */\n    tag_115:\n        /* \"@openzeppelin/contracts/token/ERC20/ERC20.sol\":10514:10538  uint256 currentAllowance */\n      0x00\n        /* \"@openzeppelin/contracts/token/ERC20/ERC20.sol\":10541:10566  allowance(owner, spender) */\n      tag_169\n        /* \"@openzeppelin/contracts/token/ERC20/ERC20.sol\":10551:10556  owner */\n      dup5\n        /* \"@openzeppelin/contracts/token/ERC20/ERC20.sol\":10558:10565  spender */\n      dup5\n        /* \"@openzeppelin/contracts/token/ERC20/ERC20.sol\":10541:10550  allowance */\n      tag_80\n        /* \"@openzeppelin/contracts/token/ERC20/ERC20.sol\":10541:10566  allowance(owner, spender) */\n      jump\t// in\n    tag_169:\n        /* \"@openzeppelin/contracts/token/ERC20/ERC20.sol\":10514:10566  uint256 currentAllowance = allowance(owner, spender) */\n      swap1\n      pop\n        /* \"@openzeppelin/contracts/token/ERC20/ERC20.sol\":10600:10617  type(uint256).max */\n      0xffffffffffffffffffffffffffffffffffffffffffffffffffffffffffffffff\n        /* \"@openzeppelin/contracts/token/ERC20/ERC20.sol\":10580:10596  currentAllowance */\n      dup2\n        /* \"@openzeppelin/contracts/token/ERC20/ERC20.sol\":10580:10617  currentAllowance != type(uint256).max */\n      eq\n        /* \"@openzeppelin/contracts/token/ERC20/ERC20.sol\":10576:10886  if (currentAllowance != type(uint256).max) {... */\n      tag_170\n      jumpi\n        /* \"@openzeppelin/contracts/token/ERC20/ERC20.sol\":10656:10661  value */\n      dup2\n        /* \"@openzeppelin/contracts/token/ERC20/ERC20.sol\":10637:10653  currentAllowance */\n      dup2\n        /* \"@openzeppelin/contracts/token/ERC20/ERC20.sol\":10637:10661  currentAllowance < value */\n      lt\n        /* \"@openzeppelin/contracts/token/ERC20/ERC20.sol\":10633:10763  if (currentAllowance < value) {... */\n      iszero\n      tag_171\n      jumpi\n        /* \"@openzeppelin/contracts/token/ERC20/ERC20.sol\":10715:10722  spender */\n      dup3\n        /* \"@openzeppelin/contracts/token/ERC20/ERC20.sol\":10724:10740  currentAllowance */\n      dup2\n        /* \"@openzeppelin/contracts/token/ERC20/ERC20.sol\":10742:10747  value */\n      dup4\n        /* \"@openzeppelin/contracts/token/ERC20/ERC20.sol\":10688:10748  ERC20InsufficientAllowance(spender, currentAllowance, value) */\n      mload(0x40)\n      0xfb8f41b200000000000000000000000000000000000000000000000000000000\n      dup2\n      mstore\n      0x04\n      add\n      tag_172\n      swap4\n      swap3\n      swap2\n      swap1\n      tag_173\n      jump\t// in\n    tag_172:\n      mload(0x40)\n      dup1\n      swap2\n      sub\n      swap1\n      revert\n        /* \"@openzeppelin/contracts/token/ERC20/ERC20.sol\":10633:10763  if (currentAllowance < value) {... */\n    tag_171:\n        /* \"@openzeppelin/contracts/token/ERC20/ERC20.sol\":10804:10861  _approve(owner, spender, currentAllowance - value, false) */\n      tag_174\n        /* \"@openzeppelin/contracts/token/ERC20/ERC20.sol\":10813:10818  owner */\n      dup5\n        /* \"@openzeppelin/contracts/token/ERC20/ERC20.sol\":10820:10827  spender */\n      dup5\n        /* \"@openzeppelin/contracts/token/ERC20/ERC20.sol\":10848:10853  value */\n      dup5\n        /* \"@openzeppelin/contracts/token/ERC20/ERC20.sol\":10829:10845  currentAllowance */\n      dup5\n        /* \"@openzeppelin/contracts/token/ERC20/ERC20.sol\":10829:10853  currentAllowance - value */\n      sub\n        /* \"@openzeppelin/contracts/token/ERC20/ERC20.sol\":10855:10860  false */\n      0x00\n        /* \"@openzeppelin/contracts/token/ERC20/ERC20.sol\":10804:10812  _approve */\n      tag_167\n        /* \"@openzeppelin/contracts/token/ERC20/ERC20.sol\":10804:10861  _approve(owner, spender, currentAllowance - value, false) */\n      jump\t// in\n    tag_174:\n        /* \"@openzeppelin/contracts/token/ERC20/ERC20.sol\":10576:10886  if (currentAllowance != type(uint256).max) {... */\n    tag_170:\n        /* \"@openzeppelin/contracts/token/ERC20/ERC20.sol\":10504:10892  {... */\n      pop\n        /* \"@openzeppelin/contracts/token/ERC20/ERC20.sol\":10415:10892  function _spendAllowance(address owner, address spender, uint256 value) internal virtual {... */\n      pop\n      pop\n      pop\n      jump\t// out\n        /* \"@openzeppelin/contracts/token/ERC20/ERC20.sol\":5393:5693  function _transfer(address from, address to, uint256 value) internal {... */\n    tag_117:\n        /* \"@openzeppelin/contracts/token/ERC20/ERC20.sol\":5492:5493  0 */\n      0x00\n        /* \"@openzeppelin/contracts/token/ERC20/ERC20.sol\":5476:5494  from == address(0) */\n      0xffffffffffffffffffffffffffffffffffffffff\n      and\n        /* \"@openzeppelin/contracts/token/ERC20/ERC20.sol\":5476:5480  from */\n      dup4\n        /* \"@openzeppelin/contracts/token/ERC20/ERC20.sol\":5476:5494  from == address(0) */\n      0xffffffffffffffffffffffffffffffffffffffff\n      and\n      sub\n        /* \"@openzeppelin/contracts/token/ERC20/ERC20.sol\":5472:5558  if (from == address(0)) {... */\n      tag_176\n      jumpi\n        /* \"@openzeppelin/contracts/token/ERC20/ERC20.sol\":5544:5545  0 */\n      0x00\n        /* \"@openzeppelin/contracts/token/ERC20/ERC20.sol\":5517:5547  ERC20InvalidSender(address(0)) */\n      mload(0x40)\n      0x96c6fd1e00000000000000000000000000000000000000000000000000000000\n      dup2\n      mstore\n      0x04\n      add\n      tag_177\n      swap2\n      swap1\n      tag_69\n      jump\t// in\n    tag_177:\n      mload(0x40)\n      dup1\n      swap2\n      sub\n      swap1\n      revert\n        /* \"@openzeppelin/contracts/token/ERC20/ERC20.sol\":5472:5558  if (from == address(0)) {... */\n    tag_176:\n        /* \"@openzeppelin/contracts/token/ERC20/ERC20.sol\":5585:5586  0 */\n      0x00\n        /* \"@openzeppelin/contracts/token/ERC20/ERC20.sol\":5571:5587  to == address(0) */\n      0xffffffffffffffffffffffffffffffffffffffff\n      and\n        /* \"@openzeppelin/contracts/token/ERC20/ERC20.sol\":5571:5573  to */\n      dup3\n        /* \"@openzeppelin/contracts/token/ERC20/ERC20.sol\":5571:5587  to == address(0) */\n      0xffffffffffffffffffffffffffffffffffffffff\n      and\n      sub\n        /* \"@openzeppelin/contracts/token/ERC20/ERC20.sol\":5567:5653  if (to == address(0)) {... */\n      tag_178\n      jumpi\n        /* \"@openzeppelin/contracts/token/ERC20/ERC20.sol\":5639:5640  0 */\n      0x00\n        /* \"@openzeppelin/contracts/token/ERC20/ERC20.sol\":5610:5642  ERC20InvalidReceiver(address(0)) */\n      mload(0x40)\n      0xec442f0500000000000000000000000000000000000000000000000000000000\n      dup2\n      mstore\n      0x04\n      add\n      tag_179\n      swap2\n      swap1\n      tag_69\n      jump\t// in\n    tag_179:\n      mload(0x40)\n      dup1\n      swap2\n      sub\n      swap1\n      revert\n        /* \"@openzeppelin/contracts/token/ERC20/ERC20.sol\":5567:5653  if (to == address(0)) {... */\n    tag_178:\n        /* \"@openzeppelin/contracts/token/ERC20/ERC20.sol\":5662:5686  _update(from, to, value) */\n      tag_180\n        /* \"@openzeppelin/contracts/token/ERC20/ERC20.sol\":5670:5674  from */\n      dup4\n        /* \"@openzeppelin/contracts/token/ERC20/ERC20.sol\":5676:5678  to */\n      dup4\n        /* \"@openzeppelin/contracts/token/ERC20/ERC20.sol\":5680:5685  value */\n      dup4\n        /* \"@openzeppelin/contracts/token/ERC20/ERC20.sol\":5662:5669  _update */\n      tag_181\n        /* \"@openzeppelin/contracts/token/ERC20/ERC20.sol\":5662:5686  _update(from, to, value) */\n      jump\t// in\n    tag_180:\n        /* \"@openzeppelin/contracts/token/ERC20/ERC20.sol\":5393:5693  function _transfer(address from, address to, uint256 value) internal {... */\n      pop\n      pop\n      pop\n      jump\t// out\n        /* \"@openzeppelin/contracts/token/ERC20/ERC20.sol\":7458:7666  function _mint(address account, uint256 value) internal {... */\n    tag_129:\n        /* \"@openzeppelin/contracts/token/ERC20/ERC20.sol\":7547:7548  0 */\n      0x00\n        /* \"@openzeppelin/contracts/token/ERC20/ERC20.sol\":7528:7549  account == address(0) */\n      0xffffffffffffffffffffffffffffffffffffffff\n      and\n        /* \"@openzeppelin/contracts/token/ERC20/ERC20.sol\":7528:7535  account */\n      dup3\n        /* \"@openzeppelin/contracts/token/ERC20/ERC20.sol\":7528:7549  account == address(0) */\n      0xffffffffffffffffffffffffffffffffffffffff\n      and\n      sub\n        /* \"@openzeppelin/contracts/token/ERC20/ERC20.sol\":7524:7615  if (account == address(0)) {... */\n      tag_183\n      jumpi\n        /* \"@openzeppelin/contracts/token/ERC20/ERC20.sol\":7601:7602  0 */\n      0x00\n        /* \"@openzeppelin/contracts/token/ERC20/ERC20.sol\":7572:7604  ERC20InvalidReceiver(address(0)) */\n      mload(0x40)\n      0xec442f0500000000000000000000000000000000000000000000000000000000\n      dup2\n      mstore\n      0x04\n      add\n      tag_184\n      swap2\n      swap1\n      tag_69\n      jump\t// in\n    tag_184:\n      mload(0x40)\n      dup1\n      swap2\n      sub\n      swap1\n      revert\n        /* \"@openzeppelin/contracts/token/ERC20/ERC20.sol\":7524:7615  if (account == address(0)) {... */\n    tag_183:\n        /* \"@openzeppelin/contracts/token/ERC20/ERC20.sol\":7624:7659  _update(address(0), account, value) */\n      tag_185\n        /* \"@openzeppelin/contracts/token/ERC20/ERC20.sol\":7640:7641  0 */\n      0x00\n        /* \"@openzeppelin/contracts/token/ERC20/ERC20.sol\":7644:7651  account */\n      dup4\n        /* \"@openzeppelin/contracts/token/ERC20/ERC20.sol\":7653:7658  value */\n      dup4\n        /* \"@openzeppelin/contracts/token/ERC20/ERC20.sol\":7624:7631  _update */\n      tag_181\n        /* \"@openzeppelin/contracts/token/ERC20/ERC20.sol\":7624:7659  _update(address(0), account, value) */\n      jump\t// in\n    tag_185:\n        /* \"@openzeppelin/contracts/token/ERC20/ERC20.sol\":7458:7666  function _mint(address account, uint256 value) internal {... */\n      pop\n      pop\n      jump\t// out\n        /* \"@openzeppelin/contracts/token/ERC20/ERC20.sol\":7984:8190  function _burn(address account, uint256 value) internal {... */\n    tag_134:\n        /* \"@openzeppelin/contracts/token/ERC20/ERC20.sol\":8073:8074  0 */\n      0x00\n        /* \"@openzeppelin/contracts/token/ERC20/ERC20.sol\":8054:8075  account == address(0) */\n      0xffffffffffffffffffffffffffffffffffffffff\n      and\n        /* \"@openzeppelin/contracts/token/ERC20/ERC20.sol\":8054:8061  account */\n      dup3\n        /* \"@openzeppelin/contracts/token/ERC20/ERC20.sol\":8054:8075  account == address(0) */\n      0xffffffffffffffffffffffffffffffffffffffff\n      and\n      sub\n        /* \"@openzeppelin/contracts/token/ERC20/ERC20.sol\":8050:8139  if (account == address(0)) {... */\n      tag_187\n      jumpi\n        /* \"@openzeppelin/contracts/token/ERC20/ERC20.sol\":8125:8126  0 */\n      0x00\n        /* \"@openzeppelin/contracts/token/ERC20/ERC20.sol\":8098:8128  ERC20InvalidSender(address(0)) */\n      mload(0x40)\n      0x96c6fd1e00000000000000000000000000000000000000000000000000000000\n      dup2\n      mstore\n      0x04\n      add\n      tag_188\n      swap2\n      swap1\n      tag_69\n      jump\t// in\n    tag_188:\n      mload(0x40)\n      dup1\n      swap2\n      sub\n      swap1\n      revert\n        /* \"@openzeppelin/contracts/token/ERC20/ERC20.sol\":8050:8139  if (account == address(0)) {... */\n    tag_187:\n        /* \"@openzeppelin/contracts/token/ERC20/ERC20.sol\":8148:8183  _update(account, address(0), value) */\n      tag_189\n        /* \"@openzeppelin/contracts/token/ERC20/ERC20.sol\":8156:8163  account */\n      dup3\n        /* \"@openzeppelin/contracts/token/ERC20/ERC20.sol\":8173:8174  0 */\n      0x00\n        /* \"@openzeppelin/contracts/token/ERC20/ERC20.sol\":8177:8182  value */\n      dup4\n        /* \"@openzeppelin/contracts/token/ERC20/ERC20.sol\":8148:8155  _update */\n      tag_181\n        /* \"@openzeppelin/contracts/token/ERC20/ERC20.sol\":8148:8183  _update(account, address(0), value) */\n      jump\t// in\n    tag_189:\n        /* \"@openzeppelin/contracts/token/ERC20/ERC20.sol\":7984:8190  function _burn(address account, uint256 value) internal {... */\n      pop\n      pop\n      jump\t// out\n        /* \"@openzeppelin/contracts/access/Ownable.sol\":2912:3099  function _transferOwnership(address newOwner) internal virtual {... */\n    tag_140:\n        /* \"@openzeppelin/contracts/access/Ownable.sol\":2985:3001  address oldOwner */\n      0x00\n        /* \"@openzeppelin/contracts/access/Ownable.sol\":3004:3010  _owner */\n      0x05\n      0x00\n      swap1\n      sload\n      swap1\n      0x0100\n      exp\n      swap1\n      div\n      0xffffffffffffffffffffffffffffffffffffffff\n      and\n        /* \"@openzeppelin/contracts/access/Ownable.sol\":2985:3010  address oldOwner = _owner */\n      swap1\n      pop\n        /* \"@openzeppelin/contracts/access/Ownable.sol\":3029:3037  newOwner */\n      dup2\n        /* \"@openzeppelin/contracts/access/Ownable.sol\":3020:3026  _owner */\n      0x05\n      0x00\n        /* \"@openzeppelin/contracts/access/Ownable.sol\":3020:3037  _owner = newOwner */\n      0x0100\n      exp\n      dup2\n      sload\n      dup2\n      0xffffffffffffffffffffffffffffffffffffffff\n      mul\n      not\n      and\n      swap1\n      dup4\n      0xffffffffffffffffffffffffffffffffffffffff\n      and\n      mul\n      or\n      swap1\n      sstore\n      pop\n        /* \"@openzeppelin/contracts/access/Ownable.sol\":3083:3091  newOwner */\n      dup2\n        /* \"@openzeppelin/contracts/access/Ownable.sol\":3052:3092  OwnershipTransferred(oldOwner, newOwner) */\n      0xffffffffffffffffffffffffffffffffffffffff\n      and\n        /* \"@openzeppelin/contracts/access/Ownable.sol\":3073:3081  oldOwner */\n      dup2\n        /* \"@openzeppelin/contracts/access/Ownable.sol\":3052:3092  OwnershipTransferred(oldOwner, newOwner) */\n      0xffffffffffffffffffffffffffffffffffffffff\n      and\n      0x8be0079c531659141344cd1fd0a4f28419497f9722a3daafe3b4186f6b6457e0\n      mload(0x40)\n      mload(0x40)\n      dup1\n      swap2\n      sub\n      swap1\n      log3\n        /* \"@openzeppelin/contracts/access/Ownable.sol\":2975:3099  {... */\n      pop\n        /* \"@openzeppelin/contracts/access/Ownable.sol\":2912:3099  function _transferOwnership(address newOwner) internal virtual {... */\n      pop\n      jump\t// out\n        /* \"@openzeppelin/contracts/token/ERC20/ERC20.sol\":9701:10133  function _approve(address owner, address spender, uint256 value, bool emitEvent) internal virtual {... */\n    tag_167:\n        /* \"@openzeppelin/contracts/token/ERC20/ERC20.sol\":9830:9831  0 */\n      0x00\n        /* \"@openzeppelin/contracts/token/ERC20/ERC20.sol\":9813:9832  owner == address(0) */\n      0xffffffffffffffffffffffffffffffffffffffff\n      and\n        /* \"@openzeppelin/contracts/token/ERC20/ERC20.sol\":9813:9818  owner */\n      dup5\n        /* \"@openzeppelin/contracts/token/ERC20/ERC20.sol\":9813:9832  owner == address(0) */\n      0xffffffffffffffffffffffffffffffffffffffff\n      and\n      sub\n        /* \"@openzeppelin/contracts/token/ERC20/ERC20.sol\":9809:9898  if (owner == address(0)) {... */\n      tag_192\n      jumpi\n        /* \"@openzeppelin/contracts/token/ERC20/ERC20.sol\":9884:9885  0 */\n      0x00\n        /* \"@openzeppelin/contracts/token/ERC20/ERC20.sol\":9855:9887  ERC20InvalidApprover(address(0)) */\n      mload(0x40)\n      0xe602df0500000000000000000000000000000000000000000000000000000000\n      dup2\n      mstore\n      0x04\n      add\n      tag_193\n      swap2\n      swap1\n      tag_69\n      jump\t// in\n    tag_193:\n      mload(0x40)\n      dup1\n      swap2\n      sub\n      swap1\n      revert\n        /* \"@openzeppelin/contracts/token/ERC20/ERC20.sol\":9809:9898  if (owner == address(0)) {... */\n    tag_192:\n        /* \"@openzeppelin/contracts/token/ERC20/ERC20.sol\":9930:9931  0 */\n      0x00\n        /* \"@openzeppelin/contracts/token/ERC20/ERC20.sol\":9911:9932  spender == address(0) */\n      0xffffffffffffffffffffffffffffffffffffffff\n      and\n        /* \"@openzeppelin/contracts/token/ERC20/ERC20.sol\":9911:9918  spender */\n      dup4\n        /* \"@openzeppelin/contracts/token/ERC20/ERC20.sol\":9911:9932  spender == address(0) */\n      0xffffffffffffffffffffffffffffffffffffffff\n      and\n      sub\n        /* \"@openzeppelin/contracts/token/ERC20/ERC20.sol\":9907:9997  if (spender == address(0)) {... */\n      tag_194\n      jumpi\n        /* \"@openzeppelin/contracts/token/ERC20/ERC20.sol\":9983:9984  0 */\n      0x00\n        /* \"@openzeppelin/contracts/token/ERC20/ERC20.sol\":9955:9986  ERC20InvalidSpender(address(0)) */\n      mload(0x40)\n      0x94280d6200000000000000000000000000000000000000000000000000000000\n      dup2\n      mstore\n      0x04\n      add\n      tag_195\n      swap2\n      swap1\n      tag_69\n      jump\t// in\n    tag_195:\n      mload(0x40)\n      dup1\n      swap2\n      sub\n      swap1\n      revert\n        /* \"@openzeppelin/contracts/token/ERC20/ERC20.sol\":9907:9997  if (spender == address(0)) {... */\n    tag_194:\n        /* \"@openzeppelin/contracts/token/ERC20/ERC20.sol\":10036:10041  value */\n      dup2\n        /* \"@openzeppelin/contracts/token/ERC20/ERC20.sol\":10006:10017  _allowances */\n      0x01\n        /* \"@openzeppelin/contracts/token/ERC20/ERC20.sol\":10006:10024  _allowances[owner] */\n      0x00\n        /* \"@openzeppelin/contracts/token/ERC20/ERC20.sol\":10018:10023  owner */\n      dup7\n        /* \"@openzeppelin/contracts/token/ERC20/ERC20.sol\":10006:10024  _allowances[owner] */\n      0xffffffffffffffffffffffffffffffffffffffff\n      and\n      0xffffffffffffffffffffffffffffffffffffffff\n      and\n      dup2\n      mstore\n      0x20\n      add\n      swap1\n      dup2\n      mstore\n      0x20\n      add\n      0x00\n      keccak256\n        /* \"@openzeppelin/contracts/token/ERC20/ERC20.sol\":10006:10033  _allowances[owner][spender] */\n      0x00\n        /* \"@openzeppelin/contracts/token/ERC20/ERC20.sol\":10025:10032  spender */\n      dup6\n        /* \"@openzeppelin/contracts/token/ERC20/ERC20.sol\":10006:10033  _allowances[owner][spender] */\n      0xffffffffffffffffffffffffffffffffffffffff\n      and\n      0xffffffffffffffffffffffffffffffffffffffff\n      and\n      dup2\n      mstore\n      0x20\n      add\n      swap1\n      dup2\n      mstore\n      0x20\n      add\n      0x00\n      keccak256\n        /* \"@openzeppelin/contracts/token/ERC20/ERC20.sol\":10006:10041  _allowances[owner][spender] = value */\n      dup2\n      swap1\n      sstore\n      pop\n        /* \"@openzeppelin/contracts/token/ERC20/ERC20.sol\":10055:10064  emitEvent */\n      dup1\n        /* \"@openzeppelin/contracts/token/ERC20/ERC20.sol\":10051:10127  if (emitEvent) {... */\n      iszero\n      tag_196\n      jumpi\n        /* \"@openzeppelin/contracts/token/ERC20/ERC20.sol\":10101:10108  spender */\n      dup3\n        /* \"@openzeppelin/contracts/token/ERC20/ERC20.sol\":10085:10116  Approval(owner, spender, value) */\n      0xffffffffffffffffffffffffffffffffffffffff\n      and\n        /* \"@openzeppelin/contracts/token/ERC20/ERC20.sol\":10094:10099  owner */\n      dup5\n        /* \"@openzeppelin/contracts/token/ERC20/ERC20.sol\":10085:10116  Approval(owner, spender, value) */\n      0xffffffffffffffffffffffffffffffffffffffff\n      and\n      0x8c5be1e5ebec7d5bd14f71427d1e84f3dd0314c0f7b2291e5b200ac8c7c3b925\n        /* \"@openzeppelin/contracts/token/ERC20/ERC20.sol\":10110:10115  value */\n      dup5\n        /* \"@openzeppelin/contracts/token/ERC20/ERC20.sol\":10085:10116  Approval(owner, spender, value) */\n      mload(0x40)\n      tag_197\n      swap2\n      swap1\n      tag_42\n      jump\t// in\n    tag_197:\n      mload(0x40)\n      dup1\n      swap2\n      sub\n      swap1\n      log3\n        /* \"@openzeppelin/contracts/token/ERC20/ERC20.sol\":10051:10127  if (emitEvent) {... */\n    tag_196:\n        /* \"@openzeppelin/contracts/token/ERC20/ERC20.sol\":9701:10133  function _approve(address owner, address spender, uint256 value, bool emitEvent) internal virtual {... */\n      pop\n      pop\n      pop\n      pop\n      jump\t// out\n        /* \"@openzeppelin/contracts/token/ERC20/ERC20.sol\":6008:7115  function _update(address from, address to, uint256 value) internal virtual {... */\n    tag_181:\n        /* \"@openzeppelin/contracts/token/ERC20/ERC20.sol\":6113:6114  0 */\n      0x00\n        /* \"@openzeppelin/contracts/token/ERC20/ERC20.sol\":6097:6115  from == address(0) */\n      0xffffffffffffffffffffffffffffffffffffffff\n      and\n        /* \"@openzeppelin/contracts/token/ERC20/ERC20.sol\":6097:6101  from */\n      dup4\n        /* \"@openzeppelin/contracts/token/ERC20/ERC20.sol\":6097:6115  from == address(0) */\n      0xffffffffffffffffffffffffffffffffffffffff\n      and\n      sub\n        /* \"@openzeppelin/contracts/token/ERC20/ERC20.sol\":6093:6633  if (from == address(0)) {... */\n      tag_199\n      jumpi\n        /* \"@openzeppelin/contracts/token/ERC20/ERC20.sol\":6249:6254  value */\n      dup1\n        /* \"@openzeppelin/contracts/token/ERC20/ERC20.sol\":6233:6245  _totalSupply */\n      0x02\n      0x00\n        /* \"@openzeppelin/contracts/token/ERC20/ERC20.sol\":6233:6254  _totalSupply += value */\n      dup3\n      dup3\n      sload\n      tag_200\n      swap2\n      swap1\n      tag_201\n      jump\t// in\n    tag_200:\n      swap3\n      pop\n      pop\n      dup2\n      swap1\n      sstore\n      pop\n        /* \"@openzeppelin/contracts/token/ERC20/ERC20.sol\":6093:6633  if (from == address(0)) {... */\n      jump(tag_202)\n    tag_199:\n        /* \"@openzeppelin/contracts/token/ERC20/ERC20.sol\":6285:6304  uint256 fromBalance */\n      0x00\n        /* \"@openzeppelin/contracts/token/ERC20/ERC20.sol\":6307:6316  _balances */\n      dup1\n        /* \"@openzeppelin/contracts/token/ERC20/ERC20.sol\":6307:6322  _balances[from] */\n      0x00\n        /* \"@openzeppelin/contracts/token/ERC20/ERC20.sol\":6317:6321  from */\n      dup6\n        /* \"@openzeppelin/contracts/token/ERC20/ERC20.sol\":6307:6322  _balances[from] */\n      0xffffffffffffffffffffffffffffffffffffffff\n      and\n      0xffffffffffffffffffffffffffffffffffffffff\n      and\n      dup2\n      mstore\n      0x20\n      add\n      swap1\n      dup2\n      mstore\n      0x20\n      add\n      0x00\n      keccak256\n      sload\n        /* \"@openzeppelin/contracts/token/ERC20/ERC20.sol\":6285:6322  uint256 fromBalance = _balances[from] */\n      swap1\n      pop\n        /* \"@openzeppelin/contracts/token/ERC20/ERC20.sol\":6354:6359  value */\n      dup2\n        /* \"@openzeppelin/contracts/token/ERC20/ERC20.sol\":6340:6351  fromBalance */\n      dup2\n        /* \"@openzeppelin/contracts/token/ERC20/ERC20.sol\":6340:6359  fromBalance < value */\n      lt\n        /* \"@openzeppelin/contracts/token/ERC20/ERC20.sol\":6336:6451  if (fromBalance < value) {... */\n      iszero\n      tag_203\n      jumpi\n        /* \"@openzeppelin/contracts/token/ERC20/ERC20.sol\":6411:6415  from */\n      dup4\n        /* \"@openzeppelin/contracts/token/ERC20/ERC20.sol\":6417:6428  fromBalance */\n      dup2\n        /* \"@openzeppelin/contracts/token/ERC20/ERC20.sol\":6430:6435  value */\n      dup4\n        /* \"@openzeppelin/contracts/token/ERC20/ERC20.sol\":6386:6436  ERC20InsufficientBalance(from, fromBalance, value) */\n      mload(0x40)\n      0xe450d38c00000000000000000000000000000000000000000000000000000000\n      dup2\n      mstore\n      0x04\n      add\n      tag_204\n      swap4\n      swap3\n      swap2\n      swap1\n      tag_173\n      jump\t// in\n    tag_204:\n      mload(0x40)\n      dup1\n      swap2\n      sub\n      swap1\n      revert\n        /* \"@openzeppelin/contracts/token/ERC20/ERC20.sol\":6336:6451  if (fromBalance < value) {... */\n    tag_203:\n        /* \"@openzeppelin/contracts/token/ERC20/ERC20.sol\":6603:6608  value */\n      dup2\n        /* \"@openzeppelin/contracts/token/ERC20/ERC20.sol\":6589:6600  fromBalance */\n      dup2\n        /* \"@openzeppelin/contracts/token/ERC20/ERC20.sol\":6589:6608  fromBalance - value */\n      sub\n        /* \"@openzeppelin/contracts/token/ERC20/ERC20.sol\":6571:6580  _balances */\n      0x00\n        /* \"@openzeppelin/contracts/token/ERC20/ERC20.sol\":6571:6586  _balances[from] */\n      dup1\n        /* \"@openzeppelin/contracts/token/ERC20/ERC20.sol\":6581:6585  from */\n      dup7\n        /* \"@openzeppelin/contracts/token/ERC20/ERC20.sol\":6571:6586  _balances[from] */\n      0xffffffffffffffffffffffffffffffffffffffff\n      and\n      0xffffffffffffffffffffffffffffffffffffffff\n      and\n      dup2\n      mstore\n      0x20\n      add\n      swap1\n      dup2\n      mstore\n      0x20\n      add\n      0x00\n      keccak256\n        /* \"@openzeppelin/contracts/token/ERC20/ERC20.sol\":6571:6608  _balances[from] = fromBalance - value */\n      dup2\n      swap1\n      sstore\n      pop\n        /* \"@openzeppelin/contracts/token/ERC20/ERC20.sol\":6271:6633  {... */\n      pop\n        /* \"@openzeppelin/contracts/token/ERC20/ERC20.sol\":6093:6633  if (from == address(0)) {... */\n    tag_202:\n        /* \"@openzeppelin/contracts/token/ERC20/ERC20.sol\":6661:6662  0 */\n      0x00\n        /* \"@openzeppelin/contracts/token/ERC20/ERC20.sol\":6647:6663  to == address(0) */\n      0xffffffffffffffffffffffffffffffffffffffff\n      and\n        /* \"@openzeppelin/contracts/token/ERC20/ERC20.sol\":6647:6649  to */\n      dup3\n        /* \"@openzeppelin/contracts/token/ERC20/ERC20.sol\":6647:6663  to == address(0) */\n      0xffffffffffffffffffffffffffffffffffffffff\n      and\n      sub\n        /* \"@openzeppelin/contracts/token/ERC20/ERC20.sol\":6643:7068  if (to == address(0)) {... */\n      tag_205\n      jumpi\n        /* \"@openzeppelin/contracts/token/ERC20/ERC20.sol\":6826:6831  value */\n      dup1\n        /* \"@openzeppelin/contracts/token/ERC20/ERC20.sol\":6810:6822  _totalSupply */\n      0x02\n      0x00\n        /* \"@openzeppelin/contracts/token/ERC20/ERC20.sol\":6810:6831  _totalSupply -= value */\n      dup3\n      dup3\n      sload\n      sub\n      swap3\n      pop\n      pop\n      dup2\n      swap1\n      sstore\n      pop\n        /* \"@openzeppelin/contracts/token/ERC20/ERC20.sol\":6643:7068  if (to == address(0)) {... */\n      jump(tag_206)\n    tag_205:\n        /* \"@openzeppelin/contracts/token/ERC20/ERC20.sol\":7038:7043  value */\n      dup1\n        /* \"@openzeppelin/contracts/token/ERC20/ERC20.sol\":7021:7030  _balances */\n      0x00\n        /* \"@openzeppelin/contracts/token/ERC20/ERC20.sol\":7021:7034  _balances[to] */\n      dup1\n        /* \"@openzeppelin/contracts/token/ERC20/ERC20.sol\":7031:7033  to */\n      dup5\n        /* \"@openzeppelin/contracts/token/ERC20/ERC20.sol\":7021:7034  _balances[to] */\n      0xffffffffffffffffffffffffffffffffffffffff\n      and\n      0xffffffffffffffffffffffffffffffffffffffff\n      and\n      dup2\n      mstore\n      0x20\n      add\n      swap1\n      dup2\n      mstore\n      0x20\n      add\n      0x00\n      keccak256\n      0x00\n        /* \"@openzeppelin/contracts/token/ERC20/ERC20.sol\":7021:7043  _balances[to] += value */\n      dup3\n      dup3\n      sload\n      add\n      swap3\n      pop\n      pop\n      dup2\n      swap1\n      sstore\n      pop\n        /* \"@openzeppelin/contracts/token/ERC20/ERC20.sol\":6643:7068  if (to == address(0)) {... */\n    tag_206:\n        /* \"@openzeppelin/contracts/token/ERC20/ERC20.sol\":7098:7100  to */\n      dup2\n        /* \"@openzeppelin/contracts/token/ERC20/ERC20.sol\":7083:7108  Transfer(from, to, value) */\n      0xffffffffffffffffffffffffffffffffffffffff\n      and\n        /* \"@openzeppelin/contracts/token/ERC20/ERC20.sol\":7092:7096  from */\n      dup4\n        /* \"@openzeppelin/contracts/token/ERC20/ERC20.sol\":7083:7108  Transfer(from, to, value) */\n      0xffffffffffffffffffffffffffffffffffffffff\n      and\n      0xddf252ad1be2c89b69c2b068fc378daa952ba7f163c4a11628f55a4df523b3ef\n        /* \"@openzeppelin/contracts/token/ERC20/ERC20.sol\":7102:7107  value */\n      dup4\n        /* \"@openzeppelin/contracts/token/ERC20/ERC20.sol\":7083:7108  Transfer(from, to, value) */\n      mload(0x40)\n      tag_207\n      swap2\n      swap1\n      tag_42\n      jump\t// in\n    tag_207:\n      mload(0x40)\n      dup1\n      swap2\n      sub\n      swap1\n      log3\n        /* \"@openzeppelin/contracts/token/ERC20/ERC20.sol\":6008:7115  function _update(address from, address to, uint256 value) internal virtual {... */\n      pop\n      pop\n      pop\n      jump\t// out\n        /* \"#utility.yul\":7:82   */\n    tag_208:\n        /* \"#utility.yul\":40:46   */\n      0x00\n        /* \"#utility.yul\":73:75   */\n      0x40\n        /* \"#utility.yul\":67:76   */\n      mload\n        /* \"#utility.yul\":57:76   */\n      swap1\n      pop\n        /* \"#utility.yul\":7:82   */\n      swap1\n      jump\t// out\n        /* \"#utility.yul\":88:205   */\n    tag_209:\n        /* \"#utility.yul\":197:198   */\n      0x00\n        /* \"#utility.yul\":194:195   */\n      dup1\n        /* \"#utility.yul\":187:199   */\n      revert\n        /* \"#utility.yul\":211:328   */\n    tag_210:\n        /* \"#utility.yul\":320:321   */\n      0x00\n        /* \"#utility.yul\":317:318   */\n      dup1\n        /* \"#utility.yul\":310:322   */\n      revert\n        /* \"#utility.yul\":334:451   */\n    tag_211:\n        /* \"#utility.yul\":443:444   */\n      0x00\n        /* \"#utility.yul\":440:441   */\n      dup1\n        /* \"#utility.yul\":433:445   */\n      revert\n        /* \"#utility.yul\":457:574   */\n    tag_212:\n        /* \"#utility.yul\":566:567   */\n      0x00\n        /* \"#utility.yul\":563:564   */\n      dup1\n        /* \"#utility.yul\":556:568   */\n      revert\n        /* \"#utility.yul\":580:682   */\n    tag_213:\n        /* \"#utility.yul\":621:627   */\n      0x00\n        /* \"#utility.yul\":672:674   */\n      0x1f\n        /* \"#utility.yul\":668:675   */\n      not\n        /* \"#utility.yul\":663:665   */\n      0x1f\n        /* \"#utility.yul\":656:661   */\n      dup4\n        /* \"#utility.yul\":652:666   */\n      add\n        /* \"#utility.yul\":648:676   */\n      and\n        /* \"#utility.yul\":638:676   */\n      swap1\n      pop\n        /* \"#utility.yul\":580:682   */\n      swap2\n      swap1\n      pop\n      jump\t// out\n        /* \"#utility.yul\":688:868   */\n    tag_214:\n        /* \"#utility.yul\":736:813   */\n      0x4e487b7100000000000000000000000000000000000000000000000000000000\n        /* \"#utility.yul\":733:734   */\n      0x00\n        /* \"#utility.yul\":726:814   */\n      mstore\n        /* \"#utility.yul\":833:837   */\n      0x41\n        /* \"#utility.yul\":830:831   */\n      0x04\n        /* \"#utility.yul\":823:838   */\n      mstore\n        /* \"#utility.yul\":857:861   */\n      0x24\n        /* \"#utility.yul\":854:855   */\n      0x00\n        /* \"#utility.yul\":847:862   */\n      revert\n        /* \"#utility.yul\":874:1155   */\n    tag_215:\n        /* \"#utility.yul\":957:984   */\n      tag_270\n        /* \"#utility.yul\":979:983   */\n      dup3\n        /* \"#utility.yul\":957:984   */\n      tag_213\n      jump\t// in\n    tag_270:\n        /* \"#utility.yul\":949:955   */\n      dup2\n        /* \"#utility.yul\":945:985   */\n      add\n        /* \"#utility.yul\":1087:1093   */\n      dup2\n        /* \"#utility.yul\":1075:1085   */\n      dup2\n        /* \"#utility.yul\":1072:1094   */\n      lt\n        /* \"#utility.yul\":1051:1069   */\n      0xffffffffffffffff\n        /* \"#utility.yul\":1039:1049   */\n      dup3\n        /* \"#utility.yul\":1036:1070   */\n      gt\n        /* \"#utility.yul\":1033:1095   */\n      or\n        /* \"#utility.yul\":1030:1118   */\n      iszero\n      tag_271\n      jumpi\n        /* \"#utility.yul\":1098:1116   */\n      tag_272\n      tag_214\n      jump\t// in\n    tag_272:\n        /* \"#utility.yul\":1030:1118   */\n    tag_271:\n        /* \"#utility.yul\":1138:1148   */\n      dup1\n        /* \"#utility.yul\":1134:1136   */\n      0x40\n        /* \"#utility.yul\":1127:1149   */\n      mstore\n        /* \"#utility.yul\":917:1155   */\n      pop\n        /* \"#utility.yul\":874:1155   */\n      pop\n      pop\n      jump\t// out\n        /* \"#utility.yul\":1161:1290   */\n    tag_216:\n        /* \"#utility.yul\":1195:1201   */\n      0x00\n        /* \"#utility.yul\":1222:1242   */\n      tag_274\n      tag_208\n      jump\t// in\n    tag_274:\n        /* \"#utility.yul\":1212:1242   */\n      swap1\n      pop\n        /* \"#utility.yul\":1251:1284   */\n      tag_275\n        /* \"#utility.yul\":1279:1283   */\n      dup3\n        /* \"#utility.yul\":1271:1277   */\n      dup3\n        /* \"#utility.yul\":1251:1284   */\n      tag_215\n      jump\t// in\n    tag_275:\n        /* \"#utility.yul\":1161:1290   */\n      swap2\n      swap1\n      pop\n      jump\t// out\n        /* \"#utility.yul\":1296:1604   */\n    tag_217:\n        /* \"#utility.yul\":1358:1362   */\n      0x00\n        /* \"#utility.yul\":1448:1466   */\n      0xffffffffffffffff\n        /* \"#utility.yul\":1440:1446   */\n      dup3\n        /* \"#utility.yul\":1437:1467   */\n      gt\n        /* \"#utility.yul\":1434:1490   */\n      iszero\n      tag_277\n      jumpi\n        /* \"#utility.yul\":1470:1488   */\n      tag_278\n      tag_214\n      jump\t// in\n    tag_278:\n        /* \"#utility.yul\":1434:1490   */\n    tag_277:\n        /* \"#utility.yul\":1508:1537   */\n      tag_279\n        /* \"#utility.yul\":1530:1536   */\n      dup3\n        /* \"#utility.yul\":1508:1537   */\n      tag_213\n      jump\t// in\n    tag_279:\n        /* \"#utility.yul\":1500:1537   */\n      swap1\n      pop\n        /* \"#utility.yul\":1592:1596   */\n      0x20\n        /* \"#utility.yul\":1586:1590   */\n      dup2\n        /* \"#utility.yul\":1582:1597   */\n      add\n        /* \"#utility.yul\":1574:1597   */\n      swap1\n      pop\n        /* \"#utility.yul\":1296:1604   */\n      swap2\n      swap1\n      pop\n      jump\t// out\n        /* \"#utility.yul\":1610:1758   */\n    tag_218:\n        /* \"#utility.yul\":1708:1714   */\n      dup3\n        /* \"#utility.yul\":1703:1706   */\n      dup2\n        /* \"#utility.yul\":1698:1701   */\n      dup4\n        /* \"#utility.yul\":1685:1715   */\n      calldatacopy\n        /* \"#utility.yul\":1749:1750   */\n      0x00\n        /* \"#utility.yul\":1740:1746   */\n      dup4\n        /* \"#utility.yul\":1735:1738   */\n      dup4\n        /* \"#utility.yul\":1731:1747   */\n      add\n        /* \"#utility.yul\":1724:1751   */\n      mstore\n        /* \"#utility.yul\":1610:1758   */\n      pop\n      pop\n      pop\n      jump\t// out\n        /* \"#utility.yul\":1764:2189   */\n    tag_219:\n        /* \"#utility.yul\":1842:1847   */\n      0x00\n        /* \"#utility.yul\":1867:1933   */\n      tag_282\n        /* \"#utility.yul\":1883:1932   */\n      tag_283\n        /* \"#utility.yul\":1925:1931   */\n      dup5\n        /* \"#utility.yul\":1883:1932   */\n      tag_217\n      jump\t// in\n    tag_283:\n        /* \"#utility.yul\":1867:1933   */\n      tag_216\n      jump\t// in\n    tag_282:\n        /* \"#utility.yul\":1858:1933   */\n      swap1\n      pop\n        /* \"#utility.yul\":1956:1962   */\n      dup3\n        /* \"#utility.yul\":1949:1954   */\n      dup2\n        /* \"#utility.yul\":1942:1963   */\n      mstore\n        /* \"#utility.yul\":1994:1998   */\n      0x20\n        /* \"#utility.yul\":1987:1992   */\n      dup2\n        /* \"#utility.yul\":1983:1999   */\n      add\n        /* \"#utility.yul\":2032:2035   */\n      dup5\n        /* \"#utility.yul\":2023:2029   */\n      dup5\n        /* \"#utility.yul\":2018:2021   */\n      dup5\n        /* \"#utility.yul\":2014:2030   */\n      add\n        /* \"#utility.yul\":2011:2036   */\n      gt\n        /* \"#utility.yul\":2008:2120   */\n      iszero\n      tag_284\n      jumpi\n        /* \"#utility.yul\":2039:2118   */\n      tag_285\n      tag_212\n      jump\t// in\n    tag_285:\n        /* \"#utility.yul\":2008:2120   */\n    tag_284:\n        /* \"#utility.yul\":2129:2183   */\n      tag_286\n        /* \"#utility.yul\":2176:2182   */\n      dup5\n        /* \"#utility.yul\":2171:2174   */\n      dup3\n        /* \"#utility.yul\":2166:2169   */\n      dup6\n        /* \"#utility.yul\":2129:2183   */\n      tag_218\n      jump\t// in\n    tag_286:\n        /* \"#utility.yul\":1848:2189   */\n      pop\n        /* \"#utility.yul\":1764:2189   */\n      swap4\n      swap3\n      pop\n      pop\n      pop\n      jump\t// out\n        /* \"#utility.yul\":2209:2549   */\n    tag_220:\n        /* \"#utility.yul\":2265:2270   */\n      0x00\n        /* \"#utility.yul\":2314:2317   */\n      dup3\n        /* \"#utility.yul\":2307:2311   */\n      0x1f\n        /* \"#utility.yul\":2299:2305   */\n      dup4\n        /* \"#utility.yul\":2295:2312   */\n      add\n        /* \"#utility.yul\":2291:2318   */\n      slt\n        /* \"#utility.yul\":2281:2403   */\n      tag_288\n      jumpi\n        /* \"#utility.yul\":2322:2401   */\n      tag_289\n      tag_211\n      jump\t// in\n    tag_289:\n        /* \"#utility.yul\":2281:2403   */\n    tag_288:\n        /* \"#utility.yul\":2439:2445   */\n      dup2\n        /* \"#utility.yul\":2426:2446   */\n      calldataload\n        /* \"#utility.yul\":2464:2543   */\n      tag_290\n        /* \"#utility.yul\":2539:2542   */\n      dup5\n        /* \"#utility.yul\":2531:2537   */\n      dup3\n        /* \"#utility.yul\":2524:2528   */\n      0x20\n        /* \"#utility.yul\":2516:2522   */\n      dup7\n        /* \"#utility.yul\":2512:2529   */\n      add\n        /* \"#utility.yul\":2464:2543   */\n      tag_219\n      jump\t// in\n    tag_290:\n        /* \"#utility.yul\":2455:2543   */\n      swap2\n      pop\n        /* \"#utility.yul\":2271:2549   */\n      pop\n        /* \"#utility.yul\":2209:2549   */\n      swap3\n      swap2\n      pop\n      pop\n      jump\t// out\n        /* \"#utility.yul\":2555:3064   */\n    tag_24:\n        /* \"#utility.yul\":2624:2630   */\n      0x00\n        /* \"#utility.yul\":2673:2675   */\n      0x20\n        /* \"#utility.yul\":2661:2670   */\n      dup3\n        /* \"#utility.yul\":2652:2659   */\n      dup5\n        /* \"#utility.yul\":2648:2671   */\n      sub\n        /* \"#utility.yul\":2644:2676   */\n      slt\n        /* \"#utility.yul\":2641:2760   */\n      iszero\n      tag_292\n      jumpi\n        /* \"#utility.yul\":2679:2758   */\n      tag_293\n      tag_209\n      jump\t// in\n    tag_293:\n        /* \"#utility.yul\":2641:2760   */\n    tag_292:\n        /* \"#utility.yul\":2827:2828   */\n      0x00\n        /* \"#utility.yul\":2816:2825   */\n      dup3\n        /* \"#utility.yul\":2812:2829   */\n      add\n        /* \"#utility.yul\":2799:2830   */\n      calldataload\n        /* \"#utility.yul\":2857:2875   */\n      0xffffffffffffffff\n        /* \"#utility.yul\":2849:2855   */\n      dup2\n        /* \"#utility.yul\":2846:2876   */\n      gt\n        /* \"#utility.yul\":2843:2960   */\n      iszero\n      tag_294\n      jumpi\n        /* \"#utility.yul\":2879:2958   */\n      tag_295\n      tag_210\n      jump\t// in\n    tag_295:\n        /* \"#utility.yul\":2843:2960   */\n    tag_294:\n        /* \"#utility.yul\":2984:3047   */\n      tag_296\n        /* \"#utility.yul\":3039:3046   */\n      dup5\n        /* \"#utility.yul\":3030:3036   */\n      dup3\n        /* \"#utility.yul\":3019:3028   */\n      dup6\n        /* \"#utility.yul\":3015:3037   */\n      add\n        /* \"#utility.yul\":2984:3047   */\n      tag_220\n      jump\t// in\n    tag_296:\n        /* \"#utility.yul\":2974:3047   */\n      swap2\n      pop\n        /* \"#utility.yul\":2770:3057   */\n      pop\n        /* \"#utility.yul\":2555:3064   */\n      swap3\n      swap2\n      pop\n      pop\n      jump\t// out\n        /* \"#utility.yul\":3070:3169   */\n    tag_221:\n        /* \"#utility.yul\":3122:3128   */\n      0x00\n        /* \"#utility.yul\":3156:3161   */\n      dup2\n        /* \"#utility.yul\":3150:3162   */\n      mload\n        /* \"#utility.yul\":3140:3162   */\n      swap1\n      pop\n        /* \"#utility.yul\":3070:3169   */\n      swap2\n      swap1\n      pop\n      jump\t// out\n        /* \"#utility.yul\":3175:3344   */\n    tag_222:\n        /* \"#utility.yul\":3259:3270   */\n      0x00\n        /* \"#utility.yul\":3293:3299   */\n      dup3\n        /* \"#utility.yul\":3288:3291   */\n      dup3\n        /* \"#utility.yul\":3281:3300   */\n      mstore\n        /* \"#utility.yul\":3333:3337   */\n      0x20\n        /* \"#utility.yul\":3328:3331   */\n      dup3\n        /* \"#utility.yul\":3324:3338   */\n      add\n        /* \"#utility.yul\":3309:3338   */\n      swap1\n      pop\n        /* \"#utility.yul\":3175:3344   */\n      swap3\n      swap2\n      pop\n      pop\n      jump\t// out\n        /* \"#utility.yul\":3350:3489   */\n    tag_223:\n        /* \"#utility.yul\":3439:3445   */\n      dup3\n        /* \"#utility.yul\":3434:3437   */\n      dup2\n        /* \"#utility.yul\":3429:3432   */\n      dup4\n        /* \"#utility.yul\":3423:3446   */\n      mcopy\n        /* \"#utility.yul\":3480:3481   */\n      0x00\n        /* \"#utility.yul\":3471:3477   */\n      dup4\n        /* \"#utility.yul\":3466:3469   */\n      dup4\n        /* \"#utility.yul\":3462:3478   */\n      add\n        /* \"#utility.yul\":3455:3482   */\n      mstore\n        /* \"#utility.yul\":3350:3489   */\n      pop\n      pop\n      pop\n      jump\t// out\n        /* \"#utility.yul\":3495:3872   */\n    tag_224:\n        /* \"#utility.yul\":3583:3586   */\n      0x00\n        /* \"#utility.yul\":3611:3650   */\n      tag_301\n        /* \"#utility.yul\":3644:3649   */\n      dup3\n        /* \"#utility.yul\":3611:3650   */\n      tag_221\n      jump\t// in\n    tag_301:\n        /* \"#utility.yul\":3666:3737   */\n      tag_302\n        /* \"#utility.yul\":3730:3736   */\n      dup2\n        /* \"#utility.yul\":3725:3728   */\n      dup6\n        /* \"#utility.yul\":3666:3737   */\n      tag_222\n      jump\t// in\n    tag_302:\n        /* \"#utility.yul\":3659:3737   */\n      swap4\n      pop\n        /* \"#utility.yul\":3746:3811   */\n      tag_303\n        /* \"#utility.yul\":3804:3810   */\n      dup2\n        /* \"#utility.yul\":3799:3802   */\n      dup6\n        /* \"#utility.yul\":3792:3796   */\n      0x20\n        /* \"#utility.yul\":3785:3790   */\n      dup7\n        /* \"#utility.yul\":3781:3797   */\n      add\n        /* \"#utility.yul\":3746:3811   */\n      tag_223\n      jump\t// in\n    tag_303:\n        /* \"#utility.yul\":3836:3865   */\n      tag_304\n        /* \"#utility.yul\":3858:3864   */\n      dup2\n        /* \"#utility.yul\":3836:3865   */\n      tag_213\n      jump\t// in\n    tag_304:\n        /* \"#utility.yul\":3831:3834   */\n      dup5\n        /* \"#utility.yul\":3827:3866   */\n      add\n        /* \"#utility.yul\":3820:3866   */\n      swap2\n      pop\n        /* \"#utility.yul\":3587:3872   */\n      pop\n        /* \"#utility.yul\":3495:3872   */\n      swap3\n      swap2\n      pop\n      pop\n      jump\t// out\n        /* \"#utility.yul\":3878:4191   */\n    tag_29:\n        /* \"#utility.yul\":3991:3995   */\n      0x00\n        /* \"#utility.yul\":4029:4031   */\n      0x20\n        /* \"#utility.yul\":4018:4027   */\n      dup3\n        /* \"#utility.yul\":4014:4032   */\n      add\n        /* \"#utility.yul\":4006:4032   */\n      swap1\n      pop\n        /* \"#utility.yul\":4078:4087   */\n      dup2\n        /* \"#utility.yul\":4072:4076   */\n      dup2\n        /* \"#utility.yul\":4068:4088   */\n      sub\n        /* \"#utility.yul\":4064:4065   */\n      0x00\n        /* \"#utility.yul\":4053:4062   */\n      dup4\n        /* \"#utility.yul\":4049:4066   */\n      add\n        /* \"#utility.yul\":4042:4089   */\n      mstore\n        /* \"#utility.yul\":4106:4184   */\n      tag_306\n        /* \"#utility.yul\":4179:4183   */\n      dup2\n        /* \"#utility.yul\":4170:4176   */\n      dup5\n        /* \"#utility.yul\":4106:4184   */\n      tag_224\n      jump\t// in\n    tag_306:\n        /* \"#utility.yul\":4098:4184   */\n      swap1\n      pop\n        /* \"#utility.yul\":3878:4191   */\n      swap3\n      swap2\n      pop\n      pop\n      jump\t// out\n        /* \"#utility.yul\":4197:4323   */\n    tag_225:\n        /* \"#utility.yul\":4234:4241   */\n      0x00\n        /* \"#utility.yul\":4274:4316   */\n      0xffffffffffffffffffffffffffffffffffffffff\n        /* \"#utility.yul\":4267:4272   */\n      dup3\n        /* \"#utility.yul\":4263:4317   */\n      and\n        /* \"#utility.yul\":4252:4317   */\n      swap1\n      pop\n        /* \"#utility.yul\":4197:4323   */\n      swap2\n      swap1\n      pop\n      jump\t// out\n        /* \"#utility.yul\":4329:4425   */\n    tag_226:\n        /* \"#utility.yul\":4366:4373   */\n      0x00\n        /* \"#utility.yul\":4395:4419   */\n      tag_309\n        /* \"#utility.yul\":4413:4418   */\n      dup3\n        /* \"#utility.yul\":4395:4419   */\n      tag_225\n      jump\t// in\n    tag_309:\n        /* \"#utility.yul\":4384:4419   */\n      swap1\n      pop\n        /* \"#utility.yul\":4329:4425   */\n      swap2\n      swap1\n      pop\n      jump\t// out\n        /* \"#utility.yul\":4431:4553   */\n    tag_227:\n        /* \"#utility.yul\":4504:4528   */\n      tag_311\n        /* \"#utility.yul\":4522:4527   */\n      dup2\n        /* \"#utility.yul\":4504:4528   */\n      tag_226\n      jump\t// in\n    tag_311:\n        /* \"#utility.yul\":4497:4502   */\n      dup2\n        /* \"#utility.yul\":4494:4529   */\n      eq\n        /* \"#utility.yul\":4484:4547   */\n      tag_312\n      jumpi\n        /* \"#utility.yul\":4543:4544   */\n      0x00\n        /* \"#utility.yul\":4540:4541   */\n      dup1\n        /* \"#utility.yul\":4533:4545   */\n      revert\n        /* \"#utility.yul\":4484:4547   */\n    tag_312:\n        /* \"#utility.yul\":4431:4553   */\n      pop\n      jump\t// out\n        /* \"#utility.yul\":4559:4698   */\n    tag_228:\n        /* \"#utility.yul\":4605:4610   */\n      0x00\n        /* \"#utility.yul\":4643:4649   */\n      dup2\n        /* \"#utility.yul\":4630:4650   */\n      calldataload\n        /* \"#utility.yul\":4621:4650   */\n      swap1\n      pop\n        /* \"#utility.yul\":4659:4692   */\n      tag_314\n        /* \"#utility.yul\":4686:4691   */\n      dup2\n        /* \"#utility.yul\":4659:4692   */\n      tag_227\n      jump\t// in\n    tag_314:\n        /* \"#utility.yul\":4559:4698   */\n      swap3\n      swap2\n      pop\n      pop\n      jump\t// out\n        /* \"#utility.yul\":4704:4781   */\n    tag_229:\n        /* \"#utility.yul\":4741:4748   */\n      0x00\n        /* \"#utility.yul\":4770:4775   */\n      dup2\n        /* \"#utility.yul\":4759:4775   */\n      swap1\n      pop\n        /* \"#utility.yul\":4704:4781   */\n      swap2\n      swap1\n      pop\n      jump\t// out\n        /* \"#utility.yul\":4787:4909   */\n    tag_230:\n        /* \"#utility.yul\":4860:4884   */\n      tag_317\n        /* \"#utility.yul\":4878:4883   */\n      dup2\n        /* \"#utility.yul\":4860:4884   */\n      tag_229\n      jump\t// in\n    tag_317:\n        /* \"#utility.yul\":4853:4858   */\n      dup2\n        /* \"#utility.yul\":4850:4885   */\n      eq\n        /* \"#utility.yul\":4840:4903   */\n      tag_318\n      jumpi\n        /* \"#utility.yul\":4899:4900   */\n      0x00\n        /* \"#utility.yul\":4896:4897   */\n      dup1\n        /* \"#utility.yul\":4889:4901   */\n      revert\n        /* \"#utility.yul\":4840:4903   */\n    tag_318:\n        /* \"#utility.yul\":4787:4909   */\n      pop\n      jump\t// out\n        /* \"#utility.yul\":4915:5054   */\n    tag_231:\n        /* \"#utility.yul\":4961:4966   */\n      0x00\n        /* \"#utility.yul\":4999:5005   */\n      dup2\n        /* \"#utility.yul\":4986:5006   */\n      calldataload\n        /* \"#utility.yul\":4977:5006   */\n      swap1\n      pop\n        /* \"#utility.yul\":5015:5048   */\n      tag_320\n        /* \"#utility.yul\":5042:5047   */\n      dup2\n        /* \"#utility.yul\":5015:5048   */\n      tag_230\n      jump\t// in\n    tag_320:\n        /* \"#utility.yul\":4915:5054   */\n      swap3\n      swap2\n      pop\n      pop\n      jump\t// out\n        /* \"#utility.yul\":5060:5534   */\n    tag_32:\n        /* \"#utility.yul\":5128:5134   */\n      0x00\n        /* \"#utility.yul\":5136:5142   */\n      dup1\n        /* \"#utility.yul\":5185:5187   */\n      0x40\n        /* \"#utility.yul\":5173:5182   */\n      dup4\n        /* \"#utility.yul\":5164:5171   */\n      dup6\n        /* \"#utility.yul\":5160:5183   */\n      sub\n        /* \"#utility.yul\":5156:5188   */\n      slt\n        /* \"#utility.yul\":5153:5272   */\n      iszero\n      tag_322\n      jumpi\n        /* \"#utility.yul\":5191:5270   */\n      tag_323\n      tag_209\n      jump\t// in\n    tag_323:\n        /* \"#utility.yul\":5153:5272   */\n    tag_322:\n        /* \"#utility.yul\":5311:5312   */\n      0x00\n        /* \"#utility.yul\":5336:5389   */\n      tag_324\n        /* \"#utility.yul\":5381:5388   */\n      dup6\n        /* \"#utility.yul\":5372:5378   */\n      dup3\n        /* \"#utility.yul\":5361:5370   */\n      dup7\n        /* \"#utility.yul\":5357:5379   */\n      add\n        /* \"#utility.yul\":5336:5389   */\n      tag_228\n      jump\t// in\n    tag_324:\n        /* \"#utility.yul\":5326:5389   */\n      swap3\n      pop\n        /* \"#utility.yul\":5282:5399   */\n      pop\n        /* \"#utility.yul\":5438:5440   */\n      0x20\n        /* \"#utility.yul\":5464:5517   */\n      tag_325\n        /* \"#utility.yul\":5509:5516   */\n      dup6\n        /* \"#utility.yul\":5500:5506   */\n      dup3\n        /* \"#utility.yul\":5489:5498   */\n      dup7\n        /* \"#utility.yul\":5485:5507   */\n      add\n        /* \"#utility.yul\":5464:5517   */\n      tag_231\n      jump\t// in\n    tag_325:\n        /* \"#utility.yul\":5454:5517   */\n      swap2\n      pop\n        /* \"#utility.yul\":5409:5527   */\n      pop\n        /* \"#utility.yul\":5060:5534   */\n      swap3\n      pop\n      swap3\n      swap1\n      pop\n      jump\t// out\n        /* \"#utility.yul\":5540:5630   */\n    tag_232:\n        /* \"#utility.yul\":5574:5581   */\n      0x00\n        /* \"#utility.yul\":5617:5622   */\n      dup2\n        /* \"#utility.yul\":5610:5623   */\n      iszero\n        /* \"#utility.yul\":5603:5624   */\n      iszero\n        /* \"#utility.yul\":5592:5624   */\n      swap1\n      pop\n        /* \"#utility.yul\":5540:5630   */\n      swap2\n      swap1\n      pop\n      jump\t// out\n        /* \"#utility.yul\":5636:5745   */\n    tag_233:\n        /* \"#utility.yul\":5717:5738   */\n      tag_328\n        /* \"#utility.yul\":5732:5737   */\n      dup2\n        /* \"#utility.yul\":5717:5738   */\n      tag_232\n      jump\t// in\n    tag_328:\n        /* \"#utility.yul\":5712:5715   */\n      dup3\n        /* \"#utility.yul\":5705:5739   */\n      mstore\n        /* \"#utility.yul\":5636:5745   */\n      pop\n      pop\n      jump\t// out\n        /* \"#utility.yul\":5751:5961   */\n    tag_35:\n        /* \"#utility.yul\":5838:5842   */\n      0x00\n        /* \"#utility.yul\":5876:5878   */\n      0x20\n        /* \"#utility.yul\":5865:5874   */\n      dup3\n        /* \"#utility.yul\":5861:5879   */\n      add\n        /* \"#utility.yul\":5853:5879   */\n      swap1\n      pop\n        /* \"#utility.yul\":5889:5954   */\n      tag_330\n        /* \"#utility.yul\":5951:5952   */\n      0x00\n        /* \"#utility.yul\":5940:5949   */\n      dup4\n        /* \"#utility.yul\":5936:5953   */\n      add\n        /* \"#utility.yul\":5927:5933   */\n      dup5\n        /* \"#utility.yul\":5889:5954   */\n      tag_233\n      jump\t// in\n    tag_330:\n        /* \"#utility.yul\":5751:5961   */\n      swap3\n      swap2\n      pop\n      pop\n      jump\t// out\n        /* \"#utility.yul\":5967:6085   */\n    tag_234:\n        /* \"#utility.yul\":6054:6078   */\n      tag_332\n        /* \"#utility.yul\":6072:6077   */\n      dup2\n        /* \"#utility.yul\":6054:6078   */\n      tag_229\n      jump\t// in\n    tag_332:\n        /* \"#utility.yul\":6049:6052   */\n      dup3\n        /* \"#utility.yul\":6042:6079   */\n      mstore\n        /* \"#utility.yul\":5967:6085   */\n      pop\n      pop\n      jump\t// out\n        /* \"#utility.yul\":6091:6313   */\n    tag_42:\n        /* \"#utility.yul\":6184:6188   */\n      0x00\n        /* \"#utility.yul\":6222:6224   */\n      0x20\n        /* \"#utility.yul\":6211:6220   */\n      dup3\n        /* \"#utility.yul\":6207:6225   */\n      add\n        /* \"#utility.yul\":6199:6225   */\n      swap1\n      pop\n        /* \"#utility.yul\":6235:6306   */\n      tag_334\n        /* \"#utility.yul\":6303:6304   */\n      0x00\n        /* \"#utility.yul\":6292:6301   */\n      dup4\n        /* \"#utility.yul\":6288:6305   */\n      add\n        /* \"#utility.yul\":6279:6285   */\n      dup5\n        /* \"#utility.yul\":6235:6306   */\n      tag_234\n      jump\t// in\n    tag_334:\n        /* \"#utility.yul\":6091:6313   */\n      swap3\n      swap2\n      pop\n      pop\n      jump\t// out\n        /* \"#utility.yul\":6319:6938   */\n    tag_45:\n        /* \"#utility.yul\":6396:6402   */\n      0x00\n        /* \"#utility.yul\":6404:6410   */\n      dup1\n        /* \"#utility.yul\":6412:6418   */\n      0x00\n        /* \"#utility.yul\":6461:6463   */\n      0x60\n        /* \"#utility.yul\":6449:6458   */\n      dup5\n        /* \"#utility.yul\":6440:6447   */\n      dup7\n        /* \"#utility.yul\":6436:6459   */\n      sub\n        /* \"#utility.yul\":6432:6464   */\n      slt\n        /* \"#utility.yul\":6429:6548   */\n      iszero\n      tag_336\n      jumpi\n        /* \"#utility.yul\":6467:6546   */\n      tag_337\n      tag_209\n      jump\t// in\n    tag_337:\n        /* \"#utility.yul\":6429:6548   */\n    tag_336:\n        /* \"#utility.yul\":6587:6588   */\n      0x00\n        /* \"#utility.yul\":6612:6665   */\n      tag_338\n        /* \"#utility.yul\":6657:6664   */\n      dup7\n        /* \"#utility.yul\":6648:6654   */\n      dup3\n        /* \"#utility.yul\":6637:6646   */\n      dup8\n        /* \"#utility.yul\":6633:6655   */\n      add\n        /* \"#utility.yul\":6612:6665   */\n      tag_228\n      jump\t// in\n    tag_338:\n        /* \"#utility.yul\":6602:6665   */\n      swap4\n      pop\n        /* \"#utility.yul\":6558:6675   */\n      pop\n        /* \"#utility.yul\":6714:6716   */\n      0x20\n        /* \"#utility.yul\":6740:6793   */\n      tag_339\n        /* \"#utility.yul\":6785:6792   */\n      dup7\n        /* \"#utility.yul\":6776:6782   */\n      dup3\n        /* \"#utility.yul\":6765:6774   */\n      dup8\n        /* \"#utility.yul\":6761:6783   */\n      add\n        /* \"#utility.yul\":6740:6793   */\n      tag_228\n      jump\t// in\n    tag_339:\n        /* \"#utility.yul\":6730:6793   */\n      swap3\n      pop\n        /* \"#utility.yul\":6685:6803   */\n      pop\n        /* \"#utility.yul\":6842:6844   */\n      0x40\n        /* \"#utility.yul\":6868:6921   */\n      tag_340\n        /* \"#utility.yul\":6913:6920   */\n      dup7\n        /* \"#utility.yul\":6904:6910   */\n      dup3\n        /* \"#utility.yul\":6893:6902   */\n      dup8\n        /* \"#utility.yul\":6889:6911   */\n      add\n        /* \"#utility.yul\":6868:6921   */\n      tag_231\n      jump\t// in\n    tag_340:\n        /* \"#utility.yul\":6858:6921   */\n      swap2\n      pop\n        /* \"#utility.yul\":6813:6931   */\n      pop\n        /* \"#utility.yul\":6319:6938   */\n      swap3\n      pop\n      swap3\n      pop\n      swap3\n      jump\t// out\n        /* \"#utility.yul\":6944:7030   */\n    tag_235:\n        /* \"#utility.yul\":6979:6986   */\n      0x00\n        /* \"#utility.yul\":7019:7023   */\n      0xff\n        /* \"#utility.yul\":7012:7017   */\n      dup3\n        /* \"#utility.yul\":7008:7024   */\n      and\n        /* \"#utility.yul\":6997:7024   */\n      swap1\n      pop\n        /* \"#utility.yul\":6944:7030   */\n      swap2\n      swap1\n      pop\n      jump\t// out\n        /* \"#utility.yul\":7036:7148   */\n    tag_236:\n        /* \"#utility.yul\":7119:7141   */\n      tag_343\n        /* \"#utility.yul\":7135:7140   */\n      dup2\n        /* \"#utility.yul\":7119:7141   */\n      tag_235\n      jump\t// in\n    tag_343:\n        /* \"#utility.yul\":7114:7117   */\n      dup3\n        /* \"#utility.yul\":7107:7142   */\n      mstore\n        /* \"#utility.yul\":7036:7148   */\n      pop\n      pop\n      jump\t// out\n        /* \"#utility.yul\":7154:7368   */\n    tag_51:\n        /* \"#utility.yul\":7243:7247   */\n      0x00\n        /* \"#utility.yul\":7281:7283   */\n      0x20\n        /* \"#utility.yul\":7270:7279   */\n      dup3\n        /* \"#utility.yul\":7266:7284   */\n      add\n        /* \"#utility.yul\":7258:7284   */\n      swap1\n      pop\n        /* \"#utility.yul\":7294:7361   */\n      tag_345\n        /* \"#utility.yul\":7358:7359   */\n      0x00\n        /* \"#utility.yul\":7347:7356   */\n      dup4\n        /* \"#utility.yul\":7343:7360   */\n      add\n        /* \"#utility.yul\":7334:7340   */\n      dup5\n        /* \"#utility.yul\":7294:7361   */\n      tag_236\n      jump\t// in\n    tag_345:\n        /* \"#utility.yul\":7154:7368   */\n      swap3\n      swap2\n      pop\n      pop\n      jump\t// out\n        /* \"#utility.yul\":7374:7703   */\n    tag_57:\n        /* \"#utility.yul\":7433:7439   */\n      0x00\n        /* \"#utility.yul\":7482:7484   */\n      0x20\n        /* \"#utility.yul\":7470:7479   */\n      dup3\n        /* \"#utility.yul\":7461:7468   */\n      dup5\n        /* \"#utility.yul\":7457:7480   */\n      sub\n        /* \"#utility.yul\":7453:7485   */\n      slt\n        /* \"#utility.yul\":7450:7569   */\n      iszero\n      tag_347\n      jumpi\n        /* \"#utility.yul\":7488:7567   */\n      tag_348\n      tag_209\n      jump\t// in\n    tag_348:\n        /* \"#utility.yul\":7450:7569   */\n    tag_347:\n        /* \"#utility.yul\":7608:7609   */\n      0x00\n        /* \"#utility.yul\":7633:7686   */\n      tag_349\n        /* \"#utility.yul\":7678:7685   */\n      dup5\n        /* \"#utility.yul\":7669:7675   */\n      dup3\n        /* \"#utility.yul\":7658:7667   */\n      dup6\n        /* \"#utility.yul\":7654:7676   */\n      add\n        /* \"#utility.yul\":7633:7686   */\n      tag_231\n      jump\t// in\n    tag_349:\n        /* \"#utility.yul\":7623:7686   */\n      swap2\n      pop\n        /* \"#utility.yul\":7579:7696   */\n      pop\n        /* \"#utility.yul\":7374:7703   */\n      swap3\n      swap2\n      pop\n      pop\n      jump\t// out\n        /* \"#utility.yul\":7709:8038   */\n    tag_61:\n        /* \"#utility.yul\":7768:7774   */\n      0x00\n        /* \"#utility.yul\":7817:7819   */\n      0x20\n        /* \"#utility.yul\":7805:7814   */\n      dup3\n        /* \"#utility.yul\":7796:7803   */\n      dup5\n        /* \"#utility.yul\":7792:7815   */\n      sub\n        /* \"#utility.yul\":7788:7820   */\n      slt\n        /* \"#utility.yul\":7785:7904   */\n      iszero\n      tag_351\n      jumpi\n        /* \"#utility.yul\":7823:7902   */\n      tag_352\n      tag_209\n      jump\t// in\n    tag_352:\n        /* \"#utility.yul\":7785:7904   */\n    tag_351:\n        /* \"#utility.yul\":7943:7944   */\n      0x00\n        /* \"#utility.yul\":7968:8021   */\n      tag_353\n        /* \"#utility.yul\":8013:8020   */\n      dup5\n        /* \"#utility.yul\":8004:8010   */\n      dup3\n        /* \"#utility.yul\":7993:8002   */\n      dup6\n        /* \"#utility.yul\":7989:8011   */\n      add\n        /* \"#utility.yul\":7968:8021   */\n      tag_228\n      jump\t// in\n    tag_353:\n        /* \"#utility.yul\":7958:8021   */\n      swap2\n      pop\n        /* \"#utility.yul\":7914:8031   */\n      pop\n        /* \"#utility.yul\":7709:8038   */\n      swap3\n      swap2\n      pop\n      pop\n      jump\t// out\n        /* \"#utility.yul\":8044:8162   */\n    tag_237:\n        /* \"#utility.yul\":8131:8155   */\n      tag_355\n        /* \"#utility.yul\":8149:8154   */\n      dup2\n        /* \"#utility.yul\":8131:8155   */\n      tag_226\n      jump\t// in\n    tag_355:\n        /* \"#utility.yul\":8126:8129   */\n      dup3\n        /* \"#utility.yul\":8119:8156   */\n      mstore\n        /* \"#utility.yul\":8044:8162   */\n      pop\n      pop\n      jump\t// out\n        /* \"#utility.yul\":8168:8390   */\n    tag_69:\n        /* \"#utility.yul\":8261:8265   */\n      0x00\n        /* \"#utility.yul\":8299:8301   */\n      0x20\n        /* \"#utility.yul\":8288:8297   */\n      dup3\n        /* \"#utility.yul\":8284:8302   */\n      add\n        /* \"#utility.yul\":8276:8302   */\n      swap1\n      pop\n        /* \"#utility.yul\":8312:8383   */\n      tag_357\n        /* \"#utility.yul\":8380:8381   */\n      0x00\n        /* \"#utility.yul\":8369:8378   */\n      dup4\n        /* \"#utility.yul\":8365:8382   */\n      add\n        /* \"#utility.yul\":8356:8362   */\n      dup5\n        /* \"#utility.yul\":8312:8383   */\n      tag_237\n      jump\t// in\n    tag_357:\n        /* \"#utility.yul\":8168:8390   */\n      swap3\n      swap2\n      pop\n      pop\n      jump\t// out\n        /* \"#utility.yul\":8396:8870   */\n    tag_79:\n        /* \"#utility.yul\":8464:8470   */\n      0x00\n        /* \"#utility.yul\":8472:8478   */\n      dup1\n        /* \"#utility.yul\":8521:8523   */\n      0x40\n        /* \"#utility.yul\":8509:8518   */\n      dup4\n        /* \"#utility.yul\":8500:8507   */\n      dup6\n        /* \"#utility.yul\":8496:8519   */\n      sub\n        /* \"#utility.yul\":8492:8524   */\n      slt\n        /* \"#utility.yul\":8489:8608   */\n      iszero\n      tag_359\n      jumpi\n        /* \"#utility.yul\":8527:8606   */\n      tag_360\n      tag_209\n      jump\t// in\n    tag_360:\n        /* \"#utility.yul\":8489:8608   */\n    tag_359:\n        /* \"#utility.yul\":8647:8648   */\n      0x00\n        /* \"#utility.yul\":8672:8725   */\n      tag_361\n        /* \"#utility.yul\":8717:8724   */\n      dup6\n        /* \"#utility.yul\":8708:8714   */\n      dup3\n        /* \"#utility.yul\":8697:8706   */\n      dup7\n        /* \"#utility.yul\":8693:8715   */\n      add\n        /* \"#utility.yul\":8672:8725   */\n      tag_228\n      jump\t// in\n    tag_361:\n        /* \"#utility.yul\":8662:8725   */\n      swap3\n      pop\n        /* \"#utility.yul\":8618:8735   */\n      pop\n        /* \"#utility.yul\":8774:8776   */\n      0x20\n        /* \"#utility.yul\":8800:8853   */\n      tag_362\n        /* \"#utility.yul\":8845:8852   */\n      dup6\n        /* \"#utility.yul\":8836:8842   */\n      dup3\n        /* \"#utility.yul\":8825:8834   */\n      dup7\n        /* \"#utility.yul\":8821:8843   */\n      add\n        /* \"#utility.yul\":8800:8853   */\n      tag_228\n      jump\t// in\n    tag_362:\n        /* \"#utility.yul\":8790:8853   */\n      swap2\n      pop\n        /* \"#utility.yul\":8745:8863   */\n      pop\n        /* \"#utility.yul\":8396:8870   */\n      swap3\n      pop\n      swap3\n      swap1\n      pop\n      jump\t// out\n        /* \"#utility.yul\":8876:9035   */\n    tag_238:\n        /* \"#utility.yul\":9016:9027   */\n      0x456d707479205552490000000000000000000000000000000000000000000000\n        /* \"#utility.yul\":9012:9013   */\n      0x00\n        /* \"#utility.yul\":9004:9010   */\n      dup3\n        /* \"#utility.yul\":9000:9014   */\n      add\n        /* \"#utility.yul\":8993:9028   */\n      mstore\n        /* \"#utility.yul\":8876:9035   */\n      pop\n      jump\t// out\n        /* \"#utility.yul\":9041:9406   */\n    tag_239:\n        /* \"#utility.yul\":9183:9186   */\n      0x00\n        /* \"#utility.yul\":9204:9270   */\n      tag_365\n        /* \"#utility.yul\":9268:9269   */\n      0x09\n        /* \"#utility.yul\":9263:9266   */\n      dup4\n        /* \"#utility.yul\":9204:9270   */\n      tag_222\n      jump\t// in\n    tag_365:\n        /* \"#utility.yul\":9197:9270   */\n      swap2\n      pop\n        /* \"#utility.yul\":9279:9372   */\n      tag_366\n        /* \"#utility.yul\":9368:9371   */\n      dup3\n        /* \"#utility.yul\":9279:9372   */\n      tag_238\n      jump\t// in\n    tag_366:\n        /* \"#utility.yul\":9397:9399   */\n      0x20\n        /* \"#utility.yul\":9392:9395   */\n      dup3\n        /* \"#utility.yul\":9388:9400   */\n      add\n        /* \"#utility.yul\":9381:9400   */\n      swap1\n      pop\n        /* \"#utility.yul\":9041:9406   */\n      swap2\n      swap1\n      pop\n      jump\t// out\n        /* \"#utility.yul\":9412:9831   */\n    tag_91:\n        /* \"#utility.yul\":9578:9582   */\n      0x00\n        /* \"#utility.yul\":9616:9618   */\n      0x20\n        /* \"#utility.yul\":9605:9614   */\n      dup3\n        /* \"#utility.yul\":9601:9619   */\n      add\n        /* \"#utility.yul\":9593:9619   */\n      swap1\n      pop\n        /* \"#utility.yul\":9665:9674   */\n      dup2\n        /* \"#utility.yul\":9659:9663   */\n      dup2\n        /* \"#utility.yul\":9655:9675   */\n      sub\n        /* \"#utility.yul\":9651:9652   */\n      0x00\n        /* \"#utility.yul\":9640:9649   */\n      dup4\n        /* \"#utility.yul\":9636:9653   */\n      add\n        /* \"#utility.yul\":9629:9676   */\n      mstore\n        /* \"#utility.yul\":9693:9824   */\n      tag_368\n        /* \"#utility.yul\":9819:9823   */\n      dup2\n        /* \"#utility.yul\":9693:9824   */\n      tag_239\n      jump\t// in\n    tag_368:\n        /* \"#utility.yul\":9685:9824   */\n      swap1\n      pop\n        /* \"#utility.yul\":9412:9831   */\n      swap2\n      swap1\n      pop\n      jump\t// out\n        /* \"#utility.yul\":9837:10017   */\n    tag_240:\n        /* \"#utility.yul\":9885:9962   */\n      0x4e487b7100000000000000000000000000000000000000000000000000000000\n        /* \"#utility.yul\":9882:9883   */\n      0x00\n        /* \"#utility.yul\":9875:9963   */\n      mstore\n        /* \"#utility.yul\":9982:9986   */\n      0x22\n        /* \"#utility.yul\":9979:9980   */\n      0x04\n        /* \"#utility.yul\":9972:9987   */\n      mstore\n        /* \"#utility.yul\":10006:10010   */\n      0x24\n        /* \"#utility.yul\":10003:10004   */\n      0x00\n        /* \"#utility.yul\":9996:10011   */\n      revert\n        /* \"#utility.yul\":10023:10343   */\n    tag_96:\n        /* \"#utility.yul\":10067:10073   */\n      0x00\n        /* \"#utility.yul\":10104:10105   */\n      0x02\n        /* \"#utility.yul\":10098:10102   */\n      dup3\n        /* \"#utility.yul\":10094:10106   */\n      div\n        /* \"#utility.yul\":10084:10106   */\n      swap1\n      pop\n        /* \"#utility.yul\":10151:10152   */\n      0x01\n        /* \"#utility.yul\":10145:10149   */\n      dup3\n        /* \"#utility.yul\":10141:10153   */\n      and\n        /* \"#utility.yul\":10172:10190   */\n      dup1\n        /* \"#utility.yul\":10162:10243   */\n      tag_371\n      jumpi\n        /* \"#utility.yul\":10228:10232   */\n      0x7f\n        /* \"#utility.yul\":10220:10226   */\n      dup3\n        /* \"#utility.yul\":10216:10233   */\n      and\n        /* \"#utility.yul\":10206:10233   */\n      swap2\n      pop\n        /* \"#utility.yul\":10162:10243   */\n    tag_371:\n        /* \"#utility.yul\":10290:10292   */\n      0x20\n        /* \"#utility.yul\":10282:10288   */\n      dup3\n        /* \"#utility.yul\":10279:10293   */\n      lt\n        /* \"#utility.yul\":10259:10277   */\n      dup2\n        /* \"#utility.yul\":10256:10294   */\n      sub\n        /* \"#utility.yul\":10253:10337   */\n      tag_372\n      jumpi\n        /* \"#utility.yul\":10309:10327   */\n      tag_373\n      tag_240\n      jump\t// in\n    tag_373:\n        /* \"#utility.yul\":10253:10337   */\n    tag_372:\n        /* \"#utility.yul\":10074:10343   */\n      pop\n        /* \"#utility.yul\":10023:10343   */\n      swap2\n      swap1\n      pop\n      jump\t// out\n        /* \"#utility.yul\":10349:10490   */\n    tag_241:\n        /* \"#utility.yul\":10398:10402   */\n      0x00\n        /* \"#utility.yul\":10421:10424   */\n      dup2\n        /* \"#utility.yul\":10413:10424   */\n      swap1\n      pop\n        /* \"#utility.yul\":10444:10447   */\n      dup2\n        /* \"#utility.yul\":10441:10442   */\n      0x00\n        /* \"#utility.yul\":10434:10448   */\n      mstore\n        /* \"#utility.yul\":10478:10482   */\n      0x20\n        /* \"#utility.yul\":10475:10476   */\n      0x00\n        /* \"#utility.yul\":10465:10483   */\n      keccak256\n        /* \"#utility.yul\":10457:10483   */\n      swap1\n      pop\n        /* \"#utility.yul\":10349:10490   */\n      swap2\n      swap1\n      pop\n      jump\t// out\n        /* \"#utility.yul\":10496:10589   */\n    tag_242:\n        /* \"#utility.yul\":10533:10539   */\n      0x00\n        /* \"#utility.yul\":10580:10582   */\n      0x20\n        /* \"#utility.yul\":10575:10577   */\n      0x1f\n        /* \"#utility.yul\":10568:10573   */\n      dup4\n        /* \"#utility.yul\":10564:10578   */\n      add\n        /* \"#utility.yul\":10560:10583   */\n      div\n        /* \"#utility.yul\":10550:10583   */\n      swap1\n      pop\n        /* \"#utility.yul\":10496:10589   */\n      swap2\n      swap1\n      pop\n      jump\t// out\n        /* \"#utility.yul\":10595:10702   */\n    tag_243:\n        /* \"#utility.yul\":10639:10647   */\n      0x00\n        /* \"#utility.yul\":10689:10694   */\n      dup3\n        /* \"#utility.yul\":10683:10687   */\n      dup3\n        /* \"#utility.yul\":10679:10695   */\n      shl\n        /* \"#utility.yul\":10658:10695   */\n      swap1\n      pop\n        /* \"#utility.yul\":10595:10702   */\n      swap3\n      swap2\n      pop\n      pop\n      jump\t// out\n        /* \"#utility.yul\":10708:11101   */\n    tag_244:\n        /* \"#utility.yul\":10777:10783   */\n      0x00\n        /* \"#utility.yul\":10827:10828   */\n      0x08\n        /* \"#utility.yul\":10815:10825   */\n      dup4\n        /* \"#utility.yul\":10811:10829   */\n      mul\n        /* \"#utility.yul\":10850:10947   */\n      tag_378\n        /* \"#utility.yul\":10880:10946   */\n      0xffffffffffffffffffffffffffffffffffffffffffffffffffffffffffffffff\n        /* \"#utility.yul\":10869:10878   */\n      dup3\n        /* \"#utility.yul\":10850:10947   */\n      tag_243\n      jump\t// in\n    tag_378:\n        /* \"#utility.yul\":10968:11007   */\n      tag_379\n        /* \"#utility.yul\":10998:11006   */\n      dup7\n        /* \"#utility.yul\":10987:10996   */\n      dup4\n        /* \"#utility.yul\":10968:11007   */\n      tag_243\n      jump\t// in\n    tag_379:\n        /* \"#utility.yul\":10956:11007   */\n      swap6\n      pop\n        /* \"#utility.yul\":11040:11044   */\n      dup1\n        /* \"#utility.yul\":11036:11045   */\n      not\n        /* \"#utility.yul\":11029:11034   */\n      dup5\n        /* \"#utility.yul\":11025:11046   */\n      and\n        /* \"#utility.yul\":11016:11046   */\n      swap4\n      pop\n        /* \"#utility.yul\":11089:11093   */\n      dup1\n        /* \"#utility.yul\":11079:11087   */\n      dup7\n        /* \"#utility.yul\":11075:11094   */\n      and\n        /* \"#utility.yul\":11068:11073   */\n      dup5\n        /* \"#utility.yul\":11065:11095   */\n      or\n        /* \"#utility.yul\":11055:11095   */\n      swap3\n      pop\n        /* \"#utility.yul\":10784:11101   */\n      pop\n      pop\n        /* \"#utility.yul\":10708:11101   */\n      swap4\n      swap3\n      pop\n      pop\n      pop\n      jump\t// out\n        /* \"#utility.yul\":11107:11167   */\n    tag_245:\n        /* \"#utility.yul\":11135:11138   */\n      0x00\n        /* \"#utility.yul\":11156:11161   */\n      dup2\n        /* \"#utility.yul\":11149:11161   */\n      swap1\n      pop\n        /* \"#utility.yul\":11107:11167   */\n      swap2\n      swap1\n      pop\n      jump\t// out\n        /* \"#utility.yul\":11173:11315   */\n    tag_246:\n        /* \"#utility.yul\":11223:11232   */\n      0x00\n        /* \"#utility.yul\":11256:11309   */\n      tag_382\n        /* \"#utility.yul\":11274:11308   */\n      tag_383\n        /* \"#utility.yul\":11283:11307   */\n      tag_384\n        /* \"#utility.yul\":11301:11306   */\n      dup5\n        /* \"#utility.yul\":11283:11307   */\n      tag_229\n      jump\t// in\n    tag_384:\n        /* \"#utility.yul\":11274:11308   */\n      tag_245\n      jump\t// in\n    tag_383:\n        /* \"#utility.yul\":11256:11309   */\n      tag_229\n      jump\t// in\n    tag_382:\n        /* \"#utility.yul\":11243:11309   */\n      swap1\n      pop\n        /* \"#utility.yul\":11173:11315   */\n      swap2\n      swap1\n      pop\n      jump\t// out\n        /* \"#utility.yul\":11321:11396   */\n    tag_247:\n        /* \"#utility.yul\":11364:11367   */\n      0x00\n        /* \"#utility.yul\":11385:11390   */\n      dup2\n        /* \"#utility.yul\":11378:11390   */\n      swap1\n      pop\n        /* \"#utility.yul\":11321:11396   */\n      swap2\n      swap1\n      pop\n      jump\t// out\n        /* \"#utility.yul\":11402:11671   */\n    tag_248:\n        /* \"#utility.yul\":11512:11551   */\n      tag_387\n        /* \"#utility.yul\":11543:11550   */\n      dup4\n        /* \"#utility.yul\":11512:11551   */\n      tag_246\n      jump\t// in\n    tag_387:\n        /* \"#utility.yul\":11573:11664   */\n      tag_388\n        /* \"#utility.yul\":11622:11663   */\n      tag_389\n        /* \"#utility.yul\":11646:11662   */\n      dup3\n        /* \"#utility.yul\":11622:11663   */\n      tag_247\n      jump\t// in\n    tag_389:\n        /* \"#utility.yul\":11614:11620   */\n      dup5\n        /* \"#utility.yul\":11607:11611   */\n      dup5\n        /* \"#utility.yul\":11601:11612   */\n      sload\n        /* \"#utility.yul\":11573:11664   */\n      tag_244\n      jump\t// in\n    tag_388:\n        /* \"#utility.yul\":11567:11571   */\n      dup3\n        /* \"#utility.yul\":11560:11665   */\n      sstore\n        /* \"#utility.yul\":11478:11671   */\n      pop\n        /* \"#utility.yul\":11402:11671   */\n      pop\n      pop\n      pop\n      jump\t// out\n        /* \"#utility.yul\":11677:11750   */\n    tag_249:\n        /* \"#utility.yul\":11722:11725   */\n      0x00\n        /* \"#utility.yul\":11677:11750   */\n      swap1\n      jump\t// out\n        /* \"#utility.yul\":11756:11945   */\n    tag_250:\n        /* \"#utility.yul\":11833:11865   */\n      tag_392\n      tag_249\n      jump\t// in\n    tag_392:\n        /* \"#utility.yul\":11874:11939   */\n      tag_393\n        /* \"#utility.yul\":11932:11938   */\n      dup2\n        /* \"#utility.yul\":11924:11930   */\n      dup5\n        /* \"#utility.yul\":11918:11922   */\n      dup5\n        /* \"#utility.yul\":11874:11939   */\n      tag_248\n      jump\t// in\n    tag_393:\n        /* \"#utility.yul\":11809:11945   */\n      pop\n        /* \"#utility.yul\":11756:11945   */\n      pop\n      pop\n      jump\t// out\n        /* \"#utility.yul\":11951:12137   */\n    tag_251:\n        /* \"#utility.yul\":12011:12131   */\n    tag_395:\n        /* \"#utility.yul\":12028:12031   */\n      dup2\n        /* \"#utility.yul\":12021:12026   */\n      dup2\n        /* \"#utility.yul\":12018:12032   */\n      lt\n        /* \"#utility.yul\":12011:12131   */\n      iszero\n      tag_397\n      jumpi\n        /* \"#utility.yul\":12082:12121   */\n      tag_398\n        /* \"#utility.yul\":12119:12120   */\n      0x00\n        /* \"#utility.yul\":12112:12117   */\n      dup3\n        /* \"#utility.yul\":12082:12121   */\n      tag_250\n      jump\t// in\n    tag_398:\n        /* \"#utility.yul\":12055:12056   */\n      0x01\n        /* \"#utility.yul\":12048:12053   */\n      dup2\n        /* \"#utility.yul\":12044:12057   */\n      add\n        /* \"#utility.yul\":12035:12057   */\n      swap1\n      pop\n        /* \"#utility.yul\":12011:12131   */\n      jump(tag_395)\n    tag_397:\n        /* \"#utility.yul\":11951:12137   */\n      pop\n      pop\n      jump\t// out\n        /* \"#utility.yul\":12143:12686   */\n    tag_252:\n        /* \"#utility.yul\":12244:12246   */\n      0x1f\n        /* \"#utility.yul\":12239:12242   */\n      dup3\n        /* \"#utility.yul\":12236:12247   */\n      gt\n        /* \"#utility.yul\":12233:12679   */\n      iszero\n      tag_400\n      jumpi\n        /* \"#utility.yul\":12278:12316   */\n      tag_401\n        /* \"#utility.yul\":12310:12315   */\n      dup2\n        /* \"#utility.yul\":12278:12316   */\n      tag_241\n      jump\t// in\n    tag_401:\n        /* \"#utility.yul\":12362:12391   */\n      tag_402\n        /* \"#utility.yul\":12380:12390   */\n      dup5\n        /* \"#utility.yul\":12362:12391   */\n      tag_242\n      jump\t// in\n    tag_402:\n        /* \"#utility.yul\":12352:12360   */\n      dup2\n        /* \"#utility.yul\":12348:12392   */\n      add\n        /* \"#utility.yul\":12545:12547   */\n      0x20\n        /* \"#utility.yul\":12533:12543   */\n      dup6\n        /* \"#utility.yul\":12530:12548   */\n      lt\n        /* \"#utility.yul\":12527:12576   */\n      iszero\n      tag_403\n      jumpi\n        /* \"#utility.yul\":12566:12574   */\n      dup2\n        /* \"#utility.yul\":12551:12574   */\n      swap1\n      pop\n        /* \"#utility.yul\":12527:12576   */\n    tag_403:\n        /* \"#utility.yul\":12589:12669   */\n      tag_404\n        /* \"#utility.yul\":12645:12667   */\n      tag_405\n        /* \"#utility.yul\":12663:12666   */\n      dup6\n        /* \"#utility.yul\":12645:12667   */\n      tag_242\n      jump\t// in\n    tag_405:\n        /* \"#utility.yul\":12635:12643   */\n      dup4\n        /* \"#utility.yul\":12631:12668   */\n      add\n        /* \"#utility.yul\":12618:12629   */\n      dup3\n        /* \"#utility.yul\":12589:12669   */\n      tag_251\n      jump\t// in\n    tag_404:\n        /* \"#utility.yul\":12248:12679   */\n      pop\n      pop\n        /* \"#utility.yul\":12233:12679   */\n    tag_400:\n        /* \"#utility.yul\":12143:12686   */\n      pop\n      pop\n      pop\n      jump\t// out\n        /* \"#utility.yul\":12692:12809   */\n    tag_253:\n        /* \"#utility.yul\":12746:12754   */\n      0x00\n        /* \"#utility.yul\":12796:12801   */\n      dup3\n        /* \"#utility.yul\":12790:12794   */\n      dup3\n        /* \"#utility.yul\":12786:12802   */\n      shr\n        /* \"#utility.yul\":12765:12802   */\n      swap1\n      pop\n        /* \"#utility.yul\":12692:12809   */\n      swap3\n      swap2\n      pop\n      pop\n      jump\t// out\n        /* \"#utility.yul\":12815:12984   */\n    tag_254:\n        /* \"#utility.yul\":12859:12865   */\n      0x00\n        /* \"#utility.yul\":12892:12943   */\n      tag_408\n        /* \"#utility.yul\":12940:12941   */\n      0x00\n        /* \"#utility.yul\":12936:12942   */\n      not\n        /* \"#utility.yul\":12928:12933   */\n      dup5\n        /* \"#utility.yul\":12925:12926   */\n      0x08\n        /* \"#utility.yul\":12921:12934   */\n      mul\n        /* \"#utility.yul\":12892:12943   */\n      tag_253\n      jump\t// in\n    tag_408:\n        /* \"#utility.yul\":12888:12944   */\n      not\n        /* \"#utility.yul\":12973:12977   */\n      dup1\n        /* \"#utility.yul\":12967:12971   */\n      dup4\n        /* \"#utility.yul\":12963:12978   */\n      and\n        /* \"#utility.yul\":12953:12978   */\n      swap2\n      pop\n        /* \"#utility.yul\":12866:12984   */\n      pop\n        /* \"#utility.yul\":12815:12984   */\n      swap3\n      swap2\n      pop\n      pop\n      jump\t// out\n        /* \"#utility.yul\":12989:13284   */\n    tag_255:\n        /* \"#utility.yul\":13065:13069   */\n      0x00\n        /* \"#utility.yul\":13211:13240   */\n      tag_410\n        /* \"#utility.yul\":13236:13239   */\n      dup4\n        /* \"#utility.yul\":13230:13234   */\n      dup4\n        /* \"#utility.yul\":13211:13240   */\n      tag_254\n      jump\t// in\n    tag_410:\n        /* \"#utility.yul\":13203:13240   */\n      swap2\n      pop\n        /* \"#utility.yul\":13273:13276   */\n      dup3\n        /* \"#utility.yul\":13270:13271   */\n      0x02\n        /* \"#utility.yul\":13266:13277   */\n      mul\n        /* \"#utility.yul\":13260:13264   */\n      dup3\n        /* \"#utility.yul\":13257:13278   */\n      or\n        /* \"#utility.yul\":13249:13278   */\n      swap1\n      pop\n        /* \"#utility.yul\":12989:13284   */\n      swap3\n      swap2\n      pop\n      pop\n      jump\t// out\n        /* \"#utility.yul\":13289:14684   */\n    tag_93:\n        /* \"#utility.yul\":13406:13443   */\n      tag_412\n        /* \"#utility.yul\":13439:13442   */\n      dup3\n        /* \"#utility.yul\":13406:13443   */\n      tag_221\n      jump\t// in\n    tag_412:\n        /* \"#utility.yul\":13508:13526   */\n      0xffffffffffffffff\n        /* \"#utility.yul\":13500:13506   */\n      dup2\n        /* \"#utility.yul\":13497:13527   */\n      gt\n        /* \"#utility.yul\":13494:13550   */\n      iszero\n      tag_413\n      jumpi\n        /* \"#utility.yul\":13530:13548   */\n      tag_414\n      tag_214\n      jump\t// in\n    tag_414:\n        /* \"#utility.yul\":13494:13550   */\n    tag_413:\n        /* \"#utility.yul\":13574:13612   */\n      tag_415\n        /* \"#utility.yul\":13606:13610   */\n      dup3\n        /* \"#utility.yul\":13600:13611   */\n      sload\n        /* \"#utility.yul\":13574:13612   */\n      tag_96\n      jump\t// in\n    tag_415:\n        /* \"#utility.yul\":13659:13726   */\n      tag_416\n        /* \"#utility.yul\":13719:13725   */\n      dup3\n        /* \"#utility.yul\":13711:13717   */\n      dup3\n        /* \"#utility.yul\":13705:13709   */\n      dup6\n        /* \"#utility.yul\":13659:13726   */\n      tag_252\n      jump\t// in\n    tag_416:\n        /* \"#utility.yul\":13753:13754   */\n      0x00\n        /* \"#utility.yul\":13777:13781   */\n      0x20\n        /* \"#utility.yul\":13764:13781   */\n      swap1\n      pop\n        /* \"#utility.yul\":13809:13811   */\n      0x1f\n        /* \"#utility.yul\":13801:13807   */\n      dup4\n        /* \"#utility.yul\":13798:13812   */\n      gt\n        /* \"#utility.yul\":13826:13827   */\n      0x01\n        /* \"#utility.yul\":13821:14439   */\n      dup2\n      eq\n      tag_418\n      jumpi\n        /* \"#utility.yul\":14483:14484   */\n      0x00\n        /* \"#utility.yul\":14500:14506   */\n      dup5\n        /* \"#utility.yul\":14497:14574   */\n      iszero\n      tag_419\n      jumpi\n        /* \"#utility.yul\":14549:14558   */\n      dup3\n        /* \"#utility.yul\":14544:14547   */\n      dup8\n        /* \"#utility.yul\":14540:14559   */\n      add\n        /* \"#utility.yul\":14534:14560   */\n      mload\n        /* \"#utility.yul\":14525:14560   */\n      swap1\n      pop\n        /* \"#utility.yul\":14497:14574   */\n    tag_419:\n        /* \"#utility.yul\":14600:14667   */\n      tag_420\n        /* \"#utility.yul\":14660:14666   */\n      dup6\n        /* \"#utility.yul\":14653:14658   */\n      dup3\n        /* \"#utility.yul\":14600:14667   */\n      tag_255\n      jump\t// in\n    tag_420:\n        /* \"#utility.yul\":14594:14598   */\n      dup7\n        /* \"#utility.yul\":14587:14668   */\n      sstore\n        /* \"#utility.yul\":14456:14678   */\n      pop\n        /* \"#utility.yul\":13791:14678   */\n      jump(tag_417)\n        /* \"#utility.yul\":13821:14439   */\n    tag_418:\n        /* \"#utility.yul\":13873:13877   */\n      0x1f\n        /* \"#utility.yul\":13869:13878   */\n      not\n        /* \"#utility.yul\":13861:13867   */\n      dup5\n        /* \"#utility.yul\":13857:13879   */\n      and\n        /* \"#utility.yul\":13907:13944   */\n      tag_421\n        /* \"#utility.yul\":13939:13943   */\n      dup7\n        /* \"#utility.yul\":13907:13944   */\n      tag_241\n      jump\t// in\n    tag_421:\n        /* \"#utility.yul\":13966:13967   */\n      0x00\n        /* \"#utility.yul\":13980:14188   */\n    tag_422:\n        /* \"#utility.yul\":13994:14001   */\n      dup3\n        /* \"#utility.yul\":13991:13992   */\n      dup2\n        /* \"#utility.yul\":13988:14002   */\n      lt\n        /* \"#utility.yul\":13980:14188   */\n      iszero\n      tag_424\n      jumpi\n        /* \"#utility.yul\":14073:14082   */\n      dup5\n        /* \"#utility.yul\":14068:14071   */\n      dup10\n        /* \"#utility.yul\":14064:14083   */\n      add\n        /* \"#utility.yul\":14058:14084   */\n      mload\n        /* \"#utility.yul\":14050:14056   */\n      dup3\n        /* \"#utility.yul\":14043:14085   */\n      sstore\n        /* \"#utility.yul\":14124:14125   */\n      0x01\n        /* \"#utility.yul\":14116:14122   */\n      dup3\n        /* \"#utility.yul\":14112:14126   */\n      add\n        /* \"#utility.yul\":14102:14126   */\n      swap2\n      pop\n        /* \"#utility.yul\":14171:14173   */\n      0x20\n        /* \"#utility.yul\":14160:14169   */\n      dup6\n        /* \"#utility.yul\":14156:14174   */\n      add\n        /* \"#utility.yul\":14143:14174   */\n      swap5\n      pop\n        /* \"#utility.yul\":14017:14021   */\n      0x20\n        /* \"#utility.yul\":14014:14015   */\n      dup2\n        /* \"#utility.yul\":14010:14022   */\n      add\n        /* \"#utility.yul\":14005:14022   */\n      swap1\n      pop\n        /* \"#utility.yul\":13980:14188   */\n      jump(tag_422)\n    tag_424:\n        /* \"#utility.yul\":14216:14222   */\n      dup7\n        /* \"#utility.yul\":14207:14214   */\n      dup4\n        /* \"#utility.yul\":14204:14223   */\n      lt\n        /* \"#utility.yul\":14201:14380   */\n      iszero\n      tag_425\n      jumpi\n        /* \"#utility.yul\":14274:14283   */\n      dup5\n        /* \"#utility.yul\":14269:14272   */\n      dup10\n        /* \"#utility.yul\":14265:14284   */\n      add\n        /* \"#utility.yul\":14259:14285   */\n      mload\n        /* \"#utility.yul\":14317:14365   */\n      tag_426\n        /* \"#utility.yul\":14359:14363   */\n      0x1f\n        /* \"#utility.yul\":14351:14357   */\n      dup10\n        /* \"#utility.yul\":14347:14364   */\n      and\n        /* \"#utility.yul\":14336:14345   */\n      dup3\n        /* \"#utility.yul\":14317:14365   */\n      tag_254\n      jump\t// in\n    tag_426:\n        /* \"#utility.yul\":14309:14315   */\n      dup4\n        /* \"#utility.yul\":14302:14366   */\n      sstore\n        /* \"#utility.yul\":14224:14380   */\n      pop\n        /* \"#utility.yul\":14201:14380   */\n    tag_425:\n        /* \"#utility.yul\":14426:14427   */\n      0x01\n        /* \"#utility.yul\":14422:14423   */\n      0x02\n        /* \"#utility.yul\":14414:14420   */\n      dup9\n        /* \"#utility.yul\":14410:14424   */\n      mul\n        /* \"#utility.yul\":14406:14428   */\n      add\n        /* \"#utility.yul\":14400:14404   */\n      dup9\n        /* \"#utility.yul\":14393:14429   */\n      sstore\n        /* \"#utility.yul\":13828:14439   */\n      pop\n      pop\n      pop\n        /* \"#utility.yul\":13791:14678   */\n    tag_417:\n      pop\n        /* \"#utility.yul\":13381:14684   */\n      pop\n      pop\n      pop\n        /* \"#utility.yul\":13289:14684   */\n      pop\n      pop\n      jump\t// out\n        /* \"#utility.yul\":14690:14852   */\n    tag_256:\n        /* \"#utility.yul\":14830:14844   */\n      0x5a65726f20616464726573730000000000000000000000000000000000000000\n        /* \"#utility.yul\":14826:14827   */\n      0x00\n        /* \"#utility.yul\":14818:14824   */\n      dup3\n        /* \"#utility.yul\":14814:14828   */\n      add\n        /* \"#utility.yul\":14807:14845   */\n      mstore\n        /* \"#utility.yul\":14690:14852   */\n      pop\n      jump\t// out\n        /* \"#utility.yul\":14858:15224   */\n    tag_257:\n        /* \"#utility.yul\":15000:15003   */\n      0x00\n        /* \"#utility.yul\":15021:15088   */\n      tag_429\n        /* \"#utility.yul\":15085:15087   */\n      0x0c\n        /* \"#utility.yul\":15080:15083   */\n      dup4\n        /* \"#utility.yul\":15021:15088   */\n      tag_222\n      jump\t// in\n    tag_429:\n        /* \"#utility.yul\":15014:15088   */\n      swap2\n      pop\n        /* \"#utility.yul\":15097:15190   */\n      tag_430\n        /* \"#utility.yul\":15186:15189   */\n      dup3\n        /* \"#utility.yul\":15097:15190   */\n      tag_256\n      jump\t// in\n    tag_430:\n        /* \"#utility.yul\":15215:15217   */\n      0x20\n        /* \"#utility.yul\":15210:15213   */\n      dup3\n        /* \"#utility.yul\":15206:15218   */\n      add\n        /* \"#utility.yul\":15199:15218   */\n      swap1\n      pop\n        /* \"#utility.yul\":14858:15224   */\n      swap2\n      swap1\n      pop\n      jump\t// out\n        /* \"#utility.yul\":15230:15649   */\n    tag_124:\n        /* \"#utility.yul\":15396:15400   */\n      0x00\n        /* \"#utility.yul\":15434:15436   */\n      0x20\n        /* \"#utility.yul\":15423:15432   */\n      dup3\n        /* \"#utility.yul\":15419:15437   */\n      add\n        /* \"#utility.yul\":15411:15437   */\n      swap1\n      pop\n        /* \"#utility.yul\":15483:15492   */\n      dup2\n        /* \"#utility.yul\":15477:15481   */\n      dup2\n        /* \"#utility.yul\":15473:15493   */\n      sub\n        /* \"#utility.yul\":15469:15470   */\n      0x00\n        /* \"#utility.yul\":15458:15467   */\n      dup4\n        /* \"#utility.yul\":15454:15471   */\n      add\n        /* \"#utility.yul\":15447:15494   */\n      mstore\n        /* \"#utility.yul\":15511:15642   */\n      tag_432\n        /* \"#utility.yul\":15637:15641   */\n      dup2\n        /* \"#utility.yul\":15511:15642   */\n      tag_257\n      jump\t// in\n    tag_432:\n        /* \"#utility.yul\":15503:15642   */\n      swap1\n      pop\n        /* \"#utility.yul\":15230:15649   */\n      swap2\n      swap1\n      pop\n      jump\t// out\n        /* \"#utility.yul\":15655:15816   */\n    tag_258:\n        /* \"#utility.yul\":15795:15808   */\n      0x5a65726f20616d6f756e74000000000000000000000000000000000000000000\n        /* \"#utility.yul\":15791:15792   */\n      0x00\n        /* \"#utility.yul\":15783:15789   */\n      dup3\n        /* \"#utility.yul\":15779:15793   */\n      add\n        /* \"#utility.yul\":15772:15809   */\n      mstore\n        /* \"#utility.yul\":15655:15816   */\n      pop\n      jump\t// out\n        /* \"#utility.yul\":15822:16188   */\n    tag_259:\n        /* \"#utility.yul\":15964:15967   */\n      0x00\n        /* \"#utility.yul\":15985:16052   */\n      tag_435\n        /* \"#utility.yul\":16049:16051   */\n      0x0b\n        /* \"#utility.yul\":16044:16047   */\n      dup4\n        /* \"#utility.yul\":15985:16052   */\n      tag_222\n      jump\t// in\n    tag_435:\n        /* \"#utility.yul\":15978:16052   */\n      swap2\n      pop\n        /* \"#utility.yul\":16061:16154   */\n      tag_436\n        /* \"#utility.yul\":16150:16153   */\n      dup3\n        /* \"#utility.yul\":16061:16154   */\n      tag_258\n      jump\t// in\n    tag_436:\n        /* \"#utility.yul\":16179:16181   */\n      0x20\n        /* \"#utility.yul\":16174:16177   */\n      dup3\n        /* \"#utility.yul\":16170:16182   */\n      add\n        /* \"#utility.yul\":16163:16182   */\n      swap1\n      pop\n        /* \"#utility.yul\":15822:16188   */\n      swap2\n      swap1\n      pop\n      jump\t// out\n        /* \"#utility.yul\":16194:16613   */\n    tag_127:\n        /* \"#utility.yul\":16360:16364   */\n      0x00\n        /* \"#utility.yul\":16398:16400   */\n      0x20\n        /* \"#utility.yul\":16387:16396   */\n      dup3\n        /* \"#utility.yul\":16383:16401   */\n      add\n        /* \"#utility.yul\":16375:16401   */\n      swap1\n      pop\n        /* \"#utility.yul\":16447:16456   */\n      dup2\n        /* \"#utility.yul\":16441:16445   */\n      dup2\n        /* \"#utility.yul\":16437:16457   */\n      sub\n        /* \"#utility.yul\":16433:16434   */\n      0x00\n        /* \"#utility.yul\":16422:16431   */\n      dup4\n        /* \"#utility.yul\":16418:16435   */\n      add\n        /* \"#utility.yul\":16411:16458   */\n      mstore\n        /* \"#utility.yul\":16475:16606   */\n      tag_438\n        /* \"#utility.yul\":16601:16605   */\n      dup2\n        /* \"#utility.yul\":16475:16606   */\n      tag_259\n      jump\t// in\n    tag_438:\n        /* \"#utility.yul\":16467:16606   */\n      swap1\n      pop\n        /* \"#utility.yul\":16194:16613   */\n      swap2\n      swap1\n      pop\n      jump\t// out\n        /* \"#utility.yul\":16619:17061   */\n    tag_173:\n        /* \"#utility.yul\":16768:16772   */\n      0x00\n        /* \"#utility.yul\":16806:16808   */\n      0x60\n        /* \"#utility.yul\":16795:16804   */\n      dup3\n        /* \"#utility.yul\":16791:16809   */\n      add\n        /* \"#utility.yul\":16783:16809   */\n      swap1\n      pop\n        /* \"#utility.yul\":16819:16890   */\n      tag_440\n        /* \"#utility.yul\":16887:16888   */\n      0x00\n        /* \"#utility.yul\":16876:16885   */\n      dup4\n        /* \"#utility.yul\":16872:16889   */\n      add\n        /* \"#utility.yul\":16863:16869   */\n      dup7\n        /* \"#utility.yul\":16819:16890   */\n      tag_237\n      jump\t// in\n    tag_440:\n        /* \"#utility.yul\":16900:16972   */\n      tag_441\n        /* \"#utility.yul\":16968:16970   */\n      0x20\n        /* \"#utility.yul\":16957:16966   */\n      dup4\n        /* \"#utility.yul\":16953:16971   */\n      add\n        /* \"#utility.yul\":16944:16950   */\n      dup6\n        /* \"#utility.yul\":16900:16972   */\n      tag_234\n      jump\t// in\n    tag_441:\n        /* \"#utility.yul\":16982:17054   */\n      tag_442\n        /* \"#utility.yul\":17050:17052   */\n      0x40\n        /* \"#utility.yul\":17039:17048   */\n      dup4\n        /* \"#utility.yul\":17035:17053   */\n      add\n        /* \"#utility.yul\":17026:17032   */\n      dup5\n        /* \"#utility.yul\":16982:17054   */\n      tag_234\n      jump\t// in\n    tag_442:\n        /* \"#utility.yul\":16619:17061   */\n      swap5\n      swap4\n      pop\n      pop\n      pop\n      pop\n      jump\t// out\n        /* \"#utility.yul\":17067:17247   */\n    tag_260:\n        /* \"#utility.yul\":17115:17192   */\n      0x4e487b7100000000000000000000000000000000000000000000000000000000\n        /* \"#utility.yul\":17112:17113   */\n      0x00\n        /* \"#utility.yul\":17105:17193   */\n      mstore\n        /* \"#utility.yul\":17212:17216   */\n      0x11\n        /* \"#utility.yul\":17209:17210   */\n      0x04\n        /* \"#utility.yul\":17202:17217   */\n      mstore\n        /* \"#utility.yul\":17236:17240   */\n      0x24\n        /* \"#utility.yul\":17233:17234   */\n      0x00\n        /* \"#utility.yul\":17226:17241   */\n      revert\n        /* \"#utility.yul\":17253:17444   */\n    tag_201:\n        /* \"#utility.yul\":17293:17296   */\n      0x00\n        /* \"#utility.yul\":17312:17332   */\n      tag_445\n        /* \"#utility.yul\":17330:17331   */\n      dup3\n        /* \"#utility.yul\":17312:17332   */\n      tag_229\n      jump\t// in\n    tag_445:\n        /* \"#utility.yul\":17307:17332   */\n      swap2\n      pop\n        /* \"#utility.yul\":17346:17366   */\n      tag_446\n        /* \"#utility.yul\":17364:17365   */\n      dup4\n        /* \"#utility.yul\":17346:17366   */\n      tag_229\n      jump\t// in\n    tag_446:\n        /* \"#utility.yul\":17341:17366   */\n      swap3\n      pop\n        /* \"#utility.yul\":17389:17390   */\n      dup3\n        /* \"#utility.yul\":17386:17387   */\n      dup3\n        /* \"#utility.yul\":17382:17391   */\n      add\n        /* \"#utility.yul\":17375:17391   */\n      swap1\n      pop\n        /* \"#utility.yul\":17410:17413   */\n      dup1\n        /* \"#utility.yul\":17407:17408   */\n      dup3\n        /* \"#utility.yul\":17404:17414   */\n      gt\n        /* \"#utility.yul\":17401:17437   */\n      iszero\n      tag_447\n      jumpi\n        /* \"#utility.yul\":17417:17435   */\n      tag_448\n      tag_260\n      jump\t// in\n    tag_448:\n        /* \"#utility.yul\":17401:17437   */\n    tag_447:\n        /* \"#utility.yul\":17253:17444   */\n      swap3\n      swap2\n      pop\n      pop\n      jump\t// out\n\n    auxdata: 0xa2646970667358221220dc45e9799e0210e85c11ec734e1240075e8e86c10eaacd18850f688779bf7eaf64736f6c634300081a0033\n}\n",
				"bytecode": {
					"linkReferences": {},
					"object": "608060405234801561000f575f80fd5b506040516127d73803806127d7833981810160405281019061003191906106ce565b3384848160039081610043919061098a565b508060049081610053919061098a565b5050505f73ffffffffffffffffffffffffffffffffffffffff168173ffffffffffffffffffffffffffffffffffffffff16036100c6575f6040517f1e4fbdf70000000000000000000000000000000000000000000000000000000081526004016100bd9190610a98565b60405180910390fd5b6100d5816101e560201b60201c565b505f825103610119576040517f08c379a000000000000000000000000000000000000000000000000000000000815260040161011090610b0b565b60405180910390fd5b8160069081610128919061098a565b505f6101386102a860201b60201c565b905080600a6101479190610c91565b7fffffffffffffffffffffffffffffffffffffffffffffffffffffffffffffffff6101729190610d08565b8211156101b4576040517f08c379a00000000000000000000000000000000000000000000000000000000081526004016101ab90610d82565b60405180910390fd5b6101db3382600a6101c59190610c91565b846101d09190610da0565b6102b060201b60201c565b5050505050610e71565b5f60055f9054906101000a900473ffffffffffffffffffffffffffffffffffffffff1690508160055f6101000a81548173ffffffffffffffffffffffffffffffffffffffff021916908373ffffffffffffffffffffffffffffffffffffffff1602179055508173ffffffffffffffffffffffffffffffffffffffff168173ffffffffffffffffffffffffffffffffffffffff167f8be0079c531659141344cd1fd0a4f28419497f9722a3daafe3b4186f6b6457e060405160405180910390a35050565b5f6012905090565b5f73ffffffffffffffffffffffffffffffffffffffff168273ffffffffffffffffffffffffffffffffffffffff1603610320575f6040517fec442f050000000000000000000000000000000000000000000000000000000081526004016103179190610a98565b60405180910390fd5b6103315f838361033560201b60201c565b5050565b5f73ffffffffffffffffffffffffffffffffffffffff168373ffffffffffffffffffffffffffffffffffffffff1603610385578060025f8282546103799190610de1565b92505081905550610453565b5f805f8573ffffffffffffffffffffffffffffffffffffffff1673ffffffffffffffffffffffffffffffffffffffff1681526020019081526020015f205490508181101561040e578381836040517fe450d38c00000000000000000000000000000000000000000000000000000000815260040161040593929190610e23565b60405180910390fd5b8181035f808673ffffffffffffffffffffffffffffffffffffffff1673ffffffffffffffffffffffffffffffffffffffff1681526020019081526020015f2081905550505b5f73ffffffffffffffffffffffffffffffffffffffff168273ffffffffffffffffffffffffffffffffffffffff160361049a578060025f82825403925050819055506104e4565b805f808473ffffffffffffffffffffffffffffffffffffffff1673ffffffffffffffffffffffffffffffffffffffff1681526020019081526020015f205f82825401925050819055505b8173ffffffffffffffffffffffffffffffffffffffff168373ffffffffffffffffffffffffffffffffffffffff167fddf252ad1be2c89b69c2b068fc378daa952ba7f163c4a11628f55a4df523b3ef836040516105419190610e58565b60405180910390a3505050565b5f604051905090565b5f80fd5b5f80fd5b5f80fd5b5f80fd5b5f601f19601f8301169050919050565b7f4e487b71000000000000000000000000000000000000000000000000000000005f52604160045260245ffd5b6105ad82610567565b810181811067ffffffffffffffff821117156105cc576105cb610577565b5b80604052505050565b5f6105de61054e565b90506105ea82826105a4565b919050565b5f67ffffffffffffffff82111561060957610608610577565b5b61061282610567565b9050602081019050919050565b8281835e5f83830152505050565b5f61063f61063a846105ef565b6105d5565b90508281526020810184848401111561065b5761065a610563565b5b61066684828561061f565b509392505050565b5f82601f8301126106825761068161055f565b5b815161069284826020860161062d565b91505092915050565b5f819050919050565b6106ad8161069b565b81146106b7575f80fd5b50565b5f815190506106c8816106a4565b92915050565b5f805f80608085870312156106e6576106e5610557565b5b5f85015167ffffffffffffffff8111156107035761070261055b565b5b61070f8782880161066e565b945050602085015167ffffffffffffffff8111156107305761072f61055b565b5b61073c8782880161066e565b935050604085015167ffffffffffffffff81111561075d5761075c61055b565b5b6107698782880161066e565b925050606061077a878288016106ba565b91505092959194509250565b5f81519050919050565b7f4e487b71000000000000000000000000000000000000000000000000000000005f52602260045260245ffd5b5f60028204905060018216806107d457607f821691505b6020821081036107e7576107e6610790565b5b50919050565b5f819050815f5260205f209050919050565b5f6020601f8301049050919050565b5f82821b905092915050565b5f600883026108497fffffffffffffffffffffffffffffffffffffffffffffffffffffffffffffffff8261080e565b610853868361080e565b95508019841693508086168417925050509392505050565b5f819050919050565b5f61088e6108896108848461069b565b61086b565b61069b565b9050919050565b5f819050919050565b6108a783610874565b6108bb6108b382610895565b84845461081a565b825550505050565b5f90565b6108cf6108c3565b6108da81848461089e565b505050565b5b818110156108fd576108f25f826108c7565b6001810190506108e0565b5050565b601f82111561094257610913816107ed565b61091c846107ff565b8101602085101561092b578190505b61093f610937856107ff565b8301826108df565b50505b505050565b5f82821c905092915050565b5f6109625f1984600802610947565b1980831691505092915050565b5f61097a8383610953565b9150826002028217905092915050565b61099382610786565b67ffffffffffffffff8111156109ac576109ab610577565b5b6109b682546107bd565b6109c1828285610901565b5f60209050601f8311600181146109f2575f84156109e0578287015190505b6109ea858261096f565b865550610a51565b601f198416610a00866107ed565b5f5b82811015610a2757848901518255600182019150602085019450602081019050610a02565b86831015610a445784890151610a40601f891682610953565b8355505b6001600288020188555050505b505050505050565b5f73ffffffffffffffffffffffffffffffffffffffff82169050919050565b5f610a8282610a59565b9050919050565b610a9281610a78565b82525050565b5f602082019050610aab5f830184610a89565b92915050565b5f82825260208201905092915050565b7f456d7074792055524900000000000000000000000000000000000000000000005f82015250565b5f610af5600983610ab1565b9150610b0082610ac1565b602082019050919050565b5f6020820190508181035f830152610b2281610ae9565b9050919050565b7f4e487b71000000000000000000000000000000000000000000000000000000005f52601160045260245ffd5b5f8160011c9050919050565b5f808291508390505b6001851115610bab57808604811115610b8757610b86610b29565b5b6001851615610b965780820291505b8081029050610ba485610b56565b9450610b6b565b94509492505050565b5f82610bc35760019050610c7e565b81610bd0575f9050610c7e565b8160018114610be65760028114610bf057610c1f565b6001915050610c7e565b60ff841115610c0257610c01610b29565b5b8360020a915084821115610c1957610c18610b29565b5b50610c7e565b5060208310610133831016604e8410600b8410161715610c545782820a905083811115610c4f57610c4e610b29565b5b610c7e565b610c618484846001610b62565b92509050818404811115610c7857610c77610b29565b5b81810290505b9392505050565b5f60ff82169050919050565b5f610c9b8261069b565b9150610ca683610c85565b9250610cd37fffffffffffffffffffffffffffffffffffffffffffffffffffffffffffffffff8484610bb4565b905092915050565b7f4e487b71000000000000000000000000000000000000000000000000000000005f52601260045260245ffd5b5f610d128261069b565b9150610d1d8361069b565b925082610d2d57610d2c610cdb565b5b828204905092915050565b7f416d6f756e7420746f6f206c61726765000000000000000000000000000000005f82015250565b5f610d6c601083610ab1565b9150610d7782610d38565b602082019050919050565b5f6020820190508181035f830152610d9981610d60565b9050919050565b5f610daa8261069b565b9150610db58361069b565b9250828202610dc38161069b565b91508282048414831517610dda57610dd9610b29565b5b5092915050565b5f610deb8261069b565b9150610df68361069b565b9250828201905080821115610e0e57610e0d610b29565b5b92915050565b610e1d8161069b565b82525050565b5f606082019050610e365f830186610a89565b610e436020830185610e14565b610e506040830184610e14565b949350505050565b5f602082019050610e6b5f830184610e14565b92915050565b61195980610e7e5f395ff3fe608060405234801561000f575f80fd5b50600436106100fe575f3560e01c806342966c681161009557806395d89b411161006457806395d89b4114610286578063a9059cbb146102a4578063dd62ed3e146102d4578063f2fde38b14610304576100fe565b806342966c681461021257806370a082311461022e578063715018a61461025e5780638da5cb5b14610268576100fe565b806318160ddd116100d157806318160ddd1461018a57806323b872dd146101a8578063313ce567146101d857806340c10f19146101f6576100fe565b806304787ca21461010257806306fdde031461011e578063095ea7b31461013c578063135d088d1461016c575b5f80fd5b61011c60048036038101906101179190611160565b610320565b005b61012661037e565b6040516101339190611207565b60405180910390f35b610156600480360381019061015191906112b4565b61040e565b604051610163919061130c565b60405180910390f35b610174610430565b6040516101819190611207565b60405180910390f35b6101926104bc565b60405161019f9190611334565b60405180910390f35b6101c260048036038101906101bd919061134d565b6104c5565b6040516101cf919061130c565b60405180910390f35b6101e06104f3565b6040516101ed91906113b8565b60405180910390f35b610210600480360381019061020b91906112b4565b6104fb565b005b61022c600480360381019061022791906113d1565b6105c1565b005b610248600480360381019061024391906113fc565b610610565b6040516102559190611334565b60405180910390f35b610266610655565b005b610270610668565b60405161027d9190611436565b60405180910390f35b61028e610690565b60405161029b9190611207565b60405180910390f35b6102be60048036038101906102b991906112b4565b610720565b6040516102cb919061130c565b60405180910390f35b6102ee60048036038101906102e9919061144f565b610742565b6040516102fb9190611334565b60405180910390f35b61031e600480360381019061031991906113fc565b6107c4565b005b610328610848565b5f81510361036b576040517f08c379a0000000000000000000000000000000000000000000000000000000008152600401610362906114d7565b60405180910390fd5b806006908161037a91906116ef565b5050565b60606003805461038d90611522565b80601f01602080910402602001604051908101604052809291908181526020018280546103b990611522565b80156104045780601f106103db57610100808354040283529160200191610404565b820191905f5260205f20905b8154815290600101906020018083116103e757829003601f168201915b5050505050905090565b5f806104186108cf565b90506104258185856108d6565b600191505092915050565b6006805461043d90611522565b80601f016020809104026020016040519081016040528092919081815260200182805461046990611522565b80156104b45780601f1061048b576101008083540402835291602001916104b4565b820191905f5260205f20905b81548152906001019060200180831161049757829003601f168201915b505050505081565b5f600254905090565b5f806104cf6108cf565b90506104dc8582856108e8565b6104e785858561097a565b60019150509392505050565b5f6012905090565b610503610848565b5f73ffffffffffffffffffffffffffffffffffffffff168273ffffffffffffffffffffffffffffffffffffffff1603610571576040517f08c379a000000000000000000000000000000000000000000000000000000000815260040161056890611808565b60405180910390fd5b5f81036105b3576040517f08c379a00000000000000000000000000000000000000000000000000000000081526004016105aa90611870565b60405180910390fd5b6105bd8282610a6a565b5050565b5f8103610603576040517f08c379a00000000000000000000000000000000000000000000000000000000081526004016105fa90611870565b60405180910390fd5b61060d3382610ae9565b50565b5f805f8373ffffffffffffffffffffffffffffffffffffffff1673ffffffffffffffffffffffffffffffffffffffff1681526020019081526020015f20549050919050565b61065d610848565b6106665f610b68565b565b5f60055f9054906101000a900473ffffffffffffffffffffffffffffffffffffffff16905090565b60606004805461069f90611522565b80601f01602080910402602001604051908101604052809291908181526020018280546106cb90611522565b80156107165780601f106106ed57610100808354040283529160200191610716565b820191905f5260205f20905b8154815290600101906020018083116106f957829003601f168201915b5050505050905090565b5f8061072a6108cf565b905061073781858561097a565b600191505092915050565b5f60015f8473ffffffffffffffffffffffffffffffffffffffff1673ffffffffffffffffffffffffffffffffffffffff1681526020019081526020015f205f8373ffffffffffffffffffffffffffffffffffffffff1673ffffffffffffffffffffffffffffffffffffffff1681526020019081526020015f2054905092915050565b6107cc610848565b5f73ffffffffffffffffffffffffffffffffffffffff168173ffffffffffffffffffffffffffffffffffffffff160361083c575f6040517f1e4fbdf70000000000000000000000000000000000000000000000000000000081526004016108339190611436565b60405180910390fd5b61084581610b68565b50565b6108506108cf565b73ffffffffffffffffffffffffffffffffffffffff1661086e610668565b73ffffffffffffffffffffffffffffffffffffffff16146108cd576108916108cf565b6040517f118cdaa70000000000000000000000000000000000000000000000000000000081526004016108c49190611436565b60405180910390fd5b565b5f33905090565b6108e38383836001610c2b565b505050565b5f6108f38484610742565b90507fffffffffffffffffffffffffffffffffffffffffffffffffffffffffffffffff81146109745781811015610965578281836040517ffb8f41b200000000000000000000000000000000000000000000000000000000815260040161095c9392919061188e565b60405180910390fd5b61097384848484035f610c2b565b5b50505050565b5f73ffffffffffffffffffffffffffffffffffffffff168373ffffffffffffffffffffffffffffffffffffffff16036109ea575f6040517f96c6fd1e0000000000000000000000000000000000000000000000000000000081526004016109e19190611436565b60405180910390fd5b5f73ffffffffffffffffffffffffffffffffffffffff168273ffffffffffffffffffffffffffffffffffffffff1603610a5a575f6040517fec442f05000000000000000000000000000000000000000000000000000000008152600401610a519190611436565b60405180910390fd5b610a65838383610dfa565b505050565b5f73ffffffffffffffffffffffffffffffffffffffff168273ffffffffffffffffffffffffffffffffffffffff1603610ada575f6040517fec442f05000000000000000000000000000000000000000000000000000000008152600401610ad19190611436565b60405180910390fd5b610ae55f8383610dfa565b5050565b5f73ffffffffffffffffffffffffffffffffffffffff168273ffffffffffffffffffffffffffffffffffffffff1603610b59575f6040517f96c6fd1e000000000000000000000000000000000000000000000000000000008152600401610b509190611436565b60405180910390fd5b610b64825f83610dfa565b5050565b5f60055f9054906101000a900473ffffffffffffffffffffffffffffffffffffffff1690508160055f6101000a81548173ffffffffffffffffffffffffffffffffffffffff021916908373ffffffffffffffffffffffffffffffffffffffff1602179055508173ffffffffffffffffffffffffffffffffffffffff168173ffffffffffffffffffffffffffffffffffffffff167f8be0079c531659141344cd1fd0a4f28419497f9722a3daafe3b4186f6b6457e060405160405180910390a35050565b5f73ffffffffffffffffffffffffffffffffffffffff168473ffffffffffffffffffffffffffffffffffffffff1603610c9b575f6040517fe602df05000000000000000000000000000000000000000000000000000000008152600401610c929190611436565b60405180910390fd5b5f73ffffffffffffffffffffffffffffffffffffffff168373ffffffffffffffffffffffffffffffffffffffff1603610d0b575f6040517f94280d62000000000000000000000000000000000000000000000000000000008152600401610d029190611436565b60405180910390fd5b8160015f8673ffffffffffffffffffffffffffffffffffffffff1673ffffffffffffffffffffffffffffffffffffffff1681526020019081526020015f205f8573ffffffffffffffffffffffffffffffffffffffff1673ffffffffffffffffffffffffffffffffffffffff1681526020019081526020015f20819055508015610df4578273ffffffffffffffffffffffffffffffffffffffff168473ffffffffffffffffffffffffffffffffffffffff167f8c5be1e5ebec7d5bd14f71427d1e84f3dd0314c0f7b2291e5b200ac8c7c3b92584604051610deb9190611334565b60405180910390a35b50505050565b5f73ffffffffffffffffffffffffffffffffffffffff168373ffffffffffffffffffffffffffffffffffffffff1603610e4a578060025f828254610e3e91906118f0565b92505081905550610f18565b5f805f8573ffffffffffffffffffffffffffffffffffffffff1673ffffffffffffffffffffffffffffffffffffffff1681526020019081526020015f2054905081811015610ed3578381836040517fe450d38c000000000000000000000000000000000000000000000000000000008152600401610eca9392919061188e565b60405180910390fd5b8181035f808673ffffffffffffffffffffffffffffffffffffffff1673ffffffffffffffffffffffffffffffffffffffff1681526020019081526020015f2081905550505b5f73ffffffffffffffffffffffffffffffffffffffff168273ffffffffffffffffffffffffffffffffffffffff1603610f5f578060025f8282540392505081905550610fa9565b805f808473ffffffffffffffffffffffffffffffffffffffff1673ffffffffffffffffffffffffffffffffffffffff1681526020019081526020015f205f82825401925050819055505b8173ffffffffffffffffffffffffffffffffffffffff168373ffffffffffffffffffffffffffffffffffffffff167fddf252ad1be2c89b69c2b068fc378daa952ba7f163c4a11628f55a4df523b3ef836040516110069190611334565b60405180910390a3505050565b5f604051905090565b5f80fd5b5f80fd5b5f80fd5b5f80fd5b5f601f19601f8301169050919050565b7f4e487b71000000000000000000000000000000000000000000000000000000005f52604160045260245ffd5b6110728261102c565b810181811067ffffffffffffffff821117156110915761109061103c565b5b80604052505050565b5f6110a3611013565b90506110af8282611069565b919050565b5f67ffffffffffffffff8211156110ce576110cd61103c565b5b6110d78261102c565b9050602081019050919050565b828183375f83830152505050565b5f6111046110ff846110b4565b61109a565b9050828152602081018484840111156111205761111f611028565b5b61112b8482856110e4565b509392505050565b5f82601f83011261114757611146611024565b5b81356111578482602086016110f2565b91505092915050565b5f602082840312156111755761117461101c565b5b5f82013567ffffffffffffffff81111561119257611191611020565b5b61119e84828501611133565b91505092915050565b5f81519050919050565b5f82825260208201905092915050565b8281835e5f83830152505050565b5f6111d9826111a7565b6111e381856111b1565b93506111f38185602086016111c1565b6111fc8161102c565b840191505092915050565b5f6020820190508181035f83015261121f81846111cf565b905092915050565b5f73ffffffffffffffffffffffffffffffffffffffff82169050919050565b5f61125082611227565b9050919050565b61126081611246565b811461126a575f80fd5b50565b5f8135905061127b81611257565b92915050565b5f819050919050565b61129381611281565b811461129d575f80fd5b50565b5f813590506112ae8161128a565b92915050565b5f80604083850312156112ca576112c961101c565b5b5f6112d78582860161126d565b92505060206112e8858286016112a0565b9150509250929050565b5f8115159050919050565b611306816112f2565b82525050565b5f60208201905061131f5f8301846112fd565b92915050565b61132e81611281565b82525050565b5f6020820190506113475f830184611325565b92915050565b5f805f606084860312156113645761136361101c565b5b5f6113718682870161126d565b93505060206113828682870161126d565b9250506040611393868287016112a0565b9150509250925092565b5f60ff82169050919050565b6113b28161139d565b82525050565b5f6020820190506113cb5f8301846113a9565b92915050565b5f602082840312156113e6576113e561101c565b5b5f6113f3848285016112a0565b91505092915050565b5f602082840312156114115761141061101c565b5b5f61141e8482850161126d565b91505092915050565b61143081611246565b82525050565b5f6020820190506114495f830184611427565b92915050565b5f80604083850312156114655761146461101c565b5b5f6114728582860161126d565b92505060206114838582860161126d565b9150509250929050565b7f456d7074792055524900000000000000000000000000000000000000000000005f82015250565b5f6114c16009836111b1565b91506114cc8261148d565b602082019050919050565b5f6020820190508181035f8301526114ee816114b5565b9050919050565b7f4e487b71000000000000000000000000000000000000000000000000000000005f52602260045260245ffd5b5f600282049050600182168061153957607f821691505b60208210810361154c5761154b6114f5565b5b50919050565b5f819050815f5260205f209050919050565b5f6020601f8301049050919050565b5f82821b905092915050565b5f600883026115ae7fffffffffffffffffffffffffffffffffffffffffffffffffffffffffffffffff82611573565b6115b88683611573565b95508019841693508086168417925050509392505050565b5f819050919050565b5f6115f36115ee6115e984611281565b6115d0565b611281565b9050919050565b5f819050919050565b61160c836115d9565b611620611618826115fa565b84845461157f565b825550505050565b5f90565b611634611628565b61163f818484611603565b505050565b5b81811015611662576116575f8261162c565b600181019050611645565b5050565b601f8211156116a75761167881611552565b61168184611564565b81016020851015611690578190505b6116a461169c85611564565b830182611644565b50505b505050565b5f82821c905092915050565b5f6116c75f19846008026116ac565b1980831691505092915050565b5f6116df83836116b8565b9150826002028217905092915050565b6116f8826111a7565b67ffffffffffffffff8111156117115761171061103c565b5b61171b8254611522565b611726828285611666565b5f60209050601f831160018114611757575f8415611745578287015190505b61174f85826116d4565b8655506117b6565b601f19841661176586611552565b5f5b8281101561178c57848901518255600182019150602085019450602081019050611767565b868310156117a957848901516117a5601f8916826116b8565b8355505b6001600288020188555050505b505050505050565b7f5a65726f206164647265737300000000000000000000000000000000000000005f82015250565b5f6117f2600c836111b1565b91506117fd826117be565b602082019050919050565b5f6020820190508181035f83015261181f816117e6565b9050919050565b7f5a65726f20616d6f756e740000000000000000000000000000000000000000005f82015250565b5f61185a600b836111b1565b915061186582611826565b602082019050919050565b5f6020820190508181035f8301526118878161184e565b9050919050565b5f6060820190506118a15f830186611427565b6118ae6020830185611325565b6118bb6040830184611325565b949350505050565b7f4e487b71000000000000000000000000000000000000000000000000000000005f52601160045260245ffd5b5f6118fa82611281565b915061190583611281565b925082820190508082111561191d5761191c6118c3565b5b9291505056fea2646970667358221220dc45e9799e0210e85c11ec734e1240075e8e86c10eaacd18850f688779bf7eaf64736f6c634300081a0033",
					"opcodes": "PUSH1 0x80 PUSH1 0x40 MSTORE CALLVALUE DUP1 ISZERO PUSH2 0xF JUMPI PUSH0 DUP1 REVERT JUMPDEST POP PUSH1 0x40 MLOAD PUSH2 0x27D7 CODESIZE SUB DUP1 PUSH2 0x27D7 DUP4 CODECOPY DUP2 DUP2 ADD PUSH1 0x40 MSTORE DUP2 ADD SWAP1 PUSH2 0x31 SWAP2 SWAP1 PUSH2 0x6CE JUMP JUMPDEST CALLER DUP5 DUP5 DUP2 PUSH1 0x3 SWAP1 DUP2 PUSH2 0x43 SWAP2 SWAP1 PUSH2 0x98A JUMP JUMPDEST POP DUP1 PUSH1 0x4 SWAP1 DUP2 PUSH2 0x53 SWAP2 SWAP1 PUSH2 0x98A JUMP JUMPDEST POP POP POP PUSH0 PUSH20 0xFFFFFFFFFFFFFFFFFFFFFFFFFFFFFFFFFFFFFFFF AND DUP2 PUSH20 0xFFFFFFFFFFFFFFFFFFFFFFFFFFFFFFFFFFFFFFFF AND SUB PUSH2 0xC6 JUMPI PUSH0 PUSH1 0x40 MLOAD PUSH32 0x1E4FBDF700000000000000000000000000000000000000000000000000000000 DUP2 MSTORE PUSH1 0x4 ADD PUSH2 0xBD SWAP2 SWAP1 PUSH2 0xA98 JUMP JUMPDEST PUSH1 0x40 MLOAD DUP1 SWAP2 SUB SWAP1 REVERT JUMPDEST PUSH2 0xD5 DUP2 PUSH2 0x1E5 PUSH1 0x20 SHL PUSH1 0x20 SHR JUMP JUMPDEST POP PUSH0 DUP3 MLOAD SUB PUSH2 0x119 JUMPI PUSH1 0x40 MLOAD PUSH32 0x8C379A000000000000000000000000000000000000000000000000000000000 DUP2 MSTORE PUSH1 0x4 ADD PUSH2 0x110 SWAP1 PUSH2 0xB0B JUMP JUMPDEST PUSH1 0x40 MLOAD DUP1 SWAP2 SUB SWAP1 REVERT JUMPDEST DUP2 PUSH1 0x6 SWAP1 DUP2 PUSH2 0x128 SWAP2 SWAP1 PUSH2 0x98A JUMP JUMPDEST POP PUSH0 PUSH2 0x138 PUSH2 0x2A8 PUSH1 0x20 SHL PUSH1 0x20 SHR JUMP JUMPDEST SWAP1 POP DUP1 PUSH1 0xA PUSH2 0x147 SWAP2 SWAP1 PUSH2 0xC91 JUMP JUMPDEST PUSH32 0xFFFFFFFFFFFFFFFFFFFFFFFFFFFFFFFFFFFFFFFFFFFFFFFFFFFFFFFFFFFFFFFF PUSH2 0x172 SWAP2 SWAP1 PUSH2 0xD08 JUMP JUMPDEST DUP3 GT ISZERO PUSH2 0x1B4 JUMPI PUSH1 0x40 MLOAD PUSH32 0x8C379A000000000000000000000000000000000000000000000000000000000 DUP2 MSTORE PUSH1 0x4 ADD PUSH2 0x1AB SWAP1 PUSH2 0xD82 JUMP JUMPDEST PUSH1 0x40 MLOAD DUP1 SWAP2 SUB SWAP1 REVERT JUMPDEST PUSH2 0x1DB CALLER DUP3 PUSH1 0xA PUSH2 0x1C5 SWAP2 SWAP1 PUSH2 0xC91 JUMP JUMPDEST DUP5 PUSH2 0x1D0 SWAP2 SWAP1 PUSH2 0xDA0 JUMP JUMPDEST PUSH2 0x2B0 PUSH1 0x20 SHL PUSH1 0x20 SHR JUMP JUMPDEST POP POP POP POP POP PUSH2 0xE71 JUMP JUMPDEST PUSH0 PUSH1 0x5 PUSH0 SWAP1 SLOAD SWAP1 PUSH2 0x100 EXP SWAP1 DIV PUSH20 0xFFFFFFFFFFFFFFFFFFFFFFFFFFFFFFFFFFFFFFFF AND SWAP1 POP DUP2 PUSH1 0x5 PUSH0 PUSH2 0x100 EXP DUP2 SLOAD DUP2 PUSH20 0xFFFFFFFFFFFFFFFFFFFFFFFFFFFFFFFFFFFFFFFF MUL NOT AND SWAP1 DUP4 PUSH20 0xFFFFFFFFFFFFFFFFFFFFFFFFFFFFFFFFFFFFFFFF AND MUL OR SWAP1 SSTORE POP DUP2 PUSH20 0xFFFFFFFFFFFFFFFFFFFFFFFFFFFFFFFFFFFFFFFF AND DUP2 PUSH20 0xFFFFFFFFFFFFFFFFFFFFFFFFFFFFFFFFFFFFFFFF AND PUSH32 0x8BE0079C531659141344CD1FD0A4F28419497F9722A3DAAFE3B4186F6B6457E0 PUSH1 0x40 MLOAD PUSH1 0x40 MLOAD DUP1 SWAP2 SUB SWAP1 LOG3 POP POP JUMP JUMPDEST PUSH0 PUSH1 0x12 SWAP1 POP SWAP1 JUMP JUMPDEST PUSH0 PUSH20 0xFFFFFFFFFFFFFFFFFFFFFFFFFFFFFFFFFFFFFFFF AND DUP3 PUSH20 0xFFFFFFFFFFFFFFFFFFFFFFFFFFFFFFFFFFFFFFFF AND SUB PUSH2 0x320 JUMPI PUSH0 PUSH1 0x40 MLOAD PUSH32 0xEC442F0500000000000000000000000000000000000000000000000000000000 DUP2 MSTORE PUSH1 0x4 ADD PUSH2 0x317 SWAP2 SWAP1 PUSH2 0xA98 JUMP JUMPDEST PUSH1 0x40 MLOAD DUP1 SWAP2 SUB SWAP1 REVERT JUMPDEST PUSH2 0x331 PUSH0 DUP4 DUP4 PUSH2 0x335 PUSH1 0x20 SHL PUSH1 0x20 SHR JUMP JUMPDEST POP POP JUMP JUMPDEST PUSH0 PUSH20 0xFFFFFFFFFFFFFFFFFFFFFFFFFFFFFFFFFFFFFFFF AND DUP4 PUSH20 0xFFFFFFFFFFFFFFFFFFFFFFFFFFFFFFFFFFFFFFFF AND SUB PUSH2 0x385 JUMPI DUP1 PUSH1 0x2 PUSH0 DUP3 DUP3 SLOAD PUSH2 0x379 SWAP2 SWAP1 PUSH2 0xDE1 JUMP JUMPDEST SWAP3 POP POP DUP2 SWAP1 SSTORE POP PUSH2 0x453 JUMP JUMPDEST PUSH0 DUP1 PUSH0 DUP6 PUSH20 0xFFFFFFFFFFFFFFFFFFFFFFFFFFFFFFFFFFFFFFFF AND PUSH20 0xFFFFFFFFFFFFFFFFFFFFFFFFFFFFFFFFFFFFFFFF AND DUP2 MSTORE PUSH1 0x20 ADD SWAP1 DUP2 MSTORE PUSH1 0x20 ADD PUSH0 KECCAK256 SLOAD SWAP1 POP DUP2 DUP2 LT ISZERO PUSH2 0x40E JUMPI DUP4 DUP2 DUP4 PUSH1 0x40 MLOAD PUSH32 0xE450D38C00000000000000000000000000000000000000000000000000000000 DUP2 MSTORE PUSH1 0x4 ADD PUSH2 0x405 SWAP4 SWAP3 SWAP2 SWAP1 PUSH2 0xE23 JUMP JUMPDEST PUSH1 0x40 MLOAD DUP1 SWAP2 SUB SWAP1 REVERT JUMPDEST DUP2 DUP2 SUB PUSH0 DUP1 DUP7 PUSH20 0xFFFFFFFFFFFFFFFFFFFFFFFFFFFFFFFFFFFFFFFF AND PUSH20 0xFFFFFFFFFFFFFFFFFFFFFFFFFFFFFFFFFFFFFFFF AND DUP2 MSTORE PUSH1 0x20 ADD SWAP1 DUP2 MSTORE PUSH1 0x20 ADD PUSH0 KECCAK256 DUP2 SWAP1 SSTORE POP POP JUMPDEST PUSH0 PUSH20 0xFFFFFFFFFFFFFFFFFFFFFFFFFFFFFFFFFFFFFFFF AND DUP3 PUSH20 0xFFFFFFFFFFFFFFFFFFFFFFFFFFFFFFFFFFFFFFFF AND SUB PUSH2 0x49A JUMPI DUP1 PUSH1 0x2 PUSH0 DUP3 DUP3 SLOAD SUB SWAP3 POP POP DUP2 SWAP1 SSTORE POP PUSH2 0x4E4 JUMP JUMPDEST DUP1 PUSH0 DUP1 DUP5 PUSH20 0xFFFFFFFFFFFFFFFFFFFFFFFFFFFFFFFFFFFFFFFF AND PUSH20 0xFFFFFFFFFFFFFFFFFFFFFFFFFFFFFFFFFFFFFFFF AND DUP2 MSTORE PUSH1 0x20 ADD SWAP1 DUP2 MSTORE PUSH1 0x20 ADD PUSH0 KECCAK256 PUSH0 DUP3 DUP3 SLOAD ADD SWAP3 POP POP DUP2 SWAP1 SSTORE POP JUMPDEST DUP2 PUSH20 0xFFFFFFFFFFFFFFFFFFFFFFFFFFFFFFFFFFFFFFFF AND DUP4 PUSH20 0xFFFFFFFFFFFFFFFFFFFFFFFFFFFFFFFFFFFFFFFF AND PUSH32 0xDDF252AD1BE2C89B69C2B068FC378DAA952BA7F163C4A11628F55A4DF523B3EF DUP4 PUSH1 0x40 MLOAD PUSH2 0x541 SWAP2 SWAP1 PUSH2 0xE58 JUMP JUMPDEST PUSH1 0x40 MLOAD DUP1 SWAP2 SUB SWAP1 LOG3 POP POP POP JUMP JUMPDEST PUSH0 PUSH1 0x40 MLOAD SWAP1 POP SWAP1 JUMP JUMPDEST PUSH0 DUP1 REVERT JUMPDEST PUSH0 DUP1 REVERT JUMPDEST PUSH0 DUP1 REVERT JUMPDEST PUSH0 DUP1 REVERT JUMPDEST PUSH0 PUSH1 0x1F NOT PUSH1 0x1F DUP4 ADD AND SWAP1 POP SWAP2 SWAP1 POP JUMP JUMPDEST PUSH32 0x4E487B7100000000000000000000000000000000000000000000000000000000 PUSH0 MSTORE PUSH1 0x41 PUSH1 0x4 MSTORE PUSH1 0x24 PUSH0 REVERT JUMPDEST PUSH2 0x5AD DUP3 PUSH2 0x567 JUMP JUMPDEST DUP2 ADD DUP2 DUP2 LT PUSH8 0xFFFFFFFFFFFFFFFF DUP3 GT OR ISZERO PUSH2 0x5CC JUMPI PUSH2 0x5CB PUSH2 0x577 JUMP JUMPDEST JUMPDEST DUP1 PUSH1 0x40 MSTORE POP POP POP JUMP JUMPDEST PUSH0 PUSH2 0x5DE PUSH2 0x54E JUMP JUMPDEST SWAP1 POP PUSH2 0x5EA DUP3 DUP3 PUSH2 0x5A4 JUMP JUMPDEST SWAP2 SWAP1 POP JUMP JUMPDEST PUSH0 PUSH8 0xFFFFFFFFFFFFFFFF DUP3 GT ISZERO PUSH2 0x609 JUMPI PUSH2 0x608 PUSH2 0x577 JUMP JUMPDEST JUMPDEST PUSH2 0x612 DUP3 PUSH2 0x567 JUMP JUMPDEST SWAP1 POP PUSH1 0x20 DUP2 ADD SWAP1 POP SWAP2 SWAP1 POP JUMP JUMPDEST DUP3 DUP2 DUP4 MCOPY PUSH0 DUP4 DUP4 ADD MSTORE POP POP POP JUMP JUMPDEST PUSH0 PUSH2 0x63F PUSH2 0x63A DUP5 PUSH2 0x5EF JUMP JUMPDEST PUSH2 0x5D5 JUMP JUMPDEST SWAP1 POP DUP3 DUP2 MSTORE PUSH1 0x20 DUP2 ADD DUP5 DUP5 DUP5 ADD GT ISZERO PUSH2 0x65B JUMPI PUSH2 0x65A PUSH2 0x563 JUMP JUMPDEST JUMPDEST PUSH2 0x666 DUP5 DUP3 DUP6 PUSH2 0x61F JUMP JUMPDEST POP SWAP4 SWAP3 POP POP POP JUMP JUMPDEST PUSH0 DUP3 PUSH1 0x1F DUP4 ADD SLT PUSH2 0x682 JUMPI PUSH2 0x681 PUSH2 0x55F JUMP JUMPDEST JUMPDEST DUP2 MLOAD PUSH2 0x692 DUP5 DUP3 PUSH1 0x20 DUP7 ADD PUSH2 0x62D JUMP JUMPDEST SWAP2 POP POP SWAP3 SWAP2 POP POP JUMP JUMPDEST PUSH0 DUP2 SWAP1 POP SWAP2 SWAP1 POP JUMP JUMPDEST PUSH2 0x6AD DUP2 PUSH2 0x69B JUMP JUMPDEST DUP2 EQ PUSH2 0x6B7 JUMPI PUSH0 DUP1 REVERT JUMPDEST POP JUMP JUMPDEST PUSH0 DUP2 MLOAD SWAP1 POP PUSH2 0x6C8 DUP2 PUSH2 0x6A4 JUMP JUMPDEST SWAP3 SWAP2 POP POP JUMP JUMPDEST PUSH0 DUP1 PUSH0 DUP1 PUSH1 0x80 DUP6 DUP8 SUB SLT ISZERO PUSH2 0x6E6 JUMPI PUSH2 0x6E5 PUSH2 0x557 JUMP JUMPDEST JUMPDEST PUSH0 DUP6 ADD MLOAD PUSH8 0xFFFFFFFFFFFFFFFF DUP2 GT ISZERO PUSH2 0x703 JUMPI PUSH2 0x702 PUSH2 0x55B JUMP JUMPDEST JUMPDEST PUSH2 0x70F DUP8 DUP3 DUP9 ADD PUSH2 0x66E JUMP JUMPDEST SWAP5 POP POP PUSH1 0x20 DUP6 ADD MLOAD PUSH8 0xFFFFFFFFFFFFFFFF DUP2 GT ISZERO PUSH2 0x730 JUMPI PUSH2 0x72F PUSH2 0x55B JUMP JUMPDEST JUMPDEST PUSH2 0x73C DUP8 DUP3 DUP9 ADD PUSH2 0x66E JUMP JUMPDEST SWAP4 POP POP PUSH1 0x40 DUP6 ADD MLOAD PUSH8 0xFFFFFFFFFFFFFFFF DUP2 GT ISZERO PUSH2 0x75D JUMPI PUSH2 0x75C PUSH2 0x55B JUMP JUMPDEST JUMPDEST PUSH2 0x769 DUP8 DUP3 DUP9 ADD PUSH2 0x66E JUMP JUMPDEST SWAP3 POP POP PUSH1 0x60 PUSH2 0x77A DUP8 DUP3 DUP9 ADD PUSH2 0x6BA JUMP JUMPDEST SWAP2 POP POP SWAP3 SWAP6 SWAP2 SWAP5 POP SWAP3 POP JUMP JUMPDEST PUSH0 DUP2 MLOAD SWAP1 POP SWAP2 SWAP1 POP JUMP JUMPDEST PUSH32 0x4E487B7100000000000000000000000000000000000000000000000000000000 PUSH0 MSTORE PUSH1 0x22 PUSH1 0x4 MSTORE PUSH1 0x24 PUSH0 REVERT JUMPDEST PUSH0 PUSH1 0x2 DUP3 DIV SWAP1 POP PUSH1 0x1 DUP3 AND DUP1 PUSH2 0x7D4 JUMPI PUSH1 0x7F DUP3 AND SWAP2 POP JUMPDEST PUSH1 0x20 DUP3 LT DUP2 SUB PUSH2 0x7E7 JUMPI PUSH2 0x7E6 PUSH2 0x790 JUMP JUMPDEST JUMPDEST POP SWAP2 SWAP1 POP JUMP JUMPDEST PUSH0 DUP2 SWAP1 POP DUP2 PUSH0 MSTORE PUSH1 0x20 PUSH0 KECCAK256 SWAP1 POP SWAP2 SWAP1 POP JUMP JUMPDEST PUSH0 PUSH1 0x20 PUSH1 0x1F DUP4 ADD DIV SWAP1 POP SWAP2 SWAP1 POP JUMP JUMPDEST PUSH0 DUP3 DUP3 SHL SWAP1 POP SWAP3 SWAP2 POP POP JUMP JUMPDEST PUSH0 PUSH1 0x8 DUP4 MUL PUSH2 0x849 PUSH32 0xFFFFFFFFFFFFFFFFFFFFFFFFFFFFFFFFFFFFFFFFFFFFFFFFFFFFFFFFFFFFFFFF DUP3 PUSH2 0x80E JUMP JUMPDEST PUSH2 0x853 DUP7 DUP4 PUSH2 0x80E JUMP JUMPDEST SWAP6 POP DUP1 NOT DUP5 AND SWAP4 POP DUP1 DUP7 AND DUP5 OR SWAP3 POP POP POP SWAP4 SWAP3 POP POP POP JUMP JUMPDEST PUSH0 DUP2 SWAP1 POP SWAP2 SWAP1 POP JUMP JUMPDEST PUSH0 PUSH2 0x88E PUSH2 0x889 PUSH2 0x884 DUP5 PUSH2 0x69B JUMP JUMPDEST PUSH2 0x86B JUMP JUMPDEST PUSH2 0x69B JUMP JUMPDEST SWAP1 POP SWAP2 SWAP1 POP JUMP JUMPDEST PUSH0 DUP2 SWAP1 POP SWAP2 SWAP1 POP JUMP JUMPDEST PUSH2 0x8A7 DUP4 PUSH2 0x874 JUMP JUMPDEST PUSH2 0x8BB PUSH2 0x8B3 DUP3 PUSH2 0x895 JUMP JUMPDEST DUP5 DUP5 SLOAD PUSH2 0x81A JUMP JUMPDEST DUP3 SSTORE POP POP POP POP JUMP JUMPDEST PUSH0 SWAP1 JUMP JUMPDEST PUSH2 0x8CF PUSH2 0x8C3 JUMP JUMPDEST PUSH2 0x8DA DUP2 DUP5 DUP5 PUSH2 0x89E JUMP JUMPDEST POP POP POP JUMP JUMPDEST JUMPDEST DUP2 DUP2 LT ISZERO PUSH2 0x8FD JUMPI PUSH2 0x8F2 PUSH0 DUP3 PUSH2 0x8C7 JUMP JUMPDEST PUSH1 0x1 DUP2 ADD SWAP1 POP PUSH2 0x8E0 JUMP JUMPDEST POP POP JUMP JUMPDEST PUSH1 0x1F DUP3 GT ISZERO PUSH2 0x942 JUMPI PUSH2 0x913 DUP2 PUSH2 0x7ED JUMP JUMPDEST PUSH2 0x91C DUP5 PUSH2 0x7FF JUMP JUMPDEST DUP2 ADD PUSH1 0x20 DUP6 LT ISZERO PUSH2 0x92B JUMPI DUP2 SWAP1 POP JUMPDEST PUSH2 0x93F PUSH2 0x937 DUP6 PUSH2 0x7FF JUMP JUMPDEST DUP4 ADD DUP3 PUSH2 0x8DF JUMP JUMPDEST POP POP JUMPDEST POP POP POP JUMP JUMPDEST PUSH0 DUP3 DUP3 SHR SWAP1 POP SWAP3 SWAP2 POP POP JUMP JUMPDEST PUSH0 PUSH2 0x962 PUSH0 NOT DUP5 PUSH1 0x8 MUL PUSH2 0x947 JUMP JUMPDEST NOT DUP1 DUP4 AND SWAP2 POP POP SWAP3 SWAP2 POP POP JUMP JUMPDEST PUSH0 PUSH2 0x97A DUP4 DUP4 PUSH2 0x953 JUMP JUMPDEST SWAP2 POP DUP3 PUSH1 0x2 MUL DUP3 OR SWAP1 POP SWAP3 SWAP2 POP POP JUMP JUMPDEST PUSH2 0x993 DUP3 PUSH2 0x786 JUMP JUMPDEST PUSH8 0xFFFFFFFFFFFFFFFF DUP2 GT ISZERO PUSH2 0x9AC JUMPI PUSH2 0x9AB PUSH2 0x577 JUMP JUMPDEST JUMPDEST PUSH2 0x9B6 DUP3 SLOAD PUSH2 0x7BD JUMP JUMPDEST PUSH2 0x9C1 DUP3 DUP3 DUP6 PUSH2 0x901 JUMP JUMPDEST PUSH0 PUSH1 0x20 SWAP1 POP PUSH1 0x1F DUP4 GT PUSH1 0x1 DUP2 EQ PUSH2 0x9F2 JUMPI PUSH0 DUP5 ISZERO PUSH2 0x9E0 JUMPI DUP3 DUP8 ADD MLOAD SWAP1 POP JUMPDEST PUSH2 0x9EA DUP6 DUP3 PUSH2 0x96F JUMP JUMPDEST DUP7 SSTORE POP PUSH2 0xA51 JUMP JUMPDEST PUSH1 0x1F NOT DUP5 AND PUSH2 0xA00 DUP7 PUSH2 0x7ED JUMP JUMPDEST PUSH0 JUMPDEST DUP3 DUP2 LT ISZERO PUSH2 0xA27 JUMPI DUP5 DUP10 ADD MLOAD DUP3 SSTORE PUSH1 0x1 DUP3 ADD SWAP2 POP PUSH1 0x20 DUP6 ADD SWAP5 POP PUSH1 0x20 DUP2 ADD SWAP1 POP PUSH2 0xA02 JUMP JUMPDEST DUP7 DUP4 LT ISZERO PUSH2 0xA44 JUMPI DUP5 DUP10 ADD MLOAD PUSH2 0xA40 PUSH1 0x1F DUP10 AND DUP3 PUSH2 0x953 JUMP JUMPDEST DUP4 SSTORE POP JUMPDEST PUSH1 0x1 PUSH1 0x2 DUP9 MUL ADD DUP9 SSTORE POP POP POP JUMPDEST POP POP POP POP POP POP JUMP JUMPDEST PUSH0 PUSH20 0xFFFFFFFFFFFFFFFFFFFFFFFFFFFFFFFFFFFFFFFF DUP3 AND SWAP1 POP SWAP2 SWAP1 POP JUMP JUMPDEST PUSH0 PUSH2 0xA82 DUP3 PUSH2 0xA59 JUMP JUMPDEST SWAP1 POP SWAP2 SWAP1 POP JUMP JUMPDEST PUSH2 0xA92 DUP2 PUSH2 0xA78 JUMP JUMPDEST DUP3 MSTORE POP POP JUMP JUMPDEST PUSH0 PUSH1 0x20 DUP3 ADD SWAP1 POP PUSH2 0xAAB PUSH0 DUP4 ADD DUP5 PUSH2 0xA89 JUMP JUMPDEST SWAP3 SWAP2 POP POP JUMP JUMPDEST PUSH0 DUP3 DUP3 MSTORE PUSH1 0x20 DUP3 ADD SWAP1 POP SWAP3 SWAP2 POP POP JUMP JUMPDEST PUSH32 0x456D707479205552490000000000000000000000000000000000000000000000 PUSH0 DUP3 ADD MSTORE POP JUMP JUMPDEST PUSH0 PUSH2 0xAF5 PUSH1 0x9 DUP4 PUSH2 0xAB1 JUMP JUMPDEST SWAP2 POP PUSH2 0xB00 DUP3 PUSH2 0xAC1 JUMP JUMPDEST PUSH1 0x20 DUP3 ADD SWAP1 POP SWAP2 SWAP1 POP JUMP JUMPDEST PUSH0 PUSH1 0x20 DUP3 ADD SWAP1 POP DUP2 DUP2 SUB PUSH0 DUP4 ADD MSTORE PUSH2 0xB22 DUP2 PUSH2 0xAE9 JUMP JUMPDEST SWAP1 POP SWAP2 SWAP1 POP JUMP JUMPDEST PUSH32 0x4E487B7100000000000000000000000000000000000000000000000000000000 PUSH0 MSTORE PUSH1 0x11 PUSH1 0x4 MSTORE PUSH1 0x24 PUSH0 REVERT JUMPDEST PUSH0 DUP2 PUSH1 0x1 SHR SWAP1 POP SWAP2 SWAP1 POP JUMP JUMPDEST PUSH0 DUP1 DUP3 SWAP2 POP DUP4 SWAP1 POP JUMPDEST PUSH1 0x1 DUP6 GT ISZERO PUSH2 0xBAB JUMPI DUP1 DUP7 DIV DUP2 GT ISZERO PUSH2 0xB87 JUMPI PUSH2 0xB86 PUSH2 0xB29 JUMP JUMPDEST JUMPDEST PUSH1 0x1 DUP6 AND ISZERO PUSH2 0xB96 JUMPI DUP1 DUP3 MUL SWAP2 POP JUMPDEST DUP1 DUP2 MUL SWAP1 POP PUSH2 0xBA4 DUP6 PUSH2 0xB56 JUMP JUMPDEST SWAP5 POP PUSH2 0xB6B JUMP JUMPDEST SWAP5 POP SWAP5 SWAP3 POP POP POP JUMP JUMPDEST PUSH0 DUP3 PUSH2 0xBC3 JUMPI PUSH1 0x1 SWAP1 POP PUSH2 0xC7E JUMP JUMPDEST DUP2 PUSH2 0xBD0 JUMPI PUSH0 SWAP1 POP PUSH2 0xC7E JUMP JUMPDEST DUP2 PUSH1 0x1 DUP2 EQ PUSH2 0xBE6 JUMPI PUSH1 0x2 DUP2 EQ PUSH2 0xBF0 JUMPI PUSH2 0xC1F JUMP JUMPDEST PUSH1 0x1 SWAP2 POP POP PUSH2 0xC7E JUMP JUMPDEST PUSH1 0xFF DUP5 GT ISZERO PUSH2 0xC02 JUMPI PUSH2 0xC01 PUSH2 0xB29 JUMP JUMPDEST JUMPDEST DUP4 PUSH1 0x2 EXP SWAP2 POP DUP5 DUP3 GT ISZERO PUSH2 0xC19 JUMPI PUSH2 0xC18 PUSH2 0xB29 JUMP JUMPDEST JUMPDEST POP PUSH2 0xC7E JUMP JUMPDEST POP PUSH1 0x20 DUP4 LT PUSH2 0x133 DUP4 LT AND PUSH1 0x4E DUP5 LT PUSH1 0xB DUP5 LT AND OR ISZERO PUSH2 0xC54 JUMPI DUP3 DUP3 EXP SWAP1 POP DUP4 DUP2 GT ISZERO PUSH2 0xC4F JUMPI PUSH2 0xC4E PUSH2 0xB29 JUMP JUMPDEST JUMPDEST PUSH2 0xC7E JUMP JUMPDEST PUSH2 0xC61 DUP5 DUP5 DUP5 PUSH1 0x1 PUSH2 0xB62 JUMP JUMPDEST SWAP3 POP SWAP1 POP DUP2 DUP5 DIV DUP2 GT ISZERO PUSH2 0xC78 JUMPI PUSH2 0xC77 PUSH2 0xB29 JUMP JUMPDEST JUMPDEST DUP2 DUP2 MUL SWAP1 POP JUMPDEST SWAP4 SWAP3 POP POP POP JUMP JUMPDEST PUSH0 PUSH1 0xFF DUP3 AND SWAP1 POP SWAP2 SWAP1 POP JUMP JUMPDEST PUSH0 PUSH2 0xC9B DUP3 PUSH2 0x69B JUMP JUMPDEST SWAP2 POP PUSH2 0xCA6 DUP4 PUSH2 0xC85 JUMP JUMPDEST SWAP3 POP PUSH2 0xCD3 PUSH32 0xFFFFFFFFFFFFFFFFFFFFFFFFFFFFFFFFFFFFFFFFFFFFFFFFFFFFFFFFFFFFFFFF DUP5 DUP5 PUSH2 0xBB4 JUMP JUMPDEST SWAP1 POP SWAP3 SWAP2 POP POP JUMP JUMPDEST PUSH32 0x4E487B7100000000000000000000000000000000000000000000000000000000 PUSH0 MSTORE PUSH1 0x12 PUSH1 0x4 MSTORE PUSH1 0x24 PUSH0 REVERT JUMPDEST PUSH0 PUSH2 0xD12 DUP3 PUSH2 0x69B JUMP JUMPDEST SWAP2 POP PUSH2 0xD1D DUP4 PUSH2 0x69B JUMP JUMPDEST SWAP3 POP DUP3 PUSH2 0xD2D JUMPI PUSH2 0xD2C PUSH2 0xCDB JUMP JUMPDEST JUMPDEST DUP3 DUP3 DIV SWAP1 POP SWAP3 SWAP2 POP POP JUMP JUMPDEST PUSH32 0x416D6F756E7420746F6F206C6172676500000000000000000000000000000000 PUSH0 DUP3 ADD MSTORE POP JUMP JUMPDEST PUSH0 PUSH2 0xD6C PUSH1 0x10 DUP4 PUSH2 0xAB1 JUMP JUMPDEST SWAP2 POP PUSH2 0xD77 DUP3 PUSH2 0xD38 JUMP JUMPDEST PUSH1 0x20 DUP3 ADD SWAP1 POP SWAP2 SWAP1 POP JUMP JUMPDEST PUSH0 PUSH1 0x20 DUP3 ADD SWAP1 POP DUP2 DUP2 SUB PUSH0 DUP4 ADD MSTORE PUSH2 0xD99 DUP2 PUSH2 0xD60 JUMP JUMPDEST SWAP1 POP SWAP2 SWAP1 POP JUMP JUMPDEST PUSH0 PUSH2 0xDAA DUP3 PUSH2 0x69B JUMP JUMPDEST SWAP2 POP PUSH2 0xDB5 DUP4 PUSH2 0x69B JUMP JUMPDEST SWAP3 POP DUP3 DUP3 MUL PUSH2 0xDC3 DUP2 PUSH2 0x69B JUMP JUMPDEST SWAP2 POP DUP3 DUP3 DIV DUP5 EQ DUP4 ISZERO OR PUSH2 0xDDA JUMPI PUSH2 0xDD9 PUSH2 0xB29 JUMP JUMPDEST JUMPDEST POP SWAP3 SWAP2 POP POP JUMP JUMPDEST PUSH0 PUSH2 0xDEB DUP3 PUSH2 0x69B JUMP JUMPDEST SWAP2 POP PUSH2 0xDF6 DUP4 PUSH2 0x69B JUMP JUMPDEST SWAP3 POP DUP3 DUP3 ADD SWAP1 POP DUP1 DUP3 GT ISZERO PUSH2 0xE0E JUMPI PUSH2 0xE0D PUSH2 0xB29 JUMP JUMPDEST JUMPDEST SWAP3 SWAP2 POP POP JUMP JUMPDEST PUSH2 0xE1D DUP2 PUSH2 0x69B JUMP JUMPDEST DUP3 MSTORE POP POP JUMP JUMPDEST PUSH0 PUSH1 0x60 DUP3 ADD SWAP1 POP PUSH2 0xE36 PUSH0 DUP4 ADD DUP7 PUSH2 0xA89 JUMP JUMPDEST PUSH2 0xE43 PUSH1 0x20 DUP4 ADD DUP6 PUSH2 0xE14 JUMP JUMPDEST PUSH2 0xE50 PUSH1 0x40 DUP4 ADD DUP5 PUSH2 0xE14 JUMP JUMPDEST SWAP5 SWAP4 POP POP POP POP JUMP JUMPDEST PUSH0 PUSH1 0x20 DUP3 ADD SWAP1 POP PUSH2 0xE6B PUSH0 DUP4 ADD DUP5 PUSH2 0xE14 JUMP JUMPDEST SWAP3 SWAP2 POP POP JUMP JUMPDEST PUSH2 0x1959 DUP1 PUSH2 0xE7E PUSH0 CODECOPY PUSH0 RETURN INVALID PUSH1 0x80 PUSH1 0x40 MSTORE CALLVALUE DUP1 ISZERO PUSH2 0xF JUMPI PUSH0 DUP1 REVERT JUMPDEST POP PUSH1 0x4 CALLDATASIZE LT PUSH2 0xFE JUMPI PUSH0 CALLDATALOAD PUSH1 0xE0 SHR DUP1 PUSH4 0x42966C68 GT PUSH2 0x95 JUMPI DUP1 PUSH4 0x95D89B41 GT PUSH2 0x64 JUMPI DUP1 PUSH4 0x95D89B41 EQ PUSH2 0x286 JUMPI DUP1 PUSH4 0xA9059CBB EQ PUSH2 0x2A4 JUMPI DUP1 PUSH4 0xDD62ED3E EQ PUSH2 0x2D4 JUMPI DUP1 PUSH4 0xF2FDE38B EQ PUSH2 0x304 JUMPI PUSH2 0xFE JUMP JUMPDEST DUP1 PUSH4 0x42966C68 EQ PUSH2 0x212 JUMPI DUP1 PUSH4 0x70A08231 EQ PUSH2 0x22E JUMPI DUP1 PUSH4 0x715018A6 EQ PUSH2 0x25E JUMPI DUP1 PUSH4 0x8DA5CB5B EQ PUSH2 0x268 JUMPI PUSH2 0xFE JUMP JUMPDEST DUP1 PUSH4 0x18160DDD GT PUSH2 0xD1 JUMPI DUP1 PUSH4 0x18160DDD EQ PUSH2 0x18A JUMPI DUP1 PUSH4 0x23B872DD EQ PUSH2 0x1A8 JUMPI DUP1 PUSH4 0x313CE567 EQ PUSH2 0x1D8 JUMPI DUP1 PUSH4 0x40C10F19 EQ PUSH2 0x1F6 JUMPI PUSH2 0xFE JUMP JUMPDEST DUP1 PUSH4 0x4787CA2 EQ PUSH2 0x102 JUMPI DUP1 PUSH4 0x6FDDE03 EQ PUSH2 0x11E JUMPI DUP1 PUSH4 0x95EA7B3 EQ PUSH2 0x13C JUMPI DUP1 PUSH4 0x135D088D EQ PUSH2 0x16C JUMPI JUMPDEST PUSH0 DUP1 REVERT JUMPDEST PUSH2 0x11C PUSH1 0x4 DUP1 CALLDATASIZE SUB DUP2 ADD SWAP1 PUSH2 0x117 SWAP2 SWAP1 PUSH2 0x1160 JUMP JUMPDEST PUSH2 0x320 JUMP JUMPDEST STOP JUMPDEST PUSH2 0x126 PUSH2 0x37E JUMP JUMPDEST PUSH1 0x40 MLOAD PUSH2 0x133 SWAP2 SWAP1 PUSH2 0x1207 JUMP JUMPDEST PUSH1 0x40 MLOAD DUP1 SWAP2 SUB SWAP1 RETURN JUMPDEST PUSH2 0x156 PUSH1 0x4 DUP1 CALLDATASIZE SUB DUP2 ADD SWAP1 PUSH2 0x151 SWAP2 SWAP1 PUSH2 0x12B4 JUMP JUMPDEST PUSH2 0x40E JUMP JUMPDEST PUSH1 0x40 MLOAD PUSH2 0x163 SWAP2 SWAP1 PUSH2 0x130C JUMP JUMPDEST PUSH1 0x40 MLOAD DUP1 SWAP2 SUB SWAP1 RETURN JUMPDEST PUSH2 0x174 PUSH2 0x430 JUMP JUMPDEST PUSH1 0x40 MLOAD PUSH2 0x181 SWAP2 SWAP1 PUSH2 0x1207 JUMP JUMPDEST PUSH1 0x40 MLOAD DUP1 SWAP2 SUB SWAP1 RETURN JUMPDEST PUSH2 0x192 PUSH2 0x4BC JUMP JUMPDEST PUSH1 0x40 MLOAD PUSH2 0x19F SWAP2 SWAP1 PUSH2 0x1334 JUMP JUMPDEST PUSH1 0x40 MLOAD DUP1 SWAP2 SUB SWAP1 RETURN JUMPDEST PUSH2 0x1C2 PUSH1 0x4 DUP1 CALLDATASIZE SUB DUP2 ADD SWAP1 PUSH2 0x1BD SWAP2 SWAP1 PUSH2 0x134D JUMP JUMPDEST PUSH2 0x4C5 JUMP JUMPDEST PUSH1 0x40 MLOAD PUSH2 0x1CF SWAP2 SWAP1 PUSH2 0x130C JUMP JUMPDEST PUSH1 0x40 MLOAD DUP1 SWAP2 SUB SWAP1 RETURN JUMPDEST PUSH2 0x1E0 PUSH2 0x4F3 JUMP JUMPDEST PUSH1 0x40 MLOAD PUSH2 0x1ED SWAP2 SWAP1 PUSH2 0x13B8 JUMP JUMPDEST PUSH1 0x40 MLOAD DUP1 SWAP2 SUB SWAP1 RETURN JUMPDEST PUSH2 0x210 PUSH1 0x4 DUP1 CALLDATASIZE SUB DUP2 ADD SWAP1 PUSH2 0x20B SWAP2 SWAP1 PUSH2 0x12B4 JUMP JUMPDEST PUSH2 0x4FB JUMP JUMPDEST STOP JUMPDEST PUSH2 0x22C PUSH1 0x4 DUP1 CALLDATASIZE SUB DUP2 ADD SWAP1 PUSH2 0x227 SWAP2 SWAP1 PUSH2 0x13D1 JUMP JUMPDEST PUSH2 0x5C1 JUMP JUMPDEST STOP JUMPDEST PUSH2 0x248 PUSH1 0x4 DUP1 CALLDATASIZE SUB DUP2 ADD SWAP1 PUSH2 0x243 SWAP2 SWAP1 PUSH2 0x13FC JUMP JUMPDEST PUSH2 0x610 JUMP JUMPDEST PUSH1 0x40 MLOAD PUSH2 0x255 SWAP2 SWAP1 PUSH2 0x1334 JUMP JUMPDEST PUSH1 0x40 MLOAD DUP1 SWAP2 SUB SWAP1 RETURN JUMPDEST PUSH2 0x266 PUSH2 0x655 JUMP JUMPDEST STOP JUMPDEST PUSH2 0x270 PUSH2 0x668 JUMP JUMPDEST PUSH1 0x40 MLOAD PUSH2 0x27D SWAP2 SWAP1 PUSH2 0x1436 JUMP JUMPDEST PUSH1 0x40 MLOAD DUP1 SWAP2 SUB SWAP1 RETURN JUMPDEST PUSH2 0x28E PUSH2 0x690 JUMP JUMPDEST PUSH1 0x40 MLOAD PUSH2 0x29B SWAP2 SWAP1 PUSH2 0x1207 JUMP JUMPDEST PUSH1 0x40 MLOAD DUP1 SWAP2 SUB SWAP1 RETURN JUMPDEST PUSH2 0x2BE PUSH1 0x4 DUP1 CALLDATASIZE SUB DUP2 ADD SWAP1 PUSH2 0x2B9 SWAP2 SWAP1 PUSH2 0x12B4 JUMP JUMPDEST PUSH2 0x720 JUMP JUMPDEST PUSH1 0x40 MLOAD PUSH2 0x2CB SWAP2 SWAP1 PUSH2 0x130C JUMP JUMPDEST PUSH1 0x40 MLOAD DUP1 SWAP2 SUB SWAP1 RETURN JUMPDEST PUSH2 0x2EE PUSH1 0x4 DUP1 CALLDATASIZE SUB DUP2 ADD SWAP1 PUSH2 0x2E9 SWAP2 SWAP1 PUSH2 0x144F JUMP JUMPDEST PUSH2 0x742 JUMP JUMPDEST PUSH1 0x40 MLOAD PUSH2 0x2FB SWAP2 SWAP1 PUSH2 0x1334 JUMP JUMPDEST PUSH1 0x40 MLOAD DUP1 SWAP2 SUB SWAP1 RETURN JUMPDEST PUSH2 0x31E PUSH1 0x4 DUP1 CALLDATASIZE SUB DUP2 ADD SWAP1 PUSH2 0x319 SWAP2 SWAP1 PUSH2 0x13FC JUMP JUMPDEST PUSH2 0x7C4 JUMP JUMPDEST STOP JUMPDEST PUSH2 0x328 PUSH2 0x848 JUMP JUMPDEST PUSH0 DUP2 MLOAD SUB PUSH2 0x36B JUMPI PUSH1 0x40 MLOAD PUSH32 0x8C379A000000000000000000000000000000000000000000000000000000000 DUP2 MSTORE PUSH1 0x4 ADD PUSH2 0x362 SWAP1 PUSH2 0x14D7 JUMP JUMPDEST PUSH1 0x40 MLOAD DUP1 SWAP2 SUB SWAP1 REVERT JUMPDEST DUP1 PUSH1 0x6 SWAP1 DUP2 PUSH2 0x37A SWAP2 SWAP1 PUSH2 0x16EF JUMP JUMPDEST POP POP JUMP JUMPDEST PUSH1 0x60 PUSH1 0x3 DUP1 SLOAD PUSH2 0x38D SWAP1 PUSH2 0x1522 JUMP JUMPDEST DUP1 PUSH1 0x1F ADD PUSH1 0x20 DUP1 SWAP2 DIV MUL PUSH1 0x20 ADD PUSH1 0x40 MLOAD SWAP1 DUP2 ADD PUSH1 0x40 MSTORE DUP1 SWAP3 SWAP2 SWAP1 DUP2 DUP2 MSTORE PUSH1 0x20 ADD DUP3 DUP1 SLOAD PUSH2 0x3B9 SWAP1 PUSH2 0x1522 JUMP JUMPDEST DUP1 ISZERO PUSH2 0x404 JUMPI DUP1 PUSH1 0x1F LT PUSH2 0x3DB JUMPI PUSH2 0x100 DUP1 DUP4 SLOAD DIV MUL DUP4 MSTORE SWAP2 PUSH1 0x20 ADD SWAP2 PUSH2 0x404 JUMP JUMPDEST DUP3 ADD SWAP2 SWAP1 PUSH0 MSTORE PUSH1 0x20 PUSH0 KECCAK256 SWAP1 JUMPDEST DUP2 SLOAD DUP2 MSTORE SWAP1 PUSH1 0x1 ADD SWAP1 PUSH1 0x20 ADD DUP1 DUP4 GT PUSH2 0x3E7 JUMPI DUP3 SWAP1 SUB PUSH1 0x1F AND DUP3 ADD SWAP2 JUMPDEST POP POP POP POP POP SWAP1 POP SWAP1 JUMP JUMPDEST PUSH0 DUP1 PUSH2 0x418 PUSH2 0x8CF JUMP JUMPDEST SWAP1 POP PUSH2 0x425 DUP2 DUP6 DUP6 PUSH2 0x8D6 JUMP JUMPDEST PUSH1 0x1 SWAP2 POP POP SWAP3 SWAP2 POP POP JUMP JUMPDEST PUSH1 0x6 DUP1 SLOAD PUSH2 0x43D SWAP1 PUSH2 0x1522 JUMP JUMPDEST DUP1 PUSH1 0x1F ADD PUSH1 0x20 DUP1 SWAP2 DIV MUL PUSH1 0x20 ADD PUSH1 0x40 MLOAD SWAP1 DUP2 ADD PUSH1 0x40 MSTORE DUP1 SWAP3 SWAP2 SWAP1 DUP2 DUP2 MSTORE PUSH1 0x20 ADD DUP3 DUP1 SLOAD PUSH2 0x469 SWAP1 PUSH2 0x1522 JUMP JUMPDEST DUP1 ISZERO PUSH2 0x4B4 JUMPI DUP1 PUSH1 0x1F LT PUSH2 0x48B JUMPI PUSH2 0x100 DUP1 DUP4 SLOAD DIV MUL DUP4 MSTORE SWAP2 PUSH1 0x20 ADD SWAP2 PUSH2 0x4B4 JUMP JUMPDEST DUP3 ADD SWAP2 SWAP1 PUSH0 MSTORE PUSH1 0x20 PUSH0 KECCAK256 SWAP1 JUMPDEST DUP2 SLOAD DUP2 MSTORE SWAP1 PUSH1 0x1 ADD SWAP1 PUSH1 0x20 ADD DUP1 DUP4 GT PUSH2 0x497 JUMPI DUP3 SWAP1 SUB PUSH1 0x1F AND DUP3 ADD SWAP2 JUMPDEST POP POP POP POP POP DUP2 JUMP JUMPDEST PUSH0 PUSH1 0x2 SLOAD SWAP1 POP SWAP1 JUMP JUMPDEST PUSH0 DUP1 PUSH2 0x4CF PUSH2 0x8CF JUMP JUMPDEST SWAP1 POP PUSH2 0x4DC DUP6 DUP3 DUP6 PUSH2 0x8E8 JUMP JUMPDEST PUSH2 0x4E7 DUP6 DUP6 DUP6 PUSH2 0x97A JUMP JUMPDEST PUSH1 0x1 SWAP2 POP POP SWAP4 SWAP3 POP POP POP JUMP JUMPDEST PUSH0 PUSH1 0x12 SWAP1 POP SWAP1 JUMP JUMPDEST PUSH2 0x503 PUSH2 0x848 JUMP JUMPDEST PUSH0 PUSH20 0xFFFFFFFFFFFFFFFFFFFFFFFFFFFFFFFFFFFFFFFF AND DUP3 PUSH20 0xFFFFFFFFFFFFFFFFFFFFFFFFFFFFFFFFFFFFFFFF AND SUB PUSH2 0x571 JUMPI PUSH1 0x40 MLOAD PUSH32 0x8C379A000000000000000000000000000000000000000000000000000000000 DUP2 MSTORE PUSH1 0x4 ADD PUSH2 0x568 SWAP1 PUSH2 0x1808 JUMP JUMPDEST PUSH1 0x40 MLOAD DUP1 SWAP2 SUB SWAP1 REVERT JUMPDEST PUSH0 DUP2 SUB PUSH2 0x5B3 JUMPI PUSH1 0x40 MLOAD PUSH32 0x8C379A000000000000000000000000000000000000000000000000000000000 DUP2 MSTORE PUSH1 0x4 ADD PUSH2 0x5AA SWAP1 PUSH2 0x1870 JUMP JUMPDEST PUSH1 0x40 MLOAD DUP1 SWAP2 SUB SWAP1 REVERT JUMPDEST PUSH2 0x5BD DUP3 DUP3 PUSH2 0xA6A JUMP JUMPDEST POP POP JUMP JUMPDEST PUSH0 DUP2 SUB PUSH2 0x603 JUMPI PUSH1 0x40 MLOAD PUSH32 0x8C379A000000000000000000000000000000000000000000000000000000000 DUP2 MSTORE PUSH1 0x4 ADD PUSH2 0x5FA SWAP1 PUSH2 0x1870 JUMP JUMPDEST PUSH1 0x40 MLOAD DUP1 SWAP2 SUB SWAP1 REVERT JUMPDEST PUSH2 0x60D CALLER DUP3 PUSH2 0xAE9 JUMP JUMPDEST POP JUMP JUMPDEST PUSH0 DUP1 PUSH0 DUP4 PUSH20 0xFFFFFFFFFFFFFFFFFFFFFFFFFFFFFFFFFFFFFFFF AND PUSH20 0xFFFFFFFFFFFFFFFFFFFFFFFFFFFFFFFFFFFFFFFF AND DUP2 MSTORE PUSH1 0x20 ADD SWAP1 DUP2 MSTORE PUSH1 0x20 ADD PUSH0 KECCAK256 SLOAD SWAP1 POP SWAP2 SWAP1 POP JUMP JUMPDEST PUSH2 0x65D PUSH2 0x848 JUMP JUMPDEST PUSH2 0x666 PUSH0 PUSH2 0xB68 JUMP JUMPDEST JUMP JUMPDEST PUSH0 PUSH1 0x5 PUSH0 SWAP1 SLOAD SWAP1 PUSH2 0x100 EXP SWAP1 DIV PUSH20 0xFFFFFFFFFFFFFFFFFFFFFFFFFFFFFFFFFFFFFFFF AND SWAP1 POP SWAP1 JUMP JUMPDEST PUSH1 0x60 PUSH1 0x4 DUP1 SLOAD PUSH2 0x69F SWAP1 PUSH2 0x1522 JUMP JUMPDEST DUP1 PUSH1 0x1F ADD PUSH1 0x20 DUP1 SWAP2 DIV MUL PUSH1 0x20 ADD PUSH1 0x40 MLOAD SWAP1 DUP2 ADD PUSH1 0x40 MSTORE DUP1 SWAP3 SWAP2 SWAP1 DUP2 DUP2 MSTORE PUSH1 0x20 ADD DUP3 DUP1 SLOAD PUSH2 0x6CB SWAP1 PUSH2 0x1522 JUMP JUMPDEST DUP1 ISZERO PUSH2 0x716 JUMPI DUP1 PUSH1 0x1F LT PUSH2 0x6ED JUMPI PUSH2 0x100 DUP1 DUP4 SLOAD DIV MUL DUP4 MSTORE SWAP2 PUSH1 0x20 ADD SWAP2 PUSH2 0x716 JUMP JUMPDEST DUP3 ADD SWAP2 SWAP1 PUSH0 MSTORE PUSH1 0x20 PUSH0 KECCAK256 SWAP1 JUMPDEST DUP2 SLOAD DUP2 MSTORE SWAP1 PUSH1 0x1 ADD SWAP1 PUSH1 0x20 ADD DUP1 DUP4 GT PUSH2 0x6F9 JUMPI DUP3 SWAP1 SUB PUSH1 0x1F AND DUP3 ADD SWAP2 JUMPDEST POP POP POP POP POP SWAP1 POP SWAP1 JUMP JUMPDEST PUSH0 DUP1 PUSH2 0x72A PUSH2 0x8CF JUMP JUMPDEST SWAP1 POP PUSH2 0x737 DUP2 DUP6 DUP6 PUSH2 0x97A JUMP JUMPDEST PUSH1 0x1 SWAP2 POP POP SWAP3 SWAP2 POP POP JUMP JUMPDEST PUSH0 PUSH1 0x1 PUSH0 DUP5 PUSH20 0xFFFFFFFFFFFFFFFFFFFFFFFFFFFFFFFFFFFFFFFF AND PUSH20 0xFFFFFFFFFFFFFFFFFFFFFFFFFFFFFFFFFFFFFFFF AND DUP2 MSTORE PUSH1 0x20 ADD SWAP1 DUP2 MSTORE PUSH1 0x20 ADD PUSH0 KECCAK256 PUSH0 DUP4 PUSH20 0xFFFFFFFFFFFFFFFFFFFFFFFFFFFFFFFFFFFFFFFF AND PUSH20 0xFFFFFFFFFFFFFFFFFFFFFFFFFFFFFFFFFFFFFFFF AND DUP2 MSTORE PUSH1 0x20 ADD SWAP1 DUP2 MSTORE PUSH1 0x20 ADD PUSH0 KECCAK256 SLOAD SWAP1 POP SWAP3 SWAP2 POP POP JUMP JUMPDEST PUSH2 0x7CC PUSH2 0x848 JUMP JUMPDEST PUSH0 PUSH20 0xFFFFFFFFFFFFFFFFFFFFFFFFFFFFFFFFFFFFFFFF AND DUP2 PUSH20 0xFFFFFFFFFFFFFFFFFFFFFFFFFFFFFFFFFFFFFFFF AND SUB PUSH2 0x83C JUMPI PUSH0 PUSH1 0x40 MLOAD PUSH32 0x1E4FBDF700000000000000000000000000000000000000000000000000000000 DUP2 MSTORE PUSH1 0x4 ADD PUSH2 0x833 SWAP2 SWAP1 PUSH2 0x1436 JUMP JUMPDEST PUSH1 0x40 MLOAD DUP1 SWAP2 SUB SWAP1 REVERT JUMPDEST PUSH2 0x845 DUP2 PUSH2 0xB68 JUMP JUMPDEST POP JUMP JUMPDEST PUSH2 0x850 PUSH2 0x8CF JUMP JUMPDEST PUSH20 0xFFFFFFFFFFFFFFFFFFFFFFFFFFFFFFFFFFFFFFFF AND PUSH2 0x86E PUSH2 0x668 JUMP JUMPDEST PUSH20 0xFFFFFFFFFFFFFFFFFFFFFFFFFFFFFFFFFFFFFFFF AND EQ PUSH2 0x8CD JUMPI PUSH2 0x891 PUSH2 0x8CF JUMP JUMPDEST PUSH1 0x40 MLOAD PUSH32 0x118CDAA700000000000000000000000000000000000000000000000000000000 DUP2 MSTORE PUSH1 0x4 ADD PUSH2 0x8C4 SWAP2 SWAP1 PUSH2 0x1436 JUMP JUMPDEST PUSH1 0x40 MLOAD DUP1 SWAP2 SUB SWAP1 REVERT JUMPDEST JUMP JUMPDEST PUSH0 CALLER SWAP1 POP SWAP1 JUMP JUMPDEST PUSH2 0x8E3 DUP4 DUP4 DUP4 PUSH1 0x1 PUSH2 0xC2B JUMP JUMPDEST POP POP POP JUMP JUMPDEST PUSH0 PUSH2 0x8F3 DUP5 DUP5 PUSH2 0x742 JUMP JUMPDEST SWAP1 POP PUSH32 0xFFFFFFFFFFFFFFFFFFFFFFFFFFFFFFFFFFFFFFFFFFFFFFFFFFFFFFFFFFFFFFFF DUP2 EQ PUSH2 0x974 JUMPI DUP2 DUP2 LT ISZERO PUSH2 0x965 JUMPI DUP3 DUP2 DUP4 PUSH1 0x40 MLOAD PUSH32 0xFB8F41B200000000000000000000000000000000000000000000000000000000 DUP2 MSTORE PUSH1 0x4 ADD PUSH2 0x95C SWAP4 SWAP3 SWAP2 SWAP1 PUSH2 0x188E JUMP JUMPDEST PUSH1 0x40 MLOAD DUP1 SWAP2 SUB SWAP1 REVERT JUMPDEST PUSH2 0x973 DUP5 DUP5 DUP5 DUP5 SUB PUSH0 PUSH2 0xC2B JUMP JUMPDEST JUMPDEST POP POP POP POP JUMP JUMPDEST PUSH0 PUSH20 0xFFFFFFFFFFFFFFFFFFFFFFFFFFFFFFFFFFFFFFFF AND DUP4 PUSH20 0xFFFFFFFFFFFFFFFFFFFFFFFFFFFFFFFFFFFFFFFF AND SUB PUSH2 0x9EA JUMPI PUSH0 PUSH1 0x40 MLOAD PUSH32 0x96C6FD1E00000000000000000000000000000000000000000000000000000000 DUP2 MSTORE PUSH1 0x4 ADD PUSH2 0x9E1 SWAP2 SWAP1 PUSH2 0x1436 JUMP JUMPDEST PUSH1 0x40 MLOAD DUP1 SWAP2 SUB SWAP1 REVERT JUMPDEST PUSH0 PUSH20 0xFFFFFFFFFFFFFFFFFFFFFFFFFFFFFFFFFFFFFFFF AND DUP3 PUSH20 0xFFFFFFFFFFFFFFFFFFFFFFFFFFFFFFFFFFFFFFFF AND SUB PUSH2 0xA5A JUMPI PUSH0 PUSH1 0x40 MLOAD PUSH32 0xEC442F0500000000000000000000000000000000000000000000000000000000 DUP2 MSTORE PUSH1 0x4 ADD PUSH2 0xA51 SWAP2 SWAP1 PUSH2 0x1436 JUMP JUMPDEST PUSH1 0x40 MLOAD DUP1 SWAP2 SUB SWAP1 REVERT JUMPDEST PUSH2 0xA65 DUP4 DUP4 DUP4 PUSH2 0xDFA JUMP JUMPDEST POP POP POP JUMP JUMPDEST PUSH0 PUSH20 0xFFFFFFFFFFFFFFFFFFFFFFFFFFFFFFFFFFFFFFFF AND DUP3 PUSH20 0xFFFFFFFFFFFFFFFFFFFFFFFFFFFFFFFFFFFFFFFF AND SUB PUSH2 0xADA JUMPI PUSH0 PUSH1 0x40 MLOAD PUSH32 0xEC442F0500000000000000000000000000000000000000000000000000000000 DUP2 MSTORE PUSH1 0x4 ADD PUSH2 0xAD1 SWAP2 SWAP1 PUSH2 0x1436 JUMP JUMPDEST PUSH1 0x40 MLOAD DUP1 SWAP2 SUB SWAP1 REVERT JUMPDEST PUSH2 0xAE5 PUSH0 DUP4 DUP4 PUSH2 0xDFA JUMP JUMPDEST POP POP JUMP JUMPDEST PUSH0 PUSH20 0xFFFFFFFFFFFFFFFFFFFFFFFFFFFFFFFFFFFFFFFF AND DUP3 PUSH20 0xFFFFFFFFFFFFFFFFFFFFFFFFFFFFFFFFFFFFFFFF AND SUB PUSH2 0xB59 JUMPI PUSH0 PUSH1 0x40 MLOAD PUSH32 0x96C6FD1E00000000000000000000000000000000000000000000000000000000 DUP2 MSTORE PUSH1 0x4 ADD PUSH2 0xB50 SWAP2 SWAP1 PUSH2 0x1436 JUMP JUMPDEST PUSH1 0x40 MLOAD DUP1 SWAP2 SUB SWAP1 REVERT JUMPDEST PUSH2 0xB64 DUP3 PUSH0 DUP4 PUSH2 0xDFA JUMP JUMPDEST POP POP JUMP JUMPDEST PUSH0 PUSH1 0x5 PUSH0 SWAP1 SLOAD SWAP1 PUSH2 0x100 EXP SWAP1 DIV PUSH20 0xFFFFFFFFFFFFFFFFFFFFFFFFFFFFFFFFFFFFFFFF AND SWAP1 POP DUP2 PUSH1 0x5 PUSH0 PUSH2 0x100 EXP DUP2 SLOAD DUP2 PUSH20 0xFFFFFFFFFFFFFFFFFFFFFFFFFFFFFFFFFFFFFFFF MUL NOT AND SWAP1 DUP4 PUSH20 0xFFFFFFFFFFFFFFFFFFFFFFFFFFFFFFFFFFFFFFFF AND MUL OR SWAP1 SSTORE POP DUP2 PUSH20 0xFFFFFFFFFFFFFFFFFFFFFFFFFFFFFFFFFFFFFFFF AND DUP2 PUSH20 0xFFFFFFFFFFFFFFFFFFFFFFFFFFFFFFFFFFFFFFFF AND PUSH32 0x8BE0079C531659141344CD1FD0A4F28419497F9722A3DAAFE3B4186F6B6457E0 PUSH1 0x40 MLOAD PUSH1 0x40 MLOAD DUP1 SWAP2 SUB SWAP1 LOG3 POP POP JUMP JUMPDEST PUSH0 PUSH20 0xFFFFFFFFFFFFFFFFFFFFFFFFFFFFFFFFFFFFFFFF AND DUP5 PUSH20 0xFFFFFFFFFFFFFFFFFFFFFFFFFFFFFFFFFFFFFFFF AND SUB PUSH2 0xC9B JUMPI PUSH0 PUSH1 0x40 MLOAD PUSH32 0xE602DF0500000000000000000000000000000000000000000000000000000000 DUP2 MSTORE PUSH1 0x4 ADD PUSH2 0xC92 SWAP2 SWAP1 PUSH2 0x1436 JUMP JUMPDEST PUSH1 0x40 MLOAD DUP1 SWAP2 SUB SWAP1 REVERT JUMPDEST PUSH0 PUSH20 0xFFFFFFFFFFFFFFFFFFFFFFFFFFFFFFFFFFFFFFFF AND DUP4 PUSH20 0xFFFFFFFFFFFFFFFFFFFFFFFFFFFFFFFFFFFFFFFF AND SUB PUSH2 0xD0B JUMPI PUSH0 PUSH1 0x40 MLOAD PUSH32 0x94280D6200000000000000000000000000000000000000000000000000000000 DUP2 MSTORE PUSH1 0x4 ADD PUSH2 0xD02 SWAP2 SWAP1 PUSH2 0x1436 JUMP JUMPDEST PUSH1 0x40 MLOAD DUP1 SWAP2 SUB SWAP1 REVERT JUMPDEST DUP2 PUSH1 0x1 PUSH0 DUP7 PUSH20 0xFFFFFFFFFFFFFFFFFFFFFFFFFFFFFFFFFFFFFFFF AND PUSH20 0xFFFFFFFFFFFFFFFFFFFFFFFFFFFFFFFFFFFFFFFF AND DUP2 MSTORE PUSH1 0x20 ADD SWAP1 DUP2 MSTORE PUSH1 0x20 ADD PUSH0 KECCAK256 PUSH0 DUP6 PUSH20 0xFFFFFFFFFFFFFFFFFFFFFFFFFFFFFFFFFFFFFFFF AND PUSH20 0xFFFFFFFFFFFFFFFFFFFFFFFFFFFFFFFFFFFFFFFF AND DUP2 MSTORE PUSH1 0x20 ADD SWAP1 DUP2 MSTORE PUSH1 0x20 ADD PUSH0 KECCAK256 DUP2 SWAP1 SSTORE POP DUP1 ISZERO PUSH2 0xDF4 JUMPI DUP3 PUSH20 0xFFFFFFFFFFFFFFFFFFFFFFFFFFFFFFFFFFFFFFFF AND DUP5 PUSH20 0xFFFFFFFFFFFFFFFFFFFFFFFFFFFFFFFFFFFFFFFF AND PUSH32 0x8C5BE1E5EBEC7D5BD14F71427D1E84F3DD0314C0F7B2291E5B200AC8C7C3B925 DUP5 PUSH1 0x40 MLOAD PUSH2 0xDEB SWAP2 SWAP1 PUSH2 0x1334 JUMP JUMPDEST PUSH1 0x40 MLOAD DUP1 SWAP2 SUB SWAP1 LOG3 JUMPDEST POP POP POP POP JUMP JUMPDEST PUSH0 PUSH20 0xFFFFFFFFFFFFFFFFFFFFFFFFFFFFFFFFFFFFFFFF AND DUP4 PUSH20 0xFFFFFFFFFFFFFFFFFFFFFFFFFFFFFFFFFFFFFFFF AND SUB PUSH2 0xE4A JUMPI DUP1 PUSH1 0x2 PUSH0 DUP3 DUP3 SLOAD PUSH2 0xE3E SWAP2 SWAP1 PUSH2 0x18F0 JUMP JUMPDEST SWAP3 POP POP DUP2 SWAP1 SSTORE POP PUSH2 0xF18 JUMP JUMPDEST PUSH0 DUP1 PUSH0 DUP6 PUSH20 0xFFFFFFFFFFFFFFFFFFFFFFFFFFFFFFFFFFFFFFFF AND PUSH20 0xFFFFFFFFFFFFFFFFFFFFFFFFFFFFFFFFFFFFFFFF AND DUP2 MSTORE PUSH1 0x20 ADD SWAP1 DUP2 MSTORE PUSH1 0x20 ADD PUSH0 KECCAK256 SLOAD SWAP1 POP DUP2 DUP2 LT ISZERO PUSH2 0xED3 JUMPI DUP4 DUP2 DUP4 PUSH1 0x40 MLOAD PUSH32 0xE450D38C00000000000000000000000000000000000000000000000000000000 DUP2 MSTORE PUSH1 0x4 ADD PUSH2 0xECA SWAP4 SWAP3 SWAP2 SWAP1 PUSH2 0x188E JUMP JUMPDEST PUSH1 0x40 MLOAD DUP1 SWAP2 SUB SWAP1 REVERT JUMPDEST DUP2 DUP2 SUB PUSH0 DUP1 DUP7 PUSH20 0xFFFFFFFFFFFFFFFFFFFFFFFFFFFFFFFFFFFFFFFF AND PUSH20 0xFFFFFFFFFFFFFFFFFFFFFFFFFFFFFFFFFFFFFFFF AND DUP2 MSTORE PUSH1 0x20 ADD SWAP1 DUP2 MSTORE PUSH1 0x20 ADD PUSH0 KECCAK256 DUP2 SWAP1 SSTORE POP POP JUMPDEST PUSH0 PUSH20 0xFFFFFFFFFFFFFFFFFFFFFFFFFFFFFFFFFFFFFFFF AND DUP3 PUSH20 0xFFFFFFFFFFFFFFFFFFFFFFFFFFFFFFFFFFFFFFFF AND SUB PUSH2 0xF5F JUMPI DUP1 PUSH1 0x2 PUSH0 DUP3 DUP3 SLOAD SUB SWAP3 POP POP DUP2 SWAP1 SSTORE POP PUSH2 0xFA9 JUMP JUMPDEST DUP1 PUSH0 DUP1 DUP5 PUSH20 0xFFFFFFFFFFFFFFFFFFFFFFFFFFFFFFFFFFFFFFFF AND PUSH20 0xFFFFFFFFFFFFFFFFFFFFFFFFFFFFFFFFFFFFFFFF AND DUP2 MSTORE PUSH1 0x20 ADD SWAP1 DUP2 MSTORE PUSH1 0x20 ADD PUSH0 KECCAK256 PUSH0 DUP3 DUP3 SLOAD ADD SWAP3 POP POP DUP2 SWAP1 SSTORE POP JUMPDEST DUP2 PUSH20 0xFFFFFFFFFFFFFFFFFFFFFFFFFFFFFFFFFFFFFFFF AND DUP4 PUSH20 0xFFFFFFFFFFFFFFFFFFFFFFFFFFFFFFFFFFFFFFFF AND PUSH32 0xDDF252AD1BE2C89B69C2B068FC378DAA952BA7F163C4A11628F55A4DF523B3EF DUP4 PUSH1 0x40 MLOAD PUSH2 0x1006 SWAP2 SWAP1 PUSH2 0x1334 JUMP JUMPDEST PUSH1 0x40 MLOAD DUP1 SWAP2 SUB SWAP1 LOG3 POP POP POP JUMP JUMPDEST PUSH0 PUSH1 0x40 MLOAD SWAP1 POP SWAP1 JUMP JUMPDEST PUSH0 DUP1 REVERT JUMPDEST PUSH0 DUP1 REVERT JUMPDEST PUSH0 DUP1 REVERT JUMPDEST PUSH0 DUP1 REVERT JUMPDEST PUSH0 PUSH1 0x1F NOT PUSH1 0x1F DUP4 ADD AND SWAP1 POP SWAP2 SWAP1 POP JUMP JUMPDEST PUSH32 0x4E487B7100000000000000000000000000000000000000000000000000000000 PUSH0 MSTORE PUSH1 0x41 PUSH1 0x4 MSTORE PUSH1 0x24 PUSH0 REVERT JUMPDEST PUSH2 0x1072 DUP3 PUSH2 0x102C JUMP JUMPDEST DUP2 ADD DUP2 DUP2 LT PUSH8 0xFFFFFFFFFFFFFFFF DUP3 GT OR ISZERO PUSH2 0x1091 JUMPI PUSH2 0x1090 PUSH2 0x103C JUMP JUMPDEST JUMPDEST DUP1 PUSH1 0x40 MSTORE POP POP POP JUMP JUMPDEST PUSH0 PUSH2 0x10A3 PUSH2 0x1013 JUMP JUMPDEST SWAP1 POP PUSH2 0x10AF DUP3 DUP3 PUSH2 0x1069 JUMP JUMPDEST SWAP2 SWAP1 POP JUMP JUMPDEST PUSH0 PUSH8 0xFFFFFFFFFFFFFFFF DUP3 GT ISZERO PUSH2 0x10CE JUMPI PUSH2 0x10CD PUSH2 0x103C JUMP JUMPDEST JUMPDEST PUSH2 0x10D7 DUP3 PUSH2 0x102C JUMP JUMPDEST SWAP1 POP PUSH1 0x20 DUP2 ADD SWAP1 POP SWAP2 SWAP1 POP JUMP JUMPDEST DUP3 DUP2 DUP4 CALLDATACOPY PUSH0 DUP4 DUP4 ADD MSTORE POP POP POP JUMP JUMPDEST PUSH0 PUSH2 0x1104 PUSH2 0x10FF DUP5 PUSH2 0x10B4 JUMP JUMPDEST PUSH2 0x109A JUMP JUMPDEST SWAP1 POP DUP3 DUP2 MSTORE PUSH1 0x20 DUP2 ADD DUP5 DUP5 DUP5 ADD GT ISZERO PUSH2 0x1120 JUMPI PUSH2 0x111F PUSH2 0x1028 JUMP JUMPDEST JUMPDEST PUSH2 0x112B DUP5 DUP3 DUP6 PUSH2 0x10E4 JUMP JUMPDEST POP SWAP4 SWAP3 POP POP POP JUMP JUMPDEST PUSH0 DUP3 PUSH1 0x1F DUP4 ADD SLT PUSH2 0x1147 JUMPI PUSH2 0x1146 PUSH2 0x1024 JUMP JUMPDEST JUMPDEST DUP2 CALLDATALOAD PUSH2 0x1157 DUP5 DUP3 PUSH1 0x20 DUP7 ADD PUSH2 0x10F2 JUMP JUMPDEST SWAP2 POP POP SWAP3 SWAP2 POP POP JUMP JUMPDEST PUSH0 PUSH1 0x20 DUP3 DUP5 SUB SLT ISZERO PUSH2 0x1175 JUMPI PUSH2 0x1174 PUSH2 0x101C JUMP JUMPDEST JUMPDEST PUSH0 DUP3 ADD CALLDATALOAD PUSH8 0xFFFFFFFFFFFFFFFF DUP2 GT ISZERO PUSH2 0x1192 JUMPI PUSH2 0x1191 PUSH2 0x1020 JUMP JUMPDEST JUMPDEST PUSH2 0x119E DUP5 DUP3 DUP6 ADD PUSH2 0x1133 JUMP JUMPDEST SWAP2 POP POP SWAP3 SWAP2 POP POP JUMP JUMPDEST PUSH0 DUP2 MLOAD SWAP1 POP SWAP2 SWAP1 POP JUMP JUMPDEST PUSH0 DUP3 DUP3 MSTORE PUSH1 0x20 DUP3 ADD SWAP1 POP SWAP3 SWAP2 POP POP JUMP JUMPDEST DUP3 DUP2 DUP4 MCOPY PUSH0 DUP4 DUP4 ADD MSTORE POP POP POP JUMP JUMPDEST PUSH0 PUSH2 0x11D9 DUP3 PUSH2 0x11A7 JUMP JUMPDEST PUSH2 0x11E3 DUP2 DUP6 PUSH2 0x11B1 JUMP JUMPDEST SWAP4 POP PUSH2 0x11F3 DUP2 DUP6 PUSH1 0x20 DUP7 ADD PUSH2 0x11C1 JUMP JUMPDEST PUSH2 0x11FC DUP2 PUSH2 0x102C JUMP JUMPDEST DUP5 ADD SWAP2 POP POP SWAP3 SWAP2 POP POP JUMP JUMPDEST PUSH0 PUSH1 0x20 DUP3 ADD SWAP1 POP DUP2 DUP2 SUB PUSH0 DUP4 ADD MSTORE PUSH2 0x121F DUP2 DUP5 PUSH2 0x11CF JUMP JUMPDEST SWAP1 POP SWAP3 SWAP2 POP POP JUMP JUMPDEST PUSH0 PUSH20 0xFFFFFFFFFFFFFFFFFFFFFFFFFFFFFFFFFFFFFFFF DUP3 AND SWAP1 POP SWAP2 SWAP1 POP JUMP JUMPDEST PUSH0 PUSH2 0x1250 DUP3 PUSH2 0x1227 JUMP JUMPDEST SWAP1 POP SWAP2 SWAP1 POP JUMP JUMPDEST PUSH2 0x1260 DUP2 PUSH2 0x1246 JUMP JUMPDEST DUP2 EQ PUSH2 0x126A JUMPI PUSH0 DUP1 REVERT JUMPDEST POP JUMP JUMPDEST PUSH0 DUP2 CALLDATALOAD SWAP1 POP PUSH2 0x127B DUP2 PUSH2 0x1257 JUMP JUMPDEST SWAP3 SWAP2 POP POP JUMP JUMPDEST PUSH0 DUP2 SWAP1 POP SWAP2 SWAP1 POP JUMP JUMPDEST PUSH2 0x1293 DUP2 PUSH2 0x1281 JUMP JUMPDEST DUP2 EQ PUSH2 0x129D JUMPI PUSH0 DUP1 REVERT JUMPDEST POP JUMP JUMPDEST PUSH0 DUP2 CALLDATALOAD SWAP1 POP PUSH2 0x12AE DUP2 PUSH2 0x128A JUMP JUMPDEST SWAP3 SWAP2 POP POP JUMP JUMPDEST PUSH0 DUP1 PUSH1 0x40 DUP4 DUP6 SUB SLT ISZERO PUSH2 0x12CA JUMPI PUSH2 0x12C9 PUSH2 0x101C JUMP JUMPDEST JUMPDEST PUSH0 PUSH2 0x12D7 DUP6 DUP3 DUP7 ADD PUSH2 0x126D JUMP JUMPDEST SWAP3 POP POP PUSH1 0x20 PUSH2 0x12E8 DUP6 DUP3 DUP7 ADD PUSH2 0x12A0 JUMP JUMPDEST SWAP2 POP POP SWAP3 POP SWAP3 SWAP1 POP JUMP JUMPDEST PUSH0 DUP2 ISZERO ISZERO SWAP1 POP SWAP2 SWAP1 POP JUMP JUMPDEST PUSH2 0x1306 DUP2 PUSH2 0x12F2 JUMP JUMPDEST DUP3 MSTORE POP POP JUMP JUMPDEST PUSH0 PUSH1 0x20 DUP3 ADD SWAP1 POP PUSH2 0x131F PUSH0 DUP4 ADD DUP5 PUSH2 0x12FD JUMP JUMPDEST SWAP3 SWAP2 POP POP JUMP JUMPDEST PUSH2 0x132E DUP2 PUSH2 0x1281 JUMP JUMPDEST DUP3 MSTORE POP POP JUMP JUMPDEST PUSH0 PUSH1 0x20 DUP3 ADD SWAP1 POP PUSH2 0x1347 PUSH0 DUP4 ADD DUP5 PUSH2 0x1325 JUMP JUMPDEST SWAP3 SWAP2 POP POP JUMP JUMPDEST PUSH0 DUP1 PUSH0 PUSH1 0x60 DUP5 DUP7 SUB SLT ISZERO PUSH2 0x1364 JUMPI PUSH2 0x1363 PUSH2 0x101C JUMP JUMPDEST JUMPDEST PUSH0 PUSH2 0x1371 DUP7 DUP3 DUP8 ADD PUSH2 0x126D JUMP JUMPDEST SWAP4 POP POP PUSH1 0x20 PUSH2 0x1382 DUP7 DUP3 DUP8 ADD PUSH2 0x126D JUMP JUMPDEST SWAP3 POP POP PUSH1 0x40 PUSH2 0x1393 DUP7 DUP3 DUP8 ADD PUSH2 0x12A0 JUMP JUMPDEST SWAP2 POP POP SWAP3 POP SWAP3 POP SWAP3 JUMP JUMPDEST PUSH0 PUSH1 0xFF DUP3 AND SWAP1 POP SWAP2 SWAP1 POP JUMP JUMPDEST PUSH2 0x13B2 DUP2 PUSH2 0x139D JUMP JUMPDEST DUP3 MSTORE POP POP JUMP JUMPDEST PUSH0 PUSH1 0x20 DUP3 ADD SWAP1 POP PUSH2 0x13CB PUSH0 DUP4 ADD DUP5 PUSH2 0x13A9 JUMP JUMPDEST SWAP3 SWAP2 POP POP JUMP JUMPDEST PUSH0 PUSH1 0x20 DUP3 DUP5 SUB SLT ISZERO PUSH2 0x13E6 JUMPI PUSH2 0x13E5 PUSH2 0x101C JUMP JUMPDEST JUMPDEST PUSH0 PUSH2 0x13F3 DUP5 DUP3 DUP6 ADD PUSH2 0x12A0 JUMP JUMPDEST SWAP2 POP POP SWAP3 SWAP2 POP POP JUMP JUMPDEST PUSH0 PUSH1 0x20 DUP3 DUP5 SUB SLT ISZERO PUSH2 0x1411 JUMPI PUSH2 0x1410 PUSH2 0x101C JUMP JUMPDEST JUMPDEST PUSH0 PUSH2 0x141E DUP5 DUP3 DUP6 ADD PUSH2 0x126D JUMP JUMPDEST SWAP2 POP POP SWAP3 SWAP2 POP POP JUMP JUMPDEST PUSH2 0x1430 DUP2 PUSH2 0x1246 JUMP JUMPDEST DUP3 MSTORE POP POP JUMP JUMPDEST PUSH0 PUSH1 0x20 DUP3 ADD SWAP1 POP PUSH2 0x1449 PUSH0 DUP4 ADD DUP5 PUSH2 0x1427 JUMP JUMPDEST SWAP3 SWAP2 POP POP JUMP JUMPDEST PUSH0 DUP1 PUSH1 0x40 DUP4 DUP6 SUB SLT ISZERO PUSH2 0x1465 JUMPI PUSH2 0x1464 PUSH2 0x101C JUMP JUMPDEST JUMPDEST PUSH0 PUSH2 0x1472 DUP6 DUP3 DUP7 ADD PUSH2 0x126D JUMP JUMPDEST SWAP3 POP POP PUSH1 0x20 PUSH2 0x1483 DUP6 DUP3 DUP7 ADD PUSH2 0x126D JUMP JUMPDEST SWAP2 POP POP SWAP3 POP SWAP3 SWAP1 POP JUMP JUMPDEST PUSH32 0x456D707479205552490000000000000000000000000000000000000000000000 PUSH0 DUP3 ADD MSTORE POP JUMP JUMPDEST PUSH0 PUSH2 0x14C1 PUSH1 0x9 DUP4 PUSH2 0x11B1 JUMP JUMPDEST SWAP2 POP PUSH2 0x14CC DUP3 PUSH2 0x148D JUMP JUMPDEST PUSH1 0x20 DUP3 ADD SWAP1 POP SWAP2 SWAP1 POP JUMP JUMPDEST PUSH0 PUSH1 0x20 DUP3 ADD SWAP1 POP DUP2 DUP2 SUB PUSH0 DUP4 ADD MSTORE PUSH2 0x14EE DUP2 PUSH2 0x14B5 JUMP JUMPDEST SWAP1 POP SWAP2 SWAP1 POP JUMP JUMPDEST PUSH32 0x4E487B7100000000000000000000000000000000000000000000000000000000 PUSH0 MSTORE PUSH1 0x22 PUSH1 0x4 MSTORE PUSH1 0x24 PUSH0 REVERT JUMPDEST PUSH0 PUSH1 0x2 DUP3 DIV SWAP1 POP PUSH1 0x1 DUP3 AND DUP1 PUSH2 0x1539 JUMPI PUSH1 0x7F DUP3 AND SWAP2 POP JUMPDEST PUSH1 0x20 DUP3 LT DUP2 SUB PUSH2 0x154C JUMPI PUSH2 0x154B PUSH2 0x14F5 JUMP JUMPDEST JUMPDEST POP SWAP2 SWAP1 POP JUMP JUMPDEST PUSH0 DUP2 SWAP1 POP DUP2 PUSH0 MSTORE PUSH1 0x20 PUSH0 KECCAK256 SWAP1 POP SWAP2 SWAP1 POP JUMP JUMPDEST PUSH0 PUSH1 0x20 PUSH1 0x1F DUP4 ADD DIV SWAP1 POP SWAP2 SWAP1 POP JUMP JUMPDEST PUSH0 DUP3 DUP3 SHL SWAP1 POP SWAP3 SWAP2 POP POP JUMP JUMPDEST PUSH0 PUSH1 0x8 DUP4 MUL PUSH2 0x15AE PUSH32 0xFFFFFFFFFFFFFFFFFFFFFFFFFFFFFFFFFFFFFFFFFFFFFFFFFFFFFFFFFFFFFFFF DUP3 PUSH2 0x1573 JUMP JUMPDEST PUSH2 0x15B8 DUP7 DUP4 PUSH2 0x1573 JUMP JUMPDEST SWAP6 POP DUP1 NOT DUP5 AND SWAP4 POP DUP1 DUP7 AND DUP5 OR SWAP3 POP POP POP SWAP4 SWAP3 POP POP POP JUMP JUMPDEST PUSH0 DUP2 SWAP1 POP SWAP2 SWAP1 POP JUMP JUMPDEST PUSH0 PUSH2 0x15F3 PUSH2 0x15EE PUSH2 0x15E9 DUP5 PUSH2 0x1281 JUMP JUMPDEST PUSH2 0x15D0 JUMP JUMPDEST PUSH2 0x1281 JUMP JUMPDEST SWAP1 POP SWAP2 SWAP1 POP JUMP JUMPDEST PUSH0 DUP2 SWAP1 POP SWAP2 SWAP1 POP JUMP JUMPDEST PUSH2 0x160C DUP4 PUSH2 0x15D9 JUMP JUMPDEST PUSH2 0x1620 PUSH2 0x1618 DUP3 PUSH2 0x15FA JUMP JUMPDEST DUP5 DUP5 SLOAD PUSH2 0x157F JUMP JUMPDEST DUP3 SSTORE POP POP POP POP JUMP JUMPDEST PUSH0 SWAP1 JUMP JUMPDEST PUSH2 0x1634 PUSH2 0x1628 JUMP JUMPDEST PUSH2 0x163F DUP2 DUP5 DUP5 PUSH2 0x1603 JUMP JUMPDEST POP POP POP JUMP JUMPDEST JUMPDEST DUP2 DUP2 LT ISZERO PUSH2 0x1662 JUMPI PUSH2 0x1657 PUSH0 DUP3 PUSH2 0x162C JUMP JUMPDEST PUSH1 0x1 DUP2 ADD SWAP1 POP PUSH2 0x1645 JUMP JUMPDEST POP POP JUMP JUMPDEST PUSH1 0x1F DUP3 GT ISZERO PUSH2 0x16A7 JUMPI PUSH2 0x1678 DUP2 PUSH2 0x1552 JUMP JUMPDEST PUSH2 0x1681 DUP5 PUSH2 0x1564 JUMP JUMPDEST DUP2 ADD PUSH1 0x20 DUP6 LT ISZERO PUSH2 0x1690 JUMPI DUP2 SWAP1 POP JUMPDEST PUSH2 0x16A4 PUSH2 0x169C DUP6 PUSH2 0x1564 JUMP JUMPDEST DUP4 ADD DUP3 PUSH2 0x1644 JUMP JUMPDEST POP POP JUMPDEST POP POP POP JUMP JUMPDEST PUSH0 DUP3 DUP3 SHR SWAP1 POP SWAP3 SWAP2 POP POP JUMP JUMPDEST PUSH0 PUSH2 0x16C7 PUSH0 NOT DUP5 PUSH1 0x8 MUL PUSH2 0x16AC JUMP JUMPDEST NOT DUP1 DUP4 AND SWAP2 POP POP SWAP3 SWAP2 POP POP JUMP JUMPDEST PUSH0 PUSH2 0x16DF DUP4 DUP4 PUSH2 0x16B8 JUMP JUMPDEST SWAP2 POP DUP3 PUSH1 0x2 MUL DUP3 OR SWAP1 POP SWAP3 SWAP2 POP POP JUMP JUMPDEST PUSH2 0x16F8 DUP3 PUSH2 0x11A7 JUMP JUMPDEST PUSH8 0xFFFFFFFFFFFFFFFF DUP2 GT ISZERO PUSH2 0x1711 JUMPI PUSH2 0x1710 PUSH2 0x103C JUMP JUMPDEST JUMPDEST PUSH2 0x171B DUP3 SLOAD PUSH2 0x1522 JUMP JUMPDEST PUSH2 0x1726 DUP3 DUP3 DUP6 PUSH2 0x1666 JUMP JUMPDEST PUSH0 PUSH1 0x20 SWAP1 POP PUSH1 0x1F DUP4 GT PUSH1 0x1 DUP2 EQ PUSH2 0x1757 JUMPI PUSH0 DUP5 ISZERO PUSH2 0x1745 JUMPI DUP3 DUP8 ADD MLOAD SWAP1 POP JUMPDEST PUSH2 0x174F DUP6 DUP3 PUSH2 0x16D4 JUMP JUMPDEST DUP7 SSTORE POP PUSH2 0x17B6 JUMP JUMPDEST PUSH1 0x1F NOT DUP5 AND PUSH2 0x1765 DUP7 PUSH2 0x1552 JUMP JUMPDEST PUSH0 JUMPDEST DUP3 DUP2 LT ISZERO PUSH2 0x178C JUMPI DUP5 DUP10 ADD MLOAD DUP3 SSTORE PUSH1 0x1 DUP3 ADD SWAP2 POP PUSH1 0x20 DUP6 ADD SWAP5 POP PUSH1 0x20 DUP2 ADD SWAP1 POP PUSH2 0x1767 JUMP JUMPDEST DUP7 DUP4 LT ISZERO PUSH2 0x17A9 JUMPI DUP5 DUP10 ADD MLOAD PUSH2 0x17A5 PUSH1 0x1F DUP10 AND DUP3 PUSH2 0x16B8 JUMP JUMPDEST DUP4 SSTORE POP JUMPDEST PUSH1 0x1 PUSH1 0x2 DUP9 MUL ADD DUP9 SSTORE POP POP POP JUMPDEST POP POP POP POP POP POP JUMP JUMPDEST PUSH32 0x5A65726F20616464726573730000000000000000000000000000000000000000 PUSH0 DUP3 ADD MSTORE POP JUMP JUMPDEST PUSH0 PUSH2 0x17F2 PUSH1 0xC DUP4 PUSH2 0x11B1 JUMP JUMPDEST SWAP2 POP PUSH2 0x17FD DUP3 PUSH2 0x17BE JUMP JUMPDEST PUSH1 0x20 DUP3 ADD SWAP1 POP SWAP2 SWAP1 POP JUMP JUMPDEST PUSH0 PUSH1 0x20 DUP3 ADD SWAP1 POP DUP2 DUP2 SUB PUSH0 DUP4 ADD MSTORE PUSH2 0x181F DUP2 PUSH2 0x17E6 JUMP JUMPDEST SWAP1 POP SWAP2 SWAP1 POP JUMP JUMPDEST PUSH32 0x5A65726F20616D6F756E74000000000000000000000000000000000000000000 PUSH0 DUP3 ADD MSTORE POP JUMP JUMPDEST PUSH0 PUSH2 0x185A PUSH1 0xB DUP4 PUSH2 0x11B1 JUMP JUMPDEST SWAP2 POP PUSH2 0x1865 DUP3 PUSH2 0x1826 JUMP JUMPDEST PUSH1 0x20 DUP3 ADD SWAP1 POP SWAP2 SWAP1 POP JUMP JUMPDEST PUSH0 PUSH1 0x20 DUP3 ADD SWAP1 POP DUP2 DUP2 SUB PUSH0 DUP4 ADD MSTORE PUSH2 0x1887 DUP2 PUSH2 0x184E JUMP JUMPDEST SWAP1 POP SWAP2 SWAP1 POP JUMP JUMPDEST PUSH0 PUSH1 0x60 DUP3 ADD SWAP1 POP PUSH2 0x18A1 PUSH0 DUP4 ADD DUP7 PUSH2 0x1427 JUMP JUMPDEST PUSH2 0x18AE PUSH1 0x20 DUP4 ADD DUP6 PUSH2 0x1325 JUMP JUMPDEST PUSH2 0x18BB PUSH1 0x40 DUP4 ADD DUP5 PUSH2 0x1325 JUMP JUMPDEST SWAP5 SWAP4 POP POP POP POP JUMP JUMPDEST PUSH32 0x4E487B7100000000000000000000000000000000000000000000000000000000 PUSH0 MSTORE PUSH1 0x11 PUSH1 0x4 MSTORE PUSH1 0x24 PUSH0 REVERT JUMPDEST PUSH0 PUSH2 0x18FA DUP3 PUSH2 0x1281 JUMP JUMPDEST SWAP2 POP PUSH2 0x1905 DUP4 PUSH2 0x1281 JUMP JUMPDEST SWAP3 POP DUP3 DUP3 ADD SWAP1 POP DUP1 DUP3 GT ISZERO PUSH2 0x191D JUMPI PUSH2 0x191C PUSH2 0x18C3 JUMP JUMPDEST JUMPDEST SWAP3 SWAP2 POP POP JUMP INVALID LOG2 PUSH5 0x6970667358 0x22 SLT KECCAK256 0xDC GASLIMIT 0xE9 PUSH26 0x9E0210E85C11EC734E1240075E8E86C10EAACD18850F688779BF PUSH31 0xAF64736F6C634300081A003300000000000000000000000000000000000000 "
				},
				"gasEstimates": {
					"creation": {
						"codeDepositCost": "1297800",
						"executionCost": "infinite",
						"totalCost": "infinite"
					},
					"external": {
						"allowance(address,address)": "infinite",
						"approve(address,uint256)": "infinite",
						"balanceOf(address)": "2874",
						"burn(uint256)": "infinite",
						"decimals()": "405",
						"imageURI()": "infinite",
						"mint(address,uint256)": "infinite",
						"name()": "infinite",
						"owner()": "2604",
						"renounceOwnership()": "infinite",
						"setImageURI(string)": "infinite",
						"symbol()": "infinite",
						"totalSupply()": "2455",
						"transfer(address,uint256)": "infinite",
						"transferFrom(address,address,uint256)": "infinite",
						"transferOwnership(address)": "infinite"
					}
				},
				"methodIdentifiers": {
					"allowance(address,address)": "dd62ed3e",
					"approve(address,uint256)": "095ea7b3",
					"balanceOf(address)": "70a08231",
					"burn(uint256)": "42966c68",
					"decimals()": "313ce567",
					"imageURI()": "135d088d",
					"mint(address,uint256)": "40c10f19",
					"name()": "06fdde03",
					"owner()": "8da5cb5b",
					"renounceOwnership()": "715018a6",
					"setImageURI(string)": "04787ca2",
					"symbol()": "95d89b41",
					"totalSupply()": "18160ddd",
					"transfer(address,uint256)": "a9059cbb",
					"transferFrom(address,address,uint256)": "23b872dd",
					"transferOwnership(address)": "f2fde38b"
				}
			},
			"storageLayout": {
				"storage": [
					{
						"astId": 307,
						"contract": "contracts/CustomToken.sol:CustomToken",
						"label": "_balances",
						"offset": 0,
						"slot": "0",
						"type": "t_mapping(t_address,t_uint256)"
					},
					{
						"astId": 313,
						"contract": "contracts/CustomToken.sol:CustomToken",
						"label": "_allowances",
						"offset": 0,
						"slot": "1",
						"type": "t_mapping(t_address,t_mapping(t_address,t_uint256))"
					},
					{
						"astId": 315,
						"contract": "contracts/CustomToken.sol:CustomToken",
						"label": "_totalSupply",
						"offset": 0,
						"slot": "2",
						"type": "t_uint256"
					},
					{
						"astId": 317,
						"contract": "contracts/CustomToken.sol:CustomToken",
						"label": "_name",
						"offset": 0,
						"slot": "3",
						"type": "t_string_storage"
					},
					{
						"astId": 319,
						"contract": "contracts/CustomToken.sol:CustomToken",
						"label": "_symbol",
						"offset": 0,
						"slot": "4",
						"type": "t_string_storage"
					},
					{
						"astId": 8,
						"contract": "contracts/CustomToken.sol:CustomToken",
						"label": "_owner",
						"offset": 0,
						"slot": "5",
						"type": "t_address"
					},
					{
						"astId": 945,
						"contract": "contracts/CustomToken.sol:CustomToken",
						"label": "imageURI",
						"offset": 0,
						"slot": "6",
						"type": "t_string_storage"
					}
				],
				"types": {
					"t_address": {
						"encoding": "inplace",
						"label": "address",
						"numberOfBytes": "20"
					},
					"t_mapping(t_address,t_mapping(t_address,t_uint256))": {
						"encoding": "mapping",
						"key": "t_address",
						"label": "mapping(address => mapping(address => uint256))",
						"numberOfBytes": "32",
						"value": "t_mapping(t_address,t_uint256)"
					},
					"t_mapping(t_address,t_uint256)": {
						"encoding": "mapping",
						"key": "t_address",
						"label": "mapping(address => uint256)",
						"numberOfBytes": "32",
						"value": "t_uint256"
					},
					"t_string_storage": {
						"encoding": "bytes",
						"label": "string",
						"numberOfBytes": "32"
					},
					"t_uint256": {
						"encoding": "inplace",
						"label": "uint256",
						"numberOfBytes": "32"
					}
				}
			},
			"userdoc": {
				"kind": "user",
				"methods": {
					"burn(uint256)": {
						"notice": "Destroys tokens from caller's balance"
					},
					"constructor": {
						"notice": "Contract constructor"
					},
					"imageURI()": {
						"notice": "Storage for token image URI"
					},
					"mint(address,uint256)": {
						"notice": "Creates new tokens"
					},
					"setImageURI(string)": {
						"notice": "Updates the token's image URI"
					}
				},
				"version": 1
			}
		}
	}
}