{
	"contracts/ico.sol": {
		"InitialCoinOffering": {
			"abi": [
				{
					"inputs": [
						{
							"internalType": "uint256",
							"name": "_totalSupply",
							"type": "uint256"
						},
						{
							"internalType": "address",
							"name": "_treasury",
							"type": "address"
						}
					],
					"stateMutability": "nonpayable",
					"type": "constructor"
				},
				{
					"inputs": [
						{
							"internalType": "address",
							"name": "owner",
							"type": "address"
						}
					],
					"name": "OwnableInvalidOwner",
					"type": "error"
				},
				{
					"inputs": [
						{
							"internalType": "address",
							"name": "account",
							"type": "address"
						}
					],
					"name": "OwnableUnauthorizedAccount",
					"type": "error"
				},
				{
					"anonymous": false,
					"inputs": [
						{
							"indexed": true,
							"internalType": "address",
							"name": "previousOwner",
							"type": "address"
						},
						{
							"indexed": true,
							"internalType": "address",
							"name": "newOwner",
							"type": "address"
						}
					],
					"name": "OwnershipTransferred",
					"type": "event"
				},
				{
					"inputs": [
						{
							"internalType": "uint8",
							"name": "amount",
							"type": "uint8"
						}
					],
					"name": "allocateTokensForSale",
					"outputs": [],
					"stateMutability": "nonpayable",
					"type": "function"
				},
				{
					"inputs": [
						{
							"internalType": "uint256",
							"name": "",
							"type": "uint256"
						}
					],
					"name": "bidders",
					"outputs": [
						{
							"internalType": "address",
							"name": "",
							"type": "address"
						}
					],
					"stateMutability": "view",
					"type": "function"
				},
				{
					"inputs": [
						{
							"internalType": "address",
							"name": "",
							"type": "address"
						}
					],
					"name": "bids",
					"outputs": [
						{
							"internalType": "uint256",
							"name": "amount",
							"type": "uint256"
						},
						{
							"internalType": "bool",
							"name": "isWinner",
							"type": "bool"
						}
					],
					"stateMutability": "view",
					"type": "function"
				},
				{
					"inputs": [],
					"name": "botRedirectContract",
					"outputs": [
						{
							"internalType": "address",
							"name": "",
							"type": "address"
						}
					],
					"stateMutability": "view",
					"type": "function"
				},
				{
					"inputs": [],
					"name": "endTime",
					"outputs": [
						{
							"internalType": "uint256",
							"name": "",
							"type": "uint256"
						}
					],
					"stateMutability": "view",
					"type": "function"
				},
				{
					"inputs": [],
					"name": "getAvailableTokens",
					"outputs": [
						{
							"internalType": "uint256",
							"name": "tokensLeftForSale",
							"type": "uint256"
						}
					],
					"stateMutability": "view",
					"type": "function"
				},
				{
					"inputs": [],
					"name": "icoEnded",
					"outputs": [
						{
							"internalType": "bool",
							"name": "",
							"type": "bool"
						}
					],
					"stateMutability": "view",
					"type": "function"
				},
				{
					"inputs": [
						{
							"internalType": "address",
							"name": "",
							"type": "address"
						}
					],
					"name": "isBot",
					"outputs": [
						{
							"internalType": "bool",
							"name": "",
							"type": "bool"
						}
					],
					"stateMutability": "view",
					"type": "function"
				},
				{
					"inputs": [],
					"name": "maxWinners",
					"outputs": [
						{
							"internalType": "uint256",
							"name": "",
							"type": "uint256"
						}
					],
					"stateMutability": "view",
					"type": "function"
				},
				{
					"inputs": [],
					"name": "owner",
					"outputs": [
						{
							"internalType": "address",
							"name": "",
							"type": "address"
						}
					],
					"stateMutability": "view",
					"type": "function"
				},
				{
					"inputs": [
						{
							"internalType": "uint8",
							"name": "tokensWanted",
							"type": "uint8"
						}
					],
					"name": "placeBid",
					"outputs": [],
					"stateMutability": "payable",
					"type": "function"
				},
				{
					"inputs": [
						{
							"internalType": "address",
							"name": "botAddress",
							"type": "address"
						}
					],
					"name": "redirectToFakeNFT",
					"outputs": [],
					"stateMutability": "view",
					"type": "function"
				},
				{
					"inputs": [],
					"name": "renounceOwnership",
					"outputs": [],
					"stateMutability": "nonpayable",
					"type": "function"
				},
				{
					"inputs": [
						{
							"internalType": "address",
							"name": "_treasury",
							"type": "address"
						}
					],
					"name": "setTreasury",
					"outputs": [],
					"stateMutability": "nonpayable",
					"type": "function"
				},
				{
					"inputs": [],
					"name": "startTime",
					"outputs": [
						{
							"internalType": "uint256",
							"name": "",
							"type": "uint256"
						}
					],
					"stateMutability": "view",
					"type": "function"
				},
				{
					"inputs": [],
					"name": "tokensForSale",
					"outputs": [
						{
							"internalType": "uint256",
							"name": "",
							"type": "uint256"
						}
					],
					"stateMutability": "view",
					"type": "function"
				},
				{
					"inputs": [],
					"name": "totalETH",
					"outputs": [
						{
							"internalType": "uint256",
							"name": "",
							"type": "uint256"
						}
					],
					"stateMutability": "view",
					"type": "function"
				},
				{
					"inputs": [],
					"name": "totalSupply",
					"outputs": [
						{
							"internalType": "uint256",
							"name": "",
							"type": "uint256"
						}
					],
					"stateMutability": "view",
					"type": "function"
				},
				{
					"inputs": [
						{
							"internalType": "address",
							"name": "newOwner",
							"type": "address"
						}
					],
					"name": "transferOwnership",
					"outputs": [],
					"stateMutability": "nonpayable",
					"type": "function"
				},
				{
					"inputs": [],
					"name": "treasury",
					"outputs": [
						{
							"internalType": "address",
							"name": "",
							"type": "address"
						}
					],
					"stateMutability": "view",
					"type": "function"
				},
				{
					"inputs": [
						{
							"internalType": "uint256",
							"name": "",
							"type": "uint256"
						}
					],
					"name": "winners",
					"outputs": [
						{
							"internalType": "address",
							"name": "",
							"type": "address"
						}
					],
					"stateMutability": "view",
					"type": "function"
				}
			],
			"devdoc": {
				"errors": {
					"OwnableInvalidOwner(address)": [
						{
							"details": "The owner is not a valid owner account. (eg. `address(0)`)"
						}
					],
					"OwnableUnauthorizedAccount(address)": [
						{
							"details": "The caller account is not authorized to perform an operation."
						}
					]
				},
				"kind": "dev",
				"methods": {
					"owner()": {
						"details": "Returns the address of the current owner."
					},
					"renounceOwnership()": {
						"details": "Leaves the contract without owner. It will not be possible to call `onlyOwner` functions. Can only be called by the current owner. NOTE: Renouncing ownership will leave the contract without an owner, thereby disabling any functionality that is only available to the owner."
					},
					"transferOwnership(address)": {
						"details": "Transfers ownership of the contract to a new account (`newOwner`). Can only be called by the current owner."
					}
				},
				"version": 1
			},
			"evm": {
				"assembly": "    /* \"contracts/ico.sol\":276:3366  contract InitialCoinOffering is Ownable {... */\n  mstore(0x40, 0x80)\n    /* \"contracts/ico.sol\":966:972  500000 */\n  0x07a120\n    /* \"contracts/ico.sol\":938:972  uint256 public maxWinners = 500000 */\n  0x09\n  sstore\n    /* \"contracts/ico.sol\":1345:1733  constructor(uint256 _totalSupply, address _treasury) Ownable(msg.sender) {... */\n  callvalue\n  dup1\n  iszero\n  tag_1\n  jumpi\n  0x00\n  dup1\n  revert\ntag_1:\n  pop\n  mload(0x40)\n  sub(codesize, bytecodeSize)\n  dup1\n  bytecodeSize\n  dup4\n  codecopy\n  dup2\n  dup2\n  add\n  0x40\n  mstore\n  dup2\n  add\n  swap1\n  tag_2\n  swap2\n  swap1\n  tag_3\n  jump\t// in\ntag_2:\n    /* \"contracts/ico.sol\":1406:1416  msg.sender */\n  caller\n    /* \"@openzeppelin/contracts/access/Ownable.sol\":1297:1298  0 */\n  0x00\n    /* \"@openzeppelin/contracts/access/Ownable.sol\":1273:1299  initialOwner == address(0) */\n  0xffffffffffffffffffffffffffffffffffffffff\n  and\n    /* \"@openzeppelin/contracts/access/Ownable.sol\":1273:1285  initialOwner */\n  dup2\n    /* \"@openzeppelin/contracts/access/Ownable.sol\":1273:1299  initialOwner == address(0) */\n  0xffffffffffffffffffffffffffffffffffffffff\n  and\n  sub\n    /* \"@openzeppelin/contracts/access/Ownable.sol\":1269:1364  if (initialOwner == address(0)) {... */\n  tag_7\n  jumpi\n    /* \"@openzeppelin/contracts/access/Ownable.sol\":1350:1351  0 */\n  0x00\n    /* \"@openzeppelin/contracts/access/Ownable.sol\":1322:1353  OwnableInvalidOwner(address(0)) */\n  mload(0x40)\n  0x1e4fbdf700000000000000000000000000000000000000000000000000000000\n  dup2\n  mstore\n  0x04\n  add\n  tag_8\n  swap2\n  swap1\n  tag_9\n  jump\t// in\ntag_8:\n  mload(0x40)\n  dup1\n  swap2\n  sub\n  swap1\n  revert\n    /* \"@openzeppelin/contracts/access/Ownable.sol\":1269:1364  if (initialOwner == address(0)) {... */\ntag_7:\n    /* \"@openzeppelin/contracts/access/Ownable.sol\":1373:1405  _transferOwnership(initialOwner) */\n  tag_10\n    /* \"@openzeppelin/contracts/access/Ownable.sol\":1392:1404  initialOwner */\n  dup2\n    /* \"@openzeppelin/contracts/access/Ownable.sol\":1373:1391  _transferOwnership */\n  shl(0x20, tag_11)\n    /* \"@openzeppelin/contracts/access/Ownable.sol\":1373:1405  _transferOwnership(initialOwner) */\n  0x20\n  shr\n  jump\t// in\ntag_10:\n    /* \"@openzeppelin/contracts/access/Ownable.sol\":1225:1412  constructor(address initialOwner) {... */\n  pop\n    /* \"contracts/ico.sol\":1443:1455  _totalSupply */\n  dup2\n    /* \"contracts/ico.sol\":1429:1440  totalSupply */\n  0x01\n    /* \"contracts/ico.sol\":1429:1455  totalSupply = _totalSupply */\n  dup2\n  swap1\n  sstore\n  pop\n    /* \"contracts/ico.sol\":1496:1497  2 */\n  0x02\n    /* \"contracts/ico.sol\":1482:1493  totalSupply */\n  sload(0x01)\n    /* \"contracts/ico.sol\":1482:1497  totalSupply / 2 */\n  tag_13\n  swap2\n  swap1\n  tag_14\n  jump\t// in\ntag_13:\n    /* \"contracts/ico.sol\":1466:1479  tokensForSale */\n  0x02\n    /* \"contracts/ico.sol\":1466:1497  tokensForSale = totalSupply / 2 */\n  dup2\n  swap1\n  sstore\n  pop\n    /* \"contracts/ico.sol\":1551:1560  _treasury */\n  dup1\n    /* \"contracts/ico.sol\":1540:1548  treasury */\n  0x03\n  0x00\n    /* \"contracts/ico.sol\":1540:1560  treasury = _treasury */\n  0x0100\n  exp\n  dup2\n  sload\n  dup2\n  0xffffffffffffffffffffffffffffffffffffffff\n  mul\n  not\n  and\n  swap1\n  dup4\n  0xffffffffffffffffffffffffffffffffffffffff\n  and\n  mul\n  or\n  swap1\n  sstore\n  pop\n    /* \"contracts/ico.sol\":1583:1598  block.timestamp */\n  timestamp\n    /* \"contracts/ico.sol\":1571:1580  startTime */\n  0x05\n    /* \"contracts/ico.sol\":1571:1598  startTime = block.timestamp */\n  dup2\n  swap1\n  sstore\n  pop\n    /* \"contracts/ico.sol\":1660:1666  2 days */\n  0x02a300\n    /* \"contracts/ico.sol\":1648:1657  startTime */\n  sload(0x05)\n    /* \"contracts/ico.sol\":1648:1666  startTime + 2 days */\n  tag_15\n  swap2\n  swap1\n  tag_16\n  jump\t// in\ntag_15:\n    /* \"contracts/ico.sol\":1638:1645  endTime */\n  0x06\n    /* \"contracts/ico.sol\":1638:1666  endTime = startTime + 2 days */\n  dup2\n  swap1\n  sstore\n  pop\n    /* \"contracts/ico.sol\":1720:1725  false */\n  0x00\n    /* \"contracts/ico.sol\":1709:1717  icoEnded */\n  0x0c\n  0x14\n    /* \"contracts/ico.sol\":1709:1725  icoEnded = false */\n  0x0100\n  exp\n  dup2\n  sload\n  dup2\n  0xff\n  mul\n  not\n  and\n  swap1\n  dup4\n  iszero\n  iszero\n  mul\n  or\n  swap1\n  sstore\n  pop\n    /* \"contracts/ico.sol\":1345:1733  constructor(uint256 _totalSupply, address _treasury) Ownable(msg.sender) {... */\n  pop\n  pop\n    /* \"contracts/ico.sol\":276:3366  contract InitialCoinOffering is Ownable {... */\n  jump(tag_17)\n    /* \"@openzeppelin/contracts/access/Ownable.sol\":2912:3099  function _transferOwnership(address newOwner) internal virtual {... */\ntag_11:\n    /* \"@openzeppelin/contracts/access/Ownable.sol\":2985:3001  address oldOwner */\n  0x00\n    /* \"@openzeppelin/contracts/access/Ownable.sol\":3004:3010  _owner */\n  dup1\n  0x00\n  swap1\n  sload\n  swap1\n  0x0100\n  exp\n  swap1\n  div\n  0xffffffffffffffffffffffffffffffffffffffff\n  and\n    /* \"@openzeppelin/contracts/access/Ownable.sol\":2985:3010  address oldOwner = _owner */\n  swap1\n  pop\n    /* \"@openzeppelin/contracts/access/Ownable.sol\":3029:3037  newOwner */\n  dup2\n    /* \"@openzeppelin/contracts/access/Ownable.sol\":3020:3026  _owner */\n  0x00\n  dup1\n    /* \"@openzeppelin/contracts/access/Ownable.sol\":3020:3037  _owner = newOwner */\n  0x0100\n  exp\n  dup2\n  sload\n  dup2\n  0xffffffffffffffffffffffffffffffffffffffff\n  mul\n  not\n  and\n  swap1\n  dup4\n  0xffffffffffffffffffffffffffffffffffffffff\n  and\n  mul\n  or\n  swap1\n  sstore\n  pop\n    /* \"@openzeppelin/contracts/access/Ownable.sol\":3083:3091  newOwner */\n  dup2\n    /* \"@openzeppelin/contracts/access/Ownable.sol\":3052:3092  OwnershipTransferred(oldOwner, newOwner) */\n  0xffffffffffffffffffffffffffffffffffffffff\n  and\n    /* \"@openzeppelin/contracts/access/Ownable.sol\":3073:3081  oldOwner */\n  dup2\n    /* \"@openzeppelin/contracts/access/Ownable.sol\":3052:3092  OwnershipTransferred(oldOwner, newOwner) */\n  0xffffffffffffffffffffffffffffffffffffffff\n  and\n  0x8be0079c531659141344cd1fd0a4f28419497f9722a3daafe3b4186f6b6457e0\n  mload(0x40)\n  mload(0x40)\n  dup1\n  swap2\n  sub\n  swap1\n  log3\n    /* \"@openzeppelin/contracts/access/Ownable.sol\":2975:3099  {... */\n  pop\n    /* \"@openzeppelin/contracts/access/Ownable.sol\":2912:3099  function _transferOwnership(address newOwner) internal virtual {... */\n  pop\n  jump\t// out\n    /* \"#utility.yul\":88:205   */\ntag_20:\n    /* \"#utility.yul\":197:198   */\n  0x00\n    /* \"#utility.yul\":194:195   */\n  dup1\n    /* \"#utility.yul\":187:199   */\n  revert\n    /* \"#utility.yul\":334:411   */\ntag_22:\n    /* \"#utility.yul\":371:378   */\n  0x00\n    /* \"#utility.yul\":400:405   */\n  dup2\n    /* \"#utility.yul\":389:405   */\n  swap1\n  pop\n    /* \"#utility.yul\":334:411   */\n  swap2\n  swap1\n  pop\n  jump\t// out\n    /* \"#utility.yul\":417:539   */\ntag_23:\n    /* \"#utility.yul\":490:514   */\n  tag_38\n    /* \"#utility.yul\":508:513   */\n  dup2\n    /* \"#utility.yul\":490:514   */\n  tag_22\n  jump\t// in\ntag_38:\n    /* \"#utility.yul\":483:488   */\n  dup2\n    /* \"#utility.yul\":480:515   */\n  eq\n    /* \"#utility.yul\":470:533   */\n  tag_39\n  jumpi\n    /* \"#utility.yul\":529:530   */\n  0x00\n    /* \"#utility.yul\":526:527   */\n  dup1\n    /* \"#utility.yul\":519:531   */\n  revert\n    /* \"#utility.yul\":470:533   */\ntag_39:\n    /* \"#utility.yul\":417:539   */\n  pop\n  jump\t// out\n    /* \"#utility.yul\":545:688   */\ntag_24:\n    /* \"#utility.yul\":602:607   */\n  0x00\n    /* \"#utility.yul\":633:639   */\n  dup2\n    /* \"#utility.yul\":627:640   */\n  mload\n    /* \"#utility.yul\":618:640   */\n  swap1\n  pop\n    /* \"#utility.yul\":649:682   */\n  tag_41\n    /* \"#utility.yul\":676:681   */\n  dup2\n    /* \"#utility.yul\":649:682   */\n  tag_23\n  jump\t// in\ntag_41:\n    /* \"#utility.yul\":545:688   */\n  swap3\n  swap2\n  pop\n  pop\n  jump\t// out\n    /* \"#utility.yul\":694:820   */\ntag_25:\n    /* \"#utility.yul\":731:738   */\n  0x00\n    /* \"#utility.yul\":771:813   */\n  0xffffffffffffffffffffffffffffffffffffffff\n    /* \"#utility.yul\":764:769   */\n  dup3\n    /* \"#utility.yul\":760:814   */\n  and\n    /* \"#utility.yul\":749:814   */\n  swap1\n  pop\n    /* \"#utility.yul\":694:820   */\n  swap2\n  swap1\n  pop\n  jump\t// out\n    /* \"#utility.yul\":826:922   */\ntag_26:\n    /* \"#utility.yul\":863:870   */\n  0x00\n    /* \"#utility.yul\":892:916   */\n  tag_44\n    /* \"#utility.yul\":910:915   */\n  dup3\n    /* \"#utility.yul\":892:916   */\n  tag_25\n  jump\t// in\ntag_44:\n    /* \"#utility.yul\":881:916   */\n  swap1\n  pop\n    /* \"#utility.yul\":826:922   */\n  swap2\n  swap1\n  pop\n  jump\t// out\n    /* \"#utility.yul\":928:1050   */\ntag_27:\n    /* \"#utility.yul\":1001:1025   */\n  tag_46\n    /* \"#utility.yul\":1019:1024   */\n  dup2\n    /* \"#utility.yul\":1001:1025   */\n  tag_26\n  jump\t// in\ntag_46:\n    /* \"#utility.yul\":994:999   */\n  dup2\n    /* \"#utility.yul\":991:1026   */\n  eq\n    /* \"#utility.yul\":981:1044   */\n  tag_47\n  jumpi\n    /* \"#utility.yul\":1040:1041   */\n  0x00\n    /* \"#utility.yul\":1037:1038   */\n  dup1\n    /* \"#utility.yul\":1030:1042   */\n  revert\n    /* \"#utility.yul\":981:1044   */\ntag_47:\n    /* \"#utility.yul\":928:1050   */\n  pop\n  jump\t// out\n    /* \"#utility.yul\":1056:1199   */\ntag_28:\n    /* \"#utility.yul\":1113:1118   */\n  0x00\n    /* \"#utility.yul\":1144:1150   */\n  dup2\n    /* \"#utility.yul\":1138:1151   */\n  mload\n    /* \"#utility.yul\":1129:1151   */\n  swap1\n  pop\n    /* \"#utility.yul\":1160:1193   */\n  tag_49\n    /* \"#utility.yul\":1187:1192   */\n  dup2\n    /* \"#utility.yul\":1160:1193   */\n  tag_27\n  jump\t// in\ntag_49:\n    /* \"#utility.yul\":1056:1199   */\n  swap3\n  swap2\n  pop\n  pop\n  jump\t// out\n    /* \"#utility.yul\":1205:1712   */\ntag_3:\n    /* \"#utility.yul\":1284:1290   */\n  0x00\n    /* \"#utility.yul\":1292:1298   */\n  dup1\n    /* \"#utility.yul\":1341:1343   */\n  0x40\n    /* \"#utility.yul\":1329:1338   */\n  dup4\n    /* \"#utility.yul\":1320:1327   */\n  dup6\n    /* \"#utility.yul\":1316:1339   */\n  sub\n    /* \"#utility.yul\":1312:1344   */\n  slt\n    /* \"#utility.yul\":1309:1428   */\n  iszero\n  tag_51\n  jumpi\n    /* \"#utility.yul\":1347:1426   */\n  tag_52\n  tag_20\n  jump\t// in\ntag_52:\n    /* \"#utility.yul\":1309:1428   */\ntag_51:\n    /* \"#utility.yul\":1467:1468   */\n  0x00\n    /* \"#utility.yul\":1492:1556   */\n  tag_53\n    /* \"#utility.yul\":1548:1555   */\n  dup6\n    /* \"#utility.yul\":1539:1545   */\n  dup3\n    /* \"#utility.yul\":1528:1537   */\n  dup7\n    /* \"#utility.yul\":1524:1546   */\n  add\n    /* \"#utility.yul\":1492:1556   */\n  tag_24\n  jump\t// in\ntag_53:\n    /* \"#utility.yul\":1482:1556   */\n  swap3\n  pop\n    /* \"#utility.yul\":1438:1566   */\n  pop\n    /* \"#utility.yul\":1605:1607   */\n  0x20\n    /* \"#utility.yul\":1631:1695   */\n  tag_54\n    /* \"#utility.yul\":1687:1694   */\n  dup6\n    /* \"#utility.yul\":1678:1684   */\n  dup3\n    /* \"#utility.yul\":1667:1676   */\n  dup7\n    /* \"#utility.yul\":1663:1685   */\n  add\n    /* \"#utility.yul\":1631:1695   */\n  tag_28\n  jump\t// in\ntag_54:\n    /* \"#utility.yul\":1621:1695   */\n  swap2\n  pop\n    /* \"#utility.yul\":1576:1705   */\n  pop\n    /* \"#utility.yul\":1205:1712   */\n  swap3\n  pop\n  swap3\n  swap1\n  pop\n  jump\t// out\n    /* \"#utility.yul\":1718:1836   */\ntag_29:\n    /* \"#utility.yul\":1805:1829   */\n  tag_56\n    /* \"#utility.yul\":1823:1828   */\n  dup2\n    /* \"#utility.yul\":1805:1829   */\n  tag_26\n  jump\t// in\ntag_56:\n    /* \"#utility.yul\":1800:1803   */\n  dup3\n    /* \"#utility.yul\":1793:1830   */\n  mstore\n    /* \"#utility.yul\":1718:1836   */\n  pop\n  pop\n  jump\t// out\n    /* \"#utility.yul\":1842:2064   */\ntag_9:\n    /* \"#utility.yul\":1935:1939   */\n  0x00\n    /* \"#utility.yul\":1973:1975   */\n  0x20\n    /* \"#utility.yul\":1962:1971   */\n  dup3\n    /* \"#utility.yul\":1958:1976   */\n  add\n    /* \"#utility.yul\":1950:1976   */\n  swap1\n  pop\n    /* \"#utility.yul\":1986:2057   */\n  tag_58\n    /* \"#utility.yul\":2054:2055   */\n  0x00\n    /* \"#utility.yul\":2043:2052   */\n  dup4\n    /* \"#utility.yul\":2039:2056   */\n  add\n    /* \"#utility.yul\":2030:2036   */\n  dup5\n    /* \"#utility.yul\":1986:2057   */\n  tag_29\n  jump\t// in\ntag_58:\n    /* \"#utility.yul\":1842:2064   */\n  swap3\n  swap2\n  pop\n  pop\n  jump\t// out\n    /* \"#utility.yul\":2070:2250   */\ntag_30:\n    /* \"#utility.yul\":2118:2195   */\n  0x4e487b7100000000000000000000000000000000000000000000000000000000\n    /* \"#utility.yul\":2115:2116   */\n  0x00\n    /* \"#utility.yul\":2108:2196   */\n  mstore\n    /* \"#utility.yul\":2215:2219   */\n  0x12\n    /* \"#utility.yul\":2212:2213   */\n  0x04\n    /* \"#utility.yul\":2205:2220   */\n  mstore\n    /* \"#utility.yul\":2239:2243   */\n  0x24\n    /* \"#utility.yul\":2236:2237   */\n  0x00\n    /* \"#utility.yul\":2229:2244   */\n  revert\n    /* \"#utility.yul\":2256:2436   */\ntag_31:\n    /* \"#utility.yul\":2304:2381   */\n  0x4e487b7100000000000000000000000000000000000000000000000000000000\n    /* \"#utility.yul\":2301:2302   */\n  0x00\n    /* \"#utility.yul\":2294:2382   */\n  mstore\n    /* \"#utility.yul\":2401:2405   */\n  0x11\n    /* \"#utility.yul\":2398:2399   */\n  0x04\n    /* \"#utility.yul\":2391:2406   */\n  mstore\n    /* \"#utility.yul\":2425:2429   */\n  0x24\n    /* \"#utility.yul\":2422:2423   */\n  0x00\n    /* \"#utility.yul\":2415:2430   */\n  revert\n    /* \"#utility.yul\":2442:2627   */\ntag_14:\n    /* \"#utility.yul\":2482:2483   */\n  0x00\n    /* \"#utility.yul\":2499:2519   */\n  tag_62\n    /* \"#utility.yul\":2517:2518   */\n  dup3\n    /* \"#utility.yul\":2499:2519   */\n  tag_22\n  jump\t// in\ntag_62:\n    /* \"#utility.yul\":2494:2519   */\n  swap2\n  pop\n    /* \"#utility.yul\":2533:2553   */\n  tag_63\n    /* \"#utility.yul\":2551:2552   */\n  dup4\n    /* \"#utility.yul\":2533:2553   */\n  tag_22\n  jump\t// in\ntag_63:\n    /* \"#utility.yul\":2528:2553   */\n  swap3\n  pop\n    /* \"#utility.yul\":2572:2573   */\n  dup3\n    /* \"#utility.yul\":2562:2597   */\n  tag_64\n  jumpi\n    /* \"#utility.yul\":2577:2595   */\n  tag_65\n  tag_30\n  jump\t// in\ntag_65:\n    /* \"#utility.yul\":2562:2597   */\ntag_64:\n    /* \"#utility.yul\":2619:2620   */\n  dup3\n    /* \"#utility.yul\":2616:2617   */\n  dup3\n    /* \"#utility.yul\":2612:2621   */\n  div\n    /* \"#utility.yul\":2607:2621   */\n  swap1\n  pop\n    /* \"#utility.yul\":2442:2627   */\n  swap3\n  swap2\n  pop\n  pop\n  jump\t// out\n    /* \"#utility.yul\":2633:2824   */\ntag_16:\n    /* \"#utility.yul\":2673:2676   */\n  0x00\n    /* \"#utility.yul\":2692:2712   */\n  tag_67\n    /* \"#utility.yul\":2710:2711   */\n  dup3\n    /* \"#utility.yul\":2692:2712   */\n  tag_22\n  jump\t// in\ntag_67:\n    /* \"#utility.yul\":2687:2712   */\n  swap2\n  pop\n    /* \"#utility.yul\":2726:2746   */\n  tag_68\n    /* \"#utility.yul\":2744:2745   */\n  dup4\n    /* \"#utility.yul\":2726:2746   */\n  tag_22\n  jump\t// in\ntag_68:\n    /* \"#utility.yul\":2721:2746   */\n  swap3\n  pop\n    /* \"#utility.yul\":2769:2770   */\n  dup3\n    /* \"#utility.yul\":2766:2767   */\n  dup3\n    /* \"#utility.yul\":2762:2771   */\n  add\n    /* \"#utility.yul\":2755:2771   */\n  swap1\n  pop\n    /* \"#utility.yul\":2790:2793   */\n  dup1\n    /* \"#utility.yul\":2787:2788   */\n  dup3\n    /* \"#utility.yul\":2784:2794   */\n  gt\n    /* \"#utility.yul\":2781:2817   */\n  iszero\n  tag_69\n  jumpi\n    /* \"#utility.yul\":2797:2815   */\n  tag_70\n  tag_31\n  jump\t// in\ntag_70:\n    /* \"#utility.yul\":2781:2817   */\ntag_69:\n    /* \"#utility.yul\":2633:2824   */\n  swap3\n  swap2\n  pop\n  pop\n  jump\t// out\n    /* \"contracts/ico.sol\":276:3366  contract InitialCoinOffering is Ownable {... */\ntag_17:\n  dataSize(sub_0)\n  dup1\n  dataOffset(sub_0)\n  0x00\n  codecopy\n  0x00\n  return\nstop\n\nsub_0: assembly {\n        /* \"contracts/ico.sol\":276:3366  contract InitialCoinOffering is Ownable {... */\n      mstore(0x40, 0x80)\n      jumpi(tag_1, lt(calldatasize, 0x04))\n      shr(0xe0, calldataload(0x00))\n      dup1\n      0x6c88268b\n      gt\n      tag_23\n      jumpi\n      dup1\n      0xc23eaf07\n      gt\n      tag_24\n      jumpi\n      dup1\n      0xc23eaf07\n      eq\n      tag_17\n      jumpi\n      dup1\n      0xcde8e5d3\n      eq\n      tag_18\n      jumpi\n      dup1\n      0xcff29dfd\n      eq\n      tag_19\n      jumpi\n      dup1\n      0xe35568cb\n      eq\n      tag_20\n      jumpi\n      dup1\n      0xf0f44260\n      eq\n      tag_21\n      jumpi\n      dup1\n      0xf2fde38b\n      eq\n      tag_22\n      jumpi\n      jump(tag_1)\n    tag_24:\n      dup1\n      0x6c88268b\n      eq\n      tag_12\n      jumpi\n      dup1\n      0x715018a6\n      eq\n      tag_13\n      jumpi\n      dup1\n      0x78e97925\n      eq\n      tag_14\n      jumpi\n      dup1\n      0x8da5cb5b\n      eq\n      tag_15\n      jumpi\n      dup1\n      0xa2fb1175\n      eq\n      tag_16\n      jumpi\n      jump(tag_1)\n    tag_23:\n      dup1\n      0x3bbac579\n      gt\n      tag_25\n      jumpi\n      dup1\n      0x3bbac579\n      eq\n      tag_7\n      jumpi\n      dup1\n      0x585ac3e8\n      eq\n      tag_8\n      jumpi\n      dup1\n      0x6156fe6a\n      eq\n      tag_9\n      jumpi\n      dup1\n      0x61d027b3\n      eq\n      tag_10\n      jumpi\n      dup1\n      0x62ea82db\n      eq\n      tag_11\n      jumpi\n      jump(tag_1)\n    tag_25:\n      dup1\n      0x12aef8c3\n      eq\n      tag_2\n      jumpi\n      dup1\n      0x18160ddd\n      eq\n      tag_3\n      jumpi\n      dup1\n      0x3197cbb6\n      eq\n      tag_4\n      jumpi\n      dup1\n      0x36bdee74\n      eq\n      tag_5\n      jumpi\n      dup1\n      0x39783304\n      eq\n      tag_6\n      jumpi\n    tag_1:\n      0x00\n      dup1\n      revert\n        /* \"contracts/ico.sol\":393:421  uint256 public tokensForSale */\n    tag_2:\n      callvalue\n      dup1\n      iszero\n      tag_26\n      jumpi\n      0x00\n      dup1\n      revert\n    tag_26:\n      pop\n      tag_27\n      tag_28\n      jump\t// in\n    tag_27:\n      mload(0x40)\n      tag_29\n      swap2\n      swap1\n      tag_30\n      jump\t// in\n    tag_29:\n      mload(0x40)\n      dup1\n      swap2\n      sub\n      swap1\n      return\n        /* \"contracts/ico.sol\":323:349  uint256 public totalSupply */\n    tag_3:\n      callvalue\n      dup1\n      iszero\n      tag_31\n      jumpi\n      0x00\n      dup1\n      revert\n    tag_31:\n      pop\n      tag_32\n      tag_33\n      jump\t// in\n    tag_32:\n      mload(0x40)\n      tag_34\n      swap2\n      swap1\n      tag_30\n      jump\t// in\n    tag_34:\n      mload(0x40)\n      dup1\n      swap2\n      sub\n      swap1\n      return\n        /* \"contracts/ico.sol\":697:719  uint256 public endTime */\n    tag_4:\n      callvalue\n      dup1\n      iszero\n      tag_35\n      jumpi\n      0x00\n      dup1\n      revert\n    tag_35:\n      pop\n      tag_36\n      tag_37\n      jump\t// in\n    tag_36:\n      mload(0x40)\n      tag_38\n      swap2\n      swap1\n      tag_30\n      jump\t// in\n    tag_38:\n      mload(0x40)\n      dup1\n      swap2\n      sub\n      swap1\n      return\n        /* \"contracts/ico.sol\":550:573  uint256 public totalETH */\n    tag_5:\n      callvalue\n      dup1\n      iszero\n      tag_39\n      jumpi\n      0x00\n      dup1\n      revert\n    tag_39:\n      pop\n      tag_40\n      tag_41\n      jump\t// in\n    tag_40:\n      mload(0x40)\n      tag_42\n      swap2\n      swap1\n      tag_30\n      jump\t// in\n    tag_42:\n      mload(0x40)\n      dup1\n      swap2\n      sub\n      swap1\n      return\n        /* \"contracts/ico.sol\":1984:2216  function allocateTokensForSale(uint8 amount) external onlyOwner {... */\n    tag_6:\n      callvalue\n      dup1\n      iszero\n      tag_43\n      jumpi\n      0x00\n      dup1\n      revert\n    tag_43:\n      pop\n      tag_44\n      0x04\n      dup1\n      calldatasize\n      sub\n      dup2\n      add\n      swap1\n      tag_45\n      swap2\n      swap1\n      tag_46\n      jump\t// in\n    tag_45:\n      tag_47\n      jump\t// in\n    tag_44:\n      stop\n        /* \"contracts/ico.sol\":1095:1132  mapping(address => bool) public isBot */\n    tag_7:\n      callvalue\n      dup1\n      iszero\n      tag_48\n      jumpi\n      0x00\n      dup1\n      revert\n    tag_48:\n      pop\n      tag_49\n      0x04\n      dup1\n      calldatasize\n      sub\n      dup2\n      add\n      swap1\n      tag_50\n      swap2\n      swap1\n      tag_51\n      jump\t// in\n    tag_50:\n      tag_52\n      jump\t// in\n    tag_49:\n      mload(0x40)\n      tag_53\n      swap2\n      swap1\n      tag_54\n      jump\t// in\n    tag_53:\n      mload(0x40)\n      dup1\n      swap2\n      sub\n      swap1\n      return\n        /* \"contracts/ico.sol\":1265:1285  bool public icoEnded */\n    tag_8:\n      callvalue\n      dup1\n      iszero\n      tag_55\n      jumpi\n      0x00\n      dup1\n      revert\n    tag_55:\n      pop\n      tag_56\n      tag_57\n      jump\t// in\n    tag_56:\n      mload(0x40)\n      tag_58\n      swap2\n      swap1\n      tag_54\n      jump\t// in\n    tag_58:\n      mload(0x40)\n      dup1\n      swap2\n      sub\n      swap1\n      return\n        /* \"contracts/ico.sol\":2348:2916  function placeBid(uint8 tokensWanted) public payable {... */\n    tag_9:\n      tag_59\n      0x04\n      dup1\n      calldatasize\n      sub\n      dup2\n      add\n      swap1\n      tag_60\n      swap2\n      swap1\n      tag_46\n      jump\t// in\n    tag_60:\n      tag_61\n      jump\t// in\n    tag_59:\n      stop\n        /* \"contracts/ico.sol\":470:493  address public treasury */\n    tag_10:\n      callvalue\n      dup1\n      iszero\n      tag_62\n      jumpi\n      0x00\n      dup1\n      revert\n    tag_62:\n      pop\n      tag_63\n      tag_64\n      jump\t// in\n    tag_63:\n      mload(0x40)\n      tag_65\n      swap2\n      swap1\n      tag_66\n      jump\t// in\n    tag_65:\n      mload(0x40)\n      dup1\n      swap2\n      sub\n      swap1\n      return\n        /* \"contracts/ico.sol\":784:819  mapping(address => Bid) public bids */\n    tag_11:\n      callvalue\n      dup1\n      iszero\n      tag_67\n      jumpi\n      0x00\n      dup1\n      revert\n    tag_67:\n      pop\n      tag_68\n      0x04\n      dup1\n      calldatasize\n      sub\n      dup2\n      add\n      swap1\n      tag_69\n      swap2\n      swap1\n      tag_51\n      jump\t// in\n    tag_69:\n      tag_70\n      jump\t// in\n    tag_68:\n      mload(0x40)\n      tag_71\n      swap3\n      swap2\n      swap1\n      tag_72\n      jump\t// in\n    tag_71:\n      mload(0x40)\n      dup1\n      swap2\n      sub\n      swap1\n      return\n        /* \"contracts/ico.sol\":1176:1210  address public botRedirectContract */\n    tag_12:\n      callvalue\n      dup1\n      iszero\n      tag_73\n      jumpi\n      0x00\n      dup1\n      revert\n    tag_73:\n      pop\n      tag_74\n      tag_75\n      jump\t// in\n    tag_74:\n      mload(0x40)\n      tag_76\n      swap2\n      swap1\n      tag_66\n      jump\t// in\n    tag_76:\n      mload(0x40)\n      dup1\n      swap2\n      sub\n      swap1\n      return\n        /* \"@openzeppelin/contracts/access/Ownable.sol\":2293:2394  function renounceOwnership() public virtual onlyOwner {... */\n    tag_13:\n      callvalue\n      dup1\n      iszero\n      tag_77\n      jumpi\n      0x00\n      dup1\n      revert\n    tag_77:\n      pop\n      tag_78\n      tag_79\n      jump\t// in\n    tag_78:\n      stop\n        /* \"contracts/ico.sol\":629:653  uint256 public startTime */\n    tag_14:\n      callvalue\n      dup1\n      iszero\n      tag_80\n      jumpi\n      0x00\n      dup1\n      revert\n    tag_80:\n      pop\n      tag_81\n      tag_82\n      jump\t// in\n    tag_81:\n      mload(0x40)\n      tag_83\n      swap2\n      swap1\n      tag_30\n      jump\t// in\n    tag_83:\n      mload(0x40)\n      dup1\n      swap2\n      sub\n      swap1\n      return\n        /* \"@openzeppelin/contracts/access/Ownable.sol\":1638:1723  function owner() public view virtual returns (address) {... */\n    tag_15:\n      callvalue\n      dup1\n      iszero\n      tag_84\n      jumpi\n      0x00\n      dup1\n      revert\n    tag_84:\n      pop\n      tag_85\n      tag_86\n      jump\t// in\n    tag_85:\n      mload(0x40)\n      tag_87\n      swap2\n      swap1\n      tag_66\n      jump\t// in\n    tag_87:\n      mload(0x40)\n      dup1\n      swap2\n      sub\n      swap1\n      return\n        /* \"contracts/ico.sol\":1015:1039  address[] public winners */\n    tag_16:\n      callvalue\n      dup1\n      iszero\n      tag_88\n      jumpi\n      0x00\n      dup1\n      revert\n    tag_88:\n      pop\n      tag_89\n      0x04\n      dup1\n      calldatasize\n      sub\n      dup2\n      add\n      swap1\n      tag_90\n      swap2\n      swap1\n      tag_91\n      jump\t// in\n    tag_90:\n      tag_92\n      jump\t// in\n    tag_89:\n      mload(0x40)\n      tag_93\n      swap2\n      swap1\n      tag_66\n      jump\t// in\n    tag_93:\n      mload(0x40)\n      dup1\n      swap2\n      sub\n      swap1\n      return\n        /* \"contracts/ico.sol\":3172:3359  function redirectToFakeNFT(address botAddress) external view {... */\n    tag_17:\n      callvalue\n      dup1\n      iszero\n      tag_94\n      jumpi\n      0x00\n      dup1\n      revert\n    tag_94:\n      pop\n      tag_95\n      0x04\n      dup1\n      calldatasize\n      sub\n      dup2\n      add\n      swap1\n      tag_96\n      swap2\n      swap1\n      tag_51\n      jump\t// in\n    tag_96:\n      tag_97\n      jump\t// in\n    tag_95:\n      stop\n        /* \"contracts/ico.sol\":938:972  uint256 public maxWinners = 500000 */\n    tag_18:\n      callvalue\n      dup1\n      iszero\n      tag_98\n      jumpi\n      0x00\n      dup1\n      revert\n    tag_98:\n      pop\n      tag_99\n      tag_100\n      jump\t// in\n    tag_99:\n      mload(0x40)\n      tag_101\n      swap2\n      swap1\n      tag_30\n      jump\t// in\n    tag_101:\n      mload(0x40)\n      dup1\n      swap2\n      sub\n      swap1\n      return\n        /* \"contracts/ico.sol\":872:896  address[] public bidders */\n    tag_19:\n      callvalue\n      dup1\n      iszero\n      tag_102\n      jumpi\n      0x00\n      dup1\n      revert\n    tag_102:\n      pop\n      tag_103\n      0x04\n      dup1\n      calldatasize\n      sub\n      dup2\n      add\n      swap1\n      tag_104\n      swap2\n      swap1\n      tag_91\n      jump\t// in\n    tag_104:\n      tag_105\n      jump\t// in\n    tag_103:\n      mload(0x40)\n      tag_106\n      swap2\n      swap1\n      tag_66\n      jump\t// in\n    tag_106:\n      mload(0x40)\n      dup1\n      swap2\n      sub\n      swap1\n      return\n        /* \"contracts/ico.sol\":2224:2340  function getAvailableTokens() public view returns(uint256 tokensLeftForSale) {... */\n    tag_20:\n      callvalue\n      dup1\n      iszero\n      tag_107\n      jumpi\n      0x00\n      dup1\n      revert\n    tag_107:\n      pop\n      tag_108\n      tag_109\n      jump\t// in\n    tag_108:\n      mload(0x40)\n      tag_110\n      swap2\n      swap1\n      tag_30\n      jump\t// in\n    tag_110:\n      mload(0x40)\n      dup1\n      swap2\n      sub\n      swap1\n      return\n        /* \"contracts/ico.sol\":1813:1911  function setTreasury(address _treasury) external onlyOwner {... */\n    tag_21:\n      callvalue\n      dup1\n      iszero\n      tag_111\n      jumpi\n      0x00\n      dup1\n      revert\n    tag_111:\n      pop\n      tag_112\n      0x04\n      dup1\n      calldatasize\n      sub\n      dup2\n      add\n      swap1\n      tag_113\n      swap2\n      swap1\n      tag_51\n      jump\t// in\n    tag_113:\n      tag_114\n      jump\t// in\n    tag_112:\n      stop\n        /* \"@openzeppelin/contracts/access/Ownable.sol\":2543:2758  function transferOwnership(address newOwner) public virtual onlyOwner {... */\n    tag_22:\n      callvalue\n      dup1\n      iszero\n      tag_115\n      jumpi\n      0x00\n      dup1\n      revert\n    tag_115:\n      pop\n      tag_116\n      0x04\n      dup1\n      calldatasize\n      sub\n      dup2\n      add\n      swap1\n      tag_117\n      swap2\n      swap1\n      tag_51\n      jump\t// in\n    tag_117:\n      tag_118\n      jump\t// in\n    tag_116:\n      stop\n        /* \"contracts/ico.sol\":393:421  uint256 public tokensForSale */\n    tag_28:\n      sload(0x02)\n      dup2\n      jump\t// out\n        /* \"contracts/ico.sol\":323:349  uint256 public totalSupply */\n    tag_33:\n      sload(0x01)\n      dup2\n      jump\t// out\n        /* \"contracts/ico.sol\":697:719  uint256 public endTime */\n    tag_37:\n      sload(0x06)\n      dup2\n      jump\t// out\n        /* \"contracts/ico.sol\":550:573  uint256 public totalETH */\n    tag_41:\n      sload(0x04)\n      dup2\n      jump\t// out\n        /* \"contracts/ico.sol\":1984:2216  function allocateTokensForSale(uint8 amount) external onlyOwner {... */\n    tag_47:\n        /* \"@openzeppelin/contracts/access/Ownable.sol\":1531:1544  _checkOwner() */\n      tag_120\n        /* \"@openzeppelin/contracts/access/Ownable.sol\":1531:1542  _checkOwner */\n      tag_121\n        /* \"@openzeppelin/contracts/access/Ownable.sol\":1531:1544  _checkOwner() */\n      jump\t// in\n    tag_120:\n        /* \"contracts/ico.sol\":2076:2077  0 */\n      0x00\n        /* \"contracts/ico.sol\":2067:2073  amount */\n      dup2\n        /* \"contracts/ico.sol\":2067:2077  amount > 0 */\n      0xff\n      and\n      gt\n        /* \"contracts/ico.sol\":2067:2093  amount > 0 && amount < 100 */\n      dup1\n      iszero\n      tag_123\n      jumpi\n      pop\n        /* \"contracts/ico.sol\":2090:2093  100 */\n      0x64\n        /* \"contracts/ico.sol\":2081:2087  amount */\n      dup2\n        /* \"contracts/ico.sol\":2081:2093  amount < 100 */\n      0xff\n      and\n      lt\n        /* \"contracts/ico.sol\":2067:2093  amount > 0 && amount < 100 */\n    tag_123:\n        /* \"contracts/ico.sol\":2059:2094  require(amount > 0 && amount < 100) */\n      tag_124\n      jumpi\n      0x00\n      dup1\n      revert\n    tag_124:\n        /* \"contracts/ico.sol\":2105:2117  uint256 temp */\n      0x00\n        /* \"contracts/ico.sol\":2135:2146  totalSupply */\n      sload(0x01)\n        /* \"contracts/ico.sol\":2128:2131  100 */\n      0x64\n        /* \"contracts/ico.sol\":2121:2127  amount */\n      dup4\n        /* \"contracts/ico.sol\":2121:2131  amount/100 */\n      tag_125\n      swap2\n      swap1\n      tag_126\n      jump\t// in\n    tag_125:\n        /* \"contracts/ico.sol\":2120:2146  (amount/100) * totalSupply */\n      0xff\n      and\n      tag_127\n      swap2\n      swap1\n      tag_128\n      jump\t// in\n    tag_127:\n        /* \"contracts/ico.sol\":2105:2146  uint256 temp = (amount/100) * totalSupply */\n      swap1\n      pop\n        /* \"contracts/ico.sol\":2172:2176  temp */\n      dup1\n        /* \"contracts/ico.sol\":2157:2168  totalSupply */\n      0x01\n      0x00\n        /* \"contracts/ico.sol\":2157:2176  totalSupply -= temp */\n      dup3\n      dup3\n      sload\n      tag_129\n      swap2\n      swap1\n      tag_130\n      jump\t// in\n    tag_129:\n      swap3\n      pop\n      pop\n      dup2\n      swap1\n      sstore\n      pop\n        /* \"contracts/ico.sol\":2204:2208  temp */\n      dup1\n        /* \"contracts/ico.sol\":2187:2200  tokensForSale */\n      0x02\n      0x00\n        /* \"contracts/ico.sol\":2187:2208  tokensForSale += temp */\n      dup3\n      dup3\n      sload\n      tag_131\n      swap2\n      swap1\n      tag_132\n      jump\t// in\n    tag_131:\n      swap3\n      pop\n      pop\n      dup2\n      swap1\n      sstore\n      pop\n        /* \"contracts/ico.sol\":2048:2216  {... */\n      pop\n        /* \"contracts/ico.sol\":1984:2216  function allocateTokensForSale(uint8 amount) external onlyOwner {... */\n      pop\n      jump\t// out\n        /* \"contracts/ico.sol\":1095:1132  mapping(address => bool) public isBot */\n    tag_52:\n      mstore(0x20, 0x0b)\n      dup1\n      0x00\n      mstore\n      keccak256(0x00, 0x40)\n      0x00\n      swap2\n      pop\n      sload\n      swap1\n      0x0100\n      exp\n      swap1\n      div\n      0xff\n      and\n      dup2\n      jump\t// out\n        /* \"contracts/ico.sol\":1265:1285  bool public icoEnded */\n    tag_57:\n      0x0c\n      0x14\n      swap1\n      sload\n      swap1\n      0x0100\n      exp\n      swap1\n      div\n      0xff\n      and\n      dup2\n      jump\t// out\n        /* \"contracts/ico.sol\":2348:2916  function placeBid(uint8 tokensWanted) public payable {... */\n    tag_61:\n        /* \"contracts/ico.sol\":2435:2448  tokensForSale */\n      sload(0x02)\n        /* \"contracts/ico.sol\":2420:2432  tokensWanted */\n      dup2\n        /* \"contracts/ico.sol\":2420:2448  tokensWanted < tokensForSale */\n      0xff\n      and\n      lt\n        /* \"contracts/ico.sol\":2412:2516  require(tokensWanted < tokensForSale, \"Bid amount is greater than available number of tokens for sale.\") */\n      tag_134\n      jumpi\n      mload(0x40)\n      0x08c379a000000000000000000000000000000000000000000000000000000000\n      dup2\n      mstore\n      0x04\n      add\n      tag_135\n      swap1\n      tag_136\n      jump\t// in\n    tag_135:\n      mload(0x40)\n      dup1\n      swap2\n      sub\n      swap1\n      revert\n    tag_134:\n        /* \"contracts/ico.sol\":2547:2554  1 ether */\n      0x0de0b6b3a7640000\n        /* \"contracts/ico.sol\":2535:2544  msg.value */\n      callvalue\n        /* \"contracts/ico.sol\":2535:2554  msg.value > 1 ether */\n      gt\n        /* \"contracts/ico.sol\":2527:2599  require(msg.value > 1 ether, \"You have to place a bid of 1 ETH minimum\") */\n      tag_137\n      jumpi\n      mload(0x40)\n      0x08c379a000000000000000000000000000000000000000000000000000000000\n      dup2\n      mstore\n      0x04\n      add\n      tag_138\n      swap1\n      tag_139\n      jump\t// in\n    tag_138:\n      mload(0x40)\n      dup1\n      swap2\n      sub\n      swap1\n      revert\n    tag_137:\n        /* \"contracts/ico.sol\":2636:2643  endTime */\n      sload(0x06)\n        /* \"contracts/ico.sol\":2618:2633  block.timestamp */\n      timestamp\n        /* \"contracts/ico.sol\":2618:2643  block.timestamp < endTime */\n      lt\n        /* \"contracts/ico.sol\":2610:2661  require(block.timestamp < endTime, \"ICO has ended\") */\n      tag_140\n      jumpi\n      mload(0x40)\n      0x08c379a000000000000000000000000000000000000000000000000000000000\n      dup2\n      mstore\n      0x04\n      add\n      tag_141\n      swap1\n      tag_142\n      jump\t// in\n    tag_141:\n      mload(0x40)\n      dup1\n      swap2\n      sub\n      swap1\n      revert\n    tag_140:\n        /* \"contracts/ico.sol\":2692:2693  0 */\n      0x00\n        /* \"contracts/ico.sol\":2680:2689  msg.value */\n      callvalue\n        /* \"contracts/ico.sol\":2680:2693  msg.value > 0 */\n      gt\n        /* \"contracts/ico.sol\":2672:2724  require(msg.value > 0, \"Bid must be greater than 0\") */\n      tag_143\n      jumpi\n      mload(0x40)\n      0x08c379a000000000000000000000000000000000000000000000000000000000\n      dup2\n      mstore\n      0x04\n      add\n      tag_144\n      swap1\n      tag_145\n      jump\t// in\n    tag_144:\n      mload(0x40)\n      dup1\n      swap2\n      sub\n      swap1\n      revert\n    tag_143:\n        /* \"contracts/ico.sol\":2767:2768  0 */\n      0x00\n        /* \"contracts/ico.sol\":2740:2744  bids */\n      0x07\n        /* \"contracts/ico.sol\":2740:2756  bids[msg.sender] */\n      0x00\n        /* \"contracts/ico.sol\":2745:2755  msg.sender */\n      caller\n        /* \"contracts/ico.sol\":2740:2756  bids[msg.sender] */\n      0xffffffffffffffffffffffffffffffffffffffff\n      and\n      0xffffffffffffffffffffffffffffffffffffffff\n      and\n      dup2\n      mstore\n      0x20\n      add\n      swap1\n      dup2\n      mstore\n      0x20\n      add\n      0x00\n      keccak256\n        /* \"contracts/ico.sol\":2740:2763  bids[msg.sender].amount */\n      0x00\n      add\n      sload\n        /* \"contracts/ico.sol\":2740:2768  bids[msg.sender].amount == 0 */\n      sub\n        /* \"contracts/ico.sol\":2736:2840  if (bids[msg.sender].amount == 0) {... */\n      tag_146\n      jumpi\n        /* \"contracts/ico.sol\":2785:2792  bidders */\n      0x08\n        /* \"contracts/ico.sol\":2798:2808  msg.sender */\n      caller\n        /* \"contracts/ico.sol\":2785:2809  bidders.push(msg.sender) */\n      swap1\n      dup1\n      0x01\n      dup2\n      sload\n      add\n      dup1\n      dup3\n      sstore\n      dup1\n      swap2\n      pop\n      pop\n      0x01\n      swap1\n      sub\n      swap1\n      0x00\n      mstore\n      keccak256(0x00, 0x20)\n      add\n      0x00\n      swap1\n      swap2\n      swap1\n      swap2\n      swap1\n      swap2\n      0x0100\n      exp\n      dup2\n      sload\n      dup2\n      0xffffffffffffffffffffffffffffffffffffffff\n      mul\n      not\n      and\n      swap1\n      dup4\n      0xffffffffffffffffffffffffffffffffffffffff\n      and\n      mul\n      or\n      swap1\n      sstore\n      pop\n        /* \"contracts/ico.sol\":2736:2840  if (bids[msg.sender].amount == 0) {... */\n    tag_146:\n        /* \"contracts/ico.sol\":2877:2886  msg.value */\n      callvalue\n        /* \"contracts/ico.sol\":2850:2854  bids */\n      0x07\n        /* \"contracts/ico.sol\":2850:2866  bids[msg.sender] */\n      0x00\n        /* \"contracts/ico.sol\":2855:2865  msg.sender */\n      caller\n        /* \"contracts/ico.sol\":2850:2866  bids[msg.sender] */\n      0xffffffffffffffffffffffffffffffffffffffff\n      and\n      0xffffffffffffffffffffffffffffffffffffffff\n      and\n      dup2\n      mstore\n      0x20\n      add\n      swap1\n      dup2\n      mstore\n      0x20\n      add\n      0x00\n      keccak256\n        /* \"contracts/ico.sol\":2850:2873  bids[msg.sender].amount */\n      0x00\n      add\n      0x00\n        /* \"contracts/ico.sol\":2850:2886  bids[msg.sender].amount += msg.value */\n      dup3\n      dup3\n      sload\n      tag_148\n      swap2\n      swap1\n      tag_132\n      jump\t// in\n    tag_148:\n      swap3\n      pop\n      pop\n      dup2\n      swap1\n      sstore\n      pop\n        /* \"contracts/ico.sol\":2348:2916  function placeBid(uint8 tokensWanted) public payable {... */\n      pop\n      jump\t// out\n        /* \"contracts/ico.sol\":470:493  address public treasury */\n    tag_64:\n      0x03\n      0x00\n      swap1\n      sload\n      swap1\n      0x0100\n      exp\n      swap1\n      div\n      0xffffffffffffffffffffffffffffffffffffffff\n      and\n      dup2\n      jump\t// out\n        /* \"contracts/ico.sol\":784:819  mapping(address => Bid) public bids */\n    tag_70:\n      mstore(0x20, 0x07)\n      dup1\n      0x00\n      mstore\n      keccak256(0x00, 0x40)\n      0x00\n      swap2\n      pop\n      swap1\n      pop\n      dup1\n      0x00\n      add\n      sload\n      swap1\n      dup1\n      0x01\n      add\n      0x00\n      swap1\n      sload\n      swap1\n      0x0100\n      exp\n      swap1\n      div\n      0xff\n      and\n      swap1\n      pop\n      dup3\n      jump\t// out\n        /* \"contracts/ico.sol\":1176:1210  address public botRedirectContract */\n    tag_75:\n      0x0c\n      0x00\n      swap1\n      sload\n      swap1\n      0x0100\n      exp\n      swap1\n      div\n      0xffffffffffffffffffffffffffffffffffffffff\n      and\n      dup2\n      jump\t// out\n        /* \"@openzeppelin/contracts/access/Ownable.sol\":2293:2394  function renounceOwnership() public virtual onlyOwner {... */\n    tag_79:\n        /* \"@openzeppelin/contracts/access/Ownable.sol\":1531:1544  _checkOwner() */\n      tag_150\n        /* \"@openzeppelin/contracts/access/Ownable.sol\":1531:1542  _checkOwner */\n      tag_121\n        /* \"@openzeppelin/contracts/access/Ownable.sol\":1531:1544  _checkOwner() */\n      jump\t// in\n    tag_150:\n        /* \"@openzeppelin/contracts/access/Ownable.sol\":2357:2387  _transferOwnership(address(0)) */\n      tag_152\n        /* \"@openzeppelin/contracts/access/Ownable.sol\":2384:2385  0 */\n      0x00\n        /* \"@openzeppelin/contracts/access/Ownable.sol\":2357:2375  _transferOwnership */\n      tag_153\n        /* \"@openzeppelin/contracts/access/Ownable.sol\":2357:2387  _transferOwnership(address(0)) */\n      jump\t// in\n    tag_152:\n        /* \"@openzeppelin/contracts/access/Ownable.sol\":2293:2394  function renounceOwnership() public virtual onlyOwner {... */\n      jump\t// out\n        /* \"contracts/ico.sol\":629:653  uint256 public startTime */\n    tag_82:\n      sload(0x05)\n      dup2\n      jump\t// out\n        /* \"@openzeppelin/contracts/access/Ownable.sol\":1638:1723  function owner() public view virtual returns (address) {... */\n    tag_86:\n        /* \"@openzeppelin/contracts/access/Ownable.sol\":1684:1691  address */\n      0x00\n        /* \"@openzeppelin/contracts/access/Ownable.sol\":1710:1716  _owner */\n      dup1\n      0x00\n      swap1\n      sload\n      swap1\n      0x0100\n      exp\n      swap1\n      div\n      0xffffffffffffffffffffffffffffffffffffffff\n      and\n        /* \"@openzeppelin/contracts/access/Ownable.sol\":1703:1716  return _owner */\n      swap1\n      pop\n        /* \"@openzeppelin/contracts/access/Ownable.sol\":1638:1723  function owner() public view virtual returns (address) {... */\n      swap1\n      jump\t// out\n        /* \"contracts/ico.sol\":1015:1039  address[] public winners */\n    tag_92:\n      0x0a\n      dup2\n      dup2\n      sload\n      dup2\n      lt\n      tag_155\n      jumpi\n      0x00\n      dup1\n      revert\n    tag_155:\n      swap1\n      0x00\n      mstore\n      keccak256(0x00, 0x20)\n      add\n      0x00\n      swap2\n      pop\n      sload\n      swap1\n      0x0100\n      exp\n      swap1\n      div\n      0xffffffffffffffffffffffffffffffffffffffff\n      and\n      dup2\n      jump\t// out\n        /* \"contracts/ico.sol\":3172:3359  function redirectToFakeNFT(address botAddress) external view {... */\n    tag_97:\n        /* \"contracts/ico.sol\":3252:3257  isBot */\n      0x0b\n        /* \"contracts/ico.sol\":3252:3269  isBot[botAddress] */\n      0x00\n        /* \"contracts/ico.sol\":3258:3268  botAddress */\n      dup3\n        /* \"contracts/ico.sol\":3252:3269  isBot[botAddress] */\n      0xffffffffffffffffffffffffffffffffffffffff\n      and\n      0xffffffffffffffffffffffffffffffffffffffff\n      and\n      dup2\n      mstore\n      0x20\n      add\n      swap1\n      dup2\n      mstore\n      0x20\n      add\n      0x00\n      keccak256\n      0x00\n      swap1\n      sload\n      swap1\n      0x0100\n      exp\n      swap1\n      div\n      0xff\n      and\n        /* \"contracts/ico.sol\":3244:3294  require(isBot[botAddress], \"Not flagged as a bot\") */\n      tag_158\n      jumpi\n      mload(0x40)\n      0x08c379a000000000000000000000000000000000000000000000000000000000\n      dup2\n      mstore\n      0x04\n      add\n      tag_159\n      swap1\n      tag_160\n      jump\t// in\n    tag_159:\n      mload(0x40)\n      dup1\n      swap2\n      sub\n      swap1\n      revert\n    tag_158:\n        /* \"contracts/ico.sol\":3172:3359  function redirectToFakeNFT(address botAddress) external view {... */\n      pop\n      jump\t// out\n        /* \"contracts/ico.sol\":938:972  uint256 public maxWinners = 500000 */\n    tag_100:\n      sload(0x09)\n      dup2\n      jump\t// out\n        /* \"contracts/ico.sol\":872:896  address[] public bidders */\n    tag_105:\n      0x08\n      dup2\n      dup2\n      sload\n      dup2\n      lt\n      tag_161\n      jumpi\n      0x00\n      dup1\n      revert\n    tag_161:\n      swap1\n      0x00\n      mstore\n      keccak256(0x00, 0x20)\n      add\n      0x00\n      swap2\n      pop\n      sload\n      swap1\n      0x0100\n      exp\n      swap1\n      div\n      0xffffffffffffffffffffffffffffffffffffffff\n      and\n      dup2\n      jump\t// out\n        /* \"contracts/ico.sol\":2224:2340  function getAvailableTokens() public view returns(uint256 tokensLeftForSale) {... */\n    tag_109:\n        /* \"contracts/ico.sol\":2274:2299  uint256 tokensLeftForSale */\n      0x00\n        /* \"contracts/ico.sol\":2319:2332  tokensForSale */\n      sload(0x02)\n        /* \"contracts/ico.sol\":2312:2332  return tokensForSale */\n      swap1\n      pop\n        /* \"contracts/ico.sol\":2224:2340  function getAvailableTokens() public view returns(uint256 tokensLeftForSale) {... */\n      swap1\n      jump\t// out\n        /* \"contracts/ico.sol\":1813:1911  function setTreasury(address _treasury) external onlyOwner {... */\n    tag_114:\n        /* \"@openzeppelin/contracts/access/Ownable.sol\":1531:1544  _checkOwner() */\n      tag_165\n        /* \"@openzeppelin/contracts/access/Ownable.sol\":1531:1542  _checkOwner */\n      tag_121\n        /* \"@openzeppelin/contracts/access/Ownable.sol\":1531:1544  _checkOwner() */\n      jump\t// in\n    tag_165:\n        /* \"contracts/ico.sol\":1894:1903  _treasury */\n      dup1\n        /* \"contracts/ico.sol\":1883:1891  treasury */\n      0x03\n      0x00\n        /* \"contracts/ico.sol\":1883:1903  treasury = _treasury */\n      0x0100\n      exp\n      dup2\n      sload\n      dup2\n      0xffffffffffffffffffffffffffffffffffffffff\n      mul\n      not\n      and\n      swap1\n      dup4\n      0xffffffffffffffffffffffffffffffffffffffff\n      and\n      mul\n      or\n      swap1\n      sstore\n      pop\n        /* \"contracts/ico.sol\":1813:1911  function setTreasury(address _treasury) external onlyOwner {... */\n      pop\n      jump\t// out\n        /* \"@openzeppelin/contracts/access/Ownable.sol\":2543:2758  function transferOwnership(address newOwner) public virtual onlyOwner {... */\n    tag_118:\n        /* \"@openzeppelin/contracts/access/Ownable.sol\":1531:1544  _checkOwner() */\n      tag_168\n        /* \"@openzeppelin/contracts/access/Ownable.sol\":1531:1542  _checkOwner */\n      tag_121\n        /* \"@openzeppelin/contracts/access/Ownable.sol\":1531:1544  _checkOwner() */\n      jump\t// in\n    tag_168:\n        /* \"@openzeppelin/contracts/access/Ownable.sol\":2647:2648  0 */\n      0x00\n        /* \"@openzeppelin/contracts/access/Ownable.sol\":2627:2649  newOwner == address(0) */\n      0xffffffffffffffffffffffffffffffffffffffff\n      and\n        /* \"@openzeppelin/contracts/access/Ownable.sol\":2627:2635  newOwner */\n      dup2\n        /* \"@openzeppelin/contracts/access/Ownable.sol\":2627:2649  newOwner == address(0) */\n      0xffffffffffffffffffffffffffffffffffffffff\n      and\n      sub\n        /* \"@openzeppelin/contracts/access/Ownable.sol\":2623:2714  if (newOwner == address(0)) {... */\n      tag_170\n      jumpi\n        /* \"@openzeppelin/contracts/access/Ownable.sol\":2700:2701  0 */\n      0x00\n        /* \"@openzeppelin/contracts/access/Ownable.sol\":2672:2703  OwnableInvalidOwner(address(0)) */\n      mload(0x40)\n      0x1e4fbdf700000000000000000000000000000000000000000000000000000000\n      dup2\n      mstore\n      0x04\n      add\n      tag_171\n      swap2\n      swap1\n      tag_66\n      jump\t// in\n    tag_171:\n      mload(0x40)\n      dup1\n      swap2\n      sub\n      swap1\n      revert\n        /* \"@openzeppelin/contracts/access/Ownable.sol\":2623:2714  if (newOwner == address(0)) {... */\n    tag_170:\n        /* \"@openzeppelin/contracts/access/Ownable.sol\":2723:2751  _transferOwnership(newOwner) */\n      tag_172\n        /* \"@openzeppelin/contracts/access/Ownable.sol\":2742:2750  newOwner */\n      dup2\n        /* \"@openzeppelin/contracts/access/Ownable.sol\":2723:2741  _transferOwnership */\n      tag_153\n        /* \"@openzeppelin/contracts/access/Ownable.sol\":2723:2751  _transferOwnership(newOwner) */\n      jump\t// in\n    tag_172:\n        /* \"@openzeppelin/contracts/access/Ownable.sol\":2543:2758  function transferOwnership(address newOwner) public virtual onlyOwner {... */\n      pop\n      jump\t// out\n        /* \"@openzeppelin/contracts/access/Ownable.sol\":1796:1958  function _checkOwner() internal view virtual {... */\n    tag_121:\n        /* \"@openzeppelin/contracts/access/Ownable.sol\":1866:1878  _msgSender() */\n      tag_174\n        /* \"@openzeppelin/contracts/access/Ownable.sol\":1866:1876  _msgSender */\n      tag_175\n        /* \"@openzeppelin/contracts/access/Ownable.sol\":1866:1878  _msgSender() */\n      jump\t// in\n    tag_174:\n        /* \"@openzeppelin/contracts/access/Ownable.sol\":1855:1878  owner() != _msgSender() */\n      0xffffffffffffffffffffffffffffffffffffffff\n      and\n        /* \"@openzeppelin/contracts/access/Ownable.sol\":1855:1862  owner() */\n      tag_176\n        /* \"@openzeppelin/contracts/access/Ownable.sol\":1855:1860  owner */\n      tag_86\n        /* \"@openzeppelin/contracts/access/Ownable.sol\":1855:1862  owner() */\n      jump\t// in\n    tag_176:\n        /* \"@openzeppelin/contracts/access/Ownable.sol\":1855:1878  owner() != _msgSender() */\n      0xffffffffffffffffffffffffffffffffffffffff\n      and\n      eq\n        /* \"@openzeppelin/contracts/access/Ownable.sol\":1851:1952  if (owner() != _msgSender()) {... */\n      tag_177\n      jumpi\n        /* \"@openzeppelin/contracts/access/Ownable.sol\":1928:1940  _msgSender() */\n      tag_178\n        /* \"@openzeppelin/contracts/access/Ownable.sol\":1928:1938  _msgSender */\n      tag_175\n        /* \"@openzeppelin/contracts/access/Ownable.sol\":1928:1940  _msgSender() */\n      jump\t// in\n    tag_178:\n        /* \"@openzeppelin/contracts/access/Ownable.sol\":1901:1941  OwnableUnauthorizedAccount(_msgSender()) */\n      mload(0x40)\n      0x118cdaa700000000000000000000000000000000000000000000000000000000\n      dup2\n      mstore\n      0x04\n      add\n      tag_179\n      swap2\n      swap1\n      tag_66\n      jump\t// in\n    tag_179:\n      mload(0x40)\n      dup1\n      swap2\n      sub\n      swap1\n      revert\n        /* \"@openzeppelin/contracts/access/Ownable.sol\":1851:1952  if (owner() != _msgSender()) {... */\n    tag_177:\n        /* \"@openzeppelin/contracts/access/Ownable.sol\":1796:1958  function _checkOwner() internal view virtual {... */\n      jump\t// out\n        /* \"@openzeppelin/contracts/access/Ownable.sol\":2912:3099  function _transferOwnership(address newOwner) internal virtual {... */\n    tag_153:\n        /* \"@openzeppelin/contracts/access/Ownable.sol\":2985:3001  address oldOwner */\n      0x00\n        /* \"@openzeppelin/contracts/access/Ownable.sol\":3004:3010  _owner */\n      dup1\n      0x00\n      swap1\n      sload\n      swap1\n      0x0100\n      exp\n      swap1\n      div\n      0xffffffffffffffffffffffffffffffffffffffff\n      and\n        /* \"@openzeppelin/contracts/access/Ownable.sol\":2985:3010  address oldOwner = _owner */\n      swap1\n      pop\n        /* \"@openzeppelin/contracts/access/Ownable.sol\":3029:3037  newOwner */\n      dup2\n        /* \"@openzeppelin/contracts/access/Ownable.sol\":3020:3026  _owner */\n      0x00\n      dup1\n        /* \"@openzeppelin/contracts/access/Ownable.sol\":3020:3037  _owner = newOwner */\n      0x0100\n      exp\n      dup2\n      sload\n      dup2\n      0xffffffffffffffffffffffffffffffffffffffff\n      mul\n      not\n      and\n      swap1\n      dup4\n      0xffffffffffffffffffffffffffffffffffffffff\n      and\n      mul\n      or\n      swap1\n      sstore\n      pop\n        /* \"@openzeppelin/contracts/access/Ownable.sol\":3083:3091  newOwner */\n      dup2\n        /* \"@openzeppelin/contracts/access/Ownable.sol\":3052:3092  OwnershipTransferred(oldOwner, newOwner) */\n      0xffffffffffffffffffffffffffffffffffffffff\n      and\n        /* \"@openzeppelin/contracts/access/Ownable.sol\":3073:3081  oldOwner */\n      dup2\n        /* \"@openzeppelin/contracts/access/Ownable.sol\":3052:3092  OwnershipTransferred(oldOwner, newOwner) */\n      0xffffffffffffffffffffffffffffffffffffffff\n      and\n      0x8be0079c531659141344cd1fd0a4f28419497f9722a3daafe3b4186f6b6457e0\n      mload(0x40)\n      mload(0x40)\n      dup1\n      swap2\n      sub\n      swap1\n      log3\n        /* \"@openzeppelin/contracts/access/Ownable.sol\":2975:3099  {... */\n      pop\n        /* \"@openzeppelin/contracts/access/Ownable.sol\":2912:3099  function _transferOwnership(address newOwner) internal virtual {... */\n      pop\n      jump\t// out\n        /* \"@openzeppelin/contracts/utils/Context.sol\":656:752  function _msgSender() internal view virtual returns (address) {... */\n    tag_175:\n        /* \"@openzeppelin/contracts/utils/Context.sol\":709:716  address */\n      0x00\n        /* \"@openzeppelin/contracts/utils/Context.sol\":735:745  msg.sender */\n      caller\n        /* \"@openzeppelin/contracts/utils/Context.sol\":728:745  return msg.sender */\n      swap1\n      pop\n        /* \"@openzeppelin/contracts/utils/Context.sol\":656:752  function _msgSender() internal view virtual returns (address) {... */\n      swap1\n      jump\t// out\n        /* \"#utility.yul\":7:84   */\n    tag_182:\n        /* \"#utility.yul\":44:51   */\n      0x00\n        /* \"#utility.yul\":73:78   */\n      dup2\n        /* \"#utility.yul\":62:78   */\n      swap1\n      pop\n        /* \"#utility.yul\":7:84   */\n      swap2\n      swap1\n      pop\n      jump\t// out\n        /* \"#utility.yul\":90:208   */\n    tag_183:\n        /* \"#utility.yul\":177:201   */\n      tag_215\n        /* \"#utility.yul\":195:200   */\n      dup2\n        /* \"#utility.yul\":177:201   */\n      tag_182\n      jump\t// in\n    tag_215:\n        /* \"#utility.yul\":172:175   */\n      dup3\n        /* \"#utility.yul\":165:202   */\n      mstore\n        /* \"#utility.yul\":90:208   */\n      pop\n      pop\n      jump\t// out\n        /* \"#utility.yul\":214:436   */\n    tag_30:\n        /* \"#utility.yul\":307:311   */\n      0x00\n        /* \"#utility.yul\":345:347   */\n      0x20\n        /* \"#utility.yul\":334:343   */\n      dup3\n        /* \"#utility.yul\":330:348   */\n      add\n        /* \"#utility.yul\":322:348   */\n      swap1\n      pop\n        /* \"#utility.yul\":358:429   */\n      tag_217\n        /* \"#utility.yul\":426:427   */\n      0x00\n        /* \"#utility.yul\":415:424   */\n      dup4\n        /* \"#utility.yul\":411:428   */\n      add\n        /* \"#utility.yul\":402:408   */\n      dup5\n        /* \"#utility.yul\":358:429   */\n      tag_183\n      jump\t// in\n    tag_217:\n        /* \"#utility.yul\":214:436   */\n      swap3\n      swap2\n      pop\n      pop\n      jump\t// out\n        /* \"#utility.yul\":523:640   */\n    tag_185:\n        /* \"#utility.yul\":632:633   */\n      0x00\n        /* \"#utility.yul\":629:630   */\n      dup1\n        /* \"#utility.yul\":622:634   */\n      revert\n        /* \"#utility.yul\":769:855   */\n    tag_187:\n        /* \"#utility.yul\":804:811   */\n      0x00\n        /* \"#utility.yul\":844:848   */\n      0xff\n        /* \"#utility.yul\":837:842   */\n      dup3\n        /* \"#utility.yul\":833:849   */\n      and\n        /* \"#utility.yul\":822:849   */\n      swap1\n      pop\n        /* \"#utility.yul\":769:855   */\n      swap2\n      swap1\n      pop\n      jump\t// out\n        /* \"#utility.yul\":861:979   */\n    tag_188:\n        /* \"#utility.yul\":932:954   */\n      tag_223\n        /* \"#utility.yul\":948:953   */\n      dup2\n        /* \"#utility.yul\":932:954   */\n      tag_187\n      jump\t// in\n    tag_223:\n        /* \"#utility.yul\":925:930   */\n      dup2\n        /* \"#utility.yul\":922:955   */\n      eq\n        /* \"#utility.yul\":912:973   */\n      tag_224\n      jumpi\n        /* \"#utility.yul\":969:970   */\n      0x00\n        /* \"#utility.yul\":966:967   */\n      dup1\n        /* \"#utility.yul\":959:971   */\n      revert\n        /* \"#utility.yul\":912:973   */\n    tag_224:\n        /* \"#utility.yul\":861:979   */\n      pop\n      jump\t// out\n        /* \"#utility.yul\":985:1120   */\n    tag_189:\n        /* \"#utility.yul\":1029:1034   */\n      0x00\n        /* \"#utility.yul\":1067:1073   */\n      dup2\n        /* \"#utility.yul\":1054:1074   */\n      calldataload\n        /* \"#utility.yul\":1045:1074   */\n      swap1\n      pop\n        /* \"#utility.yul\":1083:1114   */\n      tag_226\n        /* \"#utility.yul\":1108:1113   */\n      dup2\n        /* \"#utility.yul\":1083:1114   */\n      tag_188\n      jump\t// in\n    tag_226:\n        /* \"#utility.yul\":985:1120   */\n      swap3\n      swap2\n      pop\n      pop\n      jump\t// out\n        /* \"#utility.yul\":1126:1451   */\n    tag_46:\n        /* \"#utility.yul\":1183:1189   */\n      0x00\n        /* \"#utility.yul\":1232:1234   */\n      0x20\n        /* \"#utility.yul\":1220:1229   */\n      dup3\n        /* \"#utility.yul\":1211:1218   */\n      dup5\n        /* \"#utility.yul\":1207:1230   */\n      sub\n        /* \"#utility.yul\":1203:1235   */\n      slt\n        /* \"#utility.yul\":1200:1319   */\n      iszero\n      tag_228\n      jumpi\n        /* \"#utility.yul\":1238:1317   */\n      tag_229\n      tag_185\n      jump\t// in\n    tag_229:\n        /* \"#utility.yul\":1200:1319   */\n    tag_228:\n        /* \"#utility.yul\":1358:1359   */\n      0x00\n        /* \"#utility.yul\":1383:1434   */\n      tag_230\n        /* \"#utility.yul\":1426:1433   */\n      dup5\n        /* \"#utility.yul\":1417:1423   */\n      dup3\n        /* \"#utility.yul\":1406:1415   */\n      dup6\n        /* \"#utility.yul\":1402:1424   */\n      add\n        /* \"#utility.yul\":1383:1434   */\n      tag_189\n      jump\t// in\n    tag_230:\n        /* \"#utility.yul\":1373:1434   */\n      swap2\n      pop\n        /* \"#utility.yul\":1329:1444   */\n      pop\n        /* \"#utility.yul\":1126:1451   */\n      swap3\n      swap2\n      pop\n      pop\n      jump\t// out\n        /* \"#utility.yul\":1457:1583   */\n    tag_190:\n        /* \"#utility.yul\":1494:1501   */\n      0x00\n        /* \"#utility.yul\":1534:1576   */\n      0xffffffffffffffffffffffffffffffffffffffff\n        /* \"#utility.yul\":1527:1532   */\n      dup3\n        /* \"#utility.yul\":1523:1577   */\n      and\n        /* \"#utility.yul\":1512:1577   */\n      swap1\n      pop\n        /* \"#utility.yul\":1457:1583   */\n      swap2\n      swap1\n      pop\n      jump\t// out\n        /* \"#utility.yul\":1589:1685   */\n    tag_191:\n        /* \"#utility.yul\":1626:1633   */\n      0x00\n        /* \"#utility.yul\":1655:1679   */\n      tag_233\n        /* \"#utility.yul\":1673:1678   */\n      dup3\n        /* \"#utility.yul\":1655:1679   */\n      tag_190\n      jump\t// in\n    tag_233:\n        /* \"#utility.yul\":1644:1679   */\n      swap1\n      pop\n        /* \"#utility.yul\":1589:1685   */\n      swap2\n      swap1\n      pop\n      jump\t// out\n        /* \"#utility.yul\":1691:1813   */\n    tag_192:\n        /* \"#utility.yul\":1764:1788   */\n      tag_235\n        /* \"#utility.yul\":1782:1787   */\n      dup2\n        /* \"#utility.yul\":1764:1788   */\n      tag_191\n      jump\t// in\n    tag_235:\n        /* \"#utility.yul\":1757:1762   */\n      dup2\n        /* \"#utility.yul\":1754:1789   */\n      eq\n        /* \"#utility.yul\":1744:1807   */\n      tag_236\n      jumpi\n        /* \"#utility.yul\":1803:1804   */\n      0x00\n        /* \"#utility.yul\":1800:1801   */\n      dup1\n        /* \"#utility.yul\":1793:1805   */\n      revert\n        /* \"#utility.yul\":1744:1807   */\n    tag_236:\n        /* \"#utility.yul\":1691:1813   */\n      pop\n      jump\t// out\n        /* \"#utility.yul\":1819:1958   */\n    tag_193:\n        /* \"#utility.yul\":1865:1870   */\n      0x00\n        /* \"#utility.yul\":1903:1909   */\n      dup2\n        /* \"#utility.yul\":1890:1910   */\n      calldataload\n        /* \"#utility.yul\":1881:1910   */\n      swap1\n      pop\n        /* \"#utility.yul\":1919:1952   */\n      tag_238\n        /* \"#utility.yul\":1946:1951   */\n      dup2\n        /* \"#utility.yul\":1919:1952   */\n      tag_192\n      jump\t// in\n    tag_238:\n        /* \"#utility.yul\":1819:1958   */\n      swap3\n      swap2\n      pop\n      pop\n      jump\t// out\n        /* \"#utility.yul\":1964:2293   */\n    tag_51:\n        /* \"#utility.yul\":2023:2029   */\n      0x00\n        /* \"#utility.yul\":2072:2074   */\n      0x20\n        /* \"#utility.yul\":2060:2069   */\n      dup3\n        /* \"#utility.yul\":2051:2058   */\n      dup5\n        /* \"#utility.yul\":2047:2070   */\n      sub\n        /* \"#utility.yul\":2043:2075   */\n      slt\n        /* \"#utility.yul\":2040:2159   */\n      iszero\n      tag_240\n      jumpi\n        /* \"#utility.yul\":2078:2157   */\n      tag_241\n      tag_185\n      jump\t// in\n    tag_241:\n        /* \"#utility.yul\":2040:2159   */\n    tag_240:\n        /* \"#utility.yul\":2198:2199   */\n      0x00\n        /* \"#utility.yul\":2223:2276   */\n      tag_242\n        /* \"#utility.yul\":2268:2275   */\n      dup5\n        /* \"#utility.yul\":2259:2265   */\n      dup3\n        /* \"#utility.yul\":2248:2257   */\n      dup6\n        /* \"#utility.yul\":2244:2266   */\n      add\n        /* \"#utility.yul\":2223:2276   */\n      tag_193\n      jump\t// in\n    tag_242:\n        /* \"#utility.yul\":2213:2276   */\n      swap2\n      pop\n        /* \"#utility.yul\":2169:2286   */\n      pop\n        /* \"#utility.yul\":1964:2293   */\n      swap3\n      swap2\n      pop\n      pop\n      jump\t// out\n        /* \"#utility.yul\":2299:2389   */\n    tag_194:\n        /* \"#utility.yul\":2333:2340   */\n      0x00\n        /* \"#utility.yul\":2376:2381   */\n      dup2\n        /* \"#utility.yul\":2369:2382   */\n      iszero\n        /* \"#utility.yul\":2362:2383   */\n      iszero\n        /* \"#utility.yul\":2351:2383   */\n      swap1\n      pop\n        /* \"#utility.yul\":2299:2389   */\n      swap2\n      swap1\n      pop\n      jump\t// out\n        /* \"#utility.yul\":2395:2504   */\n    tag_195:\n        /* \"#utility.yul\":2476:2497   */\n      tag_245\n        /* \"#utility.yul\":2491:2496   */\n      dup2\n        /* \"#utility.yul\":2476:2497   */\n      tag_194\n      jump\t// in\n    tag_245:\n        /* \"#utility.yul\":2471:2474   */\n      dup3\n        /* \"#utility.yul\":2464:2498   */\n      mstore\n        /* \"#utility.yul\":2395:2504   */\n      pop\n      pop\n      jump\t// out\n        /* \"#utility.yul\":2510:2720   */\n    tag_54:\n        /* \"#utility.yul\":2597:2601   */\n      0x00\n        /* \"#utility.yul\":2635:2637   */\n      0x20\n        /* \"#utility.yul\":2624:2633   */\n      dup3\n        /* \"#utility.yul\":2620:2638   */\n      add\n        /* \"#utility.yul\":2612:2638   */\n      swap1\n      pop\n        /* \"#utility.yul\":2648:2713   */\n      tag_247\n        /* \"#utility.yul\":2710:2711   */\n      0x00\n        /* \"#utility.yul\":2699:2708   */\n      dup4\n        /* \"#utility.yul\":2695:2712   */\n      add\n        /* \"#utility.yul\":2686:2692   */\n      dup5\n        /* \"#utility.yul\":2648:2713   */\n      tag_195\n      jump\t// in\n    tag_247:\n        /* \"#utility.yul\":2510:2720   */\n      swap3\n      swap2\n      pop\n      pop\n      jump\t// out\n        /* \"#utility.yul\":2726:2844   */\n    tag_196:\n        /* \"#utility.yul\":2813:2837   */\n      tag_249\n        /* \"#utility.yul\":2831:2836   */\n      dup2\n        /* \"#utility.yul\":2813:2837   */\n      tag_191\n      jump\t// in\n    tag_249:\n        /* \"#utility.yul\":2808:2811   */\n      dup3\n        /* \"#utility.yul\":2801:2838   */\n      mstore\n        /* \"#utility.yul\":2726:2844   */\n      pop\n      pop\n      jump\t// out\n        /* \"#utility.yul\":2850:3072   */\n    tag_66:\n        /* \"#utility.yul\":2943:2947   */\n      0x00\n        /* \"#utility.yul\":2981:2983   */\n      0x20\n        /* \"#utility.yul\":2970:2979   */\n      dup3\n        /* \"#utility.yul\":2966:2984   */\n      add\n        /* \"#utility.yul\":2958:2984   */\n      swap1\n      pop\n        /* \"#utility.yul\":2994:3065   */\n      tag_251\n        /* \"#utility.yul\":3062:3063   */\n      0x00\n        /* \"#utility.yul\":3051:3060   */\n      dup4\n        /* \"#utility.yul\":3047:3064   */\n      add\n        /* \"#utility.yul\":3038:3044   */\n      dup5\n        /* \"#utility.yul\":2994:3065   */\n      tag_196\n      jump\t// in\n    tag_251:\n        /* \"#utility.yul\":2850:3072   */\n      swap3\n      swap2\n      pop\n      pop\n      jump\t// out\n        /* \"#utility.yul\":3078:3398   */\n    tag_72:\n        /* \"#utility.yul\":3193:3197   */\n      0x00\n        /* \"#utility.yul\":3231:3233   */\n      0x40\n        /* \"#utility.yul\":3220:3229   */\n      dup3\n        /* \"#utility.yul\":3216:3234   */\n      add\n        /* \"#utility.yul\":3208:3234   */\n      swap1\n      pop\n        /* \"#utility.yul\":3244:3315   */\n      tag_253\n        /* \"#utility.yul\":3312:3313   */\n      0x00\n        /* \"#utility.yul\":3301:3310   */\n      dup4\n        /* \"#utility.yul\":3297:3314   */\n      add\n        /* \"#utility.yul\":3288:3294   */\n      dup6\n        /* \"#utility.yul\":3244:3315   */\n      tag_183\n      jump\t// in\n    tag_253:\n        /* \"#utility.yul\":3325:3391   */\n      tag_254\n        /* \"#utility.yul\":3387:3389   */\n      0x20\n        /* \"#utility.yul\":3376:3385   */\n      dup4\n        /* \"#utility.yul\":3372:3390   */\n      add\n        /* \"#utility.yul\":3363:3369   */\n      dup5\n        /* \"#utility.yul\":3325:3391   */\n      tag_195\n      jump\t// in\n    tag_254:\n        /* \"#utility.yul\":3078:3398   */\n      swap4\n      swap3\n      pop\n      pop\n      pop\n      jump\t// out\n        /* \"#utility.yul\":3404:3526   */\n    tag_197:\n        /* \"#utility.yul\":3477:3501   */\n      tag_256\n        /* \"#utility.yul\":3495:3500   */\n      dup2\n        /* \"#utility.yul\":3477:3501   */\n      tag_182\n      jump\t// in\n    tag_256:\n        /* \"#utility.yul\":3470:3475   */\n      dup2\n        /* \"#utility.yul\":3467:3502   */\n      eq\n        /* \"#utility.yul\":3457:3520   */\n      tag_257\n      jumpi\n        /* \"#utility.yul\":3516:3517   */\n      0x00\n        /* \"#utility.yul\":3513:3514   */\n      dup1\n        /* \"#utility.yul\":3506:3518   */\n      revert\n        /* \"#utility.yul\":3457:3520   */\n    tag_257:\n        /* \"#utility.yul\":3404:3526   */\n      pop\n      jump\t// out\n        /* \"#utility.yul\":3532:3671   */\n    tag_198:\n        /* \"#utility.yul\":3578:3583   */\n      0x00\n        /* \"#utility.yul\":3616:3622   */\n      dup2\n        /* \"#utility.yul\":3603:3623   */\n      calldataload\n        /* \"#utility.yul\":3594:3623   */\n      swap1\n      pop\n        /* \"#utility.yul\":3632:3665   */\n      tag_259\n        /* \"#utility.yul\":3659:3664   */\n      dup2\n        /* \"#utility.yul\":3632:3665   */\n      tag_197\n      jump\t// in\n    tag_259:\n        /* \"#utility.yul\":3532:3671   */\n      swap3\n      swap2\n      pop\n      pop\n      jump\t// out\n        /* \"#utility.yul\":3677:4006   */\n    tag_91:\n        /* \"#utility.yul\":3736:3742   */\n      0x00\n        /* \"#utility.yul\":3785:3787   */\n      0x20\n        /* \"#utility.yul\":3773:3782   */\n      dup3\n        /* \"#utility.yul\":3764:3771   */\n      dup5\n        /* \"#utility.yul\":3760:3783   */\n      sub\n        /* \"#utility.yul\":3756:3788   */\n      slt\n        /* \"#utility.yul\":3753:3872   */\n      iszero\n      tag_261\n      jumpi\n        /* \"#utility.yul\":3791:3870   */\n      tag_262\n      tag_185\n      jump\t// in\n    tag_262:\n        /* \"#utility.yul\":3753:3872   */\n    tag_261:\n        /* \"#utility.yul\":3911:3912   */\n      0x00\n        /* \"#utility.yul\":3936:3989   */\n      tag_263\n        /* \"#utility.yul\":3981:3988   */\n      dup5\n        /* \"#utility.yul\":3972:3978   */\n      dup3\n        /* \"#utility.yul\":3961:3970   */\n      dup6\n        /* \"#utility.yul\":3957:3979   */\n      add\n        /* \"#utility.yul\":3936:3989   */\n      tag_198\n      jump\t// in\n    tag_263:\n        /* \"#utility.yul\":3926:3989   */\n      swap2\n      pop\n        /* \"#utility.yul\":3882:3999   */\n      pop\n        /* \"#utility.yul\":3677:4006   */\n      swap3\n      swap2\n      pop\n      pop\n      jump\t// out\n        /* \"#utility.yul\":4012:4192   */\n    tag_199:\n        /* \"#utility.yul\":4060:4137   */\n      0x4e487b7100000000000000000000000000000000000000000000000000000000\n        /* \"#utility.yul\":4057:4058   */\n      0x00\n        /* \"#utility.yul\":4050:4138   */\n      mstore\n        /* \"#utility.yul\":4157:4161   */\n      0x12\n        /* \"#utility.yul\":4154:4155   */\n      0x04\n        /* \"#utility.yul\":4147:4162   */\n      mstore\n        /* \"#utility.yul\":4181:4185   */\n      0x24\n        /* \"#utility.yul\":4178:4179   */\n      0x00\n        /* \"#utility.yul\":4171:4186   */\n      revert\n        /* \"#utility.yul\":4198:4378   */\n    tag_200:\n        /* \"#utility.yul\":4246:4323   */\n      0x4e487b7100000000000000000000000000000000000000000000000000000000\n        /* \"#utility.yul\":4243:4244   */\n      0x00\n        /* \"#utility.yul\":4236:4324   */\n      mstore\n        /* \"#utility.yul\":4343:4347   */\n      0x11\n        /* \"#utility.yul\":4340:4341   */\n      0x04\n        /* \"#utility.yul\":4333:4348   */\n      mstore\n        /* \"#utility.yul\":4367:4371   */\n      0x24\n        /* \"#utility.yul\":4364:4365   */\n      0x00\n        /* \"#utility.yul\":4357:4372   */\n      revert\n        /* \"#utility.yul\":4384:4563   */\n    tag_126:\n        /* \"#utility.yul\":4422:4423   */\n      0x00\n        /* \"#utility.yul\":4439:4457   */\n      tag_267\n        /* \"#utility.yul\":4455:4456   */\n      dup3\n        /* \"#utility.yul\":4439:4457   */\n      tag_187\n      jump\t// in\n    tag_267:\n        /* \"#utility.yul\":4434:4457   */\n      swap2\n      pop\n        /* \"#utility.yul\":4471:4489   */\n      tag_268\n        /* \"#utility.yul\":4487:4488   */\n      dup4\n        /* \"#utility.yul\":4471:4489   */\n      tag_187\n      jump\t// in\n    tag_268:\n        /* \"#utility.yul\":4466:4489   */\n      swap3\n      pop\n        /* \"#utility.yul\":4508:4509   */\n      dup3\n        /* \"#utility.yul\":4498:4533   */\n      tag_269\n      jumpi\n        /* \"#utility.yul\":4513:4531   */\n      tag_270\n      tag_199\n      jump\t// in\n    tag_270:\n        /* \"#utility.yul\":4498:4533   */\n    tag_269:\n        /* \"#utility.yul\":4555:4556   */\n      dup3\n        /* \"#utility.yul\":4552:4553   */\n      dup3\n        /* \"#utility.yul\":4548:4557   */\n      div\n        /* \"#utility.yul\":4543:4557   */\n      swap1\n      pop\n        /* \"#utility.yul\":4384:4563   */\n      swap3\n      swap2\n      pop\n      pop\n      jump\t// out\n        /* \"#utility.yul\":4569:4979   */\n    tag_128:\n        /* \"#utility.yul\":4609:4616   */\n      0x00\n        /* \"#utility.yul\":4632:4652   */\n      tag_272\n        /* \"#utility.yul\":4650:4651   */\n      dup3\n        /* \"#utility.yul\":4632:4652   */\n      tag_182\n      jump\t// in\n    tag_272:\n        /* \"#utility.yul\":4627:4652   */\n      swap2\n      pop\n        /* \"#utility.yul\":4666:4686   */\n      tag_273\n        /* \"#utility.yul\":4684:4685   */\n      dup4\n        /* \"#utility.yul\":4666:4686   */\n      tag_182\n      jump\t// in\n    tag_273:\n        /* \"#utility.yul\":4661:4686   */\n      swap3\n      pop\n        /* \"#utility.yul\":4721:4722   */\n      dup3\n        /* \"#utility.yul\":4718:4719   */\n      dup3\n        /* \"#utility.yul\":4714:4723   */\n      mul\n        /* \"#utility.yul\":4743:4773   */\n      tag_274\n        /* \"#utility.yul\":4761:4772   */\n      dup2\n        /* \"#utility.yul\":4743:4773   */\n      tag_182\n      jump\t// in\n    tag_274:\n        /* \"#utility.yul\":4732:4773   */\n      swap2\n      pop\n        /* \"#utility.yul\":4922:4923   */\n      dup3\n        /* \"#utility.yul\":4913:4920   */\n      dup3\n        /* \"#utility.yul\":4909:4924   */\n      div\n        /* \"#utility.yul\":4906:4907   */\n      dup5\n        /* \"#utility.yul\":4903:4925   */\n      eq\n        /* \"#utility.yul\":4883:4884   */\n      dup4\n        /* \"#utility.yul\":4876:4885   */\n      iszero\n        /* \"#utility.yul\":4856:4939   */\n      or\n        /* \"#utility.yul\":4833:4972   */\n      tag_275\n      jumpi\n        /* \"#utility.yul\":4952:4970   */\n      tag_276\n      tag_200\n      jump\t// in\n    tag_276:\n        /* \"#utility.yul\":4833:4972   */\n    tag_275:\n        /* \"#utility.yul\":4617:4979   */\n      pop\n        /* \"#utility.yul\":4569:4979   */\n      swap3\n      swap2\n      pop\n      pop\n      jump\t// out\n        /* \"#utility.yul\":4985:5179   */\n    tag_130:\n        /* \"#utility.yul\":5025:5029   */\n      0x00\n        /* \"#utility.yul\":5045:5065   */\n      tag_278\n        /* \"#utility.yul\":5063:5064   */\n      dup3\n        /* \"#utility.yul\":5045:5065   */\n      tag_182\n      jump\t// in\n    tag_278:\n        /* \"#utility.yul\":5040:5065   */\n      swap2\n      pop\n        /* \"#utility.yul\":5079:5099   */\n      tag_279\n        /* \"#utility.yul\":5097:5098   */\n      dup4\n        /* \"#utility.yul\":5079:5099   */\n      tag_182\n      jump\t// in\n    tag_279:\n        /* \"#utility.yul\":5074:5099   */\n      swap3\n      pop\n        /* \"#utility.yul\":5123:5124   */\n      dup3\n        /* \"#utility.yul\":5120:5121   */\n      dup3\n        /* \"#utility.yul\":5116:5125   */\n      sub\n        /* \"#utility.yul\":5108:5125   */\n      swap1\n      pop\n        /* \"#utility.yul\":5147:5148   */\n      dup2\n        /* \"#utility.yul\":5141:5145   */\n      dup2\n        /* \"#utility.yul\":5138:5149   */\n      gt\n        /* \"#utility.yul\":5135:5172   */\n      iszero\n      tag_280\n      jumpi\n        /* \"#utility.yul\":5152:5170   */\n      tag_281\n      tag_200\n      jump\t// in\n    tag_281:\n        /* \"#utility.yul\":5135:5172   */\n    tag_280:\n        /* \"#utility.yul\":4985:5179   */\n      swap3\n      swap2\n      pop\n      pop\n      jump\t// out\n        /* \"#utility.yul\":5185:5376   */\n    tag_132:\n        /* \"#utility.yul\":5225:5228   */\n      0x00\n        /* \"#utility.yul\":5244:5264   */\n      tag_283\n        /* \"#utility.yul\":5262:5263   */\n      dup3\n        /* \"#utility.yul\":5244:5264   */\n      tag_182\n      jump\t// in\n    tag_283:\n        /* \"#utility.yul\":5239:5264   */\n      swap2\n      pop\n        /* \"#utility.yul\":5278:5298   */\n      tag_284\n        /* \"#utility.yul\":5296:5297   */\n      dup4\n        /* \"#utility.yul\":5278:5298   */\n      tag_182\n      jump\t// in\n    tag_284:\n        /* \"#utility.yul\":5273:5298   */\n      swap3\n      pop\n        /* \"#utility.yul\":5321:5322   */\n      dup3\n        /* \"#utility.yul\":5318:5319   */\n      dup3\n        /* \"#utility.yul\":5314:5323   */\n      add\n        /* \"#utility.yul\":5307:5323   */\n      swap1\n      pop\n        /* \"#utility.yul\":5342:5345   */\n      dup1\n        /* \"#utility.yul\":5339:5340   */\n      dup3\n        /* \"#utility.yul\":5336:5346   */\n      gt\n        /* \"#utility.yul\":5333:5369   */\n      iszero\n      tag_285\n      jumpi\n        /* \"#utility.yul\":5349:5367   */\n      tag_286\n      tag_200\n      jump\t// in\n    tag_286:\n        /* \"#utility.yul\":5333:5369   */\n    tag_285:\n        /* \"#utility.yul\":5185:5376   */\n      swap3\n      swap2\n      pop\n      pop\n      jump\t// out\n        /* \"#utility.yul\":5382:5551   */\n    tag_201:\n        /* \"#utility.yul\":5466:5477   */\n      0x00\n        /* \"#utility.yul\":5500:5506   */\n      dup3\n        /* \"#utility.yul\":5495:5498   */\n      dup3\n        /* \"#utility.yul\":5488:5507   */\n      mstore\n        /* \"#utility.yul\":5540:5544   */\n      0x20\n        /* \"#utility.yul\":5535:5538   */\n      dup3\n        /* \"#utility.yul\":5531:5545   */\n      add\n        /* \"#utility.yul\":5516:5545   */\n      swap1\n      pop\n        /* \"#utility.yul\":5382:5551   */\n      swap3\n      swap2\n      pop\n      pop\n      jump\t// out\n        /* \"#utility.yul\":5557:5807   */\n    tag_202:\n        /* \"#utility.yul\":5697:5731   */\n      0x42696420616d6f756e742069732067726561746572207468616e20617661696c\n        /* \"#utility.yul\":5693:5694   */\n      0x00\n        /* \"#utility.yul\":5685:5691   */\n      dup3\n        /* \"#utility.yul\":5681:5695   */\n      add\n        /* \"#utility.yul\":5674:5732   */\n      mstore\n        /* \"#utility.yul\":5766:5799   */\n      0x61626c65206e756d626572206f6620746f6b656e7320666f722073616c652e00\n        /* \"#utility.yul\":5761:5763   */\n      0x20\n        /* \"#utility.yul\":5753:5759   */\n      dup3\n        /* \"#utility.yul\":5749:5764   */\n      add\n        /* \"#utility.yul\":5742:5800   */\n      mstore\n        /* \"#utility.yul\":5557:5807   */\n      pop\n      jump\t// out\n        /* \"#utility.yul\":5813:6179   */\n    tag_203:\n        /* \"#utility.yul\":5955:5958   */\n      0x00\n        /* \"#utility.yul\":5976:6043   */\n      tag_290\n        /* \"#utility.yul\":6040:6042   */\n      0x3f\n        /* \"#utility.yul\":6035:6038   */\n      dup4\n        /* \"#utility.yul\":5976:6043   */\n      tag_201\n      jump\t// in\n    tag_290:\n        /* \"#utility.yul\":5969:6043   */\n      swap2\n      pop\n        /* \"#utility.yul\":6052:6145   */\n      tag_291\n        /* \"#utility.yul\":6141:6144   */\n      dup3\n        /* \"#utility.yul\":6052:6145   */\n      tag_202\n      jump\t// in\n    tag_291:\n        /* \"#utility.yul\":6170:6172   */\n      0x40\n        /* \"#utility.yul\":6165:6168   */\n      dup3\n        /* \"#utility.yul\":6161:6173   */\n      add\n        /* \"#utility.yul\":6154:6173   */\n      swap1\n      pop\n        /* \"#utility.yul\":5813:6179   */\n      swap2\n      swap1\n      pop\n      jump\t// out\n        /* \"#utility.yul\":6185:6604   */\n    tag_136:\n        /* \"#utility.yul\":6351:6355   */\n      0x00\n        /* \"#utility.yul\":6389:6391   */\n      0x20\n        /* \"#utility.yul\":6378:6387   */\n      dup3\n        /* \"#utility.yul\":6374:6392   */\n      add\n        /* \"#utility.yul\":6366:6392   */\n      swap1\n      pop\n        /* \"#utility.yul\":6438:6447   */\n      dup2\n        /* \"#utility.yul\":6432:6436   */\n      dup2\n        /* \"#utility.yul\":6428:6448   */\n      sub\n        /* \"#utility.yul\":6424:6425   */\n      0x00\n        /* \"#utility.yul\":6413:6422   */\n      dup4\n        /* \"#utility.yul\":6409:6426   */\n      add\n        /* \"#utility.yul\":6402:6449   */\n      mstore\n        /* \"#utility.yul\":6466:6597   */\n      tag_293\n        /* \"#utility.yul\":6592:6596   */\n      dup2\n        /* \"#utility.yul\":6466:6597   */\n      tag_203\n      jump\t// in\n    tag_293:\n        /* \"#utility.yul\":6458:6597   */\n      swap1\n      pop\n        /* \"#utility.yul\":6185:6604   */\n      swap2\n      swap1\n      pop\n      jump\t// out\n        /* \"#utility.yul\":6610:6837   */\n    tag_204:\n        /* \"#utility.yul\":6750:6784   */\n      0x596f75206861766520746f20706c616365206120626964206f66203120455448\n        /* \"#utility.yul\":6746:6747   */\n      0x00\n        /* \"#utility.yul\":6738:6744   */\n      dup3\n        /* \"#utility.yul\":6734:6748   */\n      add\n        /* \"#utility.yul\":6727:6785   */\n      mstore\n        /* \"#utility.yul\":6819:6829   */\n      0x206d696e696d756d000000000000000000000000000000000000000000000000\n        /* \"#utility.yul\":6814:6816   */\n      0x20\n        /* \"#utility.yul\":6806:6812   */\n      dup3\n        /* \"#utility.yul\":6802:6817   */\n      add\n        /* \"#utility.yul\":6795:6830   */\n      mstore\n        /* \"#utility.yul\":6610:6837   */\n      pop\n      jump\t// out\n        /* \"#utility.yul\":6843:7209   */\n    tag_205:\n        /* \"#utility.yul\":6985:6988   */\n      0x00\n        /* \"#utility.yul\":7006:7073   */\n      tag_296\n        /* \"#utility.yul\":7070:7072   */\n      0x28\n        /* \"#utility.yul\":7065:7068   */\n      dup4\n        /* \"#utility.yul\":7006:7073   */\n      tag_201\n      jump\t// in\n    tag_296:\n        /* \"#utility.yul\":6999:7073   */\n      swap2\n      pop\n        /* \"#utility.yul\":7082:7175   */\n      tag_297\n        /* \"#utility.yul\":7171:7174   */\n      dup3\n        /* \"#utility.yul\":7082:7175   */\n      tag_204\n      jump\t// in\n    tag_297:\n        /* \"#utility.yul\":7200:7202   */\n      0x40\n        /* \"#utility.yul\":7195:7198   */\n      dup3\n        /* \"#utility.yul\":7191:7203   */\n      add\n        /* \"#utility.yul\":7184:7203   */\n      swap1\n      pop\n        /* \"#utility.yul\":6843:7209   */\n      swap2\n      swap1\n      pop\n      jump\t// out\n        /* \"#utility.yul\":7215:7634   */\n    tag_139:\n        /* \"#utility.yul\":7381:7385   */\n      0x00\n        /* \"#utility.yul\":7419:7421   */\n      0x20\n        /* \"#utility.yul\":7408:7417   */\n      dup3\n        /* \"#utility.yul\":7404:7422   */\n      add\n        /* \"#utility.yul\":7396:7422   */\n      swap1\n      pop\n        /* \"#utility.yul\":7468:7477   */\n      dup2\n        /* \"#utility.yul\":7462:7466   */\n      dup2\n        /* \"#utility.yul\":7458:7478   */\n      sub\n        /* \"#utility.yul\":7454:7455   */\n      0x00\n        /* \"#utility.yul\":7443:7452   */\n      dup4\n        /* \"#utility.yul\":7439:7456   */\n      add\n        /* \"#utility.yul\":7432:7479   */\n      mstore\n        /* \"#utility.yul\":7496:7627   */\n      tag_299\n        /* \"#utility.yul\":7622:7626   */\n      dup2\n        /* \"#utility.yul\":7496:7627   */\n      tag_205\n      jump\t// in\n    tag_299:\n        /* \"#utility.yul\":7488:7627   */\n      swap1\n      pop\n        /* \"#utility.yul\":7215:7634   */\n      swap2\n      swap1\n      pop\n      jump\t// out\n        /* \"#utility.yul\":7640:7803   */\n    tag_206:\n        /* \"#utility.yul\":7780:7795   */\n      0x49434f2068617320656e64656400000000000000000000000000000000000000\n        /* \"#utility.yul\":7776:7777   */\n      0x00\n        /* \"#utility.yul\":7768:7774   */\n      dup3\n        /* \"#utility.yul\":7764:7778   */\n      add\n        /* \"#utility.yul\":7757:7796   */\n      mstore\n        /* \"#utility.yul\":7640:7803   */\n      pop\n      jump\t// out\n        /* \"#utility.yul\":7809:8175   */\n    tag_207:\n        /* \"#utility.yul\":7951:7954   */\n      0x00\n        /* \"#utility.yul\":7972:8039   */\n      tag_302\n        /* \"#utility.yul\":8036:8038   */\n      0x0d\n        /* \"#utility.yul\":8031:8034   */\n      dup4\n        /* \"#utility.yul\":7972:8039   */\n      tag_201\n      jump\t// in\n    tag_302:\n        /* \"#utility.yul\":7965:8039   */\n      swap2\n      pop\n        /* \"#utility.yul\":8048:8141   */\n      tag_303\n        /* \"#utility.yul\":8137:8140   */\n      dup3\n        /* \"#utility.yul\":8048:8141   */\n      tag_206\n      jump\t// in\n    tag_303:\n        /* \"#utility.yul\":8166:8168   */\n      0x20\n        /* \"#utility.yul\":8161:8164   */\n      dup3\n        /* \"#utility.yul\":8157:8169   */\n      add\n        /* \"#utility.yul\":8150:8169   */\n      swap1\n      pop\n        /* \"#utility.yul\":7809:8175   */\n      swap2\n      swap1\n      pop\n      jump\t// out\n        /* \"#utility.yul\":8181:8600   */\n    tag_142:\n        /* \"#utility.yul\":8347:8351   */\n      0x00\n        /* \"#utility.yul\":8385:8387   */\n      0x20\n        /* \"#utility.yul\":8374:8383   */\n      dup3\n        /* \"#utility.yul\":8370:8388   */\n      add\n        /* \"#utility.yul\":8362:8388   */\n      swap1\n      pop\n        /* \"#utility.yul\":8434:8443   */\n      dup2\n        /* \"#utility.yul\":8428:8432   */\n      dup2\n        /* \"#utility.yul\":8424:8444   */\n      sub\n        /* \"#utility.yul\":8420:8421   */\n      0x00\n        /* \"#utility.yul\":8409:8418   */\n      dup4\n        /* \"#utility.yul\":8405:8422   */\n      add\n        /* \"#utility.yul\":8398:8445   */\n      mstore\n        /* \"#utility.yul\":8462:8593   */\n      tag_305\n        /* \"#utility.yul\":8588:8592   */\n      dup2\n        /* \"#utility.yul\":8462:8593   */\n      tag_207\n      jump\t// in\n    tag_305:\n        /* \"#utility.yul\":8454:8593   */\n      swap1\n      pop\n        /* \"#utility.yul\":8181:8600   */\n      swap2\n      swap1\n      pop\n      jump\t// out\n        /* \"#utility.yul\":8606:8782   */\n    tag_208:\n        /* \"#utility.yul\":8746:8774   */\n      0x426964206d7573742062652067726561746572207468616e2030000000000000\n        /* \"#utility.yul\":8742:8743   */\n      0x00\n        /* \"#utility.yul\":8734:8740   */\n      dup3\n        /* \"#utility.yul\":8730:8744   */\n      add\n        /* \"#utility.yul\":8723:8775   */\n      mstore\n        /* \"#utility.yul\":8606:8782   */\n      pop\n      jump\t// out\n        /* \"#utility.yul\":8788:9154   */\n    tag_209:\n        /* \"#utility.yul\":8930:8933   */\n      0x00\n        /* \"#utility.yul\":8951:9018   */\n      tag_308\n        /* \"#utility.yul\":9015:9017   */\n      0x1a\n        /* \"#utility.yul\":9010:9013   */\n      dup4\n        /* \"#utility.yul\":8951:9018   */\n      tag_201\n      jump\t// in\n    tag_308:\n        /* \"#utility.yul\":8944:9018   */\n      swap2\n      pop\n        /* \"#utility.yul\":9027:9120   */\n      tag_309\n        /* \"#utility.yul\":9116:9119   */\n      dup3\n        /* \"#utility.yul\":9027:9120   */\n      tag_208\n      jump\t// in\n    tag_309:\n        /* \"#utility.yul\":9145:9147   */\n      0x20\n        /* \"#utility.yul\":9140:9143   */\n      dup3\n        /* \"#utility.yul\":9136:9148   */\n      add\n        /* \"#utility.yul\":9129:9148   */\n      swap1\n      pop\n        /* \"#utility.yul\":8788:9154   */\n      swap2\n      swap1\n      pop\n      jump\t// out\n        /* \"#utility.yul\":9160:9579   */\n    tag_145:\n        /* \"#utility.yul\":9326:9330   */\n      0x00\n        /* \"#utility.yul\":9364:9366   */\n      0x20\n        /* \"#utility.yul\":9353:9362   */\n      dup3\n        /* \"#utility.yul\":9349:9367   */\n      add\n        /* \"#utility.yul\":9341:9367   */\n      swap1\n      pop\n        /* \"#utility.yul\":9413:9422   */\n      dup2\n        /* \"#utility.yul\":9407:9411   */\n      dup2\n        /* \"#utility.yul\":9403:9423   */\n      sub\n        /* \"#utility.yul\":9399:9400   */\n      0x00\n        /* \"#utility.yul\":9388:9397   */\n      dup4\n        /* \"#utility.yul\":9384:9401   */\n      add\n        /* \"#utility.yul\":9377:9424   */\n      mstore\n        /* \"#utility.yul\":9441:9572   */\n      tag_311\n        /* \"#utility.yul\":9567:9571   */\n      dup2\n        /* \"#utility.yul\":9441:9572   */\n      tag_209\n      jump\t// in\n    tag_311:\n        /* \"#utility.yul\":9433:9572   */\n      swap1\n      pop\n        /* \"#utility.yul\":9160:9579   */\n      swap2\n      swap1\n      pop\n      jump\t// out\n        /* \"#utility.yul\":9585:9755   */\n    tag_210:\n        /* \"#utility.yul\":9725:9747   */\n      0x4e6f7420666c6167676564206173206120626f74000000000000000000000000\n        /* \"#utility.yul\":9721:9722   */\n      0x00\n        /* \"#utility.yul\":9713:9719   */\n      dup3\n        /* \"#utility.yul\":9709:9723   */\n      add\n        /* \"#utility.yul\":9702:9748   */\n      mstore\n        /* \"#utility.yul\":9585:9755   */\n      pop\n      jump\t// out\n        /* \"#utility.yul\":9761:10127   */\n    tag_211:\n        /* \"#utility.yul\":9903:9906   */\n      0x00\n        /* \"#utility.yul\":9924:9991   */\n      tag_314\n        /* \"#utility.yul\":9988:9990   */\n      0x14\n        /* \"#utility.yul\":9983:9986   */\n      dup4\n        /* \"#utility.yul\":9924:9991   */\n      tag_201\n      jump\t// in\n    tag_314:\n        /* \"#utility.yul\":9917:9991   */\n      swap2\n      pop\n        /* \"#utility.yul\":10000:10093   */\n      tag_315\n        /* \"#utility.yul\":10089:10092   */\n      dup3\n        /* \"#utility.yul\":10000:10093   */\n      tag_210\n      jump\t// in\n    tag_315:\n        /* \"#utility.yul\":10118:10120   */\n      0x20\n        /* \"#utility.yul\":10113:10116   */\n      dup3\n        /* \"#utility.yul\":10109:10121   */\n      add\n        /* \"#utility.yul\":10102:10121   */\n      swap1\n      pop\n        /* \"#utility.yul\":9761:10127   */\n      swap2\n      swap1\n      pop\n      jump\t// out\n        /* \"#utility.yul\":10133:10552   */\n    tag_160:\n        /* \"#utility.yul\":10299:10303   */\n      0x00\n        /* \"#utility.yul\":10337:10339   */\n      0x20\n        /* \"#utility.yul\":10326:10335   */\n      dup3\n        /* \"#utility.yul\":10322:10340   */\n      add\n        /* \"#utility.yul\":10314:10340   */\n      swap1\n      pop\n        /* \"#utility.yul\":10386:10395   */\n      dup2\n        /* \"#utility.yul\":10380:10384   */\n      dup2\n        /* \"#utility.yul\":10376:10396   */\n      sub\n        /* \"#utility.yul\":10372:10373   */\n      0x00\n        /* \"#utility.yul\":10361:10370   */\n      dup4\n        /* \"#utility.yul\":10357:10374   */\n      add\n        /* \"#utility.yul\":10350:10397   */\n      mstore\n        /* \"#utility.yul\":10414:10545   */\n      tag_317\n        /* \"#utility.yul\":10540:10544   */\n      dup2\n        /* \"#utility.yul\":10414:10545   */\n      tag_211\n      jump\t// in\n    tag_317:\n        /* \"#utility.yul\":10406:10545   */\n      swap1\n      pop\n        /* \"#utility.yul\":10133:10552   */\n      swap2\n      swap1\n      pop\n      jump\t// out\n\n    auxdata: 0xa26469706673582212209f3c47071b7cb86ed8e2105b2c54c0eb13157b67aba92a189ad860994ddbe05e64736f6c634300081a0033\n}\n",
				"bytecode": {
					"linkReferences": {},
					"object": "60806040526207a120600955348015610016575f80fd5b5060405161150d38038061150d833981810160405281019061003891906102a6565b335f73ffffffffffffffffffffffffffffffffffffffff168173ffffffffffffffffffffffffffffffffffffffff16036100a9575f6040517f1e4fbdf70000000000000000000000000000000000000000000000000000000081526004016100a091906102f3565b60405180910390fd5b6100b88161015460201b60201c565b508160018190555060026001546100cf9190610366565b6002819055508060035f6101000a81548173ffffffffffffffffffffffffffffffffffffffff021916908373ffffffffffffffffffffffffffffffffffffffff160217905550426005819055506202a30060055461012d9190610396565b6006819055505f600c60146101000a81548160ff02191690831515021790555050506103c9565b5f805f9054906101000a900473ffffffffffffffffffffffffffffffffffffffff169050815f806101000a81548173ffffffffffffffffffffffffffffffffffffffff021916908373ffffffffffffffffffffffffffffffffffffffff1602179055508173ffffffffffffffffffffffffffffffffffffffff168173ffffffffffffffffffffffffffffffffffffffff167f8be0079c531659141344cd1fd0a4f28419497f9722a3daafe3b4186f6b6457e060405160405180910390a35050565b5f80fd5b5f819050919050565b61022b81610219565b8114610235575f80fd5b50565b5f8151905061024681610222565b92915050565b5f73ffffffffffffffffffffffffffffffffffffffff82169050919050565b5f6102758261024c565b9050919050565b6102858161026b565b811461028f575f80fd5b50565b5f815190506102a08161027c565b92915050565b5f80604083850312156102bc576102bb610215565b5b5f6102c985828601610238565b92505060206102da85828601610292565b9150509250929050565b6102ed8161026b565b82525050565b5f6020820190506103065f8301846102e4565b92915050565b7f4e487b71000000000000000000000000000000000000000000000000000000005f52601260045260245ffd5b7f4e487b71000000000000000000000000000000000000000000000000000000005f52601160045260245ffd5b5f61037082610219565b915061037b83610219565b92508261038b5761038a61030c565b5b828204905092915050565b5f6103a082610219565b91506103ab83610219565b92508282019050808211156103c3576103c2610339565b5b92915050565b611137806103d65f395ff3fe608060405260043610610129575f3560e01c80636c88268b116100aa578063c23eaf071161006e578063c23eaf07146103b6578063cde8e5d3146103de578063cff29dfd14610408578063e35568cb14610444578063f0f442601461046e578063f2fde38b1461049657610129565b80636c88268b146102e6578063715018a61461031057806378e97925146103265780638da5cb5b14610350578063a2fb11751461037a57610129565b80633bbac579116100f15780633bbac579146101fd578063585ac3e8146102395780636156fe6a1461026357806361d027b31461027f57806362ea82db146102a957610129565b806312aef8c31461012d57806318160ddd146101575780633197cbb61461018157806336bdee74146101ab57806339783304146101d5575b5f80fd5b348015610138575f80fd5b506101416104be565b60405161014e9190610b92565b60405180910390f35b348015610162575f80fd5b5061016b6104c4565b6040516101789190610b92565b60405180910390f35b34801561018c575f80fd5b506101956104ca565b6040516101a29190610b92565b60405180910390f35b3480156101b6575f80fd5b506101bf6104d0565b6040516101cc9190610b92565b60405180910390f35b3480156101e0575f80fd5b506101fb60048036038101906101f69190610be5565b6104d6565b005b348015610208575f80fd5b50610223600480360381019061021e9190610c6a565b61054f565b6040516102309190610caf565b60405180910390f35b348015610244575f80fd5b5061024d61056c565b60405161025a9190610caf565b60405180910390f35b61027d60048036038101906102789190610be5565b61057f565b005b34801561028a575f80fd5b50610293610795565b6040516102a09190610cd7565b60405180910390f35b3480156102b4575f80fd5b506102cf60048036038101906102ca9190610c6a565b6107ba565b6040516102dd929190610cf0565b60405180910390f35b3480156102f1575f80fd5b506102fa6107e6565b6040516103079190610cd7565b60405180910390f35b34801561031b575f80fd5b5061032461080b565b005b348015610331575f80fd5b5061033a61081e565b6040516103479190610b92565b60405180910390f35b34801561035b575f80fd5b50610364610824565b6040516103719190610cd7565b60405180910390f35b348015610385575f80fd5b506103a0600480360381019061039b9190610d41565b61084b565b6040516103ad9190610cd7565b60405180910390f35b3480156103c1575f80fd5b506103dc60048036038101906103d79190610c6a565b610886565b005b3480156103e9575f80fd5b506103f2610912565b6040516103ff9190610b92565b60405180910390f35b348015610413575f80fd5b5061042e60048036038101906104299190610d41565b610918565b60405161043b9190610cd7565b60405180910390f35b34801561044f575f80fd5b50610458610953565b6040516104659190610b92565b60405180910390f35b348015610479575f80fd5b50610494600480360381019061048f9190610c6a565b61095c565b005b3480156104a1575f80fd5b506104bc60048036038101906104b79190610c6a565b6109a7565b005b60025481565b60015481565b60065481565b60045481565b6104de610a2b565b5f8160ff161180156104f3575060648160ff16105b6104fb575f80fd5b5f60015460648361050c9190610dc6565b60ff166105199190610df6565b90508060015f82825461052c9190610e37565b925050819055508060025f8282546105449190610e6a565b925050819055505050565b600b602052805f5260405f205f915054906101000a900460ff1681565b600c60149054906101000a900460ff1681565b6002548160ff16106105c6576040517f08c379a00000000000000000000000000000000000000000000000000000000081526004016105bd90610f1d565b60405180910390fd5b670de0b6b3a76400003411610610576040517f08c379a000000000000000000000000000000000000000000000000000000000815260040161060790610fab565b60405180910390fd5b6006544210610654576040517f08c379a000000000000000000000000000000000000000000000000000000000815260040161064b90611013565b60405180910390fd5b5f3411610696576040517f08c379a000000000000000000000000000000000000000000000000000000000815260040161068d9061107b565b60405180910390fd5b5f60075f3373ffffffffffffffffffffffffffffffffffffffff1673ffffffffffffffffffffffffffffffffffffffff1681526020019081526020015f205f01540361073d57600833908060018154018082558091505060019003905f5260205f20015f9091909190916101000a81548173ffffffffffffffffffffffffffffffffffffffff021916908373ffffffffffffffffffffffffffffffffffffffff1602179055505b3460075f3373ffffffffffffffffffffffffffffffffffffffff1673ffffffffffffffffffffffffffffffffffffffff1681526020019081526020015f205f015f82825461078b9190610e6a565b9250508190555050565b60035f9054906101000a900473ffffffffffffffffffffffffffffffffffffffff1681565b6007602052805f5260405f205f91509050805f015490806001015f9054906101000a900460ff16905082565b600c5f9054906101000a900473ffffffffffffffffffffffffffffffffffffffff1681565b610813610a2b565b61081c5f610ab2565b565b60055481565b5f805f9054906101000a900473ffffffffffffffffffffffffffffffffffffffff16905090565b600a818154811061085a575f80fd5b905f5260205f20015f915054906101000a900473ffffffffffffffffffffffffffffffffffffffff1681565b600b5f8273ffffffffffffffffffffffffffffffffffffffff1673ffffffffffffffffffffffffffffffffffffffff1681526020019081526020015f205f9054906101000a900460ff1661090f576040517f08c379a0000000000000000000000000000000000000000000000000000000008152600401610906906110e3565b60405180910390fd5b50565b60095481565b60088181548110610927575f80fd5b905f5260205f20015f915054906101000a900473ffffffffffffffffffffffffffffffffffffffff1681565b5f600254905090565b610964610a2b565b8060035f6101000a81548173ffffffffffffffffffffffffffffffffffffffff021916908373ffffffffffffffffffffffffffffffffffffffff16021790555050565b6109af610a2b565b5f73ffffffffffffffffffffffffffffffffffffffff168173ffffffffffffffffffffffffffffffffffffffff1603610a1f575f6040517f1e4fbdf7000000000000000000000000000000000000000000000000000000008152600401610a169190610cd7565b60405180910390fd5b610a2881610ab2565b50565b610a33610b73565b73ffffffffffffffffffffffffffffffffffffffff16610a51610824565b73ffffffffffffffffffffffffffffffffffffffff1614610ab057610a74610b73565b6040517f118cdaa7000000000000000000000000000000000000000000000000000000008152600401610aa79190610cd7565b60405180910390fd5b565b5f805f9054906101000a900473ffffffffffffffffffffffffffffffffffffffff169050815f806101000a81548173ffffffffffffffffffffffffffffffffffffffff021916908373ffffffffffffffffffffffffffffffffffffffff1602179055508173ffffffffffffffffffffffffffffffffffffffff168173ffffffffffffffffffffffffffffffffffffffff167f8be0079c531659141344cd1fd0a4f28419497f9722a3daafe3b4186f6b6457e060405160405180910390a35050565b5f33905090565b5f819050919050565b610b8c81610b7a565b82525050565b5f602082019050610ba55f830184610b83565b92915050565b5f80fd5b5f60ff82169050919050565b610bc481610baf565b8114610bce575f80fd5b50565b5f81359050610bdf81610bbb565b92915050565b5f60208284031215610bfa57610bf9610bab565b5b5f610c0784828501610bd1565b91505092915050565b5f73ffffffffffffffffffffffffffffffffffffffff82169050919050565b5f610c3982610c10565b9050919050565b610c4981610c2f565b8114610c53575f80fd5b50565b5f81359050610c6481610c40565b92915050565b5f60208284031215610c7f57610c7e610bab565b5b5f610c8c84828501610c56565b91505092915050565b5f8115159050919050565b610ca981610c95565b82525050565b5f602082019050610cc25f830184610ca0565b92915050565b610cd181610c2f565b82525050565b5f602082019050610cea5f830184610cc8565b92915050565b5f604082019050610d035f830185610b83565b610d106020830184610ca0565b9392505050565b610d2081610b7a565b8114610d2a575f80fd5b50565b5f81359050610d3b81610d17565b92915050565b5f60208284031215610d5657610d55610bab565b5b5f610d6384828501610d2d565b91505092915050565b7f4e487b71000000000000000000000000000000000000000000000000000000005f52601260045260245ffd5b7f4e487b71000000000000000000000000000000000000000000000000000000005f52601160045260245ffd5b5f610dd082610baf565b9150610ddb83610baf565b925082610deb57610dea610d6c565b5b828204905092915050565b5f610e0082610b7a565b9150610e0b83610b7a565b9250828202610e1981610b7a565b91508282048414831517610e3057610e2f610d99565b5b5092915050565b5f610e4182610b7a565b9150610e4c83610b7a565b9250828203905081811115610e6457610e63610d99565b5b92915050565b5f610e7482610b7a565b9150610e7f83610b7a565b9250828201905080821115610e9757610e96610d99565b5b92915050565b5f82825260208201905092915050565b7f42696420616d6f756e742069732067726561746572207468616e20617661696c5f8201527f61626c65206e756d626572206f6620746f6b656e7320666f722073616c652e00602082015250565b5f610f07603f83610e9d565b9150610f1282610ead565b604082019050919050565b5f6020820190508181035f830152610f3481610efb565b9050919050565b7f596f75206861766520746f20706c616365206120626964206f662031204554485f8201527f206d696e696d756d000000000000000000000000000000000000000000000000602082015250565b5f610f95602883610e9d565b9150610fa082610f3b565b604082019050919050565b5f6020820190508181035f830152610fc281610f89565b9050919050565b7f49434f2068617320656e646564000000000000000000000000000000000000005f82015250565b5f610ffd600d83610e9d565b915061100882610fc9565b602082019050919050565b5f6020820190508181035f83015261102a81610ff1565b9050919050565b7f426964206d7573742062652067726561746572207468616e20300000000000005f82015250565b5f611065601a83610e9d565b915061107082611031565b602082019050919050565b5f6020820190508181035f83015261109281611059565b9050919050565b7f4e6f7420666c6167676564206173206120626f740000000000000000000000005f82015250565b5f6110cd601483610e9d565b91506110d882611099565b602082019050919050565b5f6020820190508181035f8301526110fa816110c1565b905091905056fea26469706673582212209f3c47071b7cb86ed8e2105b2c54c0eb13157b67aba92a189ad860994ddbe05e64736f6c634300081a0033",
					"opcodes": "PUSH1 0x80 PUSH1 0x40 MSTORE PUSH3 0x7A120 PUSH1 0x9 SSTORE CALLVALUE DUP1 ISZERO PUSH2 0x16 JUMPI PUSH0 DUP1 REVERT JUMPDEST POP PUSH1 0x40 MLOAD PUSH2 0x150D CODESIZE SUB DUP1 PUSH2 0x150D DUP4 CODECOPY DUP2 DUP2 ADD PUSH1 0x40 MSTORE DUP2 ADD SWAP1 PUSH2 0x38 SWAP2 SWAP1 PUSH2 0x2A6 JUMP JUMPDEST CALLER PUSH0 PUSH20 0xFFFFFFFFFFFFFFFFFFFFFFFFFFFFFFFFFFFFFFFF AND DUP2 PUSH20 0xFFFFFFFFFFFFFFFFFFFFFFFFFFFFFFFFFFFFFFFF AND SUB PUSH2 0xA9 JUMPI PUSH0 PUSH1 0x40 MLOAD PUSH32 0x1E4FBDF700000000000000000000000000000000000000000000000000000000 DUP2 MSTORE PUSH1 0x4 ADD PUSH2 0xA0 SWAP2 SWAP1 PUSH2 0x2F3 JUMP JUMPDEST PUSH1 0x40 MLOAD DUP1 SWAP2 SUB SWAP1 REVERT JUMPDEST PUSH2 0xB8 DUP2 PUSH2 0x154 PUSH1 0x20 SHL PUSH1 0x20 SHR JUMP JUMPDEST POP DUP2 PUSH1 0x1 DUP2 SWAP1 SSTORE POP PUSH1 0x2 PUSH1 0x1 SLOAD PUSH2 0xCF SWAP2 SWAP1 PUSH2 0x366 JUMP JUMPDEST PUSH1 0x2 DUP2 SWAP1 SSTORE POP DUP1 PUSH1 0x3 PUSH0 PUSH2 0x100 EXP DUP2 SLOAD DUP2 PUSH20 0xFFFFFFFFFFFFFFFFFFFFFFFFFFFFFFFFFFFFFFFF MUL NOT AND SWAP1 DUP4 PUSH20 0xFFFFFFFFFFFFFFFFFFFFFFFFFFFFFFFFFFFFFFFF AND MUL OR SWAP1 SSTORE POP TIMESTAMP PUSH1 0x5 DUP2 SWAP1 SSTORE POP PUSH3 0x2A300 PUSH1 0x5 SLOAD PUSH2 0x12D SWAP2 SWAP1 PUSH2 0x396 JUMP JUMPDEST PUSH1 0x6 DUP2 SWAP1 SSTORE POP PUSH0 PUSH1 0xC PUSH1 0x14 PUSH2 0x100 EXP DUP2 SLOAD DUP2 PUSH1 0xFF MUL NOT AND SWAP1 DUP4 ISZERO ISZERO MUL OR SWAP1 SSTORE POP POP POP PUSH2 0x3C9 JUMP JUMPDEST PUSH0 DUP1 PUSH0 SWAP1 SLOAD SWAP1 PUSH2 0x100 EXP SWAP1 DIV PUSH20 0xFFFFFFFFFFFFFFFFFFFFFFFFFFFFFFFFFFFFFFFF AND SWAP1 POP DUP2 PUSH0 DUP1 PUSH2 0x100 EXP DUP2 SLOAD DUP2 PUSH20 0xFFFFFFFFFFFFFFFFFFFFFFFFFFFFFFFFFFFFFFFF MUL NOT AND SWAP1 DUP4 PUSH20 0xFFFFFFFFFFFFFFFFFFFFFFFFFFFFFFFFFFFFFFFF AND MUL OR SWAP1 SSTORE POP DUP2 PUSH20 0xFFFFFFFFFFFFFFFFFFFFFFFFFFFFFFFFFFFFFFFF AND DUP2 PUSH20 0xFFFFFFFFFFFFFFFFFFFFFFFFFFFFFFFFFFFFFFFF AND PUSH32 0x8BE0079C531659141344CD1FD0A4F28419497F9722A3DAAFE3B4186F6B6457E0 PUSH1 0x40 MLOAD PUSH1 0x40 MLOAD DUP1 SWAP2 SUB SWAP1 LOG3 POP POP JUMP JUMPDEST PUSH0 DUP1 REVERT JUMPDEST PUSH0 DUP2 SWAP1 POP SWAP2 SWAP1 POP JUMP JUMPDEST PUSH2 0x22B DUP2 PUSH2 0x219 JUMP JUMPDEST DUP2 EQ PUSH2 0x235 JUMPI PUSH0 DUP1 REVERT JUMPDEST POP JUMP JUMPDEST PUSH0 DUP2 MLOAD SWAP1 POP PUSH2 0x246 DUP2 PUSH2 0x222 JUMP JUMPDEST SWAP3 SWAP2 POP POP JUMP JUMPDEST PUSH0 PUSH20 0xFFFFFFFFFFFFFFFFFFFFFFFFFFFFFFFFFFFFFFFF DUP3 AND SWAP1 POP SWAP2 SWAP1 POP JUMP JUMPDEST PUSH0 PUSH2 0x275 DUP3 PUSH2 0x24C JUMP JUMPDEST SWAP1 POP SWAP2 SWAP1 POP JUMP JUMPDEST PUSH2 0x285 DUP2 PUSH2 0x26B JUMP JUMPDEST DUP2 EQ PUSH2 0x28F JUMPI PUSH0 DUP1 REVERT JUMPDEST POP JUMP JUMPDEST PUSH0 DUP2 MLOAD SWAP1 POP PUSH2 0x2A0 DUP2 PUSH2 0x27C JUMP JUMPDEST SWAP3 SWAP2 POP POP JUMP JUMPDEST PUSH0 DUP1 PUSH1 0x40 DUP4 DUP6 SUB SLT ISZERO PUSH2 0x2BC JUMPI PUSH2 0x2BB PUSH2 0x215 JUMP JUMPDEST JUMPDEST PUSH0 PUSH2 0x2C9 DUP6 DUP3 DUP7 ADD PUSH2 0x238 JUMP JUMPDEST SWAP3 POP POP PUSH1 0x20 PUSH2 0x2DA DUP6 DUP3 DUP7 ADD PUSH2 0x292 JUMP JUMPDEST SWAP2 POP POP SWAP3 POP SWAP3 SWAP1 POP JUMP JUMPDEST PUSH2 0x2ED DUP2 PUSH2 0x26B JUMP JUMPDEST DUP3 MSTORE POP POP JUMP JUMPDEST PUSH0 PUSH1 0x20 DUP3 ADD SWAP1 POP PUSH2 0x306 PUSH0 DUP4 ADD DUP5 PUSH2 0x2E4 JUMP JUMPDEST SWAP3 SWAP2 POP POP JUMP JUMPDEST PUSH32 0x4E487B7100000000000000000000000000000000000000000000000000000000 PUSH0 MSTORE PUSH1 0x12 PUSH1 0x4 MSTORE PUSH1 0x24 PUSH0 REVERT JUMPDEST PUSH32 0x4E487B7100000000000000000000000000000000000000000000000000000000 PUSH0 MSTORE PUSH1 0x11 PUSH1 0x4 MSTORE PUSH1 0x24 PUSH0 REVERT JUMPDEST PUSH0 PUSH2 0x370 DUP3 PUSH2 0x219 JUMP JUMPDEST SWAP2 POP PUSH2 0x37B DUP4 PUSH2 0x219 JUMP JUMPDEST SWAP3 POP DUP3 PUSH2 0x38B JUMPI PUSH2 0x38A PUSH2 0x30C JUMP JUMPDEST JUMPDEST DUP3 DUP3 DIV SWAP1 POP SWAP3 SWAP2 POP POP JUMP JUMPDEST PUSH0 PUSH2 0x3A0 DUP3 PUSH2 0x219 JUMP JUMPDEST SWAP2 POP PUSH2 0x3AB DUP4 PUSH2 0x219 JUMP JUMPDEST SWAP3 POP DUP3 DUP3 ADD SWAP1 POP DUP1 DUP3 GT ISZERO PUSH2 0x3C3 JUMPI PUSH2 0x3C2 PUSH2 0x339 JUMP JUMPDEST JUMPDEST SWAP3 SWAP2 POP POP JUMP JUMPDEST PUSH2 0x1137 DUP1 PUSH2 0x3D6 PUSH0 CODECOPY PUSH0 RETURN INVALID PUSH1 0x80 PUSH1 0x40 MSTORE PUSH1 0x4 CALLDATASIZE LT PUSH2 0x129 JUMPI PUSH0 CALLDATALOAD PUSH1 0xE0 SHR DUP1 PUSH4 0x6C88268B GT PUSH2 0xAA JUMPI DUP1 PUSH4 0xC23EAF07 GT PUSH2 0x6E JUMPI DUP1 PUSH4 0xC23EAF07 EQ PUSH2 0x3B6 JUMPI DUP1 PUSH4 0xCDE8E5D3 EQ PUSH2 0x3DE JUMPI DUP1 PUSH4 0xCFF29DFD EQ PUSH2 0x408 JUMPI DUP1 PUSH4 0xE35568CB EQ PUSH2 0x444 JUMPI DUP1 PUSH4 0xF0F44260 EQ PUSH2 0x46E JUMPI DUP1 PUSH4 0xF2FDE38B EQ PUSH2 0x496 JUMPI PUSH2 0x129 JUMP JUMPDEST DUP1 PUSH4 0x6C88268B EQ PUSH2 0x2E6 JUMPI DUP1 PUSH4 0x715018A6 EQ PUSH2 0x310 JUMPI DUP1 PUSH4 0x78E97925 EQ PUSH2 0x326 JUMPI DUP1 PUSH4 0x8DA5CB5B EQ PUSH2 0x350 JUMPI DUP1 PUSH4 0xA2FB1175 EQ PUSH2 0x37A JUMPI PUSH2 0x129 JUMP JUMPDEST DUP1 PUSH4 0x3BBAC579 GT PUSH2 0xF1 JUMPI DUP1 PUSH4 0x3BBAC579 EQ PUSH2 0x1FD JUMPI DUP1 PUSH4 0x585AC3E8 EQ PUSH2 0x239 JUMPI DUP1 PUSH4 0x6156FE6A EQ PUSH2 0x263 JUMPI DUP1 PUSH4 0x61D027B3 EQ PUSH2 0x27F JUMPI DUP1 PUSH4 0x62EA82DB EQ PUSH2 0x2A9 JUMPI PUSH2 0x129 JUMP JUMPDEST DUP1 PUSH4 0x12AEF8C3 EQ PUSH2 0x12D JUMPI DUP1 PUSH4 0x18160DDD EQ PUSH2 0x157 JUMPI DUP1 PUSH4 0x3197CBB6 EQ PUSH2 0x181 JUMPI DUP1 PUSH4 0x36BDEE74 EQ PUSH2 0x1AB JUMPI DUP1 PUSH4 0x39783304 EQ PUSH2 0x1D5 JUMPI JUMPDEST PUSH0 DUP1 REVERT JUMPDEST CALLVALUE DUP1 ISZERO PUSH2 0x138 JUMPI PUSH0 DUP1 REVERT JUMPDEST POP PUSH2 0x141 PUSH2 0x4BE JUMP JUMPDEST PUSH1 0x40 MLOAD PUSH2 0x14E SWAP2 SWAP1 PUSH2 0xB92 JUMP JUMPDEST PUSH1 0x40 MLOAD DUP1 SWAP2 SUB SWAP1 RETURN JUMPDEST CALLVALUE DUP1 ISZERO PUSH2 0x162 JUMPI PUSH0 DUP1 REVERT JUMPDEST POP PUSH2 0x16B PUSH2 0x4C4 JUMP JUMPDEST PUSH1 0x40 MLOAD PUSH2 0x178 SWAP2 SWAP1 PUSH2 0xB92 JUMP JUMPDEST PUSH1 0x40 MLOAD DUP1 SWAP2 SUB SWAP1 RETURN JUMPDEST CALLVALUE DUP1 ISZERO PUSH2 0x18C JUMPI PUSH0 DUP1 REVERT JUMPDEST POP PUSH2 0x195 PUSH2 0x4CA JUMP JUMPDEST PUSH1 0x40 MLOAD PUSH2 0x1A2 SWAP2 SWAP1 PUSH2 0xB92 JUMP JUMPDEST PUSH1 0x40 MLOAD DUP1 SWAP2 SUB SWAP1 RETURN JUMPDEST CALLVALUE DUP1 ISZERO PUSH2 0x1B6 JUMPI PUSH0 DUP1 REVERT JUMPDEST POP PUSH2 0x1BF PUSH2 0x4D0 JUMP JUMPDEST PUSH1 0x40 MLOAD PUSH2 0x1CC SWAP2 SWAP1 PUSH2 0xB92 JUMP JUMPDEST PUSH1 0x40 MLOAD DUP1 SWAP2 SUB SWAP1 RETURN JUMPDEST CALLVALUE DUP1 ISZERO PUSH2 0x1E0 JUMPI PUSH0 DUP1 REVERT JUMPDEST POP PUSH2 0x1FB PUSH1 0x4 DUP1 CALLDATASIZE SUB DUP2 ADD SWAP1 PUSH2 0x1F6 SWAP2 SWAP1 PUSH2 0xBE5 JUMP JUMPDEST PUSH2 0x4D6 JUMP JUMPDEST STOP JUMPDEST CALLVALUE DUP1 ISZERO PUSH2 0x208 JUMPI PUSH0 DUP1 REVERT JUMPDEST POP PUSH2 0x223 PUSH1 0x4 DUP1 CALLDATASIZE SUB DUP2 ADD SWAP1 PUSH2 0x21E SWAP2 SWAP1 PUSH2 0xC6A JUMP JUMPDEST PUSH2 0x54F JUMP JUMPDEST PUSH1 0x40 MLOAD PUSH2 0x230 SWAP2 SWAP1 PUSH2 0xCAF JUMP JUMPDEST PUSH1 0x40 MLOAD DUP1 SWAP2 SUB SWAP1 RETURN JUMPDEST CALLVALUE DUP1 ISZERO PUSH2 0x244 JUMPI PUSH0 DUP1 REVERT JUMPDEST POP PUSH2 0x24D PUSH2 0x56C JUMP JUMPDEST PUSH1 0x40 MLOAD PUSH2 0x25A SWAP2 SWAP1 PUSH2 0xCAF JUMP JUMPDEST PUSH1 0x40 MLOAD DUP1 SWAP2 SUB SWAP1 RETURN JUMPDEST PUSH2 0x27D PUSH1 0x4 DUP1 CALLDATASIZE SUB DUP2 ADD SWAP1 PUSH2 0x278 SWAP2 SWAP1 PUSH2 0xBE5 JUMP JUMPDEST PUSH2 0x57F JUMP JUMPDEST STOP JUMPDEST CALLVALUE DUP1 ISZERO PUSH2 0x28A JUMPI PUSH0 DUP1 REVERT JUMPDEST POP PUSH2 0x293 PUSH2 0x795 JUMP JUMPDEST PUSH1 0x40 MLOAD PUSH2 0x2A0 SWAP2 SWAP1 PUSH2 0xCD7 JUMP JUMPDEST PUSH1 0x40 MLOAD DUP1 SWAP2 SUB SWAP1 RETURN JUMPDEST CALLVALUE DUP1 ISZERO PUSH2 0x2B4 JUMPI PUSH0 DUP1 REVERT JUMPDEST POP PUSH2 0x2CF PUSH1 0x4 DUP1 CALLDATASIZE SUB DUP2 ADD SWAP1 PUSH2 0x2CA SWAP2 SWAP1 PUSH2 0xC6A JUMP JUMPDEST PUSH2 0x7BA JUMP JUMPDEST PUSH1 0x40 MLOAD PUSH2 0x2DD SWAP3 SWAP2 SWAP1 PUSH2 0xCF0 JUMP JUMPDEST PUSH1 0x40 MLOAD DUP1 SWAP2 SUB SWAP1 RETURN JUMPDEST CALLVALUE DUP1 ISZERO PUSH2 0x2F1 JUMPI PUSH0 DUP1 REVERT JUMPDEST POP PUSH2 0x2FA PUSH2 0x7E6 JUMP JUMPDEST PUSH1 0x40 MLOAD PUSH2 0x307 SWAP2 SWAP1 PUSH2 0xCD7 JUMP JUMPDEST PUSH1 0x40 MLOAD DUP1 SWAP2 SUB SWAP1 RETURN JUMPDEST CALLVALUE DUP1 ISZERO PUSH2 0x31B JUMPI PUSH0 DUP1 REVERT JUMPDEST POP PUSH2 0x324 PUSH2 0x80B JUMP JUMPDEST STOP JUMPDEST CALLVALUE DUP1 ISZERO PUSH2 0x331 JUMPI PUSH0 DUP1 REVERT JUMPDEST POP PUSH2 0x33A PUSH2 0x81E JUMP JUMPDEST PUSH1 0x40 MLOAD PUSH2 0x347 SWAP2 SWAP1 PUSH2 0xB92 JUMP JUMPDEST PUSH1 0x40 MLOAD DUP1 SWAP2 SUB SWAP1 RETURN JUMPDEST CALLVALUE DUP1 ISZERO PUSH2 0x35B JUMPI PUSH0 DUP1 REVERT JUMPDEST POP PUSH2 0x364 PUSH2 0x824 JUMP JUMPDEST PUSH1 0x40 MLOAD PUSH2 0x371 SWAP2 SWAP1 PUSH2 0xCD7 JUMP JUMPDEST PUSH1 0x40 MLOAD DUP1 SWAP2 SUB SWAP1 RETURN JUMPDEST CALLVALUE DUP1 ISZERO PUSH2 0x385 JUMPI PUSH0 DUP1 REVERT JUMPDEST POP PUSH2 0x3A0 PUSH1 0x4 DUP1 CALLDATASIZE SUB DUP2 ADD SWAP1 PUSH2 0x39B SWAP2 SWAP1 PUSH2 0xD41 JUMP JUMPDEST PUSH2 0x84B JUMP JUMPDEST PUSH1 0x40 MLOAD PUSH2 0x3AD SWAP2 SWAP1 PUSH2 0xCD7 JUMP JUMPDEST PUSH1 0x40 MLOAD DUP1 SWAP2 SUB SWAP1 RETURN JUMPDEST CALLVALUE DUP1 ISZERO PUSH2 0x3C1 JUMPI PUSH0 DUP1 REVERT JUMPDEST POP PUSH2 0x3DC PUSH1 0x4 DUP1 CALLDATASIZE SUB DUP2 ADD SWAP1 PUSH2 0x3D7 SWAP2 SWAP1 PUSH2 0xC6A JUMP JUMPDEST PUSH2 0x886 JUMP JUMPDEST STOP JUMPDEST CALLVALUE DUP1 ISZERO PUSH2 0x3E9 JUMPI PUSH0 DUP1 REVERT JUMPDEST POP PUSH2 0x3F2 PUSH2 0x912 JUMP JUMPDEST PUSH1 0x40 MLOAD PUSH2 0x3FF SWAP2 SWAP1 PUSH2 0xB92 JUMP JUMPDEST PUSH1 0x40 MLOAD DUP1 SWAP2 SUB SWAP1 RETURN JUMPDEST CALLVALUE DUP1 ISZERO PUSH2 0x413 JUMPI PUSH0 DUP1 REVERT JUMPDEST POP PUSH2 0x42E PUSH1 0x4 DUP1 CALLDATASIZE SUB DUP2 ADD SWAP1 PUSH2 0x429 SWAP2 SWAP1 PUSH2 0xD41 JUMP JUMPDEST PUSH2 0x918 JUMP JUMPDEST PUSH1 0x40 MLOAD PUSH2 0x43B SWAP2 SWAP1 PUSH2 0xCD7 JUMP JUMPDEST PUSH1 0x40 MLOAD DUP1 SWAP2 SUB SWAP1 RETURN JUMPDEST CALLVALUE DUP1 ISZERO PUSH2 0x44F JUMPI PUSH0 DUP1 REVERT JUMPDEST POP PUSH2 0x458 PUSH2 0x953 JUMP JUMPDEST PUSH1 0x40 MLOAD PUSH2 0x465 SWAP2 SWAP1 PUSH2 0xB92 JUMP JUMPDEST PUSH1 0x40 MLOAD DUP1 SWAP2 SUB SWAP1 RETURN JUMPDEST CALLVALUE DUP1 ISZERO PUSH2 0x479 JUMPI PUSH0 DUP1 REVERT JUMPDEST POP PUSH2 0x494 PUSH1 0x4 DUP1 CALLDATASIZE SUB DUP2 ADD SWAP1 PUSH2 0x48F SWAP2 SWAP1 PUSH2 0xC6A JUMP JUMPDEST PUSH2 0x95C JUMP JUMPDEST STOP JUMPDEST CALLVALUE DUP1 ISZERO PUSH2 0x4A1 JUMPI PUSH0 DUP1 REVERT JUMPDEST POP PUSH2 0x4BC PUSH1 0x4 DUP1 CALLDATASIZE SUB DUP2 ADD SWAP1 PUSH2 0x4B7 SWAP2 SWAP1 PUSH2 0xC6A JUMP JUMPDEST PUSH2 0x9A7 JUMP JUMPDEST STOP JUMPDEST PUSH1 0x2 SLOAD DUP2 JUMP JUMPDEST PUSH1 0x1 SLOAD DUP2 JUMP JUMPDEST PUSH1 0x6 SLOAD DUP2 JUMP JUMPDEST PUSH1 0x4 SLOAD DUP2 JUMP JUMPDEST PUSH2 0x4DE PUSH2 0xA2B JUMP JUMPDEST PUSH0 DUP2 PUSH1 0xFF AND GT DUP1 ISZERO PUSH2 0x4F3 JUMPI POP PUSH1 0x64 DUP2 PUSH1 0xFF AND LT JUMPDEST PUSH2 0x4FB JUMPI PUSH0 DUP1 REVERT JUMPDEST PUSH0 PUSH1 0x1 SLOAD PUSH1 0x64 DUP4 PUSH2 0x50C SWAP2 SWAP1 PUSH2 0xDC6 JUMP JUMPDEST PUSH1 0xFF AND PUSH2 0x519 SWAP2 SWAP1 PUSH2 0xDF6 JUMP JUMPDEST SWAP1 POP DUP1 PUSH1 0x1 PUSH0 DUP3 DUP3 SLOAD PUSH2 0x52C SWAP2 SWAP1 PUSH2 0xE37 JUMP JUMPDEST SWAP3 POP POP DUP2 SWAP1 SSTORE POP DUP1 PUSH1 0x2 PUSH0 DUP3 DUP3 SLOAD PUSH2 0x544 SWAP2 SWAP1 PUSH2 0xE6A JUMP JUMPDEST SWAP3 POP POP DUP2 SWAP1 SSTORE POP POP POP JUMP JUMPDEST PUSH1 0xB PUSH1 0x20 MSTORE DUP1 PUSH0 MSTORE PUSH1 0x40 PUSH0 KECCAK256 PUSH0 SWAP2 POP SLOAD SWAP1 PUSH2 0x100 EXP SWAP1 DIV PUSH1 0xFF AND DUP2 JUMP JUMPDEST PUSH1 0xC PUSH1 0x14 SWAP1 SLOAD SWAP1 PUSH2 0x100 EXP SWAP1 DIV PUSH1 0xFF AND DUP2 JUMP JUMPDEST PUSH1 0x2 SLOAD DUP2 PUSH1 0xFF AND LT PUSH2 0x5C6 JUMPI PUSH1 0x40 MLOAD PUSH32 0x8C379A000000000000000000000000000000000000000000000000000000000 DUP2 MSTORE PUSH1 0x4 ADD PUSH2 0x5BD SWAP1 PUSH2 0xF1D JUMP JUMPDEST PUSH1 0x40 MLOAD DUP1 SWAP2 SUB SWAP1 REVERT JUMPDEST PUSH8 0xDE0B6B3A7640000 CALLVALUE GT PUSH2 0x610 JUMPI PUSH1 0x40 MLOAD PUSH32 0x8C379A000000000000000000000000000000000000000000000000000000000 DUP2 MSTORE PUSH1 0x4 ADD PUSH2 0x607 SWAP1 PUSH2 0xFAB JUMP JUMPDEST PUSH1 0x40 MLOAD DUP1 SWAP2 SUB SWAP1 REVERT JUMPDEST PUSH1 0x6 SLOAD TIMESTAMP LT PUSH2 0x654 JUMPI PUSH1 0x40 MLOAD PUSH32 0x8C379A000000000000000000000000000000000000000000000000000000000 DUP2 MSTORE PUSH1 0x4 ADD PUSH2 0x64B SWAP1 PUSH2 0x1013 JUMP JUMPDEST PUSH1 0x40 MLOAD DUP1 SWAP2 SUB SWAP1 REVERT JUMPDEST PUSH0 CALLVALUE GT PUSH2 0x696 JUMPI PUSH1 0x40 MLOAD PUSH32 0x8C379A000000000000000000000000000000000000000000000000000000000 DUP2 MSTORE PUSH1 0x4 ADD PUSH2 0x68D SWAP1 PUSH2 0x107B JUMP JUMPDEST PUSH1 0x40 MLOAD DUP1 SWAP2 SUB SWAP1 REVERT JUMPDEST PUSH0 PUSH1 0x7 PUSH0 CALLER PUSH20 0xFFFFFFFFFFFFFFFFFFFFFFFFFFFFFFFFFFFFFFFF AND PUSH20 0xFFFFFFFFFFFFFFFFFFFFFFFFFFFFFFFFFFFFFFFF AND DUP2 MSTORE PUSH1 0x20 ADD SWAP1 DUP2 MSTORE PUSH1 0x20 ADD PUSH0 KECCAK256 PUSH0 ADD SLOAD SUB PUSH2 0x73D JUMPI PUSH1 0x8 CALLER SWAP1 DUP1 PUSH1 0x1 DUP2 SLOAD ADD DUP1 DUP3 SSTORE DUP1 SWAP2 POP POP PUSH1 0x1 SWAP1 SUB SWAP1 PUSH0 MSTORE PUSH1 0x20 PUSH0 KECCAK256 ADD PUSH0 SWAP1 SWAP2 SWAP1 SWAP2 SWAP1 SWAP2 PUSH2 0x100 EXP DUP2 SLOAD DUP2 PUSH20 0xFFFFFFFFFFFFFFFFFFFFFFFFFFFFFFFFFFFFFFFF MUL NOT AND SWAP1 DUP4 PUSH20 0xFFFFFFFFFFFFFFFFFFFFFFFFFFFFFFFFFFFFFFFF AND MUL OR SWAP1 SSTORE POP JUMPDEST CALLVALUE PUSH1 0x7 PUSH0 CALLER PUSH20 0xFFFFFFFFFFFFFFFFFFFFFFFFFFFFFFFFFFFFFFFF AND PUSH20 0xFFFFFFFFFFFFFFFFFFFFFFFFFFFFFFFFFFFFFFFF AND DUP2 MSTORE PUSH1 0x20 ADD SWAP1 DUP2 MSTORE PUSH1 0x20 ADD PUSH0 KECCAK256 PUSH0 ADD PUSH0 DUP3 DUP3 SLOAD PUSH2 0x78B SWAP2 SWAP1 PUSH2 0xE6A JUMP JUMPDEST SWAP3 POP POP DUP2 SWAP1 SSTORE POP POP JUMP JUMPDEST PUSH1 0x3 PUSH0 SWAP1 SLOAD SWAP1 PUSH2 0x100 EXP SWAP1 DIV PUSH20 0xFFFFFFFFFFFFFFFFFFFFFFFFFFFFFFFFFFFFFFFF AND DUP2 JUMP JUMPDEST PUSH1 0x7 PUSH1 0x20 MSTORE DUP1 PUSH0 MSTORE PUSH1 0x40 PUSH0 KECCAK256 PUSH0 SWAP2 POP SWAP1 POP DUP1 PUSH0 ADD SLOAD SWAP1 DUP1 PUSH1 0x1 ADD PUSH0 SWAP1 SLOAD SWAP1 PUSH2 0x100 EXP SWAP1 DIV PUSH1 0xFF AND SWAP1 POP DUP3 JUMP JUMPDEST PUSH1 0xC PUSH0 SWAP1 SLOAD SWAP1 PUSH2 0x100 EXP SWAP1 DIV PUSH20 0xFFFFFFFFFFFFFFFFFFFFFFFFFFFFFFFFFFFFFFFF AND DUP2 JUMP JUMPDEST PUSH2 0x813 PUSH2 0xA2B JUMP JUMPDEST PUSH2 0x81C PUSH0 PUSH2 0xAB2 JUMP JUMPDEST JUMP JUMPDEST PUSH1 0x5 SLOAD DUP2 JUMP JUMPDEST PUSH0 DUP1 PUSH0 SWAP1 SLOAD SWAP1 PUSH2 0x100 EXP SWAP1 DIV PUSH20 0xFFFFFFFFFFFFFFFFFFFFFFFFFFFFFFFFFFFFFFFF AND SWAP1 POP SWAP1 JUMP JUMPDEST PUSH1 0xA DUP2 DUP2 SLOAD DUP2 LT PUSH2 0x85A JUMPI PUSH0 DUP1 REVERT JUMPDEST SWAP1 PUSH0 MSTORE PUSH1 0x20 PUSH0 KECCAK256 ADD PUSH0 SWAP2 POP SLOAD SWAP1 PUSH2 0x100 EXP SWAP1 DIV PUSH20 0xFFFFFFFFFFFFFFFFFFFFFFFFFFFFFFFFFFFFFFFF AND DUP2 JUMP JUMPDEST PUSH1 0xB PUSH0 DUP3 PUSH20 0xFFFFFFFFFFFFFFFFFFFFFFFFFFFFFFFFFFFFFFFF AND PUSH20 0xFFFFFFFFFFFFFFFFFFFFFFFFFFFFFFFFFFFFFFFF AND DUP2 MSTORE PUSH1 0x20 ADD SWAP1 DUP2 MSTORE PUSH1 0x20 ADD PUSH0 KECCAK256 PUSH0 SWAP1 SLOAD SWAP1 PUSH2 0x100 EXP SWAP1 DIV PUSH1 0xFF AND PUSH2 0x90F JUMPI PUSH1 0x40 MLOAD PUSH32 0x8C379A000000000000000000000000000000000000000000000000000000000 DUP2 MSTORE PUSH1 0x4 ADD PUSH2 0x906 SWAP1 PUSH2 0x10E3 JUMP JUMPDEST PUSH1 0x40 MLOAD DUP1 SWAP2 SUB SWAP1 REVERT JUMPDEST POP JUMP JUMPDEST PUSH1 0x9 SLOAD DUP2 JUMP JUMPDEST PUSH1 0x8 DUP2 DUP2 SLOAD DUP2 LT PUSH2 0x927 JUMPI PUSH0 DUP1 REVERT JUMPDEST SWAP1 PUSH0 MSTORE PUSH1 0x20 PUSH0 KECCAK256 ADD PUSH0 SWAP2 POP SLOAD SWAP1 PUSH2 0x100 EXP SWAP1 DIV PUSH20 0xFFFFFFFFFFFFFFFFFFFFFFFFFFFFFFFFFFFFFFFF AND DUP2 JUMP JUMPDEST PUSH0 PUSH1 0x2 SLOAD SWAP1 POP SWAP1 JUMP JUMPDEST PUSH2 0x964 PUSH2 0xA2B JUMP JUMPDEST DUP1 PUSH1 0x3 PUSH0 PUSH2 0x100 EXP DUP2 SLOAD DUP2 PUSH20 0xFFFFFFFFFFFFFFFFFFFFFFFFFFFFFFFFFFFFFFFF MUL NOT AND SWAP1 DUP4 PUSH20 0xFFFFFFFFFFFFFFFFFFFFFFFFFFFFFFFFFFFFFFFF AND MUL OR SWAP1 SSTORE POP POP JUMP JUMPDEST PUSH2 0x9AF PUSH2 0xA2B JUMP JUMPDEST PUSH0 PUSH20 0xFFFFFFFFFFFFFFFFFFFFFFFFFFFFFFFFFFFFFFFF AND DUP2 PUSH20 0xFFFFFFFFFFFFFFFFFFFFFFFFFFFFFFFFFFFFFFFF AND SUB PUSH2 0xA1F JUMPI PUSH0 PUSH1 0x40 MLOAD PUSH32 0x1E4FBDF700000000000000000000000000000000000000000000000000000000 DUP2 MSTORE PUSH1 0x4 ADD PUSH2 0xA16 SWAP2 SWAP1 PUSH2 0xCD7 JUMP JUMPDEST PUSH1 0x40 MLOAD DUP1 SWAP2 SUB SWAP1 REVERT JUMPDEST PUSH2 0xA28 DUP2 PUSH2 0xAB2 JUMP JUMPDEST POP JUMP JUMPDEST PUSH2 0xA33 PUSH2 0xB73 JUMP JUMPDEST PUSH20 0xFFFFFFFFFFFFFFFFFFFFFFFFFFFFFFFFFFFFFFFF AND PUSH2 0xA51 PUSH2 0x824 JUMP JUMPDEST PUSH20 0xFFFFFFFFFFFFFFFFFFFFFFFFFFFFFFFFFFFFFFFF AND EQ PUSH2 0xAB0 JUMPI PUSH2 0xA74 PUSH2 0xB73 JUMP JUMPDEST PUSH1 0x40 MLOAD PUSH32 0x118CDAA700000000000000000000000000000000000000000000000000000000 DUP2 MSTORE PUSH1 0x4 ADD PUSH2 0xAA7 SWAP2 SWAP1 PUSH2 0xCD7 JUMP JUMPDEST PUSH1 0x40 MLOAD DUP1 SWAP2 SUB SWAP1 REVERT JUMPDEST JUMP JUMPDEST PUSH0 DUP1 PUSH0 SWAP1 SLOAD SWAP1 PUSH2 0x100 EXP SWAP1 DIV PUSH20 0xFFFFFFFFFFFFFFFFFFFFFFFFFFFFFFFFFFFFFFFF AND SWAP1 POP DUP2 PUSH0 DUP1 PUSH2 0x100 EXP DUP2 SLOAD DUP2 PUSH20 0xFFFFFFFFFFFFFFFFFFFFFFFFFFFFFFFFFFFFFFFF MUL NOT AND SWAP1 DUP4 PUSH20 0xFFFFFFFFFFFFFFFFFFFFFFFFFFFFFFFFFFFFFFFF AND MUL OR SWAP1 SSTORE POP DUP2 PUSH20 0xFFFFFFFFFFFFFFFFFFFFFFFFFFFFFFFFFFFFFFFF AND DUP2 PUSH20 0xFFFFFFFFFFFFFFFFFFFFFFFFFFFFFFFFFFFFFFFF AND PUSH32 0x8BE0079C531659141344CD1FD0A4F28419497F9722A3DAAFE3B4186F6B6457E0 PUSH1 0x40 MLOAD PUSH1 0x40 MLOAD DUP1 SWAP2 SUB SWAP1 LOG3 POP POP JUMP JUMPDEST PUSH0 CALLER SWAP1 POP SWAP1 JUMP JUMPDEST PUSH0 DUP2 SWAP1 POP SWAP2 SWAP1 POP JUMP JUMPDEST PUSH2 0xB8C DUP2 PUSH2 0xB7A JUMP JUMPDEST DUP3 MSTORE POP POP JUMP JUMPDEST PUSH0 PUSH1 0x20 DUP3 ADD SWAP1 POP PUSH2 0xBA5 PUSH0 DUP4 ADD DUP5 PUSH2 0xB83 JUMP JUMPDEST SWAP3 SWAP2 POP POP JUMP JUMPDEST PUSH0 DUP1 REVERT JUMPDEST PUSH0 PUSH1 0xFF DUP3 AND SWAP1 POP SWAP2 SWAP1 POP JUMP JUMPDEST PUSH2 0xBC4 DUP2 PUSH2 0xBAF JUMP JUMPDEST DUP2 EQ PUSH2 0xBCE JUMPI PUSH0 DUP1 REVERT JUMPDEST POP JUMP JUMPDEST PUSH0 DUP2 CALLDATALOAD SWAP1 POP PUSH2 0xBDF DUP2 PUSH2 0xBBB JUMP JUMPDEST SWAP3 SWAP2 POP POP JUMP JUMPDEST PUSH0 PUSH1 0x20 DUP3 DUP5 SUB SLT ISZERO PUSH2 0xBFA JUMPI PUSH2 0xBF9 PUSH2 0xBAB JUMP JUMPDEST JUMPDEST PUSH0 PUSH2 0xC07 DUP5 DUP3 DUP6 ADD PUSH2 0xBD1 JUMP JUMPDEST SWAP2 POP POP SWAP3 SWAP2 POP POP JUMP JUMPDEST PUSH0 PUSH20 0xFFFFFFFFFFFFFFFFFFFFFFFFFFFFFFFFFFFFFFFF DUP3 AND SWAP1 POP SWAP2 SWAP1 POP JUMP JUMPDEST PUSH0 PUSH2 0xC39 DUP3 PUSH2 0xC10 JUMP JUMPDEST SWAP1 POP SWAP2 SWAP1 POP JUMP JUMPDEST PUSH2 0xC49 DUP2 PUSH2 0xC2F JUMP JUMPDEST DUP2 EQ PUSH2 0xC53 JUMPI PUSH0 DUP1 REVERT JUMPDEST POP JUMP JUMPDEST PUSH0 DUP2 CALLDATALOAD SWAP1 POP PUSH2 0xC64 DUP2 PUSH2 0xC40 JUMP JUMPDEST SWAP3 SWAP2 POP POP JUMP JUMPDEST PUSH0 PUSH1 0x20 DUP3 DUP5 SUB SLT ISZERO PUSH2 0xC7F JUMPI PUSH2 0xC7E PUSH2 0xBAB JUMP JUMPDEST JUMPDEST PUSH0 PUSH2 0xC8C DUP5 DUP3 DUP6 ADD PUSH2 0xC56 JUMP JUMPDEST SWAP2 POP POP SWAP3 SWAP2 POP POP JUMP JUMPDEST PUSH0 DUP2 ISZERO ISZERO SWAP1 POP SWAP2 SWAP1 POP JUMP JUMPDEST PUSH2 0xCA9 DUP2 PUSH2 0xC95 JUMP JUMPDEST DUP3 MSTORE POP POP JUMP JUMPDEST PUSH0 PUSH1 0x20 DUP3 ADD SWAP1 POP PUSH2 0xCC2 PUSH0 DUP4 ADD DUP5 PUSH2 0xCA0 JUMP JUMPDEST SWAP3 SWAP2 POP POP JUMP JUMPDEST PUSH2 0xCD1 DUP2 PUSH2 0xC2F JUMP JUMPDEST DUP3 MSTORE POP POP JUMP JUMPDEST PUSH0 PUSH1 0x20 DUP3 ADD SWAP1 POP PUSH2 0xCEA PUSH0 DUP4 ADD DUP5 PUSH2 0xCC8 JUMP JUMPDEST SWAP3 SWAP2 POP POP JUMP JUMPDEST PUSH0 PUSH1 0x40 DUP3 ADD SWAP1 POP PUSH2 0xD03 PUSH0 DUP4 ADD DUP6 PUSH2 0xB83 JUMP JUMPDEST PUSH2 0xD10 PUSH1 0x20 DUP4 ADD DUP5 PUSH2 0xCA0 JUMP JUMPDEST SWAP4 SWAP3 POP POP POP JUMP JUMPDEST PUSH2 0xD20 DUP2 PUSH2 0xB7A JUMP JUMPDEST DUP2 EQ PUSH2 0xD2A JUMPI PUSH0 DUP1 REVERT JUMPDEST POP JUMP JUMPDEST PUSH0 DUP2 CALLDATALOAD SWAP1 POP PUSH2 0xD3B DUP2 PUSH2 0xD17 JUMP JUMPDEST SWAP3 SWAP2 POP POP JUMP JUMPDEST PUSH0 PUSH1 0x20 DUP3 DUP5 SUB SLT ISZERO PUSH2 0xD56 JUMPI PUSH2 0xD55 PUSH2 0xBAB JUMP JUMPDEST JUMPDEST PUSH0 PUSH2 0xD63 DUP5 DUP3 DUP6 ADD PUSH2 0xD2D JUMP JUMPDEST SWAP2 POP POP SWAP3 SWAP2 POP POP JUMP JUMPDEST PUSH32 0x4E487B7100000000000000000000000000000000000000000000000000000000 PUSH0 MSTORE PUSH1 0x12 PUSH1 0x4 MSTORE PUSH1 0x24 PUSH0 REVERT JUMPDEST PUSH32 0x4E487B7100000000000000000000000000000000000000000000000000000000 PUSH0 MSTORE PUSH1 0x11 PUSH1 0x4 MSTORE PUSH1 0x24 PUSH0 REVERT JUMPDEST PUSH0 PUSH2 0xDD0 DUP3 PUSH2 0xBAF JUMP JUMPDEST SWAP2 POP PUSH2 0xDDB DUP4 PUSH2 0xBAF JUMP JUMPDEST SWAP3 POP DUP3 PUSH2 0xDEB JUMPI PUSH2 0xDEA PUSH2 0xD6C JUMP JUMPDEST JUMPDEST DUP3 DUP3 DIV SWAP1 POP SWAP3 SWAP2 POP POP JUMP JUMPDEST PUSH0 PUSH2 0xE00 DUP3 PUSH2 0xB7A JUMP JUMPDEST SWAP2 POP PUSH2 0xE0B DUP4 PUSH2 0xB7A JUMP JUMPDEST SWAP3 POP DUP3 DUP3 MUL PUSH2 0xE19 DUP2 PUSH2 0xB7A JUMP JUMPDEST SWAP2 POP DUP3 DUP3 DIV DUP5 EQ DUP4 ISZERO OR PUSH2 0xE30 JUMPI PUSH2 0xE2F PUSH2 0xD99 JUMP JUMPDEST JUMPDEST POP SWAP3 SWAP2 POP POP JUMP JUMPDEST PUSH0 PUSH2 0xE41 DUP3 PUSH2 0xB7A JUMP JUMPDEST SWAP2 POP PUSH2 0xE4C DUP4 PUSH2 0xB7A JUMP JUMPDEST SWAP3 POP DUP3 DUP3 SUB SWAP1 POP DUP2 DUP2 GT ISZERO PUSH2 0xE64 JUMPI PUSH2 0xE63 PUSH2 0xD99 JUMP JUMPDEST JUMPDEST SWAP3 SWAP2 POP POP JUMP JUMPDEST PUSH0 PUSH2 0xE74 DUP3 PUSH2 0xB7A JUMP JUMPDEST SWAP2 POP PUSH2 0xE7F DUP4 PUSH2 0xB7A JUMP JUMPDEST SWAP3 POP DUP3 DUP3 ADD SWAP1 POP DUP1 DUP3 GT ISZERO PUSH2 0xE97 JUMPI PUSH2 0xE96 PUSH2 0xD99 JUMP JUMPDEST JUMPDEST SWAP3 SWAP2 POP POP JUMP JUMPDEST PUSH0 DUP3 DUP3 MSTORE PUSH1 0x20 DUP3 ADD SWAP1 POP SWAP3 SWAP2 POP POP JUMP JUMPDEST PUSH32 0x42696420616D6F756E742069732067726561746572207468616E20617661696C PUSH0 DUP3 ADD MSTORE PUSH32 0x61626C65206E756D626572206F6620746F6B656E7320666F722073616C652E00 PUSH1 0x20 DUP3 ADD MSTORE POP JUMP JUMPDEST PUSH0 PUSH2 0xF07 PUSH1 0x3F DUP4 PUSH2 0xE9D JUMP JUMPDEST SWAP2 POP PUSH2 0xF12 DUP3 PUSH2 0xEAD JUMP JUMPDEST PUSH1 0x40 DUP3 ADD SWAP1 POP SWAP2 SWAP1 POP JUMP JUMPDEST PUSH0 PUSH1 0x20 DUP3 ADD SWAP1 POP DUP2 DUP2 SUB PUSH0 DUP4 ADD MSTORE PUSH2 0xF34 DUP2 PUSH2 0xEFB JUMP JUMPDEST SWAP1 POP SWAP2 SWAP1 POP JUMP JUMPDEST PUSH32 0x596F75206861766520746F20706C616365206120626964206F66203120455448 PUSH0 DUP3 ADD MSTORE PUSH32 0x206D696E696D756D000000000000000000000000000000000000000000000000 PUSH1 0x20 DUP3 ADD MSTORE POP JUMP JUMPDEST PUSH0 PUSH2 0xF95 PUSH1 0x28 DUP4 PUSH2 0xE9D JUMP JUMPDEST SWAP2 POP PUSH2 0xFA0 DUP3 PUSH2 0xF3B JUMP JUMPDEST PUSH1 0x40 DUP3 ADD SWAP1 POP SWAP2 SWAP1 POP JUMP JUMPDEST PUSH0 PUSH1 0x20 DUP3 ADD SWAP1 POP DUP2 DUP2 SUB PUSH0 DUP4 ADD MSTORE PUSH2 0xFC2 DUP2 PUSH2 0xF89 JUMP JUMPDEST SWAP1 POP SWAP2 SWAP1 POP JUMP JUMPDEST PUSH32 0x49434F2068617320656E64656400000000000000000000000000000000000000 PUSH0 DUP3 ADD MSTORE POP JUMP JUMPDEST PUSH0 PUSH2 0xFFD PUSH1 0xD DUP4 PUSH2 0xE9D JUMP JUMPDEST SWAP2 POP PUSH2 0x1008 DUP3 PUSH2 0xFC9 JUMP JUMPDEST PUSH1 0x20 DUP3 ADD SWAP1 POP SWAP2 SWAP1 POP JUMP JUMPDEST PUSH0 PUSH1 0x20 DUP3 ADD SWAP1 POP DUP2 DUP2 SUB PUSH0 DUP4 ADD MSTORE PUSH2 0x102A DUP2 PUSH2 0xFF1 JUMP JUMPDEST SWAP1 POP SWAP2 SWAP1 POP JUMP JUMPDEST PUSH32 0x426964206D7573742062652067726561746572207468616E2030000000000000 PUSH0 DUP3 ADD MSTORE POP JUMP JUMPDEST PUSH0 PUSH2 0x1065 PUSH1 0x1A DUP4 PUSH2 0xE9D JUMP JUMPDEST SWAP2 POP PUSH2 0x1070 DUP3 PUSH2 0x1031 JUMP JUMPDEST PUSH1 0x20 DUP3 ADD SWAP1 POP SWAP2 SWAP1 POP JUMP JUMPDEST PUSH0 PUSH1 0x20 DUP3 ADD SWAP1 POP DUP2 DUP2 SUB PUSH0 DUP4 ADD MSTORE PUSH2 0x1092 DUP2 PUSH2 0x1059 JUMP JUMPDEST SWAP1 POP SWAP2 SWAP1 POP JUMP JUMPDEST PUSH32 0x4E6F7420666C6167676564206173206120626F74000000000000000000000000 PUSH0 DUP3 ADD MSTORE POP JUMP JUMPDEST PUSH0 PUSH2 0x10CD PUSH1 0x14 DUP4 PUSH2 0xE9D JUMP JUMPDEST SWAP2 POP PUSH2 0x10D8 DUP3 PUSH2 0x1099 JUMP JUMPDEST PUSH1 0x20 DUP3 ADD SWAP1 POP SWAP2 SWAP1 POP JUMP JUMPDEST PUSH0 PUSH1 0x20 DUP3 ADD SWAP1 POP DUP2 DUP2 SUB PUSH0 DUP4 ADD MSTORE PUSH2 0x10FA DUP2 PUSH2 0x10C1 JUMP JUMPDEST SWAP1 POP SWAP2 SWAP1 POP JUMP INVALID LOG2 PUSH5 0x6970667358 0x22 SLT KECCAK256 SWAP16 EXTCODECOPY SELFBALANCE SMOD SHL PUSH29 0xB86ED8E2105B2C54C0EB13157B67ABA92A189AD860994DDBE05E64736F PUSH13 0x634300081A0033000000000000 "
				},
				"gasEstimates": {
					"creation": {
						"codeDepositCost": "881400",
						"executionCost": "infinite",
						"totalCost": "infinite"
					},
					"external": {
						"allocateTokensForSale(uint8)": "infinite",
						"bidders(uint256)": "5010",
						"bids(address)": "5178",
						"botRedirectContract()": "2531",
						"endTime()": "2493",
						"getAvailableTokens()": "2520",
						"icoEnded()": "2562",
						"isBot(address)": "2856",
						"maxWinners()": "2469",
						"owner()": "2604",
						"placeBid(uint8)": "infinite",
						"redirectToFakeNFT(address)": "2993",
						"renounceOwnership()": "infinite",
						"setTreasury(address)": "infinite",
						"startTime()": "2492",
						"tokensForSale()": "2449",
						"totalETH()": "2515",
						"totalSupply()": "2471",
						"transferOwnership(address)": "infinite",
						"treasury()": "2597",
						"winners(uint256)": "5055"
					},
					"internal": {
						"checkForBotActivity(address)": "infinite",
						"detectBot(address)": "infinite"
					}
				},
				"methodIdentifiers": {
					"allocateTokensForSale(uint8)": "39783304",
					"bidders(uint256)": "cff29dfd",
					"bids(address)": "62ea82db",
					"botRedirectContract()": "6c88268b",
					"endTime()": "3197cbb6",
					"getAvailableTokens()": "e35568cb",
					"icoEnded()": "585ac3e8",
					"isBot(address)": "3bbac579",
					"maxWinners()": "cde8e5d3",
					"owner()": "8da5cb5b",
					"placeBid(uint8)": "6156fe6a",
					"redirectToFakeNFT(address)": "c23eaf07",
					"renounceOwnership()": "715018a6",
					"setTreasury(address)": "f0f44260",
					"startTime()": "78e97925",
					"tokensForSale()": "12aef8c3",
					"totalETH()": "36bdee74",
					"totalSupply()": "18160ddd",
					"transferOwnership(address)": "f2fde38b",
					"treasury()": "61d027b3",
					"winners(uint256)": "a2fb1175"
				}
			},
			"storageLayout": {
				"storage": [
					{
						"astId": 8,
						"contract": "contracts/ico.sol:InitialCoinOffering",
						"label": "_owner",
						"offset": 0,
						"slot": "0",
						"type": "t_address"
					},
					{
						"astId": 189,
						"contract": "contracts/ico.sol:InitialCoinOffering",
						"label": "totalSupply",
						"offset": 0,
						"slot": "1",
						"type": "t_uint256"
					},
					{
						"astId": 191,
						"contract": "contracts/ico.sol:InitialCoinOffering",
						"label": "tokensForSale",
						"offset": 0,
						"slot": "2",
						"type": "t_uint256"
					},
					{
						"astId": 193,
						"contract": "contracts/ico.sol:InitialCoinOffering",
						"label": "treasury",
						"offset": 0,
						"slot": "3",
						"type": "t_address"
					},
					{
						"astId": 195,
						"contract": "contracts/ico.sol:InitialCoinOffering",
						"label": "totalETH",
						"offset": 0,
						"slot": "4",
						"type": "t_uint256"
					},
					{
						"astId": 197,
						"contract": "contracts/ico.sol:InitialCoinOffering",
						"label": "startTime",
						"offset": 0,
						"slot": "5",
						"type": "t_uint256"
					},
					{
						"astId": 199,
						"contract": "contracts/ico.sol:InitialCoinOffering",
						"label": "endTime",
						"offset": 0,
						"slot": "6",
						"type": "t_uint256"
					},
					{
						"astId": 204,
						"contract": "contracts/ico.sol:InitialCoinOffering",
						"label": "bids",
						"offset": 0,
						"slot": "7",
						"type": "t_mapping(t_address,t_struct(Bid)185_storage)"
					},
					{
						"astId": 207,
						"contract": "contracts/ico.sol:InitialCoinOffering",
						"label": "bidders",
						"offset": 0,
						"slot": "8",
						"type": "t_array(t_address)dyn_storage"
					},
					{
						"astId": 210,
						"contract": "contracts/ico.sol:InitialCoinOffering",
						"label": "maxWinners",
						"offset": 0,
						"slot": "9",
						"type": "t_uint256"
					},
					{
						"astId": 213,
						"contract": "contracts/ico.sol:InitialCoinOffering",
						"label": "winners",
						"offset": 0,
						"slot": "10",
						"type": "t_array(t_address)dyn_storage"
					},
					{
						"astId": 217,
						"contract": "contracts/ico.sol:InitialCoinOffering",
						"label": "isBot",
						"offset": 0,
						"slot": "11",
						"type": "t_mapping(t_address,t_bool)"
					},
					{
						"astId": 219,
						"contract": "contracts/ico.sol:InitialCoinOffering",
						"label": "botRedirectContract",
						"offset": 0,
						"slot": "12",
						"type": "t_address"
					},
					{
						"astId": 221,
						"contract": "contracts/ico.sol:InitialCoinOffering",
						"label": "icoEnded",
						"offset": 20,
						"slot": "12",
						"type": "t_bool"
					}
				],
				"types": {
					"t_address": {
						"encoding": "inplace",
						"label": "address",
						"numberOfBytes": "20"
					},
					"t_array(t_address)dyn_storage": {
						"base": "t_address",
						"encoding": "dynamic_array",
						"label": "address[]",
						"numberOfBytes": "32"
					},
					"t_bool": {
						"encoding": "inplace",
						"label": "bool",
						"numberOfBytes": "1"
					},
					"t_mapping(t_address,t_bool)": {
						"encoding": "mapping",
						"key": "t_address",
						"label": "mapping(address => bool)",
						"numberOfBytes": "32",
						"value": "t_bool"
					},
					"t_mapping(t_address,t_struct(Bid)185_storage)": {
						"encoding": "mapping",
						"key": "t_address",
						"label": "mapping(address => struct Bid)",
						"numberOfBytes": "32",
						"value": "t_struct(Bid)185_storage"
					},
					"t_struct(Bid)185_storage": {
						"encoding": "inplace",
						"label": "struct Bid",
						"members": [
							{
								"astId": 182,
								"contract": "contracts/ico.sol:InitialCoinOffering",
								"label": "amount",
								"offset": 0,
								"slot": "0",
								"type": "t_uint256"
							},
							{
								"astId": 184,
								"contract": "contracts/ico.sol:InitialCoinOffering",
								"label": "isWinner",
								"offset": 0,
								"slot": "1",
								"type": "t_bool"
							}
						],
						"numberOfBytes": "64"
					},
					"t_uint256": {
						"encoding": "inplace",
						"label": "uint256",
						"numberOfBytes": "32"
					}
				}
			},
			"userdoc": {
				"kind": "user",
				"methods": {},
				"version": 1
			}
		}
	}
}